:100000000C94B1000C9410010C94CE000C94CE0012
:100010000C94CE000C94CE000C94CE000C94850170
:100020000C94CE000C94CE000C94CE000C94CE0018
:100030000C94CE000C94D0000C94CE000C94CE0006
:100040000C94CE000C94CE000C94CE000C94CE00F8
:100050000C94CE000C94CE000C94CE000C94CE00E8
:100060000C94CE000C94CE0000407A10F35A00A0FD
:10007000724E18090010A5D4E80000E87648170071
:1000800000E40B54020000CA9A3B000000E1F505B1
:10009000000080969800000040420F000000A086FB
:1000A00001000000102700000000E803000000002D
:1000B0006400000000000A000000000001000000D1
:1000C00000002C76D888DC674F0823DFC1DFAE59EB
:1000D000E1B1B796E5E3E453C63AE651997696E87E
:1000E000E6C28426EB898C9B62ED407C6FFCEFBC02
:1000F0009C9F40F2BAA56FA5F490055A2AF75C932D
:100100006B6CF9676DC11BFCE0E40D47FEF520E662
:10011000B500D0ED902E0300943577050080841E45
:10012000080000204E0A000000C80C333333330FA0
:10013000986E12831141EF8D2114893BE65516CF3D
:10014000FEE6DB18D1844B381BF77C1D901DA4BB49
:10015000E424203284725E228100C9F124ECA1E5FE
:100160003D2711241FBECFEFD8E0DEBFCDBF11E089
:10017000A0E0B1E0ECE7F1E102C005900D92AE33F2
:10018000B107D9F711E0AEE3B1E001C01D92A73786
:10019000B107E1F70E9490030C94BC080C94000096
:1001A0001F920F920FB60F9211242F933F934F93EC
:1001B0005F936F937F938F939F93AF93BF93EF93CF
:1001C000FF93CF93DF93CDB7DEB7F89488E290E04A
:1001D00028E230E0F90120812062FC0120838AE0DE
:1001E00090E00E942B0588E290E028E230E0F901DF
:1001F00020812F7DFC0120837894DF91CF91FF91A6
:10020000EF91BF91AF919F918F917F916F915F918E
:100210004F913F912F910F900FBE0F901F90189507
:100220001F920F920FB60F9211242F933F934F936B
:100230005F936F937F938F939F93AF93BF93EF934E
:10024000FF93CF93DF9300D000D0CDB7DEB7F89403
:100250001C821B8284E890E0FC01808191819A835A
:10026000898389819A819C838B838091730190918A
:10027000740121E08930910508F420E00196909303
:10028000740180937301222339F081E0809343014C
:10029000109274011092730188E290E028E230E03D
:1002A000F90120812061FC0120838AE090E00E9416
:1002B0002B0588E290E028E230E0F90120812F7ED2
:1002C000FC0120838B819C81809175019091760146
:1002D0008B819C819093760180937501789424960C
:1002E000DEBFCDBFDF91CF91FF91EF91BF91AF9175
:1002F0009F918F917F916F915F914F913F912F913E
:100300000F900FBE0F901F9018951F920F920FB66F
:100310000F9211242F933F934F935F936F937F938B
:100320008F939F93AF93BF93EF93FF93CF93DF93FD
:10033000CDB7DEB72897DEBFCDBFF8941E821D82F1
:1003400080915D0190915E01029690935E01809391
:100350005D010E94B0049E838D838091360190914F
:1003600037019C018D819E8182179307C8F480918B
:1003700040019091410125E030E0B9010E94BD05A6
:100380009B01C901880F991F820F931F9C018091C7
:100390005D0190915E012817390710F481E001C0DA
:1003A00080E08823A1F080913801909139019C016F
:1003B00041E08D819E818217930708F040E044233D
:1003C00031F08D819E819093390180933801809125
:1003D0003601909137019C018D819E812817390744
:1003E00060F480913A0190913B019C018D819E8146
:1003F0002817390710F481E001C080E0882331F02C
:100400008D819E8190933B0180933A0180915D01A3
:1004100090915E0121E08B3F910508F420E02223BA
:1004200009F4E8C080913601909137019C018D81DB
:100430009E812817390708F5809146018823E9F441
:10044000809140019091410125E030E0B9010E9486
:10045000BD059B01C901880F991F820F931F9C0145
:1004600080915D0190915E012817390730F48091E9
:100470000001882311F481E001C080E0882309F4A1
:10048000AFC082E091E00E947C0581E0809346014C
:1004900088E290E028E230E0F90120812062FC014E
:1004A000208380915D0190915E0190934101809342
:1004B000400110925E0110925D019091010181E076
:1004C000992309F480E0882301F1109201011A8236
:1004D000198212C0209140013091410189819A8195
:1004E000880F991F815A9E4FFC0131832083898197
:1004F0009A8101969A83898321E089819A81893042
:1005000091050CF020E0222329F718861F821C8217
:100510001B8228C08B819C810196880F991F815A6C
:100520009E4FFC01208131818B819C81880F991F16
:10053000815A9E4FFC01318320838B819C81880FDF
:10054000991F815A9E4FFC01808191819C018F816E
:100550009885820F931F98878F838B819C8101964A
:100560009C838B8321E08B819C81893091050CF0E9
:1005700020E0222379F680914001909141019093EF
:1005800072018093710180917101909172019C01BF
:100590008F819885820F931F98878F838F8198858D
:1005A0002AE030E0B9010E94A9059B01C9019887A2
:1005B0008F838F8198859C0140E050E080E69AEE21
:1005C000A0E0B0E0BC01CD010E94D005DA01C90174
:1005D00090933F0180933E0181E0809342010AC0E5
:1005E0009091000181E0992309F480E0882311F0C3
:1005F0001092000180913601909137019C018D810C
:100600009E818217930730F480914601882311F070
:1006100081E001C080E0882309F43FC088E290E0D7
:1006200028E230E0F90120812F7DFC012083109227
:10063000460120913A0130913B018091380190911F
:100640003901A901481B590BCA0190933D018093C0
:100650003C0180913C0190913D0199230CF401965D
:10066000959587959C018091380190913901820F71
:10067000931F9093370180933601809136019091BA
:10068000370190933B0180933A018091360190911C
:100690003701909339018093380180915D019091E9
:1006A0005E0121E05EE48032950708F420E0222319
:1006B00001F189E091E00E947C0580E092E0909356
:1006C00037018093360180E092E090933B01809364
:1006D0003A0180E092E0909339018093380181E003
:1006E0008093000181E08093010110925E011092DD
:1006F0005D0178942896DEBFCDBFDF91CF91FF9149
:10070000EF91BF91AF919F918F917F916F915F9189
:100710004F913F912F910F900FBE0F901F90189502
:100720000F931F93CF93DF93CDB7DEB7A0970FB68C
:10073000F894DEBF0FBECDBF0E94050483E390E0B6
:100740000E94240483E191E00E947C0584EF91E003
:100750000E942B050E949104789401C000009091A2
:10076000420181E0992309F480E0882359F1F8944B
:100770008CE191E00E947C051092420180913E0143
:1007800090913F019E012B5F3F4FB9014AE050E03D
:100790000E942F0680914001909141019E01215FAE
:1007A0003F4FB9014AE050E00E942F061E868EE2BC
:1007B0008D878AE291E00E947C05CE0105960E9419
:1007C0007C0578949091430181E0992309F480E0BD
:1007D000882321F289819A81AB81BC81FE017996BF
:1007E000BC01CD0145E022E08F010E940D068EE2A2
:1007F0008F8F18A28FE291E00E947C05CE0149966E
:100800000E947C0510924301A9CFCF93DF93CDB70F
:10081000DEB784E290E0FC01108287E290E0FC0108
:1008200010828AE290E0FC01108285E290E0FC01F7
:10083000108288E290E0FC0110828BE290E0FC01E3
:100840001082DF91CF910895CF93DF9300D0CDB781
:10085000DEB79A83898384EC90E02981FC012083B0
:1008600085EC90E025EC30E0F901408129813A8166
:10087000232F3327242BFC01208381EC90E028E1F7
:10088000FC01208382EC90E026E0FC01208384E6DA
:1008900090E024E630E0F9012081246AFC01208305
:1008A0008AE790E02AE730E0F90120812368FC0123
:1008B00020838CE790E02CE730E0F901208122646E
:1008C000FC01208381E890E021E830E0F9012081FB
:1008D0002460FC01208386E390E021E0FC0120837A
:1008E00084E890E0FC011182108289E690E023E028
:1008F000FC01208387E290E027E230E0F9012081CB
:100900002063FC01208388E290E028E230E0F901D6
:1009100020812F7CFC0120830F900F90DF91CF91DD
:100920000895CF93DF93CDB7DEB780EB90E022E060
:10093000FC01208381EB90E025E0FC01208383EB28
:1009400090E02CE7FC01208382EB90E0FC01108218
:1009500080E790E022E0FC012083DF91CF910895B1
:10096000CF93DF93CDB7DEB72E970FB6F894DEBFE7
:100970000FBECDBF1C821B821A8219821CC08AE75F
:1009800090E02AE730E0F90120812064FC01208317
:100990008AE790E0FC018081882F90E0807490705D
:1009A00021E0009709F420E0222391F789819A81C0
:1009B00001969A83898321E089819A818230910509
:1009C0000CF020E02223D9F688E790E0FC0180813A
:1009D000882F90E09C838B8389E790E0FC018081E5
:1009E000882F90E0982F88279C018B819C81822BF7
:1009F000932B9C838B8380915B0190915C0121E020
:100A0000833391050CF420E0019690935C01809370
:100A10005B012223A9F08B819C819E012B5F3F4FBC
:100A2000B9014AE050E00E942F068DE28D871E86B4
:100A3000CE0105960E947C0510925C0110925B012C
:100A40008B819C812E960FB6F894DEBF0FBECDBF72
:100A5000DF91CF910895CF93DF9300D000D0CDB731
:100A6000DEB79C838B831A82198218C01A8219827E
:100A700006C0000089819A8101969A8389838981C1
:100A80009A8121E031E0803993070CF020E02223A5
:100A900081F78B819C8101979C838B838B819C81C7
:100AA00021E0181619060CF020E02223F9F60F9029
:100AB0000F900F900F90DF91CF910895CF93DF9318
:100AC0000F92CDB7DEB78983000080EC90E0FC0187
:100AD0008081882F90E08072907021E0009709F06B
:100AE00020E0222391F786EC90E02981FC0120830D
:100AF0000F90DF91CF910895CF93DF9300D00F92A5
:100B0000CDB7DEB79B838A8319820EC08981882F77
:100B100090E02A813B81820F931FFC0180819981A3
:100B20009F5F99830E945E058981882F90E02A81CA
:100B30003B81820F931FFC01908181E0992309F48E
:100B400080E0882319F70F900F900F90DF91CF91DD
:100B50000895AA1BBB1B51E107C0AA1FBB1FA61704
:100B6000B70710F0A61BB70B881F991F5A95A9F756
:100B700080959095BC01CD01089597FB092E07261D
:100B80000AD077FD04D0E5DF06D000201AF4709576
:100B900061957F4F0895F6F7909581959F4F089541
:100BA00097FB092E05260ED057FD04D014D00AD08D
:100BB000001C38F450954095309521953F4F4F4F8C
:100BC0005F4F0895F6F790958095709561957F4FEA
:100BD0008F4F9F4F0895A1E21A2EAA1BBB1BFD0148
:100BE0000DC0AA1FBB1FEE1FFF1FA217B307E4070C
:100BF000F50720F0A21BB30BE40BF50B661F771F64
:100C0000881F991F1A9469F7609570958095909543
:100C10009B01AC01BD01CF010895EF920F931F938B
:100C2000CF93322FC02F47FF02C0A4E101C0A4E040
:100C3000E42FFF27E7FDF095F7FF03C0F095E1955E
:100C4000FF4F4C2F512F2E2F032FEA2E0E944506C7
:100C50008C2F912FCF911F910F91EF900895FB0151
:100C60009F01423074F0453264F4642F77270E946C
:100C7000A905805D8A330CF0895D8193CB010097D3
:100C8000A1F71082C9010C947508A9E0B0E0EBE46B
:100C9000F6E00C9489086A01122FF02E2BE320173E
:100CA00018F0B02EB39402C03CE3B32EAE014F5FF8
:100CB0005F4F27E00B2D0E949D07BC01A981B0E08A
:100CC000CD01897090708130910531F0E1FC06C052
:100CD000E0FE06C040E205C04DE203C04BE201C0A9
:100CE00040E0A3FF36C0442311F084E001C083E05C
:100CF000811710F4181B01C010E0E4FC0BC0912F09
:100D0000F60180E202C0819391509923E1F7C10E70
:100D1000D11C10E0442319F0F60141936F01E2FE6B
:100D200005C08EE4F601808391E404C08EE6F601EE
:100D3000808391E69183828383E090E0C80ED91E80
:100D4000812FF60190E202C0919381508823E1F750
:100D50003AC0A2FF3FC0442311F084E001C083E009
:100D6000811710F4181B01C010E0E4FC0BC0912F98
:100D7000F60180E202C0819391509923E1F7C10E00
:100D8000D11C10E0442319F0F60141936F01E2FEFB
:100D900007C089E4F60180838EE4818386E406C07F
:100DA00089E6F60180838EE6818386E6828383E08E
:100DB00090E0C80ED91E812FF60190E202C09193F7
:100DC00081508823E1F7C10ED11CF60110828EEF0D
:100DD0009FEFAFC021E030E0442311F420E030E089
:100DE000161617061CF4CB01019602C081E090E0B4
:100DF000280F391FFF2021F08F2D90E0019602C0AF
:100E000080E090E0820F931F212F30E0821793073C
:100E10001CF4512F581B01C050E08E2D90E09C0116
:100E200020713070E4FC0DC0E3FC0BC0852FF6018F
:100E300090E202C0919381508823E1F7C50ED11C46
:100E400050E0442319F0F60141936F01211531055B
:100E500059F4852FF60190E302C0919381508823C5
:100E6000E1F7C50ED11C50E0B60E4A8120E1622E9A
:100E7000712C6A227B22A4FF03C0413309F4BA9487
:100E80001B142CF48B2D893018F088E001C081E010
:100E90009B0177FF02C020E030E0A0E0B0E09EE2DE
:100EA000E92E4B01881A9108CB01821B930B8E010E
:100EB0000F5F1F4F080F191F8F2D90E0AA24BB242E
:100EC000A81AB90AFFEF2F3F3F0719F4F601E19284
:100ED0006F016217730744F0821693062CF4F80131
:100EE000EA0FFB1F818101C080E321503040119641
:100EF0002A153B0524F0F60181936F01E3CF2617F5
:100F0000370741F4463328F4453321F46114710462
:100F100009F481E3F6018193852FDF0190E202C09D
:100F20009D9381508823E1F7E50FF11D108280E049
:100F300090E02996EEE00C94A508283008F027E010
:100F40003327DA01990F311D87FD91600096610505
:100F5000710539F432602E5F3D9330E32A95E1F755
:100F600008959F3F30F080387105610509F03C5FBE
:100F70003C5F3D93913008F08068911DDF93CF93E3
:100F80001F930F93FF92EF92192F987F9695E92F59
:100F900096959695E90FFF27EE53FF4F9927332734
:100FA000EE24FF24A701E70105900894079428F494
:100FB000360FE71EF81E491F511D660F771F881F49
:100FC000991F0694A1F70590079428F4E70EF81EE0
:100FD000491F561FC11D770F881F991F661F069452
:100FE000A1F70590079428F4F80E491F561FC71F54
:100FF000D11D880F991F661F771F0694A1F70590D2
:10100000079420F4490F561FC71FD81F990F661F5A
:10101000771F881F0694A9F784911095177041F0E7
:10102000D695C79557954795F794E7941A95C1F7C4
:10103000E8E6F0E0689415901591359165919591E9
:1010400005907FE27395E118F10A430B560BC90B2B
:10105000D009C0F7E10CF11E431F561FC91FD01D58
:101060007EF4703311F48A95E6CFE894015030F0A5
:10107000080F0AF40027021708F4202F2395022FE7
:101080007A3328F079E37D932A95E9F710C07D93B0
:101090002A9589F60694979567953795179517942D
:1010A000E118F10A430B560BC90BD00998F02395B0
:1010B0007E9173957A3308F070E37C932013B8F730
:1010C0007E9170617D9330F0839571E37D9370E341
:1010D0002A95E1F71124EF90FF900F911F91CF9186
:1010E000DF91992787FD90950895DC01FC01672F1A
:1010F00071917723E1F7329704C07C916D937083EF
:101100006291AE17BF07C8F308952F923F924F9296
:101110005F926F927F928F929F92AF92BF92CF9287
:10112000DF92EF92FF920F931F93CF93DF93CDB790
:10113000DEB7CA1BDB0B0FB6F894DEBF0FBECDBF08
:1011400009942A88398848885F846E847D848C84D9
:101150009B84AA84B984C884DF80EE80FD800C81E2
:101160001B81AA81B981CE0FD11D0FB6F894DEBFC5
:0C1170000FBECDBFED010895F894FFCF35
:10117C0001012D424541542D002D54494D454F55EB
:10118C00542D0048656C6C6F2E2E2E0050726F63C0
:10119C00657373696E672E2E2E0042504D3A0053C4
:0E11AC00706565643A000002000200026400F3
:00000001FF
