S00F000048525F544553542E73726563DC
S11300000C9434000C9451000C9451000C94510045
S11300100C9451000C9451000C9451000C94530016
S11300200C9451000C9451000C9451000C94510008
S11300300C9451000C9451000C9451000C945100F8
S11300400C9451000C9451000C9451000C945100E8
S11300500C9451000C9451000C9451000C945100D8
S11300600C9451000C94510011241FBECFEFD8E022
S1130070DEBFCDBF11E0A0E0B1E0EEEBF9E002C0DD
S113008005900D92A431B107D9F711E0A4E1B1E0D4
S113009001C01D92A633B107E1F70E9484020C94BB
S11300A0DD040C9400001F920F920FB60F921124DE
S11300B02F933F934F935F936F937F938F939F936C
S11300C0AF93BF93EF93FF93CF93DF93CDB7DEB797
S11300D02A97DEBFCDBF18861F820E944A039887E5
S11300E08F838091190190911A01A0911B01B09105
S11300F01C010296A11DB11D8093190190931A0150
S1130100A0931B01B0931C018091190190911A01D5
S1130110A0911B01B0911C019C0180911D01909143
S11301201E01A0911F01B0912001A901481B590B88
S1130130CA019A87898780910A0190910B019C01D9
S11301408F81988582179307B0F48091160190915E
S1130150170125E030E0B9010E945C049B01C9014C
S1130160880F991F280F391F89859A852817390701
S113017014F481E001C080E08823A1F080910C0197
S113018090910D019C0141E08F819885821793071E
S113019008F040E0442331F08F81988590930D015D
S11301A080930C0180910A0190910B019C018F8135
S11301B098852817390760F480910E0190910F01FA
S11301C09C018F8198852817390710F481E001C0BC
S11301D080E0882331F08F81988590930F0180937C
S11301E00E0189859A858B3F91050CF4F6C08091A8
S11301F00A0190910B019C018F819885281739077A
S1130200D0F4809121018823B1F48091160190915A
S1130210170125E030E0B9010E945C049B01C9018B
S1130220880F991F280F391F89859A852817390740
S113023014F481E001C080E08823A9F181E0809377
S1130240210188E290E028E230E0F9012081206277
S1130250FC0120838091190190911A01A0911B0146
S1130260B0911C019C0180911D0190911E01A091EF
S11302701F01B0912001A901481B590BCA01909399
S11302801701809316018091190190911A01A09190
S11302901B01B0911C0180931D0190931E01A0933A
S11302A01F01B09320019091100181E0992309F47A
S11302B080E0882319F01092100110C1909111016F
S11302C081E0992309F480E0882301F1109211015F
S11302D01A82198212C02091160130911701898166
S11302E09A81880F991F8E5D9E4FFC013183208374
S11302F089819A8101969A83898321E089819A81EF
S11303008A3091050CF020E0222329F71C821B82FD
S11303101E821D8227C08D819E810196880F991FA0
S11303208E5D9E4FFC01208131818D819E81880FDD
S1130330991F8E5D9E4FFC01318320838D819E81A8
S1130340880F991F8E5D9E4FFC01808191812B81C6
S11303503C81820F931F9C838B838D819E810196A8
S11303609E838D8321E08D819E81893091050CF0DF
S113037020E0222381F68091160190911701909339
S113038035018093340180913401909135012B81A2
S11303903C81820F931F9C838B838B819C812AE0F9
S11303A030E0B9010E9448049B013C832B838B817C
S11303B09C819C0140E050E080E69AEEA0E0B0E031
S11303C0BC01CD010E946F04DA01C90190931501AB
S11303D08093140181E08093180180910A01909127
S11303E00B019C018F8198858217930730F48091CB
S11303F02101882311F081E001C080E0882309F401
S11304003FC088E290E028E230E0F90120812F7DAE
S1130410FC0120831092210120910E0130910F01E3
S113042080910C0190910D01A901481B590BCA013F
S11304309093130180931201809112019091130102
S113044099230CF40196959587959C0180910C0154
S113045090910D01820F931F90930B0180930A01D9
S113046080910A0190910B0190930F0180930E01EA
S113047080910A0190910B0190930D0180930C01DE
S113048089859A8559E0853C950744F180E092E09E
S113049090930B0180930A0180E092E090930F0106
S11304A080930E0180E092E090930D0180930C0103
S11304B081E08093100181E0809311018091190102
S11304C090911A01A0911B01B0911C0180931D0110
S11304D090931E01A0931F01B09320012A96DEBFC2
S11304E0CDBFDF91CF91FF91EF91BF91AF919F91DC
S11304F08F917F916F915F914F913F912F910F90C9
S11305000FBE0F901F901895CF93DF93CDB7DEB732
S113051064970FB6F894DEBF0FBECDBF0E94D3021E
S113052083E390E00E94F20201C000009091180160
S113053081E0992309F480E08823B9F3109218012B
S113054080911401909115019E012F5F3F4FB901D5
S11305504AE050E00E94AC0480911601909117018A
S11305609E01255F3F4FB9014AE050E00E94AC0470
S11305701A868EE2898780E091E00E941B04CE01F6
S113058001960E941B041C8A8EE28B8B85E091E00D
S11305900E941B04CE010B960E941B0484E190E090
S11305A00E94CA03C2CFCF93DF93CDB7DEB784E2F4
S11305B090E0FC01108287E290E0FC0110828AE264
S11305C090E0FC01108285E290E0FC01108288E258
S11305D090E0FC0110828BE290E0FC011082DF913C
S11305E0CF910895CF93DF9300D0CDB7DEB79A8330
S11305F0898384EC90E02981FC01208385EC90E0E0
S113060025EC30E0F901408129813A81232F3327F9
S1130610242BFC01208381EC90E028E1FC01208361
S113062082EC90E026E0FC01208384E690E024E65E
S113063030E0F90120812D6AFC01208380EB90E0F9
S113064022E0FC01208381EB90E025E0FC01208383
S113065083EB90E02CE7FC01208380E790E022E02C
S1130660FC01208387E290E027E230E0F901208159
S11306702062FC01208388E290E028E230E0F90166
S113068020812F7DFC01208378940F900F90DF91BF
S1130690CF910895CF93DF9300D000D0CDB7DEB7CC
S11306A01C821B8284E690E024E630E0F90120817C
S11306B02E7FFC0120838CE790E02CE730E0F901E9
S11306C020812068FC0120838EE790E02AE3FC016E
S11306D020831A8219821CC08AE790E02AE730E05E
S11306E0F90120812064FC0120838AE790E0FC0169
S11306F08081882F90E08074907021E0009709F445
S113070020E0222391F789819A8101969A83898333
S113071021E089819A81823091050CF020E0222326
S1130720D9F688E790E0FC018081882F90E09C83D3
S11307308B8389E790E0FC018081882F90E0982FDB
S113074088272B813C81822B932B9C838B838EE780
S113075090E02EE730E0F90120812160FC01208344
S113076084E690E024E630E0F90120812160FC0178
S113077020838CE790E0FC0110828AE790E0FC0182
S113078010828B819C810F900F900F900F90DF91BE
S1130790CF910895CF93DF9300D000D0CDB7DEB7CB
S11307A09C838B831A82198218C01A82198206C00C
S11307B0000089819A8101969A83898389819A812B
S11307C021E031E0803993070CF020E0222381F707
S11307D08B819C8101979C838B8321E08B819C81FD
S11307E0181619060CF020E02223F9F60F900F904A
S11307F00F900F90DF91CF910895CF93DF930F92D5
S1130800CDB7DEB78983000080EC90E0FC018081E5
S1130810882F90E08072907021E0009709F020E02A
S1130820222391F786EC90E02981FC0120830F902C
S1130830DF91CF910895CF93DF9300D00F92CDB77E
S1130840DEB79B838A8319820EC08981882F90E04A
S11308502A813B81820F931FFC01808199819F5FD4
S113086099830E94FD038981882F90E02A813B812E
S1130870820F931FFC01908181E0992309F480E0A9
S1130880882319F70F900F900F90DF91CF9108955F
S1130890AA1BBB1B51E107C0AA1FBB1FA617B707A2
S11308A010F0A61BB70B881F991F5A95A9F78095BE
S11308B09095BC01CD01089597FB092E07260AD017
S11308C077FD04D0E5DF06D000201AF47095619519
S11308D07F4F0895F6F7909581959F4F089597FB64
S11308E0092E05260ED057FD04D014D00AD0001CC2
S11308F038F450954095309521953F4F4F4F5F4FB9
S11309000895F6F790958095709561957F4F8F4F78
S11309109F4F0895A1E21A2EAA1BBB1BFD010DC017
S1130920AA1FBB1FEE1FFF1FA217B307E407F5079B
S113093020F0A21BB30BE40BF50B661F771F881F77
S1130940991F1A9469F760957095809590959B010D
S1130950AC01BD01CF010895FB019F01E894423031
S1130960C4F04532B4F44A3029F497FB1EF4909550
S113097081959F4F642F77270E944804805D8A33B6
S11309800CF0895D8193CB010097A1F716F45DE229
S113099051931082C9010C94CD04DC01FC01672F32
S11309A071917723E1F7329704C07C916D93708342
S11109B06291AE17BF07C8F30895F894FFCF05
S11309BE42504D3A004942493A00000200020002F8
S10709CE01016400BB
S9030000FC
