:100000000C94B2000C94F30A0C94DA000C94DA000D
:100010000C94DA000C94DA000C94DA000C94DA00F8
:100020000C94DA000C94DA000C94DA000C94DA00E8
:100030000C94DA000C94930A0C94790B0C94DA006B
:100040000C94DA000C94DA000C94DA000C94DA00C8
:100050000C94DA000C94DA000C94DA000C94DA00B8
:100060000C94DA000C94DA0000407A10F35A00A0E5
:10007000724E18090010A5D4E80000E87648170071
:1000800000E40B54020000CA9A3B000000E1F505B1
:10009000000080969800000040420F000000A086FB
:1000A00001000000102700000000E803000000002D
:1000B0006400000000000A000000000001000000D1
:1000C00000002C76D888DC674F0823DFC1DFAE59EB
:1000D000E1B1B796E5E3E453C63AE651997696E87E
:1000E000E6C28426EB898C9B62ED407C6FFCEFBC02
:1000F0009C9F40F2BAA56FA5F490055A2AF75C932D
:100100006B6CF9676DC11BFCE0E40D47FEF520E662
:10011000B500D0ED902E0300943577050080841E45
:10012000080000204E0A000000C80C333333330FA0
:10013000986E12831141EF8D2114893BE65516CF3D
:10014000FEE6DB18D1844B381BF77C1D901DA4BB49
:10015000E424203284725E228100C9F124ECA1E5FE
:100160003D27970D11241FBECFEFD8E0DEBFCDBFD6
:1001700011E0A0E0B1E0EAE5F4E202C005900D92E2
:10018000A632B107D9F712E0A6E2B1E001C01D9294
:10019000A83BB107E1F711E0C4E6D1E004C0229723
:1001A000FE010E94780FC236D107C9F70E94CE0B1C
:1001B0000C942B120C940000CF93DF9300D0CDB79A
:1001C000DEB79A83898329813A8182E396EFA5EB92
:1001D000BAE3F90184879587A687B78789819A81D1
:1001E0000E94F7000F900F90DF91CF910895CF9369
:1001F000DF9300D000D0CDB7DEB79C838B838B819B
:100200009C8121E0FC0120AB8B819C81FC0111AA27
:100210002B813C8180E090E0DC01F90180839183B7
:10022000A283B3832B813C8180E090E0DC01F90163
:1002300084839583A683B7832B813C8180E090E003
:10024000DC01F90180879187A287B3872B813C81EC
:1002500080E090E0DC01F901808B918BA28BB38B65
:100260008B819C81FC0117A616A68B819C81FC01C9
:10027000158A148A8B819C81FC01178A168A8B81CE
:100280009C81FC01118E108E1A82198211C0898105
:100290009A812B813C810D96880F991F820F931FA5
:1002A000FC011182108289819A8101969A83898347
:1002B00089819A8121E08A3091050CF020E0222387
:1002C00031F70F900F900F900F90DF91CF9108951D
:1002D000CF93DF9300D000D000D0CDB7DEB79A83A4
:1002E00089834B835C836D837E8329813A818B81F3
:1002F0009C81AD81BE81F90184879587A687B787E8
:1003000089819A810E94F70026960FB6F894DEBF85
:100310000FBECDBFDF91CF9108950F931F93CF9361
:10032000DF93CDB7DEB72A970FB6F894DEBF0FBEC6
:10033000CDBF9A8389834B835C836D837E833887AB
:100340002F831A87098729813A818B819C81AD810E
:10035000BE81F90184879587A687B78789819A81AD
:100360002F813885FC01358B248B89819A812985E1
:100370003A85FC01378B268B89819A810E94F70090
:100380002A960FB6F894DEBF0FBECDBFDF91CF9196
:100390001F910F9108958F929F92AF92BF92CF922B
:1003A000DF92EF92FF920F931F93CF93DF93CDB71E
:1003B000DEB762970FB6F894DEBF0FBECDBF9A834B
:1003C00089834B835C836D837E830F8318872987A2
:1003D0003A87CB86DC86ED86FE868F86988AA98A48
:1003E000BA8A29813A818B819C81AD81BE81F901D4
:1003F00080839183A283B38329813A818F819885F9
:10040000A985BA85F90184839583A683B783298159
:100410003A818B859C85AD85BE85F9018087918762
:10042000A287B38729813A818F859889A989BA895A
:10043000F90184879587A687B78789819A8129A141
:100440003AA1FC0137A726A789819A812BA13CA15B
:10045000FC01318F208F89819A812DA13EA1FC0161
:10046000358B248B89819A812FA138A5FC01378B8C
:10047000268B89819A8121E0FC0120AB62960FB620
:10048000F894DEBF0FBECDBFDF91CF911F910F91CA
:10049000FF90EF90DF90CF90BF90AF909F908F90A4
:1004A0000895CF93DF93CDB7DEB728970FB6F894B2
:1004B000DEBF0FBECDBF9E838D8378876F838D8116
:1004C0009E81FC0180A9882331F48D819E81FC01ED
:1004D00081A9882341F11A82198213C089819A81E6
:1004E0002D813E810D96880F991F820F931F2F81BA
:1004F0003885FC013183208389819A8101969A8312
:10050000898389819A8121E08A3091050CF020E06D
:10051000222321F78D819E81FC0110AA8D819E816D
:10052000FC0111AA33C01C821B8220C08B819C81DC
:100530002B813C812F5F3F4F4D815E81235F3F4F79
:10054000220F331F240F351FF901208131814D8186
:100550005E810D96880F991F840F951FFC013183D2
:1005600020838B819C8101969C838B838B819C81D2
:1005700021E0893091050CF020E02223B9F68D812D
:100580009E812F813885FC0135A724A78D819E810E
:10059000FC0186A597A59C012F5F3F4F8D819E8111
:1005A000FC0137A726A78D819E81FC01848195815E
:1005B000A681B7812D813E81F90124853585468547
:1005C0005785BC01CD010E94A50DDC01CB012D8119
:1005D0003E81F90184839583A683B7838D819E81B3
:1005E0000E945C0328960FB6F894DEBF0FBECDBF05
:1005F000DF91CF910895CF93DF9300D000D0CDB796
:10060000DEB79C838B838B819C8121E0FC0121AB35
:100610002B813C8180E090E0DC01F90180879187AB
:10062000A287B3871A82198211C089819A812B818E
:100630003C810D96880F991F820F931FFC01118238
:10064000108289819A8101969A83898389819A810E
:1006500021E08A3091050CF020E0222331F70F9041
:100660000F900F900F90DF91CF910895CF93DF936C
:1006700000D000D000D0CDB7DEB79A8389834B83FA
:100680005C836D837E8389819A8121E0FC0120ABAC
:1006900029813A818B819C81AD81BE81F90184875A
:1006A0009587A687B78726960FB6F894DEBF0FBE4C
:1006B000CDBFDF91CF910895AF92BF92CF92DF92DD
:1006C000EF92FF920F931F93CF93DF9300D000D050
:1006D00000D0CDB7DEB79E838D831C821B8217C0EE
:1006E0008B819C812D813E810D96880F991F820FF1
:1006F000931FFC018081918129813A81820F931F90
:100700009A8389838B819C8101969C838B838B81C7
:100710009C8121E08A3091050CF020E0222301F732
:100720008D819E81FC0184859585A685B785BC0158
:10073000CD0120E030EA4CE057E40E94FF0EDC01DE
:10074000CB017C018D0189819A81CC01A0E0B0E0D0
:10075000BC01CD010E94710EDC01CB01BC01CD01B9
:100760002DEB37E346E058E30E94FF0EDC01CB019E
:100770009C01AD01C801B7010E94090EDC01CB014B
:100780002D813E81F90180879187A287B3878D8172
:100790009E81FC0126A537A58D819E81FC0146A581
:1007A00057A581E090E0BA010E94620FAB01CA0137
:1007B000A901481B590BCA01CC01A0E0B0E0BC0163
:1007C000CD010E94710EDC01CB012D813E81F9012A
:1007D000808B918BA28BB38B8D819E81FC0180815C
:1007E0009181A281B3812D813E81F90120893189D6
:1007F00042895389BC01CD010E94FF0EDC01CB016F
:100800007C018D018D819E81FC01A084B184C28414
:10081000D3848D819E81FC0186A597A5CC01A0E0A3
:10082000B0E0BC01CD010E94710E9B01AC01C6017C
:10083000B5010E94090EDC01CB019C01AD01C8018C
:10084000B7010E94A50DDC01CB012D813E81F9018C
:1008500080839183A283B38326960FB6F894DEBF7C
:100860000FBECDBFDF91CF911F910F91FF90EF9001
:10087000DF90CF90BF90AF900895CF93DF9300D0DB
:10088000CDB7DEB79A83898389819A81FC018085FF
:100890009185A285B385BC01CD010F900F90DF91AA
:1008A000CF910895CF93DF9300D0CDB7DEB79A8371
:1008B000898389819A81FC0180819181A281B381A0
:1008C000BC01CD010F900F90DF91CF910895CF9390
:1008D000DF9300D0CDB7DEB79A83898389819A816F
:1008E000FC0184819581A681B781BC01CD010F9067
:1008F0000F90DF91CF910895CF93DF9300D0CDB7C4
:10090000DEB79A83898389819A81FC0184859585E4
:10091000A685B785BC01CD010F900F90DF91CF91D7
:100920000895CF93DF9300D0CDB7DEB79A83898344
:1009300089819A81FC0186A597A50F900F90DF9180
:10094000CF910895CF93DF9300D000D000D0CDB7E2
:10095000DEB79A8389837C836B835E834D83898131
:100960009A81FC01808D918D26960FB6F894DEBF9A
:100970000FBECDBFDF91CF910895CF93DF9300D00D
:10098000CDB7DEB79A83898329813A8180E090E0F0
:10099000DC01F90180839183A283B38389819A81E9
:1009A000FC011586148689819A81FC0184859585D0
:1009B000019729813A81F90124853585B9010E9481
:1009C000620F9B01C901CC01A0E0B0E0BC01CD01E8
:1009D0000E94710EDC01CB0129813A81F9018087E7
:1009E0009187A287B38789819A810E94FC040F9026
:1009F0000F90DF91CF910895CF93DF9300D000D077
:100A000000D0CDB7DEB79E838D832D813E8180E0FF
:100A100090E0DC01F90184839583A683B7838D81FF
:100A20009E8120E032E0FC01338B228B8D819E8100
:100A300020E032E0FC01358B248B8D819E8120E00B
:100A400032E0FC01378B268B8D819E8121E0FC01F9
:100A5000208F8D819E8121E0FC01218F8D819E81DF
:100A6000FC01128E8D819E81FC01178616868D8178
:100A70009E81FC01118A108A1A82198211C02D816F
:100A80003E8189819A81880F991F820F931F4B960F
:100A9000FC011182108289819A8101969A8389834F
:100AA00021E089819A81863091050CF020E0222393
:100AB00031F71C821B8211C02D813E818B819C816C
:100AC000880F991F820F931F8796FC011182108255
:100AD0008B819C8101969C838B8321E08B819C81FF
:100AE000863991050CF020E0222331F726960FB6C7
:100AF000F894DEBF0FBECDBFDF91CF910895CF93A5
:100B0000DF93CDB7DEB728970FB6F894DEBF0FBEE0
:100B1000CDBF9A8389834B835C836D837E833887C3
:100B20002F8329813A818B819C81AD81BE81F9011E
:100B300080839183A283B38389819A812F813885B1
:100B4000FC013587248789819A810E94FC042896BC
:100B50000FB6F894DEBF0FBECDBFDF91CF910895E1
:100B6000CF93DF9300D000D000D0CDB7DEB79A830B
:100B700089834B835C836D837E8329813A818B815A
:100B80009C81AD81BE81F90180839183A283B3836F
:100B900026960FB6F894DEBF0FBECDBFDF91CF9182
:100BA0000895CF93DF9300D000D0CDB7DEB79A83FE
:100BB00089837C836B8389819A812B813C81FC01B1
:100BC000358724870F900F900F900F90DF91CF9172
:100BD0000895CF93DF9300D0CDB7DEB79A83898392
:100BE00089819A81FC0184819581A681B781BC01AC
:100BF000CD010F900F90DF91CF910895CF93DF93A8
:100C000000D0CDB7DEB79A83898389819A81FC01B0
:100C100080819181A281B381BC01CD010F900F90A1
:100C2000DF91CF910895CF93DF9300D0CDB7DEB79A
:100C30009A83898389819A81FC01848595850F90A7
:100C40000F90DF91CF910895CF93DF9300D000D024
:100C500000D0CDB7DEB79A8389837C836B835E83B4
:100C60004D838091B6029091B70221E086399105BB
:100C700008F020E001969093B7028093B6022223F9
:100C800089F08091B6029091B70229813A81880F4C
:100C9000991F820F931F87962B813C81FC01318322
:100CA000208318C01092B7021092B6028091B6024B
:100CB0009091B70229813A81880F991F820F931F63
:100CC00087962B813C81FC013183208389819A8125
:100CD0000E94EF0626960FB6F894DEBF0FBECDBF7A
:100CE000DF91CF910895AF92BF92CF92DF92EF92B2
:100CF000FF920F931F93CF93DF9300D0CDB7DEB752
:100D00009A83898389819A81FC01848595850197DD
:100D100029813A81F90124853585B9010E94620F44
:100D20009B01C901CC01A0E0B0E0BC01CD010E9453
:100D3000710EDC01CB0129813A81F901808791870D
:100D4000A287B38789819A81FC0180819181A281E8
:100D5000B38129813A81F901208531854285538506
:100D6000BC01CD010E94FF0EDC01CB017C018D0195
:100D700089819A81FC01A480B580C680D780898151
:100D80009A81FC0184859585CC01A0E0B0E0BC018E
:100D9000CD010E94710E9B01AC01C601B5010E94FC
:100DA000090EDC01CB019C01AD01C801B7010E9415
:100DB000A50DDC01CB0129813A81F9018083918362
:100DC000A283B3830F900F90DF91CF911F910F916A
:100DD000FF90EF90DF90CF90BF90AF900895CF93AA
:100DE000DF93CDB7DEB7A8970FB6F894DEBF0FBE7E
:100DF000CDBF98A78FA318861F821A8619861B86D7
:100E00001C861E861D861A82198254C02FA138A501
:100E100089819A81880F991F820F931F8796FC0101
:100E2000208131818F81988541E08217930708F0F6
:100E300040E0442381F02FA138A589819A81880F51
:100E4000991F820F931F8796FC018081918198875B
:100E50008F8389818B8789819A81855B9F4F2FA1A1
:100E600038A5880F991F820F931F8796FC01208158
:100E7000318189859A8541E08217930708F040E027
:100E8000442399F089819A81855B9F4F2FA138A5D2
:100E9000880F991F820F931F8796FC018081918193
:100EA0009A8789878981855B8C8789819A81019658
:100EB0009A83898321E089819A818B3491050CF092
:100EC00020E0222309F0A2CF2F81388589859A85D9
:100ED0002817390718F08F81988502C089859A856F
:100EE0002FA138A5F901958B848B2F8138858985B1
:100EF0009A852817390710F08B8501C08C858B8760
:100F00008FA198A5FC01848995899E01215F3F4F9F
:100F1000B9014AE050E00E949E0F188E8EE2888F41
:100F200080E091E00E94660ACE010F960E94660A58
:100F30001A8E198E1C8E1B8E1D8E1E8E1F8E18A251
:100F400019A21AA29B8581E0903508F080E08823E1
:100F500009F409C18B85882F90E00A969E878D87BA
:100F60008D859E852FA138A5880F991F820F931F0D
:100F70008796FC01808191819A8F898F8D859E85CE
:100F80009C838B83E5C02FA138A58B819C81880F22
:100F9000991F820F931F8796FC0120813181898DD3
:100FA0009A8D41E08217930708F040E0442301F155
:100FB0002FA138A58B819C81880F991F820F931FC9
:100FC0008796FC01808191819A8F898F8B819C818A
:100FD0009C8F8B8F1F8E1E8E9AA181E0992309F022
:100FE00080E0882309F497C088A18F5F88A393C00D
:100FF0009AA181E0992309F080E0882359F09D8D22
:1010000081E0933008F480E09F5F9D8F882311F08A
:1010100018A21D8E2FA138A58B819C81880F991F46
:10102000820F931F8796FC01208131818B819C81E7
:1010300001964FA158A5880F991F840F951F879679
:10104000FC018081918141E02817390708F440E0D4
:10105000442321F08F8D8F5F8F8F5DC02FA138A526
:101060008B819C81880F991F820F931F8796FC01AB
:10107000208131818B819C8101964FA158A5880FD9
:10108000991F840F951F8796FC01808191812817F5
:10109000390728F48E8D843010F481E001C080E09F
:1010A000882321F08E8D8F5F8E8F35C02FA138A5BC
:1010B0008B819C81880F991F820F931F8796FC015B
:1010C000208131818B819C8101964FA158A5880F89
:1010D000991F840F951F8796FC018081918182174B
:1010E000930728F08E8D843010F081E001C080E0FD
:1010F000882389F01F8E8B819C8101962FA138A5B2
:10110000880F991F820F931F8796FC018081918120
:101110009A8F898F1E8E8F8D8D3028F08AA188231B
:1011200011F081E001C080E0882321F081E089A3F3
:10113000000034C198A181E0963008F480E0882353
:1011400011F081E08AA38B819C8101969C838B8323
:1011500021E08B819C81863991050CF020E02223CF
:1011600009F011CF1BC18B85803518F489A1882324
:1011700011F481E001C080E0882309F40FC18B8560
:10118000882F90E00A979E878D871F8E1A8E198E62
:101190001C8E1B8E1E8E8D859E852FA138A5880FD7
:1011A000991F820F931F8796FC01808191819A8FEE
:1011B000898F1AA21D8E8D859E859E838D83E4C0A6
:1011C0002FA138A58D819E81880F991F820F931FB3
:1011D0008796FC0120813181898D9A8D41E08217AB
:1011E000930708F040E0442301F12FA138A58D8139
:1011F0009E81880F991F820F931F8796FC01808123
:1012000091819A8F898F8D819E819C8F8B8F1F8E6C
:101210001E8E9AA181E0992309F080E0882309F4C9
:1012200097C088A18F5F88A393C09AA181E099237A
:1012300009F080E0882359F09D8D81E0933008F417
:1012400080E09F5F9D8F882311F018A21D8E2FA133
:1012500038A58D819E81880F991F820F931F8796D5
:10126000FC01208131818D819E8101964FA158A57D
:10127000880F991F840F951F8796FC0180819181AB
:1012800041E08217930708F440E0442321F08F8D5A
:101290008F5F8F8F5DC02FA138A58D819E81880FB4
:1012A000991F820F931F8796FC01208131818D81C8
:1012B0009E8101964FA158A5880F991F840F951FF5
:1012C0008796FC01808191812817390728F08E8D3F
:1012D000843010F081E001C080E0882391F01F8EFF
:1012E0008D819E8101962FA138A5880F991F820FAD
:1012F000931F8796FC01808191819A8F898F1E8E22
:1013000027C02FA138A58D819E81880F991F820F3C
:10131000931F8796FC01208131818D819E810196EA
:101320004FA158A5880F991F840F951F8796FC0120
:10133000808191818217930728F48E8D843010F478
:1013400081E001C080E0882319F08E8D8F5F8E8F41
:101350008F8D8D3028F08AA1882311F081E001C0A3
:1013600080E0882319F081E089A318C098A181E06A
:10137000963008F480E0882311F081E08AA38D8103
:101380009E8101979E838D8321E08D819E81181619
:1013900019060CF020E0222309F012CF99A181E078
:1013A000992309F480E0882309F447C08B85282F0E
:1013B00030E08B8D9C8DA901481B590BCA019923E4
:1013C0001CF4909581959F4FAA2797FDA095BA2F61
:1013D000BC01CD010E94730EDC01CB01BC01CD012B
:1013E0002FE632E143E05CE30E94FF0EDC01CB011B
:1013F0008BA39CA3ADA3BEA32BA13CA14DA15EA139
:1014000060E070E080E89FE30E94090EDC01CB0100
:101410002FA138A5F90184839583A683B7838FA173
:1014200098A5FC01848595859C012F5F3F4F8FA176
:1014300098A5FC01358724870AC02FA138A580E034
:1014400090E0DC01F90184839583A683B78381E072
:1014500080932A01A8960FB6F894DEBF0FBECDBFC9
:10146000DF91CF910895CF93DF9300D0CDB7DEB752
:101470009A83898389819A810E94DC0089819A817B
:10148000C2960E94BD040F900F90DF91CF910895F6
:10149000CF93DF930F92CDB7DEB78983000080EC46
:1014A00090E0FC018081882F90E08072907021E0B4
:1014B000009709F020E0222391F786EC90E0298143
:1014C000FC0120830F90DF91CF910895CF93DF939C
:1014D00000D00F92CDB7DEB79B838A8319820EC0EE
:1014E0008981882F90E02A813B81820F931FFC0124
:1014F000808199819F5F99830E94480A8981882F02
:1015000090E02A813B81820F931FFC01908181E052
:10151000992309F480E0882319F70F900F900F901A
:10152000DF91CF9108951F920F920FB60F92112461
:101530002F933F934F935F936F937F938F939F93DB
:10154000AF93BF93EF93FF93CF93DF93CDB7DEB706
:10155000F894809126019091270121E08530910532
:1015600008F420E00196909327018093260122231E
:1015700031F080910901882311F481E001C080E0FD
:10158000882339F081E0809309018BE291E00E9489
:10159000FB0288E290E028E230E0F901208120623D
:1015A000FC01208382E090E00E94280D88E290E018
:1015B00028E230E0F90120812F7DFC01208378941E
:1015C000DF91CF91FF91EF91BF91AF919F918F915B
:1015D0007F916F915F914F913F912F910F900FBE2F
:1015E0000F901F9018951F920F920FB60F92112413
:1015F0002F933F934F935F936F937F938F939F931B
:10160000AF93BF93EF93FF93CF93DF9300D0CDB70A
:10161000DEB7F89484E890E0FC01808191819A83A0
:1016200089838091B4029091B50221E084309105C4
:1016300008F420E001969093B5028093B40222232F
:1016400039F081E080932A011092B5021092B40221
:1016500088E290E028E230E0F90120812061FC017D
:10166000208382E090E00E94280D88E290E028E24A
:1016700030E0F90120812F7EFC0120839091090147
:1016800081E0992309F480E0882359F01092B50293
:101690001092B402109209018BE291E00E94FB02C9
:1016A0000DC0809126019091270129813A81281B44
:1016B000390B8BE291E0B9010E94510284E890E07D
:1016C000FC011182108278940F900F90DF91CF91DE
:1016D000FF91EF91BF91AF919F918F917F916F910A
:1016E0005F914F913F912F910F900FBE0F901F90E0
:1016F00018951F920F920FB60F9211242F933F93BC
:101700004F935F936F937F938F939F93AF93BF9309
:10171000EF93FF93CF93DF9300D0CDB7DEB7F8946C
:101720001A8219828091B2029091B302049690932A
:10173000B3028093B2020E94EC0C9A838983898160
:101740009A8121E08139920798F089819A8122E07B
:101750008C3B920768F48DE591E029813A81B901CB
:1017600044E050E00E9424061092B3021092B202AC
:1017700078940F900F90DF91CF91FF91EF91BF91EF
:10178000AF919F918F917F916F915F914F913F9119
:101790002F910F900FBE0F901F9018950F931F93CE
:1017A000CF93DF93CDB7DEB764970FB6F894DEBF63
:1017B0000FBECDBF0E94350C83E390E00E94540C15
:1017C0008AE091E00E94660A84EF91E00E94280D71
:1017D0000E94CD0C0E94A90C789401C00000809159
:1017E0002A01882369F1F89483E191E00E94660A56
:1017F0008DE591E00E94E905DC01CB0189839A83A4
:10180000AB83BC8389819A81AB81BC81FE013D960B
:10181000BC01CD0145E022E08F010E947C0F1E8AB1
:101820008EE28D8B81E291E00E94660ACE010D96D8
:101830000E94660A8DE20E94480A10922A0178945A
:101840009091290181E0992309F480E0882331F205
:1018500081E090E064960FB6F894DEBF0FBECDBF76
:10186000DF91CF911F910F910895CF93DF93CDB763
:10187000DEB784E290E0FC01108287E290E0FC0198
:1018800010828AE290E0FC01108285E290E0FC0187
:10189000108288E290E0FC0110828BE290E0FC0173
:1018A0001082DF91CF910895CF93DF9300D0CDB711
:1018B000DEB79A83898384EC90E02981FC01208340
:1018C00085EC90E025EC30E0F901408129813A81F6
:1018D000232F3327242BFC01208381EC90E028E187
:1018E000FC01208382EC90E026E0FC01208384E66A
:1018F00090E024E630E0F9012081246CFC01208393
:101900008AE790E02AE730E0F90120812268FC01B3
:1019100020838CE790E02CE730E0F90120812264FD
:10192000FC01208387E290E027E230E0F90120818A
:101930002063FC01208388E290E028E230E0F90196
:1019400020812F7CFC0120830F900F90DF91CF919D
:101950000895CF93DF93CDB7DEB781E890E021E81B
:1019600030E0F90120812460FC01208386E390E0CF
:1019700021E0FC01208384E890E0FC0111821082C8
:101980008FE690E021E0FC01208389E690E023E0EF
:10199000FC012083DF91CF910895CF93DF93CDB7E2
:1019A000DEB784E490E022E0FC01208385E490E04F
:1019B00024E0FC01208387E490E02FEFFC012083EA
:1019C00086E490E0FC0110828EE690E022E0FC01CB
:1019D0002083DF91CF910895CF93DF9300D0CDB7CF
:1019E000DEB71A8219828AE790E02AE730E0F9012F
:1019F00020812064FC0120838AE790E0FC01808143
:101A0000882F90E08074907021E0009709F420E026
:101A1000222391F788E790E0FC018081882F90E0F5
:101A20009A83898389E790E0FC018081882F90E088
:101A3000982F88279C0189819A81822B932B9A83E6
:101A4000898389819A810F900F90DF91CF910895BA
:101A5000CF93DF9300D000D0CDB7DEB79C838B83CC
:101A60001A82198218C01A82198206C00000898160
:101A70009A8101969A83898389819A8121E031E054
:101A8000803993070CF020E0222381F78B819C8121
:101A900001979C838B838B819C8121E0181619060A
:101AA0000CF020E02223F9F60F900F900F900F908A
:101AB000DF91CF910895CF93DF93CDB7DEB7F89440
:101AC00083E590E024E0FC01208383E590E023E5BA
:101AD00030E0F90120812160FC01208381E090E069
:101AE0000E94280D78948895DF91CF910895CF9327
:101AF000DF9300D000D0CDB7DEB79A8389837C8393
:101B00006B8389819A818130910551F48B819C810D
:101B10002FEF8F3F920721F48BE291E00E94330A6E
:101B20000F900F900F900F90DF91CF910895CF936A
:101B3000DF93CDB7DEB781E090E06FEF7FEF0E94DB
:101B4000770DDF91CF9108955058BB27AA270ED06B
:101B50001CC10DD130F012D120F031F49F3F11F4AF
:101B60001EF402C10EF4E095E7FBF8C0E92F1ED188
:101B700080F3BA17620773078407950718F071F4AA
:101B80009EF536C10EF4E0950B2EBA2FA02D0B0159
:101B9000B90190010C01CA01A0011124FF27591BB2
:101BA00099F0593F50F4503E68F11A16F040A22FB8
:101BB000232F342F4427585FF3CF46953795279529
:101BC000A795F0405395C9F77EF41F16BA0B620B28
:101BD000730B840BBAF09150A1F0FF0FBB1F661F6F
:101BE000771F881FC2F70EC0BA0F621F731F841FB2
:101BF00048F4879577956795B795F7959E3F08F0D8
:101C0000B3CF9395880F08F09927EE0F9795879596
:101C100008950CD0BAC0B2D040F0A9D030F021F471
:101C20005F3F19F09BC05111E4C09EC0BFD098F334
:101C30009923C9F35523B1F3951B550BBB27AA274D
:101C400062177307840738F09F5F5F4F220F331FBF
:101C5000441FAA1FA9F333D00E2E3AF0E0E830D08B
:101C600091505040E695001CCAF729D0FE2F27D08E
:101C7000660F771F881FBB1F261737074807AB075C
:101C8000B0E809F0BB0B802DBF01FF2793585F4FD1
:101C90002AF09E3F510568F061C0ABC05F3FECF396
:101CA000983EDCF3869577956795B795F7959F5F96
:101CB000C9F7880F911D9695879597F90895E1E0EA
:101CC000660F771F881FBB1F621773078407BA0749
:101CD00020F0621B730B840BBA0BEE1F88F7E095A4
:101CE0000895E89409C097FB3EF49095809570950F
:101CF00061957F4F8F4F9F4F9923A9F0F92F96E958
:101D0000BB279395F695879577956795B795F111CC
:101D1000F8CFFAF4BB0F11F460FF1BC06F5F7F4F69
:101D20008F4F9F4F16C0882311F096E911C077237B
:101D300021F09EE8872F762F05C0662371F096E884
:101D4000862F70E060E02AF09A95660F771F881F53
:101D5000DAF7880F9695879597F9089597F99F6711
:101D600080E870E060E008959FEF80EC0895002423
:101D70000A941616170618060906089500240A94F0
:101D800012161306140605060895092E0394000C76
:101D900011F4882352F0BB0F40F4BF2B11F460FF05
:101DA00004C06F5F7F4F8F4F9F4F089557FD90582E
:101DB000440F551F59F05F3F71F04795880F97FB0F
:101DC000991F61F09F3F79F08795089512161306C9
:101DD0001406551FF2CF4695F1DF08C016161706F8
:101DE0001806991FF1CF869571056105089408952D
:101DF000E894BB2766277727CB0197F908950BD086
:101E0000C4CFB5DF28F0BADF18F0952309F0A6CFCC
:101E1000ABCF1124EECFCADFA0F3959FD1F3950F7E
:101E200050E0551F629FF001729FBB27F00DB11D5E
:101E3000639FAA27F00DB11DAA1F649F6627B00DEE
:101E4000A11D661F829F2227B00DA11D621F739FD7
:101E5000B00DA11D621F839FA00D611D221F749FE5
:101E60003327A00D611D231F849F600D211D822F2C
:101E7000762F6A2F11249F5750408AF0E1F0882373
:101E80004AF0EE0FFF1FBB1F661F771F881F915080
:101E90005040A9F79E3F510570F060CFAACF5F3F39
:101EA000ECF3983EDCF3869577956795B795F795B3
:101EB000E7959F5FC1F7FE2B880F911D969587953B
:101EC00097F90895AA1BBB1B51E107C0AA1FBB1FAE
:101ED000A617B70710F0A61BB70B881F991F5A95B6
:101EE000A9F780959095BC01CD010895EE0FFF1FD5
:101EF0000590F491E02D0994EF920F931F93CF93E7
:101F0000322FC02F47FF02C0A4E101C0A4E0E42F9C
:101F1000FF27E7FDF095F7FF03C0F095E195FF4F30
:101F20004C2F512F2E2F032FEA2E0E94B40F8C2FEF
:101F3000912FCF911F910F91EF900895FB019F0179
:101F4000423074F0453264F4642F77270E94620FA8
:101F5000805D8A330CF0895D8193CB010097A1F7F6
:101F60001082C9010C94E411A9E0B0E0EAEBFFE0B3
:101F70000C94F8116A01122FF02E2BE3201718F0A1
:101F8000B02EB39402C03CE3B32EAE014F5F5F4F5F
:101F900027E00B2D0E940C11BC01A981B0E0CD01FE
:101FA000897090708130910531F0E1FC06C0E0FE4F
:101FB00006C040E205C04DE203C04BE201C040E074
:101FC000A3FF36C0442311F084E001C083E08117F1
:101FD00010F4181B01C010E0E4FC0BC0912FF601B7
:101FE00080E202C0819391509923E1F7C10ED11C88
:101FF00010E0442319F0F60141936F01E2FE05C0A1
:102000008EE4F601808391E404C08EE6F6018083BD
:1020100091E69183828383E090E0C80ED91E812FE0
:10202000F60190E202C0919381508823E1F73AC013
:10203000A2FF3FC0442311F084E001C083E0811778
:1020400010F4181B01C010E0E4FC0BC0912FF60146
:1020500080E202C0819391509923E1F7C10ED11C17
:1020600010E0442319F0F60141936F01E2FE07C02E
:1020700089E4F60180838EE4818386E406C089E6E4
:10208000F60180838EE6818386E6828383E090E09A
:10209000C80ED91E812FF60190E202C091938150A3
:1020A0008823E1F7C10ED11CF60110828EEF9FEF5D
:1020B000AFC021E030E0442311F420E030E01616F8
:1020C00017061CF4CB01019602C081E090E0280FB6
:1020D000391FFF2021F08F2D90E0019602C080E093
:1020E00090E0820F931F212F30E0821793071CF49A
:1020F000512F581B01C050E08E2D90E09C012071A3
:102100003070E4FC0DC0E3FC0BC0852FF60190E2BB
:1021100002C0919381508823E1F7C50ED11C50E095
:10212000442319F0F60141936F012115310559F44B
:10213000852FF60190E302C0919381508823E1F747
:10214000C50ED11C50E0B60E4A8120E1622E712CE2
:102150006A227B22A4FF03C0413309F4BA941B1402
:102160002CF48B2D893018F088E001C081E09B01B0
:1021700077FF02C020E030E0A0E0B0E09EE2E92E70
:102180004B01881A9108CB01821B930B8E010F5FC4
:102190001F4F080F191F8F2D90E0AA24BB24A81AE7
:1021A000B90AFFEF2F3F3F0719F4F601E1926F01E3
:1021B0006217730744F0821693062CF4F801EA0FB5
:1021C000FB1F818101C080E32150304011962A1508
:1021D0003B0524F0F60181936F01E3CF2617370703
:1021E00041F4463328F4453321F46114710409F4B1
:1021F00081E3F6018193852FDF0190E202C09D9378
:1022000081508823E1F7E50FF11D108280E090E016
:102210002996EEE00C941412283008F027E03327BA
:10222000DA01990F311D87FD9160009661057105F6
:1022300039F432602E5F3D9330E32A95E1F708953B
:102240009F3F30F080387105610509F03C5F3C5FCD
:102250003D93913008F08068911DDF93CF931F93D9
:102260000F93FF92EF92192F987F9695E92F9695ED
:102270009695E90FFF27EE53FF4F99273327EE245A
:10228000FF24A701E70105900894079428F4360F6E
:10229000E71EF81E491F511D660F771F881F991FE3
:1022A0000694A1F70590079428F4E70EF81E491F3D
:1022B000561FC11D770F881F991F661F0694A1F72F
:1022C0000590079428F4F80E491F561FC71FD11D0B
:1022D000880F991F661F771F0694A1F70590079432
:1022E00020F4490F561FC71FD81F990F661F771F6D
:1022F000881F0694A9F784911095177041F0D69520
:10230000C79557954795F794E7941A95C1F7E8E66E
:10231000F0E068941590159135916591959105902F
:102320007FE27395E118F10A430B560BC90BD009F4
:10233000C0F7E10CF11E431F561FC91FD01D7EF4CC
:10234000703311F48A95E6CFE894015030F0080F0D
:102350000AF40027021708F4202F2395022F7A335E
:1023600028F079E37D932A95E9F710C07D932A95AB
:1023700089F6069497956795379517951794E11800
:10238000F10A430B560BC90BD00998F023957E91A7
:1023900073957A3308F070E37C932013B8F77E913D
:1023A00070617D9330F0839571E37D9370E32A959E
:1023B000E1F71124EF90FF900F911F91CF91DF91E2
:1023C000992787FD90950895DC01FC01672F719195
:1023D0007723E1F7329704C07C916D93708362910B
:1023E000AE17BF07C8F308952F923F924F925F92A6
:1023F0006F927F928F929F92AF92BF92CF92DF9215
:10240000EF92FF920F931F93CF93DF93CDB7DEB779
:10241000CA1BDB0B0FB6F894DEBF0FBECDBF09940D
:102420002A88398848885F846E847D848C849B8464
:10243000AA84B984C884DF80EE80FD800C811B8172
:10244000AA81B981CE0FD11D0FB6F894DEBF0FBEA1
:0A245000CDBFED010895F894FFCF11
:10245A00616273206D61783D000148656C6C6F2E76
:10246A002E2E0050726F63657373696E672E2E2E5F
:06247A000042504D3A0043
:00000001FF
