S00C0000574156522E73726563D8
S11300000C943F000C9467000C9467000C945D14EE
S11300100C9467000C9467000C9409140C9467000A
S11300200C9467000C9467000C9467000C940D15F5
S11300300C9467000C9467000C9467000C946700A0
S11300400C9467000C9467000C9467000C94670090
S11300500C94A7140C9467000C9467000C9467002C
S11300600C9467000C9467000C9467000C94670070
S11300700C94DA140C9467000C946700841C11240B
S11300801FBECFEFD0E1DEBFCDBF11E0A0E0B1E0F5
S1130090E6E2FBE302C005900D92A03EB107D9F75A
S11300A012E0A0EEB1E001C01D92A932B107E1F760
S11300B010E0CEE7D0E004C02297FE010E94C61CE7
S11300C0CC37D107C9F70E9470160C94911D0C947B
S11300D00000CF93DF9300D0CDB7DEB79A83898336
S11300E089819A81FC011182108289819A81FC01A3
S11300F01382128289819A81FC01158214820F90E5
S11301000F90DF91CF910895CF93DF93CDB7DEB7F2
S113011028970FB6F894DEBF0FBECDBF9A838983AC
S11301207C836B835E834D8338872F8389819A8197
S11301306B817C814D815E812F8138850E94840191
S113014028960FB6F894DEBF0FBECDBFDF91CF91D6
S11301500895CF93DF9300D0CDB7DEB79A83898318
S113016089819A81FC01808191810F900F90DF91A8
S1130170CF910895CF93DF9300D0CDB7DEB79A83A4
S1130180898389819A81FC01848195810F900F90E4
S1130190DF91CF910895CF93DF9300D0CDB7DEB731
S11301A09A83898389819A81FC01828193810F904A
S11301B00F90DF91CF910895CF93DF9300D000D0BB
S11301C0CDB7DEB79A8389837C836B838B819C81D3
S11301D00C968931910538F489819A812B813C816F
S11301E0FC01318320830F900F900F900F90DF91CB
S11301F0CF910895CF93DF9300D000D0CDB7DEB771
S11302009A8389837C836B8389819A81FC018081B1
S113021091818930910581F089819A81FC018081E5
S113022091818430910541F089819A81FC0180811A
S113023091818630910541F48B819C814E968D335A
S1130240910510F481E001C080E0882341F08981A8
S11302509A812B813C81FC013383228328C08981CC
S11302609A81FC01808191818230910541F48B81D6
S11302709C814C968933910510F481E001C080E0A3
S1130280882341F089819A812B813C81FC0133834D
S113029022830DC08B819C814F968F33910538F456
S11302A089819A812B813C81FC01338322830F90C5
S11302B00F900F900F90DF91CF910895CF93DF931C
S11302C000D000D0CDB7DEB79A8389837C836B835B
S11302D08B819C8127E0803D920744F089819A813B
S11302E02B813C81FC013583248307C089819A8159
S11302F022EF33E0FC01358324830F900F900F909D
S11303000F90DF91CF910895CF93DF93CDB7DEB7F0
S113031028970FB6F894DEBF0FBECDBF9A838983AA
S11303207C836B835E834D8338872F8389819A8195
S11303302B813C81B9010E94DC0089819A812D8145
S11303403E81B9010E94FA0089819A812F81388502
S1130350B9010E945E0128960FB6F894DEBF0FBE65
S1130360CDBFDF91CF910895CF93DF9300D000D01C
S113037000D0CDB7DEB79C838B837E836D838B8166
S11303809C81FC01248135818D819E81820F931F84
S11303909A83898389819A8121E0F7E08D3D9F07C3
S11303A00CF420E0222339F029813A818B819C814D
S11303B0FC013583248326960FB6F894DEBF0FBE66
S11303C0CDBFDF91CF910895CF93DF93CDB7DEB743
S11303D02A970FB6F894DEBF0FBECDBF98878F83E0
S11303E07A8769878F819885FC012081318189858D
S11303F09A85820F931F9E838D838D819E818D307C
S113040091053CF08D819E818931910514F481E040
S113041001C080E0882361F081E090E09A838983C1
S11304208F81988529813A81B9010E94B40122C043
S11304308D819E8121E0893191050CF420E02223F5
S113044091F08D819E812CE030E0B9010E949D1CC9
S11304509B013C832B838F8198852B813C81B9013F
S11304600E94B40107C02D813E818F819885FC01D3
S1130470318320832A960FB6F894DEBF0FBECDBF1A
S1130480DF91CF910895CF93DF9300D000D000D0B7
S1130490CDB7DEB79C838B837E836D838B819C81F8
S11304A0FC01228133818D819E81820F931F9A8367
S11304B089838B819C81FC018081918189309105A4
S11304C081F08B819C81FC01808191818430910534
S11304D041F08B819C81FC01808191818630910562
S11304E011F481E001C080E0882331F189819A818F
S11304F04E9621E08D33910508F020E0222341F04F
S113050029813A818B819C81FC013383228371C0D0
S11305108B819C8161E070E00E94E40189819A8171
S11305202FE130E0B9010E949D1C9C018B819C81CC
S1130530FC01338322835DC08B819C81FC0180811B
S1130540918121E08230910509F020E0222349F1D4
S11305508B819C81FC01828193814C9621E08933BB
S1130560910508F020E0222341F029813A818B8112
S11305709C81FC01338322833CC08B819C8161E09C
S113058070E00E94E40189819A812DE130E0B90193
S11305900E949D1C9C018B819C81FC0133832283DE
S11305A028C08B819C81FC01828193814F9621E03C
S11305B08F33910508F020E0222341F029813A810C
S11305C08B819C81FC013383228313C08B819C81AA
S11305D061E070E00E94E40189819A8120E230E0C8
S11305E0B9010E949D1C9C018B819C81FC01338379
S11305F0228326960FB6F894DEBF0FBECDBFDF91DF
S1130600CF910895CF93DF9300D00F92CDB7DEB78B
S11306109B838A8319828A819B81FC0180819181D9
S11306200C9621E08931910508F020E0222309F499
S113063066C08A819B81FC0180819181893091050A
S113064081F08A819B81FC018081918184309105B4
S113065041F08A819B81FC018081918186309105E2
S113066059F48A819B81FC01828193814E968D335A
S1130670910510F481E001C080E0882319F081E045
S1130680898328C08A819B81FC0180819181823089
S1130690910559F48A819B81FC01828193814C9656
S11306A08933910510F481E001C080E0882319F0BA
S11306B081E089830FC08A819B81FC0182819381BF
S11306C04F9621E08F33910508F020E0222311F0AA
S11306D081E089838981882359F08A819B81FC0187
S11306E084819581F7E08D3D9F0714F081E001C07E
S11306F080E0882311F081E003C080E001C080E045
S11307000F900F900F90DF91CF910895CF93DF93C7
S1130710CDB7DEB72D970FB6F894DEBF0FBECDBFB1
S11307209D878C878C859D85FC01808191819E01AC
S11307302F5F3F4FB9014AE050E00E94111D8C85A4
S11307409D85FC01828193819E012C5F3F4FB901FD
S11307504AE050E00E94111D8C859D85FC01848136
S113076095819E01295F3F4FB9014AE050E00E9404
S1130770111D8C859D8506969E012F5F3F4FB90103
S11307800E94FC1C8C859D859C012A5F3F4FC901FA
S1130790AC01FA0101900020E9F7CF010197841B15
S11307A0950B820F931F2CE230E0FC0131832083F0
S11307B08C859D8506969E012C5F3F4FB9010E9452
S11307C0E81C8C859D859C012A5F3F4FC901AC01C3
S11307D0FA0101900020E9F7CF010197841B950BE2
S11307E0820F931F2CE230E0FC01318320838C853F
S11307F09D8506969E01295F3F4FB9010E94E81C22
S11308008C859D85FC01168A8C859D8506962D9682
S11308100FB6F894DEBF0FBECDBFDF91CF91089520
S1130820CF93DF9300D0CDB7DEB79A8389838981D4
S11308309A810E94690089819A8160E070E040E0B9
S113084050E020E030E00E9454050F900F90DF91BB
S1130850CF910895CF93DF93CDB7DEB728970FB626
S1130860F894DEBF0FBECDBF9A8389837C836B83EC
S11308705E834D8338872F8389819A810E94690022
S113088089819A816B817C814D815E812F8138853C
S11308900E94540528960FB6F894DEBF0FBECDBF54
S11308A0DF91CF910895CF92DF92EF92FF920F9351
S11308B01F93CF93DF93CDB7DEB72E970FB6F8947F
S11308C0DEBF0FBECDBF9A8389837C836B835E8337
S11308D04D8338872F831A870987FC86EB86DE864B
S11308E0CD8689819A8169857A854B855C852D853C
S11308F03E850E94840089819A816B817C814D812F
S11309005E812F8138850E9454052E960FB6F89487
S1130910DEBF0FBECDBFDF91CF911F910F91FF902E
S1130920EF90DF90CF900895CF93DF9300D0CDB7B1
S1130930DEB79A83898389819A81FC01838D948DA2
S11309400F900F90DF91CF910895CF93DF9300D054
S1130950CDB7DEB79A83898389819A81FC01818D21
S1130960928D0F900F90DF91CF910895CF93DF93E5
S113097000D0CDB7DEB79A83898389819A81FC013F
S11309808789908D0F900F90DF91CF910895CF9329
S1130990DF93CDB7DEB7A2970FB6F894DEBF0FBED4
S11309A0CDBF98A38F8F7AA369A3CE010B9629A1FB
S11309B03AA1B9010E94FC1C1A82198243C01C820C
S11309C01B8220C029813A81C901880F991F280FF1
S11309D0391F8B819C81820F931F9E01255F3F4F9E
S11309E0820F931FFC0140819E012B5E3F4F8B8140
S11309F09C81820F931FFC0140838B819C81019613
S1130A009C838B8321E08B819C81823091050CF047
S1130A1020E02223B9F6CE0145960E94CA1C9C010F
S1130A2089819A81880F991FAE014F5F5F4F840FB0
S1130A30951F0496FC013183208389819A81019654
S1130A409A83898321E089819A81833091050CF00E
S1130A5020E0222309F0B3CF8D819E8147968F3207
S1130A609105C0F48F819885CB968737910590F4D2
S1130A7089859A85CB968737910560F46D817E814F
S1130A804F81588529853A858F8D98A10E945405F8
S1130A9081E001C080E0A2960FB6F894DEBF0FBEDD
S1130AA0CDBFDF91CF910895CF93DF93CDB7DEB75C
S1130AB028970FB6F894DEBF0FBECDBF9A83898303
S1130AC07C836B835E834D8338872F8389819A81EE
S1130AD02B813C81B9010E94840589819A812D81F1
S1130AE03E81B9010E94A20589819A812F813885AE
S1130AF0B9010E94C00528960FB6F894DEBF0FBE58
S1130B00CDBFDF91CF910895CF93DF9300D000D074
S1130B10CDB7DEB79A8389837C836B838B819C8179
S1130B2047968F32910538F489819A812B813C81D3
S1130B30FC01308F278B0F900F900F900F90DF9157
S1130B40CF910895CF93DF9300D000D0CDB7DEB717
S1130B509A8389837C836B838B819C81CB96873733
S1130B60910538F489819A812B813C81FC01328F73
S1130B70218F0F900F900F900F90DF91CF910895D8
S1130B80CF93DF9300D000D0CDB7DEB79A838983AB
S1130B907C836B838B819C81CB968737910538F45A
S1130BA089819A812B813C81FC01348F238F0F90A2
S1130BB00F900F900F90DF91CF910895CF93DF9313
S1130BC0CDB7DEB728970FB6F894DEBF0FBECDBF02
S1130BD09E838D8378876F838D819E81FC01278915
S1130BE0308D8F819885820F931F9A8389838981A1
S1130BF09A8128E130E0B9010E949D1C9C018D81FD
S1130C009E81FC01308F278B89819A8121E0883174
S1130C1091050CF420E0222391F089819A8128E146
S1130C2030E0B9010E949D1C9B01C9019C838B8308
S1130C308D819E812B813C81B9010E9443022896BB
S1130C400FB6F894DEBF0FBECDBFDF91CF910895EC
S1130C50CF93DF93CDB7DEB728970FB6F894DEBFF6
S1130C600FBECDBF9E838D8378876F838D819E81D8
S1130C70FC01218D328D8F819885820F931F9A8379
S1130C80898389819A812CE330E0B9010E949D1CFB
S1130C909C018D819E81FC01328F218F89819A81F3
S1130CA021E08C3391050CF420E0222391F089811A
S1130CB09A812CE330E0B9010E949D1C9B01C9017B
S1130CC09C838B832B813C818D819E81B9010E9401
S1130CD0DE0528960FB6F894DEBF0FBECDBFDF91B8
S1130CE0CF910895CF93DF93CDB7DEB728970FB692
S1130CF0F894DEBF0FBECDBF9E838D8378876F834C
S1130D008D819E81FC01238D348D8F819885820F86
S1130D10931F9A83898389819A812CE330E0B901F6
S1130D200E949D1C9C018D819E81FC01348F238F28
S1130D3089819A8121E08C3391050CF420E02223EF
S1130D4091F089819A812CE330E0B9010E949D1CC5
S1130D509B01C9019C838B832B813C818D819E8166
S1130D60B9010E94280628960FB6F894DEBF0FBE7C
S1130D70CDBFDF91CF910895CF93DF9300D00F9231
S1130D80CDB7DEB79B838A8381E089838A819B8187
S1130D90FC01838D948DCB9687379105A0F48A81CD
S1130DA09B81FC01818D928DCB968737910558F4F8
S1130DB08A819B81FC018789908D47968F329105AA
S1130DC010F481E001C080E0882369F08A819B816E
S1130DD00E940203982F81E0992309F480E088237C
S1130DE011F081E001C080E00F900F900F90DF912F
S1130DF0CF910895CF93DF93CDB7DEB72B970FB67E
S1130E00F894DEBF0FBECDBF9B878A878A859B85FA
S1130E10FC018789908D9E012F5F3F4FB9014AE005
S1130E2050E00E94111D8A859B85FC01818D928D65
S1130E309E012C5F3F4FB9014AE050E00E94111D12
S1130E408A859B85FC01838D948D9E01295F3F4F8C
S1130E50B9014AE050E00E94111D8A859B854D9698
S1130E609E012F5F3F4FB9010E94FC1C8A859B8520
S1130E709C01235E3F4FC901AC01FA01019000209F
S1130E80E9F7CF010197841B950B820F931F2AE387
S1130E9030E0FC01318320838A859B854D969E0139
S1130EA02C5F3F4FB9010E94E81C8A859B859C01F9
S1130EB0235E3F4FC901AC01FA0101900020E9F71C
S1130EC0CF010197841B950B820F931F2AE330E017
S1130ED0FC01318320838A859B854D969E01295F81
S1130EE03F4FB9010E94E81C8A859B85FC0110A62E
S1130EF08A859B854D962B960FB6F894DEBF0FBE60
S1130F00CDBFDF91CF910895CF93DF93CDB7DEB7F7
S1130F102F970FB6F894DEBF0FBECDBF8E876F87B5
S1130F20F8948E85882309F44BC01A82198281E0D3
S1130F308B832CC082E090E00E94501D8F8381E05F
S1130F4090E00E94501D888780E090E00E94501D30
S1130F5089878F818C33A8F488858C3390F48985B4
S1130F60883178F48985682F70E08885482F50E0AF
S1130F708F81282F30E084EE91E00E9454051B827B
S1130F8005C089819A8101969A8389838B818823FC
S1130F9039F089819A818330910514F481E001C08C
S1130FA080E0882339F68B81882351F084EE91E028
S1130FB061E070E041E050E021E030E00E9454053F
S1130FC08F85882309F44EC01D821C8281E08E83A4
S1130FD02FC084E090E00E94501D8A8783E090E057
S1130FE00E94501D8B8785E090E00E94581D9D87CC
S1130FF08C878A858F31B8F48B858D30A0F48C85ED
S11310009D8527E28031920770F48B85682F70E00C
S11310108A85482F50E02C853D8584EE91E00E941E
S113102084011E8205C08C819D8101969D838C83E1
S11310308E81882339F08C819D818330910514F44D
S113104081E001C080E0882321F68E81882351F05D
S113105084EE91E061E070E041E050E021ED37E0A2
S11310600E94840178942F960FB6F894DEBF0FBEC9
S1131070CDBFDF91CF910895CF93DF93CDB7DEB786
S113108029970FB6F894DEBF0FBECDBF8887698756
S1131090F89488858823F1F084EE91E00E94B604E8
S11310A0898384EE91E00E94A5048A8384EE91E012
S11310B00E9494048B8382E090E06B810E945E1D09
S11310C081E090E06A810E945E1D80E090E0698189
S11310D00E945E1D8985882309F184EE91E00E94B7
S11310E0BA009D838C8384EE91E00E94A9008E83D4
S11310F084EE91E00E94CB008F8385E090E02C8108
S11311003D81B9010E946C1D83E090E06E810E94D4
S11311105E1D84E090E06F810E945E1D78942996A4
S11311200FB6F894DEBF0FBECDBFDF91CF91089507
S1131130CF93DF9300D000D000D0CDB7DEB79E832D
S11311408D8384EE91E00E949404882F90E09A832A
S1131150898329813A818D819E81820F931F2CE39B
S113116030E0B9010E949D1C9C838B8301C0000068
S113117084EE91E00E949404282F30E08B819C81BE
S113118041E02817390709F440E0442381F7269603
S11311900FB6F894DEBF0FBECDBFDF91CF91089597
S11311A0CF93DF9300D000D0CDB7DEB79C838B8381
S11311B017C01A82198206C0000089819A8101969B
S11311C09A83898389819A8121E0883C91050CF076
S11311D020E0222389F78B819C8101979C838B8358
S11311E021E08B819C81181619060CF020E0222343
S11311F001F70F900F900F900F90DF91CF9108950A
S1131200CF93DF9300D0CDB7DEB785E290E025E23F
S113121030E0F90120812860FC0120831A821982C0
S113122006C0000089819A8101969A83898321E00E
S113123089819A81823091050CF020E0222389F77C
S113124085E290E025E230E0F9012081277FFC016E
S113125020830F900F90DF91CF910895CF93DF9368
S11312600F92CDB7DEB78983000080EC90E0FC01DB
S11312708081882F90E08072907021E0009709F0BF
S113128020E0222391F786EC90E02981FC01208361
S11312900F90DF91CF910895CF93DF9300D00F92F9
S11312A0CDB7DEB79B838A8319820EC08981882FCC
S11312B090E02A813B81820F931FFC0180819981F8
S11312C09F5F99830E942E098981882F90E02A814B
S11312D03B81820F931FFC01908181E0992309F4E3
S11312E080E0882319F70F900F900F90DF91CF9132
S11312F00895CF93DF930F92CDB7DEB789830000B3
S113130088EC90E0FC018081882F90E080729070DE
S113131021E0009709F020E0222391F78EEC90E081
S11313202981FC0120830F90DF91CF910895CF9301
S1131330DF9300D00F92CDB7DEB79B838A831982E7
S113134012C08EE591E00E94D0088981882F90E038
S11313502A813B81820F931FFC01808199819F5FC9
S113136099830E9479098981882F90E02A813B81A1
S1131370820F931FFC01908181E0992309F480E09E
S11313808823F9F60F900F900F90DF91CF91089575
S1131390CF93DF93CDB7DEB7CB55D0400FB6F894DB
S11313A0DEBF0FBECDBF81E08B871A82198281E038
S11313B0809314021CC280912702909128028330EA
S11313C0910509F400C18430910548F481309105F8
S11313D009F478C08230910508F082C00DC08630CF
S11313E0910509F4BCC18730910509F4D1C1853058
S11313F0910509F48BC1F3C10E94000981E090E0DA
S11314009093280280932702F2C182E390E00E9425
S1131410D008000088EC90E0FC018081882334F03F
S113142080911402882311F081E001C080E08823B8
S113143089F780911402882351F480E091E00E949E
S11314404C09CE01C4960E944C090000D0C18EEC18
S113145090E0FC01808189879E012C5C3F4F89814B
S11314609A81820F931F2985FC01208389819A81A7
S113147001969A83898389858E32B1F49E012C5C0E
S11314803F4F89819A81820F931FFC0110828981C9
S11314909A8101969A83898382E090E0909328024E
S11314A0809327021B860EC089819A818732910519
S11314B048F01A8219821B8687E090E090932802F4
S11314C0809327028B85882331F08091140288232E
S11314D011F081E001C080E0882309F096CF87C134
S11314E0CE01C4962CE031E0B90142E050E00E9404
S11314F0031D009739F483E090E0909328028093D1
S1131500270275C1CE01C4962FE031E0B90142E053
S113151050E00E94031D009751F485E090E0909301
S113152028028093270281E08093100260C1CE01DB
S1131530C49622E131E0B90142E050E00E94031D6B
S1131540009739F486E090E0909328028093270274
S11315504EC1809113028823A9F0CE01C4969E0146
S1131560245F3F4FB9010E94F31C009759F485E1B1
S113157091E00E944C0985E090E0909328028093CA
S1131580270235C1CE01C49623E231E0B90142E01D
S113159050E00E94031D009739F485E090E0909399
S11315A028028093270223C186E291E00E944C091D
S11315B0CE01C4960E944C0987E090E090932802E3
S11315C08093270214C184E690E00E94D0088091A1
S11315D01502882369F080911302882349F48FE06F
S11315E091E00E94970981E391E00E944C0967C051
S11315F080911302882309F457C08091150288232F
S113160009F052C0CE010C9621E430E0FC01318394
S1131610208384EE91E00E94FA069C01CE010C9690
S1131620B9010E94E81CCE010C969C01F9010190BD
S11316300020E9F7CF010197821B930B9E01245FE1
S11316403F4F820F931F2FE230E0FC013183208350
S113165084EE91E00E9486039C01CE010C96B901B0
S11316600E94E81CCE010C969C01F9010190002017
S1131670E9F7CF010197821B930B9E01245F3F4F33
S1131680820F931F2EE230E0FC013183208383E537
S11316900E94790980E061E041E00E949F138AE39F
S11316A091E00E944C090BC088E491E00E944C092F
S11316B087E090E0909328028093270298C01C82D0
S11316C01B820EC09E012C5C3F4F8B819C81820F3C
S11316D0931FFC0110828B819C8101969C838B83D8
S11316E02B813C8141E089819A812817390708F0D0
S11316F040E0442339F781E08B871A82198281E024
S113170090E0909328028093270271C01E821D826C
S11317100EC09E012C5C3F4F8D819E81820F931FD2
S1131720FC0110828D819E8101969E838D832D8183
S11317303E8141E089819A812817390708F040E009
S1131740442339F781E591E00E944C091092140278
S113175010921302109228021092270248C084EEBD
S113176091E00E94BC068A878A85882339F087E045
S113177090E0909328028093270239C087E090E09C
S1131780909328028093270281E0809316022FC051
S11317908AE591E00E944C091092140218861F8277
S11317A00EC09E012C5C3F4F8F819885820F931F42
S11317B0FC0110828F819885019698878F832F81F1
S11317C0388541E089819A812817390708F040E07B
S11317D0442339F7109228021092270208C010926D
S11317E0280210922702109214021B860000909186
S11317F0140281E0992309F480E0882309F0DBCD09
S1131800C55ADF4F0FB6F894DEBF0FBECDBFDF91D0
S1131810CF910895CF93DF93CDB7DEB7C155D040B4
S11318200FB6F894DEBF0FBECDBF1A8219821C8298
S11318301B8281E08D8357C389819A81833091050E
S113184009F4E1C08430910548F48130910509F42C
S11318508DC08230910508F097C011C08530910584
S113186009F4F3C28530910508F4CEC2863091059F
S113187009F40EC38730910509F41BC32DC31C82E0
S11318801B828EEC90E0FC0180818E8B8E898E32DF
S113189029F486E090E09A83898325C39E01265D1E
S11318A03F4F8B819C81820F931F2E89FC012083E3
S11318B08B819C8101969C838B8381E090E09A8349
S11318C0898311C382E390E00E94D008000088EC71
S11318D090E0FC018081882334F080910F028823FA
S11318E011F081E001C080E0882389F780910F0224
S11318F0882361F41A82198282E691E00E944C09DD
S1131900CE018A960E944C090000EDC28EEC90E054
S1131910FC0180818E8B9E01265D3F4F8B819C81D3
S1131920820F931F2E89FC0120838B819C81019659
S11319309C838B838E898E3279F49E01265D3F4F82
S11319408B819C81820F931FFC0110821D8282E097
S113195090E09A8389830AC08B819C8187329105A8
S113196028F086E090E09A8389831D828D81882304
S113197031F080910F02882311F081E001C080E0F2
S1131980882309F09FCFAFC2CE018A962DE631E0BD
S1131990B90148E050E00E94031D009729F484E057
S11319A090E09A8389839FC28CA591E08A3309F0E1
S11319B090E02DA581E02A3309F080E0892788236F
S11319C049F083E090E09A83898380E791E00E9464
S11319D04C0989C2CE018A9623E231E0B90142E082
S11319E050E00E94031D009749F485E090E09A833B
S11319F08983CE018A960E94970975C286E090E099
S1131A009A83898370C280911502882309F4F3C1F3
S1131A101F8A188E81E090E09F838E831A8E198E20
S1131A201C8E1B8E1E8E1D8E18A21F8E1AA219A22A
S1131A301CA21BA2198618861B861A861D861C8664
S1131A4073C09E01265D3F4F8E819F81820F931F3D
S1131A50FC0180818A33E9F08A859B858330910576
S1131A60C4F49E01265D3F4F8E819F81820F931F98
S1131A70FC0140819E012B5D3F4F8C859D85820F2B
S1131A80931FFC0140838C859D8501969D878C87DF
S1131A9046C08A859B85823091050CF040C09E012A
S1131AA0265D3F4F8E819F81820F931FFC018081B1
S1131AB08A33A9F5CE0185960E94CA1C9C018A85A9
S1131AC09B85880F991FAE014F5F5F4F840F951F51
S1131AD04896FC01318320838A859B8501969B87E8
S1131AE08A871F861E860EC09E012B5D3F4F8E8502
S1131AF09F85820F931FFC0110828E859F8501961E
S1131B009F878E8741E02E853F858C859D85821732
S1131B1093070CF440E0442339F71D861C868E811C
S1131B209F8101969F838E839E01265D3F4F8E8108
S1131B309F81820F931FFC0180818F3269F09E0187
S1131B40265D3F4F8E819F81820F931FFC01808110
S1131B50882311F081E001C080E0882309F071CF6F
S1131B609E01265D3F4F8E819F81820F931FFC0152
S1131B7080818F32B9F4CE0185960E94CA1C9C01E3
S1131B808A859B85880F991FAE014F5F5F4F840F35
S1131B90951F4896FC013183208381E08F8B198A3D
S1131BA0188A17C085E090E09A83898382E191E0E6
S1131BB00E94970998C19E012B5D3F4F888999899E
S1131BC0820F931FFC011082888999890196998B51
S1131BD0888B41E0288939898C859D8582179307F4
S1131BE00CF440E0442339F71D861C868E819F81C6
S1131BF001969F838E8373C09E01265D3F4F8E8125
S1131C009F81820F931FFC0180818C32E9F08885CB
S1131C10998583309105C4F49E01265D3F4F8E81E2
S1131C209F81820F931FFC0140819E012B5D3F4FDA
S1131C308C859D85820F931FFC0140838C859D8537
S1131C4001969D878C8746C0888599858230910549
S1131C500CF040C09E01265D3F4F8E819F81820F14
S1131C60931FFC0180818C32A9F5CE0185960E94D8
S1131C70CA1C9C0188859985880F991FAE014F5F06
S1131C805F4F840F951F4E96FC0131832083888516
S1131C9099850196998788871B8A1A8A0EC09E01A6
S1131CA02B5D3F4F8A899B89820F931FFC01108211
S1131CB08A899B8901969B8B8A8B41E02A893B897F
S1131CC08C859D85821793070CF440E0442339F7F3
S1131CD01D861C868E819F8101969F838E839E0123
S1131CE0265D3F4F8E819F81820F931FFC0180816F
S1131CF08E32A1F09E01265D3F4F8E819F81820F1F
S1131D00931FFC018081882349F02E813F818B81C0
S1131D109C812817390711F081E001C080E08823F5
S1131D2009F06ACF9E01265D3F4F8E819F81820F0D
S1131D30931FFC0180818E32C1F4CE0185960E94EE
S1131D40CA1C9C0188859985880F991FAE014F5F35
S1131D505F4F840F951F4E96FC013183208381E0F1
S1131D60888F888D882351F437C082E191E00E94E6
S1131D70970985E090E09A838983B5C08F89882389
S1131D8059F1698D7A8D4B8D5C8D2D8D3E8D84EE50
S1131D9091E00E9454056F8D78A149A15AA12BA10D
S1131DA03CA184EE91E00E94840181E061E00E9404
S1131DB03C08109215021092100281E48AA7CE0109
S1131DC08A960E9497098CE791E00E944C0987E06B
S1131DD090E09A83898387C081E08093150281E033
S1131DE08093100289E891E00E944C0985E090E01C
S1131DF09A83898378C083E991E00E94970985E0FA
S1131E0090E09A8389836FC084E690E00E94D008B2
S1131E1080911502882361F481E0809313028DE69A
S1131E2091E00E94970987E991E00E944C0908C05B
S1131E3083E991E00E944C0983E991E00E949709AB
S1131E4085E090E09A8389834EC01D8A1C8A0EC067
S1131E509E01265D3F4F8C899D89820F931FFC0153
S1131E6010828C899D8901969D8B8C8B2C893D8950
S1131E7041E08B819C812817390708F040E0442316
S1131E8039F710920F02109210021A8219822BC095
S1131E9086E990E00E94D00883EA91E00E949709C5
S1131EA086EA91E00E944C0985E090E09A83898358
S1131EB01AC086E990E00E94D00881E48AA7CE0186
S1131EC08A960E94970985E090E09A83898381E548
S1131ED091E00E944C0907C01A8219821C821B825D
S1131EE010920F02000090910F0281E0992309F4EF
S1131EF080E0882309F0A0CCCF5ADF4F0FB6F894C6
S1131F00DEBF0FBECDBFDF91CF910895CF93DF9396
S1131F10CDB7DEB7C556D0400FB6F894DEBF0FBEBE
S1131F20CDBF19821A8281E08B83F6C38981882F01
S1131F3090E08330910509F448C1843091055CF444
S1131F408130910509F477C0823091050CF083C08B
S1131F50009791F0DDC38530910509F482C1853085
S1131F6091050CF459C18630910509F4A3C1873059
S1131F70910509F4C0C1CCC31A8286EC90E0FC013F
S1131F8080818C8F8C8D8E3219F485E08983C4C353
S1131F908A81882F90E09E01225C3F4F820F931F1D
S1131FA02C8DFC0120838A818F5F8A8381E0898361
S1131FB0B3C382E390E00E94D008000080EC90E07C
S1131FC0FC018081882334F080910D02882311F074
S1131FD081E001C080E0882389F780910D02882385
S1131FE0C1F186EC90E0FC0180818C8F8A81882F7E
S1131FF090E09E01225C3F4F820F931F2C8DFC01C9
S113200020838A818F5F8A838C8D8E3271F48A81DA
S1132010882F90E09E01225C3F4F820F931FFC01AA
S113202010821B8282E0898306C08A81873218F07D
S113203085E089831B828B81882331F080910D0296
S1132040882311F081E001C080E0882309F0B1CF3A
S113205063C3000061C3CE01CE962EEA31E0B9011C
S113206042E050E00E94031D009741F481E060E0EB
S113207041E00E949F1386E089834EC3CE01CE9631
S113208021EB31E0B90142E050E00E94031D0097CA
S113209041F481E061E040E00E949F1386E089837F
S11320A03BC3CE01CE9624EB31E0B90142E050E0CF
S11320B00E94031D009741F481E061E041E00E9429
S11320C09F1386E0898328C3CE01CE9627EB31E0A7
S11320D0B90142E050E00E94031D009759F481E0E9
S11320E060E00E943C08CE01CE960E944C0986E036
S11320F0898312C3CE01CE962AEB31E0B90142E0C6
S113210050E00E94031D0097A1F48091E00190919A
S1132110E1019E01235E3F4FB9014AE050E00E9475
S11321203A1D1BA2CE014D960E944C0986E089837C
S1132130F3C2CE01CE962DEB31E0B90143E050E07D
S11321400E94031D0097A1F48091E2019091E301A4
S11321509E012C5D3F4FB9014AE050E00E943A1DB8
S11321601AA6CE0184960E944C0986E08983D4C2C3
S1132170CE01805C9F4FFC01808121E08A3309F00D
S113218020E0CE018F5B9F4FFC01908181E09A3368
S113219009F080E08227882319F087E08983BCC294
S11321A0CE01CE962DE631E0B90142E050E00E9426
S11321B0031D009739F48DE691E00E944C0986E0F6
S11321C08983AAC285E08983A7C281E48EAFCE0148
S11321D0CE960E944C09198210920D021D821C8217
S11321E00EC09E01225C3F4F8C819D81820F931F04
S11321F0FC0110828C819D8101969D838C838A8150
S1132200282F30E041E08C819D81821793070CF0E8
S113221040E0442331F780C282E191E00E944C09FE
S113222010920D021F821E820EC09E01225C3F4F3F
S11322308E819F81820F931FFC0110828E819F816A
S113224001969F838E838A81282F30E041E08E811E
S11322509F81821793070CF040E0442331F71982E1
S11322605BC283EA91E00E944C09CE01CE960E94A3
S11322704C0910920D02198618860EC09E01225C2C
S11322803F4F88859985820F931FFC0110828885B2
S113229099850196998788878A81282F30E041E0C3
S11322A088859985821793070CF040E0442331F721
S11322B0198232C210920D021B861A860EC09E012C
S11322C0225C3F4F8A859B85820F931FFC011082FD
S11322D08A859B8501969B878A878A81282F30E08F
S11322E041E08A859B85821793070CF040E04423E4
S11322F031F7198211C21C861D8681E090E09F8708
S11323008E871CA61BA61EA61DA618AA1FA61AAA5F
S113231019AA1CAA1BAA1EAA1DAA198A188A1B8AF2
S11323201A8A1D8A1C8A73C09E01225C3F4F8E85C7
S11323309F85820F931FFC0180818A33E9F08A898B
S11323409B8983309105C4F49E01225C3F4F8E85A6
S11323509F85820F931FFC0140819E01295C3F4FA2
S11323608C899D89820F931FFC0140838C899D89F0
S113237001969D8B8C8B46C08A899B8982309105FE
S11323800CF040C09E01225C3F4F8E859F85820FDA
S1132390931FFC0180818A33A9F5CE01C7960E9460
S11323A0CA1C9C018A899B89880F991FAE014F5FC3
S11323B05F4F840F951F8A96FC01318320838A899D
S11323C09B8901969B8B8A8B1F8A1E8A0EC09E0155
S11323D0295C3F4F8E899F89820F931FFC011082D5
S11323E08E899F8901969F8B8E8B41E02E893F8930
S11323F08C899D89821793070CF440E0442339F7B4
S11324001D8A1C8A8E859F8501969F878E879E01D3
S1132410225C3F4F8E859F85820F931FFC01808134
S11324208F3269F09E01225C3F4F8E859F85820F1B
S1132430931FFC018081882311F081E001C080E0BA
S1132440882309F071CF9E01225C3F4F8E859F85C2
S1132450820F931FFC0180818F32A9F4CE01C796AD
S11324600E94CA1C9C018A899B89880F991FAE010E
S11324704F5F5F4F840F951F8A96FC013183208341
S113248081E08C8702C084E08983198E188E0EC087
S11324909E01295C3F4F888D998D820F931FFC010B
S11324A01082888D998D0196998F888F41E0288DAF
S11324B0398D8C899D89821793070CF440E044235D
S11324C039F71D8A1C8A8E859F8501969F878E8782
S11324D073C09E01225C3F4F8E859F85820F931FA0
S11324E0FC0180818C32E9F08889998983309105D7
S11324F0C4F49E01225C3F4F8E859F85820F931FFB
S1132500FC0140819E01295C3F4F8C899D89820F8B
S1132510931FFC0140838C899D8901969D8B8C8B34
S113252046C088899989823091050CF040C09E018B
S1132530225C3F4F8E859F85820F931FFC01808113
S11325408C32A9F5CE01C7960E94CA1C9C018889C9
S11325509989880F991FAE014F5F5F4F840F951FB4
S1132560C096FC0131832083888999890196998BCF
S1132570888B1B8E1A8E0EC09E01295C3F4F8A8D5C
S11325809B8D820F931FFC0110828A8D9B8D019677
S11325909B8F8A8F41E02A8D3B8D8C899D89821780
S11325A093070CF440E0442339F71D8A1C8A8E8576
S11325B09F8501969F878E879E01225C3F4F8E8563
S11325C09F85820F931FFC0180818E32A9F09E01AA
S11325D0225C3F4F8E859F85820F931FFC01808173
S11325E0882351F08A81282F30E08E859F85281713
S11325F0390711F081E001C080E0882309F069CF38
S11326009E01225C3F4F8E859F85820F931FFC01A4
S113261080818E32A9F4CE01C7960E94CA1C9C0107
S113262088899989880F991FAE014F5F5F4F840F86
S1132630951FC096FC013183208381E08D8702C001
S113264084E089838D85882319F18C85882301F1A1
S113265069A97AA94BA95CA92DA93EA984EE91E0A8
S11326600E9484016BA57CA54DA55EA52FA538A964
S113267084EE91E00E94540581E061E00E943C08F0
S113268081E0809313021092150283E089833BC09A
S11326908D85882319F08C85882361F480911D022F
S11326A0882341F081E0809313021092150284E0A4
S11326B0898329C08D85882319F08C85882381F42A
S11326C080911E02882361F080911D02882341F4C9
S11326D081E0809315021092130284E0898313C071
S11326E08D85882319F08C85882359F480911E02E6
S11326F0882339F480911D02882319F484E08983A6
S113270002C084E0898310921E0210921D0204C04C
S113271010920D021982000090910D0281E099231C
S113272009F480E0882309F001CCCB59DF4F0FB6C0
S1132730F894DEBF0FBECDBFDF91CF910895CF9344
S1132740DF93CDB7DEB7EB970FB6F894DEBF0FBEBD
S1132750CDBF89AF6AAF4BAF89AD882349F18AAD4C
S1132760882389F084EE91E00E94FA069C01CE0150
S11327700196B9010E94FC1CCE0101960E944C09ED
S11327808FE20E942E098BAD8823D1F184EE91E073
S11327900E9486039C01CE010C96B9010E94FC1C88
S11327A0CE010C960E944C098EE20E94790928C041
S11327B08AAD882389F084EE91E00E94FA069C0198
S11327C0CE014D96B9010E94FC1CCE014D960E948B
S11327D097098FE20E9479098BAD882389F084EEF2
S11327E091E00E9486039C01CE018896B9010E9463
S11327F0FC1CCE0188960E9497098EE20E947909FA
S1132800EB960FB6F894DEBF0FBECDBFDF91CF912C
S113281008951F920F920FB60F9211242F933F9396
S11328204F935F936F937F938F939F93AF93BF93D4
S1132830EF93FF93CF93DF93CDB7DEB7F89486E29F
S113284090E0FC018081882F90E08270907021E0FC
S1132850009709F420E02223E1F08DE390E0FC01ED
S113286010828DE690E0FC01108289EC90E029EC66
S113287030E0F90120812068FC01208310920C02D1
S113288010920E0281E0809311028CE091E00E948C
S113289097097894DF91CF91FF91EF91BF91AF9118
S11328A09F918F917F916F915F914F913F912F9164
S11328B00F900FBE0F901F9018951F920F920FB696
S11328C00F9211242F933F934F935F936F937F93B2
S11328D08F939F93AF93BF93EF93FF93CF93DF9324
S11328E0CDB7DEB7F89480911A028823E1F41092F0
S11328F00C0210920E0281E0809312028DE390E0AC
S1132900FC0110828DE690E0FC0110828CE091E0E5
S11329100E944C0981EC90E021EC30E0F901208127
S11329202068FC0120837894DF91CF91FF91EF918F
S1132930BF91AF919F918F917F916F915F914F91D3
S11329403F912F910F900FBE0F901F9018951F92DB
S11329500F920FB60F9211242F933F938F939F934F
S1132960EF93FF93CF93DF93CDB7DEB7F8948091C5
S11329701202882331F081E080930D02109212023A
S113298002C010920D0281EC90E021EC30E0F901DC
S113299020812F77FC0120837894DF91CF91FF91E0
S11329A0EF919F918F913F912F910F900FBE0F90B8
S11329B01F9018951F920F920FB60F9211242F9308
S11329C03F938F939F93EF93FF93CF93DF93CDB771
S11329D0DEB7F89480911102882331F081E080936E
S11329E00F021092110202C010920F0289EC90E0C3
S11329F029EC30E0F90120812F77FC0120837894C1
S1132A00DF91CF91FF91EF919F918F913F912F9102
S1132A100F900FBE0F901F9018951F920F920FB634
S1132A200F9211242F933F934F935F936F937F9350
S1132A308F939F93AF93BF93EF93FF93CF93DF93C2
S1132A40CDB7DEB7F8948BE290E02BE230E0F901E9
S1132A50308120E82327FC01208384EE91E061E0AB
S1132A6070E00E94720680911402882389F080919C
S1132A701F02909120028930910550F480911F0229
S1132A809091200201969093200280931F0243C0EC
S1132A9080911402882389F180911F029091200271
S1132AA08930910550F181EC90E021EC30E0F9019E
S1132AB020812068FC01208389EC90E029EC30E03F
S1132AC0F90120812068FC0120831092140281E026
S1132AD080930C021092200210921F028DE390E06A
S1132AE02DE330E0F90120812460FC0120838DE690
S1132AF090E022E0FC0120830EC080911402882320
S1132B0051F480911F0290912002009721F01092BD
S1132B10200210921F0280910D02882321F48091DB
S1132B201202882389F08091210290912202893037
S1132B30910550F480912102909122020196909384
S1132B4022028093210250C080910D02882321F437
S1132B50809112028823B1F1809121029091220286
S1132B608930910578F181EC90E021EC30E0F901B5
S1132B7020812068FC01208389EC90E029EC30E07E
S1132B80F90120812068FC01208310920D0210922B
S1132B90120281E080930C0281E080930E02109275
S1132BA02202109221028DE390E02DE330E0F9013E
S1132BB020812460FC0120838DE690E022E0FC016A
S1132BC0208312C080910D02882371F48091120237
S1132BD0882351F48091210290912202009721F0E0
S1132BE0109222021092210280910F02882321F474
S1132BF080911102882389F080912302909124020C
S1132C008930910550F48091230290912402019619
S1132C10909324028093230250C080910F02882352
S1132C2021F4809111028823B1F1809123029091C3
S1132C3024028930910578F181EC90E021EC30E0B8
S1132C40F90120812068FC01208389EC90E029ECC3
S1132C5030E0F90120812068FC01208310920F02EA
S1132C6081E080930C021092110281E080930E02A5
S1132C7010922402109223028DE390E02DE330E0C1
S1132C80F90120812460FC0120838DE690E022E09C
S1132C90FC01208312C080910F02882371F480917B
S1132CA01102882351F48091230290912402009709
S1132CB021F01092240210922302DF91CF91FF9110
S1132CC0EF91BF91AF919F918F917F916F915F91A0
S1132CD04F913F912F910F900FBE0F901F90189519
S1132CE0CF93DF93CDB7DEB70E94011883E390E062
S1132CF00E9428180E9496190E946B1981E061E0D5
S1132D000E94840782E090E00E9498080E94081BB9
S1132D100E94321A81E080931B0280911C02882356
S1132D20E1F080911B028823C1F083E090E00E94CF
S1132D30B11B8DE390E02DE330E0F90120812460A4
S1132D40FC0120838DE690E022E0FC01208381E0F9
S1132D5080931E0210921A020DC08DE390E0FC01D4
S1132D6010828DE690E0FC01108281E080931A02CB
S1132D7010921E0288E290E028E230E0F9012081FE
S1132D802460FC01208301C0000080910D0288238F
S1132D9011F180910F028823F1F40E94860F84E0E0
S1132DA090E00E94980880910F028823A1F48DE39B
S1132DB090E02DE330E0F90120812460FC012083C0
S1132DC08DE690E022E0FC01208381E080930C02F8
S1132DD081E080930E0280910F02882311F181EC2F
S1132DE091E00E944C090E940A0C84E090E00E9449
S1132DF0980880910D028823A1F48DE390E02DE3DF
S1132E0030E0F90120812460FC0120838DE690E00C
S1132E1022E0FC01208381E080930C0281E0809316
S1132E200E0280911302882321F4809115028823D5
S1132E30D1F1809110028823B1F580910D0288238D
S1132E4091F580910F02882371F5809111028823F6
S1132E5051F580911202882331F586ED91E00E94AC
S1132E604C090E94C80984E090E00E94980880916F
S1132E700F028823C1F480910D028823A1F48DE30D
S1132E8090E02DE330E0F90120812460FC012083EF
S1132E908DE690E022E0FC01208381E080930C0227
S1132EA081E080930E0280910E02882349F184EE22
S1132EB091E00E94A5049EE1692F0E94911C892F34
S1132EC0982F81E0992309F080E08823C9F084EEEB
S1132ED091E00E94B6049CE0692F0E94911C892F06
S1132EE0982F81E0992309F080E0882329F081E07C
S1132EF061E00E943C0804C081E060E00E943C085C
S1132F0080910E02882319F10E94321A0E94081B34
S1132F1081E080931B0280911C02882371F08091D0
S1132F201B02882351F080911A02882381F081E0EA
S1132F3080931D0210921A020AC080911A028823FB
S1132F4031F481E08093190281E080931A02809128
S1132F5019028823B9F08DE390E0FC0110828DE61C
S1132F6090E0FC01108281E080930C0210920D022B
S1132F701092150281E061E00E943C080E94051C49
S1132F801092190280911D028823C9F083E090E019
S1132F900E94B11B8DE390E02DE330E0F901208124
S1132FA02460FC0120838DE690E022E0FC01208374
S1132FB081E0809313021092150210921D028091F9
S1132FC00C02882361F080911502882321F08091FE
S1132FD01302882321F480911A020E94D41980914B
S1132FE01602882309F4D0CE80911A02882309F0AE
S1132FF0CBCE1092160281E0809315021092130238
S1133000C3CECF93DF93CDB7DEB781E290E0FC016E
S1133010108284E290E0FC01108287E290E0FC01DF
S113302010828AE290E0FC01108282E290E0FC01CE
S1133030108285E290E0FC01108288E290E0FC01BD
S113304010828BE290E0FC011082DF91CF91089511
S1133050CF93DF9300D0CDB7DEB79A83898384EC16
S113306090E02981FC01208385EC90E029813A815C
S1133070232F3327FC01208381EC90E028E1FC011D
S1133080208382EC90E026E0FC0120838CEC90E02D
S11330902981FC0120838DEC90E029813A81232F42
S11330A03327FC01208389EC90E028E1FC01208394
S11330B08AEC90E026E0FC01208381EC90E021EC96
S11330C030E0F90120812068FC01208389EC90E044
S11330D029EC30E0F90120812068FC01208384E69A
S11330E090E024E630E0F90120812D6AFC01208380
S11330F08AE290E02AE230E0F90120812068FC01B4
S1133100208387E290E027E230E0F9012081246007
S1133110FC0120838BE290E02BE230E0F901208176
S11331202068FC01208388E290E028E230E0F90185
S113313020812B7FFC01208381E290E021E230E0BA
S1133140F90120812260FC01208384E290E024E2E2
S113315030E0F90120812860FC01208382E290E0C4
S113316022E230E0F90120812D7FFC01208385E2F9
S113317090E025E230E0F9012081277FFC012083E3
S113318081E290E021E230E0F90120812C60FC0131
S1133190208382E290E022E230E0F9012081237F63
S11331A0FC01208381E290E021E230E0F9012081FA
S11331B0206FFC01208384E290E024E230E0F901F6
S11331C020812160FC01208387E290E027E230E047
S11331D0F90120812160FC01208388E290E028E24B
S11331E030E0F90120812E7FFC01208382E290E00F
S11331F022E230E0F90120812F7EFC01208385E268
S113320090E025E230E0F90120812160FC01208377
S113321082E290E022E230E0F90120812F7DFC017E
S1133220208382E290E022E230E0F90120812F73D2
S1133230FC01208387E290E027E230E0F90120815D
S11332402870FC0120838AE290E02AE230E0F90150
S113325020812F7EFC0120838DE390E0FC0110820D
S11332608DE690E0FC01108289E690E020E3FC0109
S1133270208388E690E028E630E0F901208124608C
S1133280FC01208384E290E024E230E0F901208113
S1133290206BFC01208384E290E024E230E0F90119
S11332A020812F7BFC01208385E290E025E230E041
S11332B0F90120812069FC01208385E290E025E268
S11332C030E0F90120812F7DFC0120830F900F90C5
S11332D0DF91CF910895CF93DF93CDB7DEB781E02F
S11332E080930C0210920D0281E080930E021092E2
S11332F00F021092100210921102109212021092F8
S113330013021092140210921502109216021092D7
S113331017021092180210921D0210921A021092B3
S11333201C0210921B02DF91CF910895CF93DF937B
S1133330CDB7DEB784E690E024E630E0F9012081E1
S11333402F7BFC01208385E090E00E94D00886EB6F
S113335090E026EB30E0F90120812062FC0120831B
S113336081EB90E021EB30E0F90120812560FC0144
S1133370208386EB90E0FC018081882F90E08171AE
S1133380907021E0009709F420E0222391F787E36D
S113339090E021E0FC01208380E790E021E0FC0143
S11333A02083DF91CF910895CF93DF9300D000D095
S11333B00F92CDB7DEB78D8378941C821B828D81EA
S11333C0882329F08CE090E09A83898304C08AE002
S11333D090E09A83898388E290E028E230E0F90162
S11333E020812B7FFC01208383E590E026E0FC0113
S11333F0208383E590E023E530E0F901208121601A
S1133400FC01208381E090E00E94D00806C08895EA
S11334108B819C8101969C838B832B813C81898148
S11334209A812817390734F480910C02882311F00B
S113343081E001C080E0882351F781E090E00E94A0
S1133440D00888E290E028E230E0F901208124608D
S1133450FC0120830F900F900F900F900F90DF913D
S1133460CF910895CF93DF93CDB7DEB72E970FB6E4
S1133470F894DEBF0FBECDBF1C821B8282E290E0B7
S113348022E230E0F90120812460FC0120838DE3F5
S113349090E0FC0110828DE690E0FC01108284E64D
S11334A090E024E630E0F90120812E7FFC012083A6
S11334B08CE790E02CE730E0F90120812068FC01E2
S11334C020838AE790E02AE730E0F901208124682C
S11334D0FC0120838EE790E02EEFFC01208382E044
S11334E090E00E94D0081A8219821CC08AE790E0FA
S11334F02AE730E0F90120812064FC0120838AE777
S113350090E0FC018081882F90E08074907021E02D
S1133510009709F420E0222391F789819A8101968A
S11335209A83898321E089819A81823091050CF004
S113353020E02223D9F688E790E0FC018081882FDF
S113354090E09C838B8389E790E0FC018081882F45
S113355090E0982F88272B813C81822B932B9C838E
S11335608B838B819C819093E1018093E00121E026
S11335708B819C81F3E082379F0708F420E020933D
S11335801C028AE790E0FC0110828CE790E0FC01C9
S113359010828EE790E02EE730E0F901208121606F
S11335A0FC01208384E690E024E630E0F9012081E8
S11335B02160FC0120838091E0019091E1019E0152
S11335C02B5F3F4FB9014AE050E00E94111D1E8657
S11335D082E290E022E230E0F90120812B7FFC01BD
S11335E020838DE390E02DE330E0F9012081246015
S11335F0FC0120838DE690E022E0FC0120832E96DE
S11336000FB6F894DEBF0FBECDBFDF91CF91089502
S1133610CF93DF93CDB7DEB72B970FB6F894DEBF09
S11336200FBECDBF1A8219828DE390E0FC01108297
S11336308DE690E0FC01108284E690E024E630E020
S1133640F90120812B7FFC0120838CE490E02CE4A1
S113365030E0F90120812165FC01208382E090E0C3
S11336600E94980885E290E025E230E0F90120818B
S11336702F76FC012083F8948EE490E0FC01108204
S113368000008DE490E0FC0180818095881F8827EC
S1133690881F8823B1F78EE490E0FC018081882F95
S11336A090E0982F88279A8389838EE490E0FC0128
S11336B0108200008DE490E0FC0180818095881FD9
S11336C08827881F8823B1F78EE490E0FC0180816D
S11336D0882F90E029813A81822B932B9A838983C6
S11336E08CE490E0FC01108289819A819093E3013B
S11336F08093E201789485E290E025E230E0F901DC
S113370020812069FC01208384E690E024E630E0F7
S1133710F90120812460FC0120838091E2019091D1
S1133720E3019E012D5F3F4FB9014AE050E00E9442
S1133730111D1B868DE390E02DE330E0F90120811B
S11337402460FC0120838DE690E022E0FC012083CC
S11337502B960FB6F894DEBF0FBECDBFDF91CF918D
S11337600895CF93DF9300D0CDB7DEB79A838983D2
S11337708DE390E0FC0110828DE690E0FC01108264
S113378088E290E028E230E0F90120812160FC0128
S1133790208389819A810E94980882E290E022E243
S11337A030E0F90120812061FC01208389819A8124
S11337B0880F991F0E94980882E290E022E230E08C
S11337C0F9012081206CFC01208382E290E022E256
S11337D030E0F90120812062FC01208389819A81F3
S11337E00E9498088DE390E02DE330E0F9012081F8
S11337F02460FC0120838DE690E022E0FC0120831C
S11338000F900F90DF91CF910895CF93DF93CDB7B1
S1133810DEB78DE390E0FC0110828DE690E0FC01C0
S1133820108282E290E022E230E0F90120812860F7
S1133830FC01208382E290E022E230E0F901208161
S11338402260FC01208386E090E00E94980882E2D6
S113385090E022E230E0F9012081277FFC012083FF
S113386082E290E022E230E0F90120812D7FFC0128
S1133870208382E290E022E230E0F90120812F7D72
S1133880FC01208382E290E022E230E0F901208111
S11338902F73FC0120838FE090E00E94980882E25D
S11338A090E022E230E0F90120812F7EFC012083A8
S11338B088E290E028E230E0F90120812E7FFC01CB
S11338C02083DF91CF910895CF93DF9300D000D070
S11338D0CDB7DEB79A8389837C836B8389819A8190
S11338E08130910551F48B819C812FEF8F3F92079A
S11338F021F484EE91E00E9410040F900F900F9039
S11339000F90DF91CF910895CF93DF93CDB7DEB7BA
S113391081E090E06FEF7FEF0E94641CDF91CF9114
S11339200895991B79E004C0991F961708F0961B17
S1133930881F7A95C9F78095089597FB092E072665
S11339400AD077FD04D00CD006D000201AF470956C
S113395061957F4F0895F6F7909581959F4F08954F
S1133960AA1BBB1B51E107C0AA1FBB1FA617B707A1
S113397010F0A61BB70B881F991F5A95A9F78095BD
S11339809095BC01CD010895EE0FFF1F0590F491B1
S1133990E02D0994FC0188279927E894219120328D
S11339A0E9F3293010F02E30C8F32B3241F02D32D8
S11339B039F4689404C00E94321D820F911D219134
S11339C020532A30C0F31EF4909581959F4F08959B
S11339D0FB01DC010D900020E9F7119701900D9295
S11339E00020E1F70895FB01DC018D91019080191D
S11339F00110D9F3990B0895FB01DC0101900D929C
S1133A000020E1F70895FB01DC014150504030F003
S1133A108D910190801919F40020B9F7881B990B36
S1133A200895FB019F01E8944230C4F04532B4F498
S1133A304A3029F497FB1EF4909581959F4F642F8B
S1133A4077270E94B01C805D8A330CF0895D8193D6
S1133A50CB010097A1F716F45DE251931082C901DE
S1133A600C94711D7AE0979F902D879F802D910D66
S1133A7011240895FB019F01423074F0453264F42F
S1133A80642F77270E94B01C805D8A330CF0895D17
S1133A908193CB010097A1F71082C9010C94711D89
S1133AA0F999FECF92BD81BDF89A992780B5089502
S1133AB0A8E1B0E042E050E00C94831D262FF99970
S1133AC0FECF1FBA92BD81BD20BD0FB6F894FA9AFD
S1133AD0F99A0FBE019608950E945E1D272F0C943B
S1133AE05F1DDC01FC01672F71917723E1F73297A9
S1133AF004C07C916D9370836291AE17BF07C8F3C5
S1133B000895DC01CB01FC01F999FECF06C0F2BD9A
S1133B10E1BDF89A319600B40D9241505040B8F787
S1093B200895F894FFCFA4
S1133B2654696D656F757453656E6400412E004764
S1133B362E00422E00436F727265637420626163C5
S1133B466B2E00532E00436F6D706172696E672E83
S1133B560047657454696D652E0053656E64696E1D
S1133B66672074696D652E006E6F666C6167732ECF
S1133B7600537563636573732E004572726F7253D7
S1133B862E0054696D656F75742D5247004E2E00D4
S1133B96476F7420612074696D652E005365742027
S1133BA66D792074696D652E004261642074696DB7
S1133BB6652E004E4F2E0047415652204E656564D1
S1133BC6732E00452E004572726F72522E00642EBB
S1133BD600742E00622E00732E00612E0074652E72
S1133BE600526563656976696E672066726F6D203B
S1133BF6574156522E0053656E64696E67472E0010
S9030000FC
