:100000000C943F000C9467000C9467000C948613CA
:100010000C9467000C9467000C9430130C946700E8
:100020000C9467000C9467000C9467000C94CD133B
:100030000C9467000C9467000C9467000C946700A4
:100040000C9467000C9467000C9467000C94670094
:100050000C94FE140C9467000C9467000C946700D9
:100060000C9467000C9467000C9467000C94670074
:100070000C9430150C9467000C9467000A1A112434
:100080001FBECFEFD0E1DEBFCDBF11E0A0E0B1E0F9
:10009000EAE1F6E302C005900D92A839B107D9F75D
:1000A00011E0A8E9B1E001C01D92A33EB107E1F75C
:1000B00010E0CEE7D0E004C02297FE010E94401A73
:1000C000CC37D107C9F70E9462150C940B1B0C9416
:1000D0000000CF93DF9300D0CDB7DEB79A8389833A
:1000E00089819A81FC011182108289819A81FC01A7
:1000F0001382128289819A81FC01158214820F90E9
:100100000F90DF91CF910895CF93DF93CDB7DEB7F6
:1001100028970FB6F894DEBF0FBECDBF9A838983B0
:100120007C836B835E834D8338872F8389819A819B
:100130006B817C814D815E812F8138850E94840195
:1001400028960FB6F894DEBF0FBECDBFDF91CF91DA
:100150000895CF93DF9300D0CDB7DEB79A8389831C
:1001600089819A81FC01808191810F900F90DF91AC
:10017000CF910895CF93DF9300D0CDB7DEB79A83A8
:10018000898389819A81FC01848195810F900F90E8
:10019000DF91CF910895CF93DF9300D0CDB7DEB735
:1001A0009A83898389819A81FC01828193810F904E
:1001B0000F90DF91CF910895CF93DF9300D000D0BF
:1001C000CDB7DEB79A8389837C836B838B819C81D7
:1001D0000C968931910538F489819A812B813C8173
:1001E000FC01318320830F900F900F900F90DF91CF
:1001F000CF910895CF93DF9300D000D0CDB7DEB775
:100200009A8389837C836B8389819A81FC018081B5
:1002100091818930910581F089819A81FC018081E9
:1002200091818430910541F089819A81FC0180811E
:1002300091818630910541F48B819C814E968D335E
:10024000910510F481E001C080E0882341F08981AC
:100250009A812B813C81FC013383228328C08981D0
:100260009A81FC01808191818230910541F48B81DA
:100270009C814C968933910510F481E001C080E0A7
:10028000882341F089819A812B813C81FC01338351
:1002900022830DC08B819C814F968F33910538F45A
:1002A00089819A812B813C81FC01338322830F90C9
:1002B0000F900F900F90DF91CF910895CF93DF9320
:1002C00000D000D0CDB7DEB79A8389837C836B835F
:1002D0008B819C8127E0803D920744F089819A813F
:1002E0002B813C81FC013583248307C089819A815D
:1002F00022EF33E0FC01358324830F900F900F90A1
:100300000F90DF91CF910895CF93DF93CDB7DEB7F4
:1003100028970FB6F894DEBF0FBECDBF9A838983AE
:100320007C836B835E834D8338872F8389819A8199
:100330002B813C81B9010E94DC0089819A812D8149
:100340003E81B9010E94FA0089819A812F81388506
:10035000B9010E945E0128960FB6F894DEBF0FBE69
:10036000CDBFDF91CF910895CF93DF9300D000D020
:1003700000D0CDB7DEB79C838B837E836D838B816A
:100380009C81FC01248135818D819E81820F931F88
:100390009A83898389819A8121E0F7E08D3D9F07C7
:1003A0000CF420E0222339F029813A818B819C8151
:1003B000FC013583248326960FB6F894DEBF0FBE6A
:1003C000CDBFDF91CF910895CF93DF93CDB7DEB747
:1003D0002A970FB6F894DEBF0FBECDBF98878F83E4
:1003E0007A8769878F819885FC0120813181898591
:1003F0009A85820F931F9E838D838D819E818D3080
:1004000091053CF08D819E818931910514F481E044
:1004100001C080E0882361F081E090E09A838983C5
:100420008F81988529813A81B9010E94B40122C047
:100430008D819E8121E0893191050CF420E02223F9
:1004400091F08D819E812CE030E0B9010E94171A55
:100450009B013C832B838F8198852B813C81B90143
:100460000E94B40107C02D813E818F819885FC01D7
:10047000318320832A960FB6F894DEBF0FBECDBF1E
:10048000DF91CF910895CF93DF9300D000D000D0BB
:10049000CDB7DEB79C838B837E836D838B819C81FC
:1004A000FC01228133818D819E81820F931F9A836B
:1004B00089838B819C81FC018081918189309105A8
:1004C00081F08B819C81FC01808191818430910538
:1004D00041F08B819C81FC01808191818630910566
:1004E00011F481E001C080E0882331F189819A8193
:1004F0004E9621E08D33910508F020E0222341F053
:1005000029813A818B819C81FC013383228371C0D4
:100510008B819C8161E070E00E94E40189819A8175
:100520002FE130E0B9010E94171A9C018B819C8158
:10053000FC01338322835DC08B819C81FC0180811F
:10054000918121E08230910509F020E0222349F1D8
:100550008B819C81FC01828193814C9621E08933BF
:10056000910508F020E0222341F029813A818B8116
:100570009C81FC01338322833CC08B819C8161E0A0
:1005800070E00E94E40189819A812DE130E0B90197
:100590000E94171A9C018B819C81FC01338322836A
:1005A00028C08B819C81FC01828193814F9621E040
:1005B0008F33910508F020E0222341F029813A8110
:1005C0008B819C81FC013383228313C08B819C81AE
:1005D00061E070E00E94E40189819A8120E230E0CC
:1005E000B9010E94171A9C018B819C81FC01338305
:1005F000228326960FB6F894DEBF0FBECDBFDF91E3
:10060000CF910895CF93DF9300D00F92CDB7DEB78F
:100610009B838A8319828A819B81FC0180819181DD
:100620000C9621E08931910508F020E0222309F49D
:1006300066C08A819B81FC0180819181893091050E
:1006400081F08A819B81FC018081918184309105B8
:1006500041F08A819B81FC018081918186309105E6
:1006600059F48A819B81FC01828193814E968D335E
:10067000910510F481E001C080E0882319F081E049
:10068000898328C08A819B81FC018081918182308D
:10069000910559F48A819B81FC01828193814C965A
:1006A0008933910510F481E001C080E0882319F0BE
:1006B00081E089830FC08A819B81FC0182819381C3
:1006C0004F9621E08F33910508F020E0222311F0AE
:1006D00081E089838981882359F08A819B81FC018B
:1006E00084819581F7E08D3D9F0714F081E001C082
:1006F00080E0882311F081E003C080E001C080E049
:100700000F900F900F90DF91CF910895CF93DF93CB
:10071000CDB7DEB72D970FB6F894DEBF0FBECDBFB5
:100720009D878C878C859D85FC01808191819E01B0
:100730002F5F3F4FB9014AE050E00E948B1A8C8531
:100740009D85FC01828193819E012C5F3F4FB90101
:100750004AE050E00E948B1A8C859D85FC018481C3
:1007600095819E01295F3F4FB9014AE050E00E9408
:100770008B1A8C859D8506969E012F5F3F4FB90190
:100780000E94761A8C859D859C012A5F3F4FC90186
:10079000AC01FA0101900020E9F7CF010197841B19
:1007A000950B820F931F2CE230E0FC0131832083F4
:1007B0008C859D8506969E012C5F3F4FB9010E9456
:1007C000621A8C859D859C012A5F3F4FC901AC014F
:1007D000FA0101900020E9F7CF010197841B950BE6
:1007E000820F931F2CE230E0FC01318320838C8543
:1007F0009D8506969E01295F3F4FB9010E94621AAE
:100800008C859D85FC01168A8C859D8506962D9686
:100810000FB6F894DEBF0FBECDBFDF91CF91089524
:10082000CF93DF9300D0CDB7DEB79A8389838981D8
:100830009A810E94690089819A8160E070E040E0BD
:1008400050E020E030E00E9454050F900F90DF91BF
:10085000CF910895CF93DF93CDB7DEB728970FB62A
:10086000F894DEBF0FBECDBF9A8389837C836B83F0
:100870005E834D8338872F8389819A810E94690026
:1008800089819A816B817C814D815E812F81388540
:100890000E94540528960FB6F894DEBF0FBECDBF58
:1008A000DF91CF910895CF92DF92EF92FF920F9355
:1008B0001F93CF93DF93CDB7DEB72E970FB6F89483
:1008C000DEBF0FBECDBF9A8389837C836B835E833B
:1008D0004D8338872F831A870987FC86EB86DE864F
:1008E000CD8689819A8169857A854B855C852D8540
:1008F0003E850E94840089819A816B817C814D8133
:100900005E812F8138850E9454052E960FB6F8948B
:10091000DEBF0FBECDBFDF91CF911F910F91FF9032
:10092000EF90DF90CF900895CF93DF9300D0CDB7B5
:10093000DEB79A83898389819A81FC01838D948DA6
:100940000F900F90DF91CF910895CF93DF9300D058
:10095000CDB7DEB79A83898389819A81FC01818D25
:10096000928D0F900F90DF91CF910895CF93DF93E9
:1009700000D0CDB7DEB79A83898389819A81FC0143
:100980008789908D0F900F90DF91CF910895CF932D
:10099000DF93CDB7DEB7A2970FB6F894DEBF0FBED8
:1009A000CDBF98A38F8F7AA369A3CE010B9629A1FF
:1009B0003AA1B9010E94761A1A82198243C01C8298
:1009C0001B8220C029813A81C901880F991F280FF5
:1009D000391F8B819C81820F931F9E01255F3F4FA2
:1009E000820F931FFC0140819E012B5E3F4F8B8144
:1009F0009C81820F931FFC0140838B819C81019617
:100A00009C838B8321E08B819C81823091050CF04B
:100A100020E02223B9F6CE0145960E94441A9C019B
:100A200089819A81880F991FAE014F5F5F4F840FB4
:100A3000951F0496FC013183208389819A81019658
:100A40009A83898321E089819A81833091050CF012
:100A500020E0222309F0B3CF8D819E8147968F320B
:100A60009105C0F48F819885CB968737910590F4D6
:100A700089859A85CB968737910560F46D817E8153
:100A80004F81588529853A858F8D98A10E945405FC
:100A900081E001C080E0A2960FB6F894DEBF0FBEE1
:100AA000CDBFDF91CF910895CF93DF93CDB7DEB760
:100AB00028970FB6F894DEBF0FBECDBF9A83898307
:100AC0007C836B835E834D8338872F8389819A81F2
:100AD0002B813C81B9010E94840589819A812D81F5
:100AE0003E81B9010E94A20589819A812F813885B2
:100AF000B9010E94C00528960FB6F894DEBF0FBE5C
:100B0000CDBFDF91CF910895CF93DF9300D000D078
:100B1000CDB7DEB79A8389837C836B838B819C817D
:100B200047968F32910538F489819A812B813C81D7
:100B3000FC01308F278B0F900F900F900F90DF915B
:100B4000CF910895CF93DF9300D000D0CDB7DEB71B
:100B50009A8389837C836B838B819C81CB96873737
:100B6000910538F489819A812B813C81FC01328F77
:100B7000218F0F900F900F900F90DF91CF910895DC
:100B8000CF93DF9300D000D0CDB7DEB79A838983AF
:100B90007C836B838B819C81CB968737910538F45E
:100BA00089819A812B813C81FC01348F238F0F90A6
:100BB0000F900F900F90DF91CF910895CF93DF9317
:100BC000CDB7DEB728970FB6F894DEBF0FBECDBF06
:100BD0009E838D8378876F838D819E81FC01278919
:100BE000308D8F819885820F931F9A8389838981A5
:100BF0009A8128E130E0B9010E94171A9C018D8189
:100C00009E81FC01308F278B89819A8121E0883178
:100C100091050CF420E0222391F089819A8128E14A
:100C200030E0B9010E94171A9B01C9019C838B8394
:100C30008D819E812B813C81B9010E9443022896BF
:100C40000FB6F894DEBF0FBECDBFDF91CF910895F0
:100C5000CF93DF93CDB7DEB728970FB6F894DEBFFA
:100C60000FBECDBF9E838D8378876F838D819E81DC
:100C7000FC01218D328D8F819885820F931F9A837D
:100C8000898389819A812CE330E0B9010E94171A87
:100C90009C018D819E81FC01328F218F89819A81F7
:100CA00021E08C3391050CF420E0222391F089811E
:100CB0009A812CE330E0B9010E94171A9B01C90107
:100CC0009C838B832B813C818D819E81B9010E9405
:100CD000DE0528960FB6F894DEBF0FBECDBFDF91BC
:100CE000CF910895CF93DF93CDB7DEB728970FB696
:100CF000F894DEBF0FBECDBF9E838D8378876F8350
:100D00008D819E81FC01238D348D8F819885820F8A
:100D1000931F9A83898389819A812CE330E0B901FA
:100D20000E94171A9C018D819E81FC01348F238FB4
:100D300089819A8121E08C3391050CF420E02223F3
:100D400091F089819A812CE330E0B9010E94171A51
:100D50009B01C9019C838B832B813C818D819E816A
:100D6000B9010E94280628960FB6F894DEBF0FBE80
:100D7000CDBFDF91CF910895CF93DF9300D00F9235
:100D8000CDB7DEB79B838A8381E089838A819B818B
:100D9000FC01838D948DCB9687379105A0F48A81D1
:100DA0009B81FC01818D928DCB968737910558F4FC
:100DB0008A819B81FC018789908D47968F329105AE
:100DC00010F481E001C080E0882369F08A819B8172
:100DD0000E940203982F81E0992309F480E0882380
:100DE00011F081E001C080E00F900F900F90DF9133
:100DF000CF910895CF93DF93CDB7DEB72B970FB682
:100E0000F894DEBF0FBECDBF9B878A878A859B85FE
:100E1000FC018789908D9E012F5F3F4FB9014AE009
:100E200050E00E948B1A8A859B85FC01818D928DF2
:100E30009E012C5F3F4FB9014AE050E00E948B1A9F
:100E40008A859B85FC01838D948D9E01295F3F4F90
:100E5000B9014AE050E00E948B1A8A859B854D9625
:100E60009E012F5F3F4FB9010E94761A8A859B85AC
:100E70009C01235E3F4FC901AC01FA0101900020A3
:100E8000E9F7CF010197841B950B820F931F2AE38B
:100E900030E0FC01318320838A859B854D969E013D
:100EA0002C5F3F4FB9010E94621A8A859B859C0185
:100EB000235E3F4FC901AC01FA0101900020E9F720
:100EC000CF010197841B950B820F931F2AE330E01B
:100ED000FC01318320838A859B854D969E01295F85
:100EE0003F4FB9010E94621A8A859B85FC0110A6BA
:100EF0008A859B854D962B960FB6F894DEBF0FBE64
:100F0000CDBFDF91CF910895CF93DF93CDB7DEB7FB
:100F10002F970FB6F894DEBF0FBECDBF8E876F87B9
:100F2000F8948E85882309F44BC01A82198281E0D7
:100F30008B832CC082E090E00E94CA1A8F8381E0EC
:100F400090E00E94CA1A888780E090E00E94CA1A46
:100F500089878F818C33A8F488858C3390F48985B8
:100F6000883178F48985682F70E08885482F50E0B3
:100F70008F81282F30E08CE991E00E9454051B827C
:100F800005C089819A8101969A8389838B81882300
:100F900039F089819A818330910514F481E001C090
:100FA00080E0882339F68B81882351F08CE991E029
:100FB00061E070E041E050E021E030E00E94540543
:100FC0008F85882309F44EC01D821C8281E08E83A8
:100FD0002FC084E090E00E94CA1A8A8783E090E0E4
:100FE0000E94CA1A8B8785E090E00E94D21A9D87E2
:100FF0008C878A858F31B8F48B858D30A0F48C85F1
:101000009D8527E28031920770F48B85682F70E010
:101010008A85482F50E02C853D858CE991E00E941F
:1010200084011E8205C08C819D8101969D838C83E5
:101030008E81882339F08C819D818330910514F451
:1010400081E001C080E0882321F68E81882351F061
:101050008CE991E061E070E041E050E021ED37E0A3
:101060000E94840178942F960FB6F894DEBF0FBECD
:10107000CDBFDF91CF910895CF93DF93CDB7DEB78A
:1010800029970FB6F894DEBF0FBECDBF888769875A
:10109000F89488858823F1F08CE991E00E94B604E9
:1010A00089838CE991E00E94A5048A838CE991E010
:1010B0000E9494048B8382E090E06B810E94D81A96
:1010C00081E090E06A810E94D81A80E090E0698116
:1010D0000E94D81A8985882309F18CE991E00E9441
:1010E000BA009D838C838CE991E00E94A9008E83D5
:1010F0008CE991E00E94CB008F8385E090E02C8109
:101100003D81B9010E94E61A83E090E06E810E9461
:10111000D81A84E090E06F810E94D81A78942996BA
:101120000FB6F894DEBF0FBECDBFDF91CF9108950B
:10113000CF93DF930F92CDB7DEB78983000080ECA9
:1011400090E0FC018081882F90E08072907021E017
:10115000009709F020E0222391F786EC90E02981A6
:10116000FC0120830F90DF91CF910895CF93DF93FF
:1011700000D00F92CDB7DEB79B838A8319820EC051
:101180008981882F90E02A813B81820F931FFC0187
:10119000808199819F5F99830E9498088981882F17
:1011A00090E02A813B81820F931FFC01908181E0B6
:1011B000992309F480E0882319F70F900F900F907E
:1011C000DF91CF910895CF93DF930F92CDB7DEB724
:1011D0008983000088EC90E0FC018081882F90E0FA
:1011E0008072907021E0009709F020E0222391F7AF
:1011F0008EEC90E02981FC0120830F90DF91CF914C
:101200000895CF93DF9300D00F92CDB7DEB79B83C5
:101210008A8319820EC08981882F90E02A813B81C0
:10122000820F931FFC01808199819F5F99830E94A7
:10123000E3088981882F90E02A813B81820F931FE8
:10124000FC01908181E0992309F480E0882319F75B
:101250000F900F900F90DF91CF910895CF93DF9370
:10126000CDB7DEB7CA55D0400FB6F894DEBF0FBE7B
:10127000CDBF81E08A871A8219821B8281E0809328
:10128000CA01FCC18091E1019091E2018330910596
:1012900009F41EC18430910548F48130910509F4A8
:1012A00098C08230910508F0A2C011C08530910528
:1012B00009F4ADC18530910508F49EC186309105D1
:1012C00009F4AFC18730910509F4C4C1CEC185E2EC
:1012D00090E025E230E0F90120812860FC012083C4
:1012E0001D821C8206C000008C819D8101969D8319
:1012F0008C8321E08C819D81823091050CF020E06F
:10130000222389F785E290E025E230E0F90120818F
:10131000277FFC01208381E090E09093E20180939D
:10132000E101ACC1000088EC90E0FC0180818823E1
:1013300034F08091CA01882311F081E001C080E07F
:10134000882389F78091CA01882341F41092E20131
:101350001092E10181E08B83000090C18EEC90E05F
:10136000FC01808188879E012D5C3F4F89819A8195
:10137000820F931F2885FC01208389819A81019621
:101380009A83898388858E32B1F49E012D5C3F4F0C
:1013900089819A81820F931FFC01108289819A8131
:1013A00001969A83898382E090E09093E201809392
:1013B000E1011A860EC089819A818732910548F031
:1013C0001A8219821A8687E090E09093E201809356
:1013D000E1018A85882331F08091CA01882311F0C8
:1013E00081E001C080E0882309F09CCF47C1CE0195
:1013F000C39620E031E0B90145E050E00E947D1A3B
:10140000009739F483E090E09093E2018093E1014A
:1014100035C1CE01C39626E031E0B90146E050E087
:101420000E947D1A009739F484E090E09093E201E5
:101430008093E10123C1CE01C3962DE031E0B901D3
:1014400047E050E00E947D1A009739F486E090E072
:101450009093E2018093E10111C18091C901882339
:1014600089F0CE01C3969E01255F3F4FB9010E94CE
:101470006D1A009739F485E090E09093E201809333
:10148000E10125C08091C9018823D1F0CE01C39626
:101490009E01255F3F4FB9010E946D1A009781F0B0
:1014A000CE01C3962DE031E0B9010E946D1A00977C
:1014B00039F087E090E09093E2018093E10107C06A
:1014C00087E090E09093E2018093E101D7C0D6C01D
:1014D0008091CB01882361F08091C901882341F478
:1014E00085E191E00E94010981E08093C8015DC01F
:1014F0008091C901882309F458C08091CB018823C9
:1015000009F053C09E01255F3F4F81E493E4ABE4B3
:10151000B0E0F90180839183A283B3838CE991E0E9
:101520000E94FA069C01CE010B96B9010E94621A34
:10153000CE010B969C01F90101900020E9F7CF0143
:101540000197821B930B9E01255F3F4F820F931FD4
:101550002FE230E0FC01318320838CE991E00E948E
:1015600086039C01CE010B96B9010E94621ACE013E
:101570000B969C01F90101900020E9F7CF0101973A
:10158000821B930B9E01255F3F4F820F931F2EE21C
:1015900030E0FC01318320838CE191E00E9401095D
:1015A00080E061E041E00E94C6121F821E820EC0F0
:1015B0009E012D5C3F4F8E819F81820F931FFC0106
:1015C00010828E819F8101969F838E832E813F8121
:1015D00041E089819A812817390708F040E04423C7
:1015E00039F781E08A871A82198281E090E090932E
:1015F000E2018093E10142C080E291E00E94010992
:1016000085E090E09093E2018093E10137C0109271
:10161000CA011092CD011B821092E2011092E101E9
:101620002DC08CE991E00E94BC06898789858823BA
:1016300039F087E090E09093E2018093E1011EC0D1
:1016400085E090E09093E2018093E10181E0809356
:10165000CC0114C081E08093CD011092CA011B829D
:101660001092E2011092E10109C01092E201109281
:10167000E1011092CA011A861B8200008091CA0102
:10168000882329F08B81882311F481E001C080E058
:10169000882309F0F7CD8A85882319F48B81882364
:1016A00011F081E001C080E0882319F081E080938F
:1016B000CD018091CD01882329F41092CB011092A5
:1016C000C90102C01092CD01C65ADF4F0FB6F8947F
:1016D000DEBF0FBECDBFDF91CF910895CF93DF93D3
:1016E000CDB7DEB7CB55D0400FB6F894DEBF0FBEF6
:1016F000CDBF1C8A1B8A81E08983B9C38091DF0139
:101700009091E0018330910509F476C18430910510
:1017100048F48130910509F48BC08230910508F0BE
:1017200095C011C08530910509F482C185309105BD
:1017300008F473C18630910509F485C1873091059D
:1017400009F488C18DC31C8A1B8A86EC90E0FC01D9
:1017500080818A8B8A898E3239F485E090E090937B
:10176000E0018093DF0183C38B899C899E012C5CFF
:101770003F4F280F391F4A89F901408301969C8BFE
:101780008B8B81E090E09093E0018093DF016FC349
:10179000000080EC90E0FC018081882334F080918F
:1017A000C501882311F081E001C080E0882389F71A
:1017B0008091C501882331F41092E0011092DF017D
:1017C000000055C386EC90E0FC0180818A8B8B89F8
:1017D0009C899E012C5C3F4F280F391F4A89F901D3
:1017E000408301969C8B8B8B8A898E3289F48B89FE
:1017F0009C899E012C5C3F4F820F931FFC0110823D
:10180000198282E090E09093E0018093DF0110C0A4
:101810008B899C8921E08331910508F420E0222303
:1018200039F085E090E09093E0018093DF01198228
:101830008981882331F08091C501882311F081E0EE
:1018400001C080E0882309F0A3CF11C3CE01C49664
:1018500029E231E0B90145E050E00E947D1A00978D
:1018600061F481E060E041E00E94C61286E090E011
:101870009093E0018093DF01FAC2CE01C4962FE27B
:1018800031E0B90145E050E00E947D1A009761F413
:1018900081E061E040E00E94C61286E090E0909313
:1018A000E0018093DF01E3C2CE01C49625E331E07D
:1018B000B90145E050E00E947D1A009761F481E093
:1018C00061E041E00E94C61286E090E09093E00162
:1018D0008093DF01CCC2CE01C4962BE331E0B90185
:1018E00045E050E00E947D1A009779F481E060E0C5
:1018F0000E943C08CE01C4960E94B60886E090E0A3
:101900009093E0018093DF01B2C2CE01C49621E43E
:1019100031E0B90144E050E00E947D1A0097C1F423
:1019200080919801909199019E012B5E3F4FB901E2
:101930004AE050E00E94B41A1B8ECE0145960E94E8
:10194000B60886E090E09093E0018093DF018FC2BB
:10195000CE01C49626E431E0B90145E050E00E9492
:101960007D1A0097C1F480919A0190919B019E018C
:10197000245E3F4FB9014AE050E00E94B41A1AA217
:10198000CE014C960E94B60886E090E09093E0016C
:101990008093DF016CC288AD91E08A3309F090E05A
:1019A00029AD81E02A3309F080E08927882339F0C6
:1019B00087E090E09093E0018093DF0158C2CE0170
:1019C000C4962CE431E0B90148E050E00E947D1A51
:1019D000009759F485E591E00E94B60886E090E012
:1019E0009093E0018093DF0142C285E090E0909304
:1019F000E0018093DF013BC281E48CAB83E48DABDB
:101A00008BE48EABCE01C4960E94B6081092E00122
:101A10001092DF011092C5012AC28DE091E00E9470
:101A2000B6081092C5011092E0011092DF011FC2AA
:101A30008EE591E00E94B6081092C5011092E00177
:101A40001092DF0114C21092C5011092E0011092B1
:101A5000DF010DC21A821B821D821C821CA21BA2E6
:101A60001EA21DA218A61FA21AA619A61CA61BA676
:101A70001EA61DA61F821E82198618861B861A8620
:101A800073C09E012C5C3F4F8C819D81820F931F00
:101A9000FC0180818A33E9F088859985833091053E
:101AA000C4F49E012C5C3F4F8C819D81820F931F5B
:101AB000FC0140819E01215D3F4F8A859B85820FFD
:101AC000931FFC0140838A859B8501969B878A87AB
:101AD00046C088859985823091050CF040C09E01F2
:101AE0002C5C3F4F8C819D81820F931FFC01808174
:101AF0008A33A9F5CE018F960E94441A9C018885ED
:101B00009985880F991FAE014F5F5F4F840F951F16
:101B10008296FC0131832083888599850196998777
:101B200088871D861C860EC09E01215D3F4F8C85D7
:101B30009D85820F931FFC0110828C859D850196E7
:101B40009D878C8741E02C853D858A859B85821702
:101B500093070CF440E0442339F71B861A868C81E6
:101B60009D8101969D838C839E012C5C3F4F8C81CF
:101B70009D81820F931FFC0180818F3269F09E014D
:101B80002C5C3F4F8C819D81820F931FFC018081D3
:101B9000882311F081E001C080E0882309F071CF33
:101BA0009E012C5C3F4F8C819D81820F931FFC0115
:101BB00080818F32A9F4CE018F960E94441A9C0135
:101BC00088859985880F991FAE014F5F5F4F840FFD
:101BD000951F8296FC013183208381E08A8306C0B1
:101BE00084E090E09093E0018093DF011F861E86E1
:101BF0000EC09E01215D3F4F8E859F85820F931FF2
:101C0000FC0110828E859F8501969F878E8741E01B
:101C10002E853F858A859B85821793070CF440E0CB
:101C2000442339F71B861A868C819D8101969D83FA
:101C30008C8373C09E012C5C3F4F8C819D81820FF1
:101C4000931FFC0180818C32E9F08E819F8183306B
:101C50009105C4F49E012C5C3F4F8C819D81820FC5
:101C6000931FFC0140819E01215D3F4F8A859B852A
:101C7000820F931FFC0140838A859B8501969B8779
:101C80008A8746C08E819F81823091050CF040C0CA
:101C90009E012C5C3F4F8C819D81820F931FFC0124
:101CA00080818C32A9F5CE018F960E94441A9C0146
:101CB0008E819F81880F991FAE014F5F5F4F840F08
:101CC000951F8896FC01318320838E819F81019628
:101CD0009F838E83198A188A0EC09E01215D3F4F13
:101CE00088899989820F931FFC01108288899989BC
:101CF0000196998B888B41E0288939898A859B8553
:101D0000821793070CF440E0442339F71B861A86A8
:101D10008C819D8101969D838C839E012C5C3F4F1D
:101D20008C819D81820F931FFC0180818E32A1F0F6
:101D30009E012C5C3F4F8C819D81820F931FFC0183
:101D40008081882349F02C813D818B899C892817CB
:101D5000390711F081E001C080E0882309F06ACFE3
:101D60009E012C5C3F4F8C819D81820F931FFC0153
:101D700080818E32A9F4CE018F960E94441A9C0174
:101D80008E819F81880F991FAE014F5F5F4F840F37
:101D9000951F8896FC013183208381E08B8306C0E8
:101DA00084E090E09093E0018093DF018B818823B1
:101DB00039F18A81882321F169A57AA54BA55CA513
:101DC0002DA53EA58CE991E00E9484016BA17CA128
:101DD0004DA15EA12FA138A58CE991E00E94540588
:101DE00081E061E00E943C0881E08093C90110928B
:101DF000CB0183E090E09093E0018093DF012BC062
:101E00008B81882319F08A81882381F48091D30102
:101E1000882361F081E08093C9011092CB0184E0B6
:101E200090E09093E0018093DF0115C08B818823BF
:101E300019F08A81882379F48091D401882359F09C
:101E400081E08093CB011092C90184E090E09093EF
:101E5000E0018093DF011092D4011092D30107C0FA
:101E60001092C5011092E0011092DF0100009091E4
:101E7000C50181E0992309F480E0882309F03ECC74
:101E8000C55ADF4F0FB6F894DEBF0FBECDBFDF914E
:101E9000CF910895CF93DF93CDB7DEB7CD54D04027
:101EA0000FB6F894DEBF0FBECDBF1C8A1B8A81E03F
:101EB000898359C38091DD019091DE0183309105C2
:101EC00009F4CDC08430910548F48130910509F4BE
:101ED0008BC08230910508F095C011C08530910506
:101EE00009F415C38530910508F4FAC286309105CE
:101EF00009F414C38730910509F41BC32BC31C8A52
:101F00001B8A8EEC90E0FC0180818A8B8A898E325C
:101F100039F486E090E09093DE018093DD0123C3E5
:101F20008B899C899E012A5D3F4F280F391F4A8962
:101F3000F901408301969C8B8B8B81E090E090931C
:101F4000DE018093DD010FC3000088EC90E0FC010E
:101F50008081882334F08091C701882311F081E0CB
:101F600001C080E0882389F78091C701882331F47C
:101F70001092DE011092DD010000F5C28EEC90E0BF
:101F8000FC0180818A8B8B899C899E012A5D3F4F51
:101F9000280F391F4A89F901408301969C8B8B8B4E
:101FA0008A898E3289F48B899C899E012A5D3F4FF4
:101FB000820F931FFC011082198282E090E09093BF
:101FC000DE018093DD0110C08B899C8921E087327E
:101FD000910508F420E0222339F086E090E0909308
:101FE000DE018093DD0119828981882331F080919F
:101FF000C701882311F081E001C080E0882309F047
:10200000A3CFB1C2CE01869628E631E0B90148E0FF
:1020100050E00E947D1A009739F484E090E090939C
:10202000DE018093DD019FC28AA591E08A3309F029
:1020300090E02BA581E02A3309F080E089278823EE
:1020400039F083E090E09093DE018093DD018BC254
:1020500086E090E09093DE018093DD0184C2809160
:10206000CB01882309F431C21A821B821D821C8293
:102070001E8A1D8A188E1F8A1A8E198E1C8E1B8E20
:102080001E8E1D8E18A21F8E1F821E821986188614
:102090001B861A8673C09E012A5D3F4F8C819D81ED
:1020A000820F931FFC0180818A33E9F0888599852E
:1020B00083309105C4F49E012A5D3F4F8C819D8140
:1020C000820F931FFC0140819E012F5D3F4F8A8547
:1020D0009B85820F931FFC0140838A859B85019617
:1020E0009B878A8746C088859985823091050CF048
:1020F00040C09E012A5D3F4F8C819D81820F931FBE
:10210000FC0180818A33A9F5CE0181960E94441A90
:102110009C0188859985880F991FAE014F5F5F4F9D
:10212000840F951F4496FC0131832083888599850F
:102130000196998788871D861C860EC09E012F5D9B
:102140003F4F8C859D85820F931FFC0110828C85EB
:102150009D8501969D878C8741E02C853D858A85EC
:102160009B85821793070CF440E0442339F71B86C4
:102170001A868C819D8101969D838C839E012A5DA8
:102180003F4F8C819D81820F931FFC0180818F3294
:1021900069F09E012A5D3F4F8C819D81820F931FC4
:1021A000FC018081882311F081E001C080E0882358
:1021B00009F071CF9E012A5D3F4F8C819D81820F76
:1021C000931FFC0180818F32A9F4CE0181960E9479
:1021D000441A9C0188859985880F991FAE014F5F2D
:1021E0005F4F840F951F4496FC013183208381E06B
:1021F0008A830AC085E090E09093DE018093DD0140
:102200008DE091E00E9401091F861E860EC09E018E
:102210002F5D3F4F8E859F85820F931FFC0110829B
:102220008E859F8501969F878E8741E02E853F850D
:102230008A859B85821793070CF440E0442339F785
:102240001B861A868C819D8101969D838C8373C029
:102250009E012A5D3F4F8C819D81820F931FFC015F
:1022600080818C32E9F08E819F8183309105C4F4A6
:102270009E012A5D3F4F8C819D81820F931FFC013F
:1022800040819E012F5D3F4F8A859B85820F931F62
:10229000FC0140838A859B8501969B878A8746C07F
:1022A0008E819F81823091050CF040C09E012A5D95
:1022B0003F4F8C819D81820F931FFC0180818C3266
:1022C000A9F5CE0181960E94441A9C018E819F81BE
:1022D000880F991FAE014F5F5F4F840F951F4A967D
:1022E000FC01318320838E819F8101969F838E83A1
:1022F000198A188A0EC09E012F5D3F4F88899989DF
:10230000820F931FFC011082888999890196998B0D
:10231000888B41E0288939898A859B8582179307B4
:102320000CF440E0442339F71B861A868C819D818A
:1023300001969D838C839E012A5D3F4F8C819D81F8
:10234000820F931FFC0180818E32A1F09E012A5DD5
:102350003F4F8C819D81820F931FFC0180818823D8
:1023600049F02C813D818B899C892817390711F010
:1023700081E001C080E0882309F06ACF9E012A5DD8
:102380003F4F8C819D81820F931FFC0180818E3293
:10239000A9F4CE0181960E94441A9C018E819F81EE
:1023A000880F991FAE014F5F5F4F840F951F4A96AC
:1023B000FC013183208381E08B830AC08DE091E0B2
:1023C0000E94010985E090E09093DE018093DD0199
:1023D0008D899E8947968F329105F0F48F89988D6B
:1023E000CB9687379105C0F4898D9A8DCB96873728
:1023F000910590F48A81882379F06D897E894F89CF
:10240000588D298D3A8D8CE991E00E94540581E028
:1024100060E00E943C080AC08DE091E00E94010942
:1024200085E090E09093DE018093DD018B8D9C8DA3
:102430000C968931910510F58D8D9E8D4F968F33B9
:102440009105E0F48F8D98A1F7E0803D9F07B4F0EF
:102450008B81882399F06B8D7C8D4D8D5E8D2F8DBA
:1024600038A18CE991E00E94840180E061E00E9443
:102470003C088091CB01882361F41CC08DE091E081
:102480000E94010985E090E09093DE018093DD01D8
:102490006AC08B81882371F08A81882359F0109259
:1024A000CB011092C80187E090E09093DE01809309
:1024B000DD0159C08DE091E00E94010985E090E0C6
:1024C0009093DE018093DD014EC081E791E00E9490
:1024D000010985E090E09093DE018093DD0143C027
:1024E0008091CB01882341F481E08093C90188E782
:1024F00091E00E94010904C081E791E00E94010976
:1025000085E090E09093DE018093DD012CC0109275
:10251000C7011092DE011092DD0125C08EE591E029
:102520000E94010985E090E09093DE018093DD0137
:102530001AC081E48EA383E48FA38BE488A7CE0125
:1025400086960E94010985E090E09093DE018093D9
:10255000DD0109C01092DE011092DD011C8A1B8A88
:102560001092C70100009091C70181E0992309F4FE
:1025700080E0882309F09ECCC35BDF4F0FB6F89450
:10258000DEBF0FBECDBFDF91CF910895CF93DF9314
:10259000CDB7DEB7EB970FB6F894DEBF0FBECDBF59
:1025A00089AF6AAF4BAF89AD882349F18AAD8823E3
:1025B00089F08CE991E00E94FA069C01CE01019617
:1025C000B9010E94761ACE0101960E94B6088FE2E8
:1025D0000E9498088BAD8823D1F18CE991E00E948C
:1025E00086039C01CE010C96B9010E94761ACE0199
:1025F0000C960E94B6088EE20E94E30828C08AADBD
:10260000882389F08CE991E00E94FA069C01CE01B2
:102610004D96B9010E94761ACE014D960E9401098D
:102620008FE20E94E3088BAD882389F08CE991E06A
:102630000E9486039C01CE018896B9010E94761AF9
:10264000CE0188960E9401098EE20E94E308EB9673
:102650000FB6F894DEBF0FBECDBFDF91CF910895C6
:102660001F920F920FB60F9211242F933F934F9307
:102670005F936F937F938F939F93AF93BF93EF93EA
:10268000FF93CF93DF93CDB7DEB7F89486E290E067
:10269000FC018081882F90E082709070009731F06B
:1026A0008091D001882311F481E001C080E088236B
:1026B000C9F089EC90E029EC30E0F9012081206834
:1026C000FC0120831092C4011092C6018DE390E0BA
:1026D000FC0110828DE690E0FC01108281E891E01F
:1026E0000E9401097894DF91CF91FF91EF91BF9102
:1026F000AF919F918F917F916F915F914F913F919A
:102700002F910F900FBE0F901F9018951F920F9250
:102710000FB60F9211242F933F934F935F936F93B4
:102720007F938F939F93AF93BF93EF93FF93CF9339
:10273000DF93CDB7DEB7F8948091D0018823C9F438
:1027400081EC90E021EC30E0F90120812068FC016F
:1027500020831092C4011092C6018DE390E0FC0129
:1027600010828DE690E0FC01108286E891E00E94E4
:10277000B6087894DF91CF91FF91EF91BF91AF911F
:102780009F918F917F916F915F914F913F912F9189
:102790000F900FBE0F901F9018951F920F920FB6BB
:1027A0000F9211242F933F934F935F936F937F93D7
:1027B0008F939F93AF93BF93EF93FF93CF93DF9349
:1027C000CDB7DEB78BE290E02BE230E0F90130814B
:1027D00020E82327FC0120838CE991E061E070E090
:1027E0000E9472068091CA01882349F08091D50128
:1027F0009091D6018730910514F481E001C080E00A
:10280000882351F08091D5019091D6010196909343
:10281000D6018093D50139C08091CA01882349F03F
:102820008091D5019091D6018730910514F081E017
:1028300001C080E08823A9F01092CA011092D6014D
:102840001092D5018DE390E02DE330E0F901208175
:102850002460FC0120838DE690E022E0FC012083CF
:1028600014C08091CA01882349F48091D5019091C8
:10287000D6011816190614F481E001C080E08823FF
:1028800021F01092D6011092D5018091C5018823C4
:1028900049F08091D7019091D8018730910514F4C7
:1028A00081E001C080E0882351F08091D7019091B0
:1028B000D80101969093D8018093D70139C08091B7
:1028C000C501882349F08091D7019091D8018730C4
:1028D000910514F081E001C080E08823A9F01092F6
:1028E000C5011092D8011092D7018DE390E02DE33D
:1028F00030E0F90120812460FC0120838DE690E026
:1029000022E0FC01208314C08091C501882349F492
:102910008091D7019091D8011816190614F481E01E
:1029200001C080E0882321F01092D8011092D701D5
:102930008091C701882349F08091D9019091DA01F3
:102940008730910514F481E001C080E0882351F0C4
:102950008091D9019091DA0101969093DA018093E8
:10296000D90139C08091C701882349F08091D901EC
:102970009091DA018730910514F081E001C080E088
:102980008823A9F01092C7011092D8011092D701A4
:102990008DE390E02DE330E0F90120812460FC011B
:1029A00020838DE690E022E0FC01208314C080911A
:1029B000C701882349F48091D7019091D801181656
:1029C000190614F481E001C080E0882321F0109200
:1029D000D8011092D701DF91CF91FF91EF91BF9174
:1029E000AF919F918F917F916F915F914F913F91A7
:1029F0002F910F900FBE0F901F9018951F920F925E
:102A00000FB60F9211242F933F938F939F93EF93C1
:102A1000FF93CF93DF93CDB7DEB7F89481EC90E0CE
:102A200021EC30E0F90120812F77FC0120838DE338
:102A300090E0FC0110828DE690E0FC01108281E0C4
:102A40008093C5017894DF91CF91FF91EF919F9191
:102A50008F913F912F910F900FBE0F901F9018955F
:102A60001F920F920FB60F9211242F933F938F93C3
:102A70009F93EF93FF93CF93DF93CDB7DEB7F89497
:102A800089EC90E029EC30E0F90120812F77FC01FE
:102A900020838DE390E0FC0110828DE690E0FC0144
:102AA000108281E08093C7017894DF91CF91FF91EC
:102AB000EF919F918F913F912F910F900FBE0F90AB
:102AC0001F901895CF93DF93CDB7DEB70E94821584
:102AD00081E890E00E94A91588EC90E00E943417EC
:102AE0000E94F61688E290E028E230E0F9012081A9
:102AF0002160FC01208381E08093D10181E08093FB
:102B0000D201FFCFCF93DF93CDB7DEB781E290E064
:102B1000FC01108284E290E0FC01108287E290E0E8
:102B2000FC0110828AE290E0FC01108282E290E0D7
:102B3000FC01108285E290E0FC01108288E290E0C6
:102B4000FC0110828BE290E0FC011082DF91CF91BA
:102B50000895CF93DF9300D0CDB7DEB79A838983F2
:102B600084EC90E02981FC01208385EC90E02981B0
:102B70003A81232F3327FC01208381EC90E028E168
:102B8000FC01208382EC90E026E0FC0120838CECA9
:102B900090E02981FC01208385EC90E029813A8135
:102BA000232F3327FC01208389EC90E028E1FC01EE
:102BB00020838AEC90E026E0FC01208381EC90E009
:102BC00021EC30E0F90120812068FC01208389ECB0
:102BD00090E029EC30E0F90120812068FC0120839D
:102BE00084E690E024E630E0F90120812D6FFC01BD
:102BF00020838AE290E02AE230E0F9012081206817
:102C0000FC01208387E290E027E230E0F901208197
:102C10002460FC0120838BE290E02BE230E0F9019C
:102C200020812F77FC01208388E290E028E230E0C9
:102C3000F90120812460FC01208381E290E021E2FF
:102C400030E0F90120812260FC01208384E290E0E1
:102C500024E230E0F90120812860FC01208382E237
:102C600090E022E230E0F90120812D7FFC012083F9
:102C700085E290E025E230E0F9012081277FFC0128
:102C8000208381E290E021E230E0F90120812C6094
:102C9000FC01208382E290E022E230E0F901208111
:102CA000237FFC01208381E290E021E230E0F90102
:102CB0002081206FFC01208384E290E024E230E058
:102CC000F90120812160FC01208387E290E027E266
:102CD00030E0F90120812160FC01208382E290E054
:102CE00022E230E0F90120812F7EFC01208388E27E
:102CF00090E028E230E0F90120812E7FFC01208362
:102D000085E290E025E230E0F90120812E7FFC0190
:102D1000208382E290E022E230E0F90120812F7DE1
:102D2000FC01208382E290E022E230E0F901208180
:102D30002F73FC0120838DE390E0FC0110828DE66F
:102D400090E0FC01108289E690E020E3FC01208302
:102D500088E690E028E630E0F90120812160FC015E
:102D6000208384E290E024E230E0F9012081206BAE
:102D7000FC01208384E290E024E230E0F90120812C
:102D80002F7BFC01208385E290E025E230E0F90111
:102D900020812069FC01208385E290E025E230E07B
:102DA000F90120812F7DFC01208381E08093C40103
:102DB0001092C50181E08093C6011092C901109262
:102DC000CA011092CB011092CC011092CD01109249
:102DD000CE011092D3011092CF011092D201109225
:102DE000D1010F900F90DF91CF910895CF93DF9392
:102DF000CDB7DEB784E690E024E630E0F90120812B
:102E00002F7BFC01208385E090E00E94341786EB45
:102E100090E026EB30E0F90120812062FC01208364
:102E200081EB90E021EB30E0F90120812560FC018D
:102E3000208386EB90E0FC018081882F90E08171F7
:102E4000907021E0009709F420E0222391F787E3B6
:102E500090E021E0FC01208380E790E021E0FC018C
:102E60002083DF91CF910895CF93DF9300D000D0DE
:102E7000CDB7DEB79C838B8318C01A82198206C037
:102E8000000089819A8101969A83898389819A8138
:102E900021E033E0803293070CF020E0222381F719
:102EA0008B819C8101979C838B838B819C8121E00A
:102EB000181619060CF020E02223F9F60F900F9057
:102EC0000F900F90DF91CF910895CF93DF9300D0B3
:102ED00000D000D0CDB7DEB79E838D838CE991E022
:102EE0000E949404882F90E09A83898329813A81F3
:102EF0008D819E81820F931F2CE330E0B9010E94E7
:102F0000171A9C838B8301C000008CE991E00E941A
:102F10009404282F30E08B819C8141E028173907E9
:102F200009F440E0442381F726960FB6F894DEBFFB
:102F30000FBECDBFDF91CF910895CF93DF9300D027
:102F400000D00F92CDB7DEB78D8378948DE390E0FB
:102F50002DE330E0F90120812460FC0120838DE61F
:102F600090E022E0FC0120831C821B828D81813055
:102F700029F488E090E09A83898304C085E090E09A
:102F80009A83898388E290E028E230E0F901208189
:102F90002B7FFC01208383E590E026E0FC01208369
:102FA00083E590E023E530E0F90120812160FC0118
:102FB000208381E090E00E94341706C088958B81C1
:102FC0009C8101969C838B832B813C8189819A8192
:102FD0002817390734F48091C401882311F081E067
:102FE00001C080E0882351F78AE090E00E94341706
:102FF00088E290E028E230E0F90120812460FC01C1
:1030000020830F900F900F900F900F90DF91CF9132
:103010000895CF93DF93CDB7DEB72E970FB6F89410
:10302000DEBF0FBECDBF1C821B82F89484E690E009
:1030300024E630E0F90120812E7FFC0120838CE71B
:1030400090E02CE730E0F90120812068FC0120832A
:103050008AE790E02AE730E0F90120812468FC014A
:1030600020838EE790E02EEFFC01208385E090E046
:103070000E9434171A8219821CC08AE790E02AE75E
:1030800030E0F90120812064FC0120838AE790E090
:10309000FC018081882F90E08074907021E000977F
:1030A00009F420E0222391F789819A8101969A837D
:1030B000898321E089819A81823091050CF020E09A
:1030C0002223D9F688E790E0FC018081882F90E0E8
:1030D0009C838B8389E790E0FC018081882F90E0BE
:1030E000982F88272B813C81822B932B9C838B8369
:1030F0008B819C81909399018093980121E08B8131
:103100009C81F3E082379F0708F420E02093D201EE
:1031100078948AE790E0FC0110828CE790E0FC0153
:1031200010828EE790E02EE730E0F90120812160E7
:10313000FC01208384E690E024E630E0F901208160
:103140002160FC01208380919801909199019E015A
:103150002B5F3F4FB9014AE050E00E948B1A1E8658
:103160008BE891E00E94B608CE0105960E94B60851
:103170002E960FB6F894DEBF0FBECDBFDF91CF9174
:103180000895CF93DF93CDB7DEB72B970FB6F894A2
:10319000DEBF0FBECDBF1A82198285E290E025E224
:1031A00030E0F90120812160FC01208384E690E079
:1031B00024E630E0F90120812B7FFC0120838CE4A0
:1031C00090E02CE430E0F90120812165FC012083AE
:1031D00081E090E00E94651785E290E025E230E012
:1031E000F90120812F76FC012083F8948EE490E091
:1031F000FC01108200008DE490E0FC01808180954C
:10320000881F8827881F8823B1F71A8219828EE4C5
:1032100090E0FC01108200008DE490E0FC018081D0
:103220008095881F8827881F8823B1F789819A8114
:1032300090939B0180939A01789485E290E025E237
:1032400030E0F90120812069FC0120838CE490E0CA
:10325000FC01108285E290E025E230E0F901208156
:103260002E7FFC01208384E690E024E630E0F90123
:1032700020812460FC01208380919A0190919B0120
:103280009E012D5F3F4FB9014AE050E00E948B1A2A
:103290001B8681E991E00E94B608CE0103960E9448
:1032A000B6082B960FB6F894DEBF0FBECDBFDF91E8
:1032B000CF910895CF93DF9300D0CDB7DEB79A8337
:1032C0008983F89488E290E028E230E0F9012081D7
:1032D0002160FC01208389819A810E94341782E257
:1032E00090E022E230E0F90120812061FC0120839E
:1032F00089819A810E94341782E290E022E230E0D4
:10330000F9012081206CFC01208389819A810E942F
:10331000341782E290E022E230E0F901208120625D
:10332000FC01208389819A810E94341778940F9040
:103330000F90DF91CF910895CF93DF93CDB7DEB794
:103340008DE390E0FC0110828DE690E0FC0110829C
:10335000789482E290E022E230E0F90120812C6052
:10336000FC01208386E090E00E94651782E290E0F5
:1033700022E230E0F9012081237FFC01208382E2F8
:1033800090E022E230E0F90120812F7DFC012083D2
:1033900082E290E022E230E0F90120812F73FC010B
:1033A000208386E090E00E94651782E290E022E2AE
:1033B00030E0F90120812F7EFC01208388E290E03B
:1033C00028E230E0F90120812E7FFC012083DF918B
:1033D000CF910895CF93DF9300D000D0CDB7DEB763
:1033E0009A8389837C836B8389819A81813091055B
:1033F00051F48B819C812FEF8F3F920721F48CE950
:1034000091E00E9410040F900F900F900F90DF91A9
:10341000CF910895CF93DF93CDB7DEB781E090E0F1
:103420006FEF7FEF0E94EA19DF91CF91089597FB2C
:10343000092E07260AD077FD04D00CD006D0002034
:103440001AF4709561957F4F0895F6F790958195E0
:103450009F4F0895AA1BBB1B51E107C0AA1FBB1FAA
:10346000A617B70710F0A61BB70B881F991F5A9510
:10347000A9F780959095BC01CD010895EE0FFF1F2F
:103480000590F491E02D0994FC0188279927E89490
:1034900021912032E9F3293010F02E30C8F32B327D
:1034A00041F02D3239F4689404C00E94AC1A820FA6
:1034B000911D219120532A30C0F31EF490958195DF
:1034C0009F4F0895FB01DC010D900020E9F7119753
:1034D00001900D920020E1F70895FB01DC018D9130
:1034E000019080190110D9F3990B0895FB01DC01BB
:1034F00001900D920020E1F70895FB01DC0141509D
:10350000504030F08D910190801919F40020B9F7E6
:10351000881B990B0895FB019F01E8944230C4F089
:103520004532B4F44A3029F497FB1EF49095819506
:103530009F4F642F77270E942A1A805D8A330CF0F0
:10354000895D8193CB010097A1F716F45DE2519359
:103550001082C9010C94EB1A7AE0979F902D879FF7
:10356000802D910D11240895FB019F01423074F0CC
:10357000453264F4642F77270E942A1A805D8A33CB
:103580000CF0895D8193CB010097A1F71082C901EE
:103590000C94EB1AF999FECF92BD81BDF89A992748
:1035A00080B50895A8E1B0E042E050E00C94FD1A27
:1035B000262FF999FECF1FBA92BD81BD20BD0FB64F
:1035C000F894FA9AF99A0FBE019608950E94D81AB3
:1035D000272F0C94D91ADC01FC01672F71917723F6
:1035E000E1F7329704C07C916D9370836291AE17BE
:1035F000BF07C8F30895DC01CB01FC01F999FECFA8
:1036000006C0F2BDE1BDF89A319600B40D9241506A
:0A3610005040B8F70895F894FFCF7A
:10361A0041434B572E0041434B47422E0041434BF7
:10362A004241442E0053594E47422E0053594E00F0
:10363A0053594E444F4E452E00646174652E0074F2
:10364A00696D652E00626F74682E00736176652E4F
:10365A00006164632E0074656D702E0053594E4EDE
:10366A004F4E452E0041434B4E4F4E452E0041438F
:10367A004B4552524F522E0053594E4E4545442EF9
:10368A000041434B4E4F2E0041434B4E4545442E7D
:10369A000041434B470041434B54004144433A20C5
:0836AA000054454D503A0000A8
:00000001FF
