:100000000C943F000C9467000C9467000C94400A19
:100010000C94300A0C9467000C9467000C946700F1
:100020000C9467000C9467000C9467000C94810A90
:100030000C9467000C9467000C9467000C946700A4
:100040000C9467000C9467000C9467000C94670094
:100050000C94FD0A0C9467000C9467000C946700E4
:100060000C9467000C9467000C9467000C94670074
:100070000C9467000C9467000C946700E51411243D
:100080001FBECFEFD8E0DEBFCDBF11E0A0E0B1E0F2
:10009000E0EAFBE202C005900D92A237B107D9F762
:1000A00011E0A2E7B1E001C01D92A33BB107E1F767
:1000B00010E0CEE7D0E004C02297FE010E94271591
:1000C000CC37D107C9F70E942B0B0C94CE150C949A
:1000D0000000CF93DF9300D0CDB7DEB79A8389833A
:1000E00089819A81FC011182108289819A81FC01A7
:1000F0001382128289819A81FC01158214820F90E9
:100100000F90DF91CF910895CF93DF93CDB7DEB7F6
:1001100028970FB6F894DEBF0FBECDBF9A838983B0
:100120007C836B835E834D8338872F8389819A819B
:100130006B817C814D815E812F8138850E94840195
:1001400028960FB6F894DEBF0FBECDBFDF91CF91DA
:100150000895CF93DF9300D0CDB7DEB79A8389831C
:1001600089819A81FC01808191810F900F90DF91AC
:10017000CF910895CF93DF9300D0CDB7DEB79A83A8
:10018000898389819A81FC01848195810F900F90E8
:10019000DF91CF910895CF93DF9300D0CDB7DEB735
:1001A0009A83898389819A81FC01828193810F904E
:1001B0000F90DF91CF910895CF93DF9300D000D0BF
:1001C000CDB7DEB79A8389837C836B838B819C81D7
:1001D0000C968931910538F489819A812B813C8173
:1001E000FC01318320830F900F900F900F90DF91CF
:1001F000CF910895CF93DF9300D000D0CDB7DEB775
:100200009A8389837C836B8389819A81FC018081B5
:1002100091818930910581F089819A81FC018081E9
:1002200091818430910541F089819A81FC0180811E
:1002300091818630910541F48B819C814E968D335E
:10024000910510F481E001C080E0882341F08981AC
:100250009A812B813C81FC013383228328C08981D0
:100260009A81FC01808191818230910541F48B81DA
:100270009C814C968933910510F481E001C080E0A7
:10028000882341F089819A812B813C81FC01338351
:1002900022830DC08B819C814F968F33910538F45A
:1002A00089819A812B813C81FC01338322830F90C9
:1002B0000F900F900F90DF91CF910895CF93DF9320
:1002C00000D000D0CDB7DEB79A8389837C836B835F
:1002D0008B819C8127E0803D920744F089819A813F
:1002E0002B813C81FC013583248307C089819A815D
:1002F00022EF33E0FC01358324830F900F900F90A1
:100300000F90DF91CF910895CF93DF93CDB7DEB7F4
:1003100028970FB6F894DEBF0FBECDBF9A838983AE
:100320007C836B835E834D8338872F8389819A8199
:100330002B813C81B9010E94DC0089819A812D8149
:100340003E81B9010E94FA0089819A812F81388506
:10035000B9010E945E0128960FB6F894DEBF0FBE69
:10036000CDBFDF91CF910895CF93DF9300D000D020
:1003700000D0CDB7DEB79C838B837E836D838B816A
:100380009C81FC01248135818D819E81820F931F88
:100390009A83898389819A8121E0F7E08D3D9F07C7
:1003A0000CF420E0222339F029813A818B819C8151
:1003B000FC013583248326960FB6F894DEBF0FBE6A
:1003C000CDBFDF91CF910895CF93DF93CDB7DEB747
:1003D0002A970FB6F894DEBF0FBECDBF98878F83E4
:1003E0007A8769878F819885FC0120813181898591
:1003F0009A85820F931F9E838D838D819E818D3080
:1004000091053CF08D819E818931910514F481E044
:1004100001C080E0882361F081E090E09A838983C5
:100420008F81988529813A81B9010E94B40122C047
:100430008D819E8121E0893191050CF420E02223F9
:1004400091F08D819E812CE030E0B9010E94FE1474
:100450009B013C832B838F8198852B813C81B90143
:100460000E94B40107C02D813E818F819885FC01D7
:10047000318320832A960FB6F894DEBF0FBECDBF1E
:10048000DF91CF910895CF93DF9300D000D000D0BB
:10049000CDB7DEB79C838B837E836D838B819C81FC
:1004A000FC01228133818D819E81820F931F9A836B
:1004B00089838B819C81FC018081918189309105A8
:1004C00081F08B819C81FC01808191818430910538
:1004D00041F08B819C81FC01808191818630910566
:1004E00011F481E001C080E0882331F189819A8193
:1004F0004E9621E08D33910508F020E0222341F053
:1005000029813A818B819C81FC013383228371C0D4
:100510008B819C8161E070E00E94E40189819A8175
:100520002FE130E0B9010E94FE149C018B819C8177
:10053000FC01338322835DC08B819C81FC0180811F
:10054000918121E08230910509F020E0222349F1D8
:100550008B819C81FC01828193814C9621E08933BF
:10056000910508F020E0222341F029813A818B8116
:100570009C81FC01338322833CC08B819C8161E0A0
:1005800070E00E94E40189819A812DE130E0B90197
:100590000E94FE149C018B819C81FC013383228389
:1005A00028C08B819C81FC01828193814F9621E040
:1005B0008F33910508F020E0222341F029813A8110
:1005C0008B819C81FC013383228313C08B819C81AE
:1005D00061E070E00E94E40189819A8120E230E0CC
:1005E000B9010E94FE149C018B819C81FC01338324
:1005F000228326960FB6F894DEBF0FBECDBFDF91E3
:10060000CF910895CF93DF93CDB7DEB72D970FB677
:10061000F894DEBF0FBECDBF9D878C878C859D85EE
:10062000FC01808191819E012F5F3F4FB9014AE01B
:1006300050E00E9464158C859D85FC018281938128
:100640009E012C5F3F4FB9014AE050E00E946415C3
:100650008C859D85FC01848195819E01295F3F4F9A
:10066000B9014AE050E00E9464158C859D8506968C
:100670009E012F5F3F4FB9010E945D158C859D85BE
:100680009C012A5F3F4FC901AC01FA010190002093
:10069000E9F7CF010197841B950B820F931F2CE282
:1006A00030E0FC01318320838C859D8506969E0178
:1006B0002C5F3F4FB9010E9449158C859D859C0197
:1006C0002A5F3F4FC901AC01FA0101900020E9F710
:1006D000CF010197841B950B820F931F2CE230E012
:1006E000FC01318320838C859D8506969E01295FC0
:1006F0003F4FB9010E9449158C859D8520E2FC0180
:10070000258B8C859D85FC01168A8C859D8506969A
:100710002D960FB6F894DEBF0FBECDBFDF91CF91FF
:100720000895CF93DF9300D0CDB7DEB79A83898346
:1007300089819A810E94690089819A8160E070E0D4
:1007400040E050E020E030E00E94D5040F900F9090
:10075000DF91CF910895CF93DF93CDB7DEB7289780
:100760000FB6F894DEBF0FBECDBF9A8389837C831A
:100770006B835E834D8338872F8389819A810E94A2
:10078000690089819A816B817C814D815E812F8195
:1007900038850E94D50428960FB6F894DEBF0FBEA8
:1007A000CDBFDF91CF910895CF92DF92EF92FF926C
:1007B0000F931F93CF93DF93CDB7DEB72E970FB66E
:1007C000F894DEBF0FBECDBF9A8389837C836B8391
:1007D0005E834D8338872F831A870987FC86EB86D3
:1007E000DE86CD8689819A8169857A854B855C858F
:1007F0002D853E850E94840089819A816B817C8150
:100800004D815E812F8138850E94D5042E960FB6CA
:10081000F894DEBF0FBECDBFDF91CF911F910F9136
:10082000FF90EF90DF90CF900895CF93DF9300D0AB
:10083000CDB7DEB79A83898389819A81FC01838D44
:10084000948D0F900F90DF91CF910895CF93DF9308
:1008500000D0CDB7DEB79A83898389819A81FC0164
:10086000818D928D0F900F90DF91CF910895CF934E
:10087000DF9300D0CDB7DEB79A83898389819A81CF
:10088000FC018789908D0F900F90DF91CF91089593
:10089000CF93DF93CDB7DEB7A2970FB6F894DEBF44
:1008A0000FBECDBF98A38F8F7AA369A3CE010B96FD
:1008B00029A13AA1B9010E945D151A82198243C08B
:1008C0001C821B8220C029813A81C901880F991F8F
:1008D000280F391F8B819C81820F931F9E01255FFA
:1008E0003F4F820F931FFC0140819E012B5E3F4FC3
:1008F0008B819C81820F931FFC0140838B819C81A3
:1009000001969C838B8321E08B819C8182309105B1
:100910000CF020E02223B9F6CE0145960E942B155B
:100920009C0189819A81880F991FAE014F5F5F4FAB
:10093000840F951F0496FC013183208389819A815D
:1009400001969A83898321E089819A818330910578
:100950000CF020E0222309F0B3CF8D819E814796D1
:100960008F329105C0F48F819885CB96873791059A
:1009700090F489859A85CB968737910560F46D81CF
:100980007E814F81588529853A858F8D98A10E9457
:10099000D50481E001C080E0A2960FB6F894DEBFD6
:1009A0000FBECDBFDF91CF910895CF93DF93CDB729
:1009B000DEB728970FB6F894DEBF0FBECDBF9A837F
:1009C00089837C836B835E834D8338872F83898102
:1009D0009A812B813C81B9010E94050589819A8108
:1009E0002D813E81B9010E94230589819A812F8141
:1009F0003885B9010E94410528960FB6F894DEBFEC
:100A00000FBECDBFDF91CF910895CF93DF9300D07C
:100A100000D0CDB7DEB79A8389837C836B838B81CB
:100A20009C8147968F32910538F489819A812B8178
:100A30003C81FC01308F278B0F900F900F900F900F
:100A4000DF91CF910895CF93DF9300D000D0CDB741
:100A5000DEB79A8389837C836B838B819C81CB9661
:100A60008737910538F489819A812B813C81FC017B
:100A7000328F218F0F900F900F900F90DF91CF91B9
:100A80000895CF93DF9300D000D0CDB7DEB79A831F
:100A900089837C836B838B819C81CB96873791057F
:100AA00038F489819A812B813C81FC01348F238F1A
:100AB0000F900F900F900F90DF91CF910895CF93EB
:100AC000DF93CDB7DEB728970FB6F894DEBF0FBE21
:100AD000CDBF9E838D8378876F838D819E81FC013E
:100AE0002789308D8F819885820F931F9A83898300
:100AF00089819A8128E130E0B9010E94FE149C01AD
:100B00008D819E81FC01308F278B89819A8121E024
:100B1000883191050CF420E0222391F089819A819B
:100B200028E130E0B9010E94FE149B01C9019C83B9
:100B30008B838D819E812B813C81B9010E94430270
:100B400028960FB6F894DEBF0FBECDBFDF91CF91D0
:100B50000895CF93DF93CDB7DEB728970FB6F894FB
:100B6000DEBF0FBECDBF9E838D8378876F838D815F
:100B70009E81FC01218D328D8F819885820F931F7C
:100B80009A83898389819A812CE330E0B9010E949C
:100B9000FE149C018D819E81FC01328F218F898101
:100BA0009A8121E08C3391050CF420E0222391F00E
:100BB00089819A812CE330E0B9010E94FE149B01E7
:100BC000C9019C838B832B813C818D819E81B901DE
:100BD0000E945F0528960FB6F894DEBF0FBECDBF0A
:100BE000DF91CF910895CF93DF93CDB7DEB72897EC
:100BF0000FB6F894DEBF0FBECDBF9E838D8378877E
:100C00006F838D819E81FC01238D348D8F8198852A
:100C1000820F931F9A83898389819A812CE330E024
:100C2000B9010E94FE149C018D819E81FC01348FCC
:100C3000238F89819A8121E08C3391050CF420E087
:100C4000222391F089819A812CE330E0B9010E943E
:100C5000FE149B01C9019C838B832B813C818D8178
:100C60009E81B9010E94A90528960FB6F894DEBFAF
:100C70000FBECDBFDF91CF910895CF93DF93CDB756
:100C8000DEB72B970FB6F894DEBF0FBECDBF9B87A4
:100C90008A878A859B85FC018789908D9E012F5FBD
:100CA0003F4FB9014AE050E00E9464158A859B8558
:100CB000FC01818D928D9E012C5F3F4FB9014AE06E
:100CC00050E00E9464158A859B85FC01838D948D7C
:100CD0009E01295F3F4FB9014AE050E00E94641530
:100CE0008A859B854D969E012F5F3F4FB9010E94DB
:100CF0005D158A859B859C01235E3F4FC901AC0130
:100D0000FA0101900020E9F7CF010197841B950BB0
:100D1000820F931F2AE330E0FC01318320838A8510
:100D20009B854D969E012C5F3F4FB9010E9449154E
:100D30008A859B859C01235E3F4FC901AC01FA0166
:100D400001900020E9F7CF010197841B950B820FDA
:100D5000931F2AE330E0FC01318320838A859B8541
:100D60004D969E01295F3F4FB9010E9449158A8522
:100D70009B8520E2FC0127A38A859B85FC0110A6A8
:100D80008A859B854D962B960FB6F894DEBF0FBED5
:100D9000CDBFDF91CF910895CF93DF93CDB7DEB76D
:100DA0002F970FB6F894DEBF0FBECDBF8E876F872B
:100DB000F8948E85882309F44BC01A82198281E049
:100DC0008B832CC082E090E00E948D158F8381E0A0
:100DD00090E00E948D15888780E090E00E948D153C
:100DE00089878F818C33A8F488858C3390F489852A
:100DF000883178F48985682F70E08885482F50E025
:100E00008F81282F30E085E891E00E94D5041B8275
:100E100005C089819A8101969A8389838B81882371
:100E200039F089819A818330910514F481E001C001
:100E300080E0882339F68B81882351F085E891E0A2
:100E400061E070E041E050E021E030E00E94D50434
:100E50008F85882309F44EC01D821C8281E08E8319
:100E60002FC084E090E00E948D158A8783E090E097
:100E70000E948D158B8785E090E00E9495159D87D7
:100E80008C878A858F31B8F48B858D30A0F48C8562
:100E90009D8527E28031920770F48B85682F70E082
:100EA0008A85482F50E02C853D8585E891E00E9499
:100EB00084011E8205C08C819D8101969D838C8357
:100EC0008E81882339F08C819D818330910514F4C3
:100ED00081E001C080E0882321F68E81882351F0D3
:100EE00085E891E061E070E041E050E021ED37E01D
:100EF0000E94840178942F960FB6F894DEBF0FBE3F
:100F0000CDBFDF91CF910895CF93DF93CDB7DEB7FB
:100F100029970FB6F894DEBF0FBECDBF88876987CB
:100F2000F89488858823F1F085E891E00E943704E1
:100F3000898385E891E00E9426048A8385E891E010
:100F40000E9415048B8382E090E06B810E949B15C8
:100F500081E090E06A810E949B1580E090E06981C9
:100F60000E949B158985882309F185E891E00E94FC
:100F7000BA009D838C8385E891E00E94A9008E834E
:100F800085E891E00E94CB008F8385E090E02C8182
:100F90003D81B9010E94A91583E090E06E810E9415
:100FA0009B1584E090E06F810E949B1578942996B0
:100FB0000FB6F894DEBF0FBECDBFDF91CF9108957D
:100FC000CF93DF930F92CDB7DEB78983000080EC1B
:100FD00090E0FC018081882F90E08072907021E089
:100FE000009709F020E0222391F786EC90E0298118
:100FF000FC0120830F90DF91CF910895CF93DF9371
:1010000000D00F92CDB7DEB79B838A8319820EC0C2
:101010008981882F90E02A813B81820F931FFC01F8
:10102000808199819F5F99830E94E0078981882F41
:1010300090E02A813B81820F931FFC01908181E027
:10104000992309F480E0882319F70F900F900F90EF
:10105000DF91CF910895CF93DF930F92CDB7DEB795
:101060008983000088EC90E0FC018081882F90E06B
:101070008072907021E0009709F020E0222391F720
:101080008EEC90E02981FC0120830F90DF91CF91BD
:101090000895CF93DF9300D00F92CDB7DEB79B8337
:1010A0008A8319820EC08981882F90E02A813B8132
:1010B000820F931FFC01808199819F5F99830E9419
:1010C0002B088981882F90E02A813B81820F931F12
:1010D000FC01908181E0992309F480E0882319F7CD
:1010E0000F900F900F90DF91CF910895CF93DF93E2
:1010F000CDB7DEB76D970FB6F894DEBF0FBECDBF8C
:10110000F894789481E089871A8219821F8232C10B
:101110008091B1019091B2018130910509F49EC096
:101120008130910548F08230910509F4A5C08330E3
:10113000910509F4F3C01EC185E290E025E230E09C
:10114000F90120812860FC0120831C821B8206C0DB
:1011500000008B819C8101969C838B8321E08B8195
:101160009C81823091050CF020E0222389F785E2F2
:1011700090E025E230E0F9012081277FFC01208307
:1011800081E090E09093B2018093B101F3C0000040
:1011900088EC90E0FC018081882334F080917A0112
:1011A000882311F081E001C080E0882389F78091D5
:1011B0007A01882341F488E090E09093B201809313
:1011C000B1010000D7C08EEC90E0FC0180818887DF
:1011D0009E01265F3F4F89819A81820F931F288548
:1011E000FC01208389819A8101969A83898388856D
:1011F0008E32A9F49E01265F3F4F89819A81820F2A
:10120000931FFC01108289819A8101969A838983B8
:1012100082E090E09093B2018093B1011FC09E01E3
:10122000265F3F4F89819A81820F931F2885FC0199
:10123000208389819A8101969A83898389819A8101
:101240008331910558F01A821982198681E08F83C3
:1012500089E090E09093B2018093B1018985882361
:1012600031F080917A01882311F081E001C080E0A3
:10127000882309F08CCF7EC0CE010A9620E031E0B1
:10128000B9010E945415009739F083E090E09093E3
:10129000B2018093B1016DC0CE010A9626E031E023
:1012A000B9010E945415009739F084E090E09093C2
:1012B000B2018093B1015DC0CE010A962CE031E00D
:1012C000B9010E945415009739F085E090E09093A1
:1012D000B2018093B1014DC0CE010A9622E131E006
:1012E000B9010E945415009739F086E090E0909380
:1012F000B2018093B1013DC0CE010A9628E131E0F0
:10130000B9010E9454150097A1F581E08F8389E00F
:1013100090E09093B2018093B1012BC08BE191E0FA
:101320000E9449081E821D820EC09E01265F3F4F0B
:101330008D819E81820F931FFC0110828D819E8181
:1013400001969E838D832D813E8141E089819A8122
:101350002817390708F040E0442339F781E08987EE
:101360001A82198281E090E09093B2018093B101DA
:1013700001C0000090917A0181E0992309F480E096
:10138000882309F0C5CE6D960FB6F894DEBF0FBE68
:10139000CDBFDF91CF910895CF93DF93CDB7DEB767
:1013A000EB970FB6F894DEBF0FBECDBF89AF6AAF23
:1013B0004BAF89AD882331F18AAD882389F085E868
:1013C00091E00E943D069C01CE010196B9010E9468
:1013D0005D15CE0101960E94FE078FE20E94E00794
:1013E0008BAD8823A1F185E891E00E9402039C0166
:1013F000CE010C96B9010E945D15CE010C960E949B
:10140000FE0725C08AAD882389F085E891E00E9417
:101410003D069C01CE014D96B9010E945D15CE019D
:101420004D960E9449088FE20E942B088BAD8823BD
:1014300071F085E891E00E9402039C01CE0188963C
:10144000B9010E945D15CE0188960E944908EB966D
:101450000FB6F894DEBF0FBECDBFDF91CF910895D8
:101460001F920F920FB60F921124CF93DF93CDB737
:10147000DEB7DF91CF910F900FBE0F901F901895A0
:101480001F920F920FB60F9211242F933F934F93F9
:101490005F936F937F938F939F93AF93BF93EF93DC
:1014A000FF93CF93DF93CDB7DEB790917C0181E0BE
:1014B000992309F080E0882389F081EC90E021EC09
:1014C00030E0F90120812068FC0120831092720134
:1014D0001092740182E291E00E94FE07DF91CF91A9
:1014E000FF91EF91BF91AF919F918F917F916F91FC
:1014F0005F914F913F912F910F900FBE0F901F90D2
:1015000018951F920F920FB60F9211242F933F93AD
:101510004F935F936F937F938F939F93AF93BF93FB
:10152000EF93FF93CF93DF93CDB7DEB785E891E0DC
:1015300061E070E00E94F30580917301813021F039
:1015400080917201882351F480917B01882331F4CA
:1015500080917F01882311F481E001C080E088231D
:1015600051F18091AD019091AE0101969093AE0141
:101570008093AD018091AD019091AE0121E0863064
:1015800091050CF420E0222329F18DE390E02DE376
:1015900030E0F90120812460FC0120831092730166
:1015A00081E08093720181E0809374011092AE011A
:1015B0001092AD010FC08091AD019091AE0121E07C
:1015C000181619060CF020E0222321F01092AE012B
:1015D0001092AD01DF91CF91FF91EF91BF91AF914B
:1015E0009F918F917F916F915F914F913F912F913B
:1015F0000F900FBE0F901F9018951F920F920FB66D
:101600000F9211242F933F938F939F93EF93FF9308
:10161000CF93DF93CDB7DEB781EC90E021EC30E0E3
:10162000F90120812F77FC0120838DE390E0FC01FC
:10163000108281E08093730110927401DF91CF9149
:10164000FF91EF919F918F913F912F910F900FBE3E
:101650000F901F901895CF93DF9300D0CDB7DEB7D2
:101660000E94CE0C81E890E00E94F50C0E94CE0D05
:1016700081E061E00E94CC0678940E9494110E945F
:10168000F31080917E01882331F080917D018823C1
:1016900011F081E001C080E08823B1F082E290E0A7
:1016A00022E230E0F9012081206EFC01208385E2F6
:1016B00090E025E230E0F90120812160FC012083E7
:1016C00081E08093800107C081E0809374011092D3
:1016D000800101C000009091730181E0992309F419
:1016E00080E0882399F08DE390E0FC0110820E9455
:1016F000750E109273018DE390E024E0FC012083CD
:1017000081E08093720181E0809374018091770180
:10171000882321F480917801882311F081E001C0B1
:1017200080E0882349F08DE390E0FC0110828DE396
:1017300090E024E0FC0120839091740181E09923E2
:1017400009F480E0882349F185E891E00E942604AD
:101750009EE1692F0E94F214892F982F81E099232E
:1017600009F080E08823C9F085E891E00E94370401
:101770009CE0692F0E94F214892F982F81E0992311
:1017800009F080E0882329F081E061E00E9484076D
:1017900004C081E060E00E9484079091740181E0C0
:1017A000992309F480E0882309F43FC00E94F310D4
:1017B0000E94941180917E01882331F080917D01F7
:1017C000882311F081E001C080E0882301F182E2EA
:1017D00090E022E230E0F9012081206EFC012083BC
:1017E00085E290E025E230E0F90120812160FC01F2
:1017F000208390917C0181E0913009F080E0882382
:1018000019F081E080937F0110927C010EC09091CD
:101810007C0181E0992309F080E0882319F081E0C0
:1018200080937B0181E080937C0190917B0181E03A
:10183000992309F480E0882309F463C08DE390E0E4
:10184000FC01108281E0809372011092730181E0AB
:1018500061E00E94840782E290E022E230E0F90138
:1018600020812260FC01208382E290E022E230E0CD
:10187000F90120812860FC01208390917D0181E0A5
:10188000992309F080E0882391F082E290E022E23F
:1018900030E0F90120812460FC01208382E290E0A5
:1018A00022E230E0F90120812061FC01208386E002
:1018B00090E00E943D0E82E290E022E230E0F901E9
:1018C0002081297FFC01208382E290E022E230E047
:1018D000F9012081277EFC01208382E290E022E250
:1018E00030E0F90120812F71FC01208385E290E036
:1018F00025E230E0F90120812E7FFC012083109247
:101900007B0190917F0181E0992309F480E0882395
:10191000B9F18DE390E024E0FC01208382E290E0C5
:1019200022E230E0F9012081206EFC01208385E273
:1019300090E025E230E0F90120812160FC01208364
:101940001A82198209C089819A8101969A838983B2
:1019500081E090E00E943D0E89819A81833091055B
:1019600034F480917F01882311F081E001C080E090
:10197000882349F781E08093780181E080937701A3
:101980009091720181E0992309F480E0882309F4A1
:10199000A1CE80917C010E9476109CCECF93DF93E4
:1019A000CDB7DEB781E290E0FC01108284E290E0E6
:1019B000FC01108287E290E0FC0110828AE290E054
:1019C000FC01108282E290E0FC01108285E290E04E
:1019D000FC01108288E290E0FC0110828BE290E032
:1019E000FC011082DF91CF910895CF93DF9300D057
:1019F000CDB7DEB79A83898384EC90E02981FC011E
:101A0000208385EC90E029813A81232F3327FC0144
:101A1000208381EC90E028E1FC01208382EC90E0BF
:101A200026E0FC01208384E690E024E630E0F90122
:101A300020812D6FFC0120838AE290E02AE230E0D1
:101A4000F90120812068FC01208387E290E027E2F1
:101A500030E0F90120812460FC0120838BE290E0DA
:101A60002BE230E0F90120812F77FC01208388E20E
:101A700090E028E230E0F90120812460FC0120831D
:101A800081E290E021E230E0F90120812660FC0152
:101A9000208381E290E021E230E0F9012081286199
:101AA000FC01208384E290E024E230E0F90120810F
:101AB0002860FC01208385E290E025E230E0F90116
:101AC0002081277FFC01208381E290E021E230E049
:101AD000F9012081206EFC01208384E290E024E261
:101AE00030E0F90120812160FC01208384E290E054
:101AF00024E230E0F90120812260FC01208385E2AC
:101B000090E025E230E0F90120812260FC01208391
:101B100089E690E020E3FC0120838DE390E024E05F
:101B2000FC01208384E290E024E230E0F90120818E
:101B3000206BFC01208384E290E024E230E0F90194
:101B400020812F7BFC01208385E290E025E230E0BC
:101B5000F90120812069FC01208385E290E025E2E3
:101B600030E0F90120812F7DFC01208381E080930A
:101B7000720110927C011092730181E080937401D4
:101B800010927F0110927B0110927A0181E0809384
:101B900079010F900F90DF91CF910895CF93DF934C
:101BA000CDB7DEB784E690E024E630E0F90120818D
:101BB0002F7BFC01208381E090E00E940C0E86EBDD
:101BC00090E026EB30E0F90120812062FC012083C7
:101BD00081EB90E021EB30E0F90120812560FC01F0
:101BE000208386EB90E0FC018081882F90E081715A
:101BF000907021E0009709F420E0222391F787E319
:101C000090E021E0FC01208380E790E021E0FC01EE
:101C10002083DF91CF910895CF93DF9300D000D040
:101C2000CDB7DEB79C838B8318C01A82198206C099
:101C3000000089819A8101969A83898389819A819A
:101C400021E033E0803293070CF020E0222381F77B
:101C50008B819C8101979C838B838B819C8121E06C
:101C6000181619060CF020E02223F9F60F900F90B9
:101C70000F900F90DF91CF910895CF93DF9300D015
:101C800000D000D0CDB7DEB79E838D8385E891E08C
:101C90000E941504882F90E09A83898329813A81D4
:101CA0008D819E81820F931F2CE330E0B9010E9449
:101CB000FE149C838B8301C0000085E891E00E94A4
:101CC0001504282F30E08B819C8141E028173907CB
:101CD00009F440E0442381F726960FB6F894DEBF5E
:101CE0000FBECDBFDF91CF910895CF93DF93CDB7D6
:101CF000DEB7A7970FB6F894DEBF0FBECDBF81E069
:101D00008983198E188E86EC90E0FC0180818A838D
:101D10008A818E3229F48A810E94E0071982D0C11B
:101D2000888D998D9E012C5F3F4F820F931F2A81D2
:101D3000FC012083888D998D0196998F888FC0C171
:101D400086EC90E0FC0180818A83000080EC90E0CA
:101D5000FC018081882334F080917301882311F085
:101D600081E001C080E0882389F786EC90E0FC01E7
:101D700080818A838A818E3209F085C1888D998D10
:101D80009E012C5F3F4F820F931FFC011082CE01FA
:101D9000049627E231E0B9010E945415009731F40E
:101DA00081E060E041E00E94CC096BC1CE01049665
:101DB0002CE231E0B9010E945415009731F481E022
:101DC00061E040E00E94CC095CC1CE01049621E3B1
:101DD00031E0B9010E945415009731F481E061E0CF
:101DE00041E00E94CC094DC1CE01049626E331E0CA
:101DF000B9010E945415009749F481E060E00E9407
:101E00008407CE0104960E94FE073BC1CE010496D2
:101E10002BE331E0B9010E945415009791F48091B1
:101E20008101909182019E01265E3F4FB9014AE0F7
:101E300050E00E94641518A2CE014A960E94FE0747
:101E400020C1CE0104962FE331E0B9010E94541560
:101E5000009791F480918301909184019E012F5D00
:101E60003F4FB9014AE050E00E9464151FA2CE0125
:101E700081960E94FE0705C1CE01049624E431E05C
:101E8000B9010E945415009751F480917F01882375
:101E900021F480918001882311F081E001C080E06D
:101EA0008823F9F089E491E00E94FE079091800177
:101EB00081E0992309F480E0882311F010928001D9
:101EC00090917F0181E0992309F480E0882311F04B
:101ED00010927F0181E08093750181E0809376010B
:101EE000D0C08E818A3309F0C4C0F89485E891E0AF
:101EF0009E012C5F3F4FB9010E9448048B83789468
:101F000090917F0181E0992309F480E0882311F00A
:101F100010927F019091800181E0992309F480E083
:101F2000882311F01092800181E591E00E94FE0764
:101F30008B81882351F080917F01882331F4809137
:101F40008001882311F481E001C080E0882361F0E2
:101F500081E060E00E94840781E080937701CE01F8
:101F600004960E94FE0770C08B81882351F08091F7
:101F70007F01882331F480918001882311F081E072
:101F800001C080E0882379F081E060E00E9484074E
:101F900081E08093770181E080937601CE01049601
:101FA0000E94FE0751C08B81882351F080917F01F0
:101FB000882331F080918001882311F481E001C0F1
:101FC00080E0882379F081E060E00E94840781E06E
:101FD0008093780181E080937701CE0104960E947E
:101FE000FE0732C08B81882331F480917F018823E2
:101FF00011F081E001C080E0882359F081E08093F6
:10200000770181E08093780185E591E00E94FE07E9
:102010001BC08B81882331F480918001882311F0CB
:1020200081E001C080E0882359F081E08093750150
:1020300081E08093760185E591E00E94FE0704C06F
:1020400085E591E00E94FE0790917F0181E0992350
:1020500009F480E0882311F010927F0190918001B3
:1020600081E0992309F480E0882359F010928001DF
:1020700008C081E591E00E94FE07CE0104960E940F
:10208000FE0719821DC0888D998D9E012C5F3F4FE0
:10209000280F391F4A81F90140830196998F888F53
:1020A000888D998D21E0833191050CF420E0222365
:1020B00039F0198E188E198289E591E00E94FE0789
:1020C0008981882331F080917301882311F081E0A8
:1020D00001C080E0882309F033CEA7960FB6F894AC
:1020E000DEBF0FBECDBFDF91CF910895CF93DF93B9
:1020F00000D000D00F92CDB7DEB78D8378941C82CC
:102100001B828D81813049F48CE090E09A83898331
:102110008DE390E0FC0110820DC08AE090E09A838C
:1021200089838DE390E02DE330E0F9012081246084
:10213000FC01208388E290E028E230E0F901208170
:102140002B7FFC0120838BE290E02BE230E0F90151
:1021500020812068FC01208383E590E026E0FC01DB
:10216000208383E590E023E530E0F90120812160C0
:10217000FC01208381E090E00E940C0E06C088954F
:102180008B819C8101969C838B832B813C818981EF
:102190009A812817390734F480917201882311F04D
:1021A00081E001C080E0882351F78AE090E00E943E
:1021B0000C0E8BE290E02BE230E0F90120812F77CA
:1021C000FC01208388E290E028E230E0F9012081E0
:1021D0002460FC0120830F900F900F900F900F90C0
:1021E000DF91CF910895CF93DF9300D000D0CDB78A
:1021F000DEB71C821B82F89484E690E024E630E08F
:10220000F90120812E7FFC0120838CE790E02CE7F0
:1022100030E0F90120812068FC0120838AE790E00A
:102220002AE730E0F90120812468FC0120838EE751
:1022300090E02EEFFC01208385E090E00E940C0EE0
:102240001A8219821CC08AE790E02AE730E0F9017F
:1022500020812064FC0120838AE790E0FC018081DA
:10226000882F90E08074907021E0009709F420E0BE
:10227000222391F789819A8101969A83898321E0AB
:1022800089819A81823091050CF020E02223D9F6D1
:1022900088E790E0FC018081882F90E09C838B830D
:1022A00089E790E0FC018081882F90E0982F8827B3
:1022B0002B813C81822B932B9C838B8378948AE7A0
:1022C00090E0FC0110828CE790E0FC0110828EE728
:1022D00090E02EE730E0F90120812160FC012083AD
:1022E00084E690E024E630E0F90120812160FC01E1
:1022F000208385E090E00E940C0E21E08B819C8180
:10230000F1E08C329F0708F420E020937E018B815E
:102310009C8190938201809381010F900F900F9088
:102320000F90DF91CF910895CF93DF9300D0CDB779
:10233000DEB71A82198284E690E024E630E0F901E3
:1023400020812B7FFC0120838CE490E02CE430E0A2
:10235000F90120812165FC01208388EC90E00E9436
:102360000C0E85E290E025E230E0F90120812F7625
:10237000FC012083F8948EE490E0FC0110820000C0
:102380008DE490E0FC0180818095881F8827881F5C
:102390008823B1F78EE490E0FC018081882F90E0E3
:1023A000982F88279A8389838EE490E0FC0110821D
:1023B00000008DE490E0FC0180818095881F8827D3
:1023C000881F8823B1F78EE490E0FC018081882F7C
:1023D00090E029813A81822B932B9A83898389818A
:1023E0009A81F2E384369F0710F481E001C080E017
:1023F00080937D01789485E290E025E230E0F90158
:1024000020812069FC0120838CE490E0FC01108293
:1024100084E690E024E630E0F90120812460FC01AC
:10242000208389819A8190938401809383010F9006
:102430000F90DF91CF910895CF93DF93CDB7DEB7A3
:10244000CB58D0400FB6F894DEBF0FBECDBF9E0173
:1024500026573F4FF9018083CE0185579F4FFC01DE
:10246000608381E080937A018BE290E02BE230E0A0
:10247000F90120812068FC0120831F821E8281E0F7
:10248000898381E08093790185E891E00E941504B9
:10249000882F90E099878887888599850A962CE30C
:1024A00030E0B9010E94FE149B878A87CE018657CF
:1024B0009F4FFC018081882339F4CE0185579F4FBF
:1024C000FC018081882319F081E0898300C2198290
:1024D000FEC18E819F818130910579F18230910515
:1024E00009F430C1009709F0DEC185E290E025E2F1
:1024F00030E0F90120812860FC0120831BA61AA688
:1025000006C000008AA59BA501969BA78AA78AA55D
:102510009BA521E0823091050CF020E0222389F771
:1025200085E290E025E230E0F9012081277FFC017F
:10253000208381E090E09F838E83CE01865B9F4F56
:10254000FC011182108281E08A83EEC0000088ECD9
:1025500090E0FC018081882334F080917901882308
:1025600011F081E001C080E0882389F78EEC90E0D3
:10257000FC0180818C838C818E3209F0A8C0CE0151
:10258000865B9F4FFC01808191819E01245D3F4FBE
:10259000820F931FFC0110821A82CE018C9622E6D4
:1025A00031E0B9010E945415009709F08DC082E016
:1025B00090E09F838E83CE0186579F4FFC018081E0
:1025C0008823C9F1CE0185579F4FFC018081882364
:1025D00091F180E061E041E00E94CC098EE20E942E
:1025E0002B0885E891E00E943D069C01CE010C96E7
:1025F000B9010E945D15CE010C969C01F901019074
:102600000020E9F7CF010197821B930B9E01245F05
:102610003F4F820F931F2FE230E0FC013183208374
:1026200085E891E00E9402039C01CE010C96B9015D
:102630000E94491579C0CE0186579F4FFC018081C9
:10264000882379F1CE0185579F4FFC018081882333
:1026500041F580E061E040E00E94CC098EE20E94FA
:102660002B0885E891E00E943D069C01CE010C9666
:10267000B9010E945D15CE010C969C01F9010190F3
:102680000020E9F7CF010197821B930B9E01245F85
:102690003F4F820F931F2FE230E0FC0131832083F4
:1026A00043C080E060E041E00E94CC098EE20E94DD
:1026B0002B0885E891E00E9402039C01CE010C9654
:1026C000B9010E945D1530C01F821E822DC0CE014F
:1026D000865B9F4FFC01808191819E01245D3F4F6D
:1026E000280F391F4C81F90140839C012F5F3F4F18
:1026F000CE01865B9F4FFC0131832083CE01865B38
:102700009F4FFC018081918121E08E3191050CF475
:1027100020E0222349F0CE01865B9F4FFC0111820D
:1027200010821A821F821E828A81882331F0809152
:102730007901882311F081E001C080E0882309F04D
:1027400005CFB4C0CE0186599F4FFC011182108283
:1027500081E08B83CE0184599F4F27E631E04AE028
:10276000F90100802F5F3F4FFC010082019641502C
:102770004423B1F7CE0184599F4F9E01245F3F4F00
:10278000B9010E94491581C0000088EC90E0FC016D
:102790008081882334F080917901882311F081E0D1
:1027A00001C080E0882389F78EEC90E0FC018081F5
:1027B0008D838D818E32E1F5CE0186599F4FFC01CC
:1027C000808191819E01245B3F4F820F931FFC010A
:1027D00010821B82CE01845B9F4F9E01245F3F4F7E
:1027E000B9010E945415009711F419824EC0CE0110
:1027F000845B9F4F9E0124593F4FB9010E9454159D
:10280000009719F41F821E8240C0CE01845B9F4F47
:1028100029E531E0B9010E945415009731F419827D
:10282000109278011092770130C01F821E822DC055
:10283000CE0186599F4FFC01808191819E01245BCE
:102840003F4F280F391F4D81F90140839C012F5FB5
:102850003F4FCE0186599F4FFC0131832083CE012B
:1028600086599F4FFC018081918121E08F31910534
:102870000CF420E0222349F0CE0186599F4FFC0141
:10288000118210821F821E821B828B81882331F06D
:1028900080917901882311F081E001C080E08823D4
:1028A00009F072CF03C01F821E820000288539857F
:1028B0008A859B8541E02817390709F440E04423C5
:1028C00021F081E08093790102C010927901898121
:1028D000882331F080917901882311F081E001C0D3
:1028E00080E0882309F0F5CD9091790181E099236A
:1028F00009F480E08823A1F1CE0185579F4FFC01A8
:102900008081882361F0CE0186579F4FFC01808132
:10291000882329F0109278011092770121C0CE010E
:1029200085579F4FFC018081882351F0CE01865747
:102930009F4FFC018081882319F41092780110C008
:10294000CE0186579F4FFC018081882349F0CE013C
:1029500085579F4FFC018081882311F410927701E5
:102960008BE290E02BE230E0F90120812F77FC012F
:10297000208310927A01C557DF4F0FB6F894DEBF5F
:102980000FBECDBFDF91CF910895CF93DF9300D0DD
:1029900000D0CDB7DEB79A8389837C836B8389812E
:1029A0009A818130910551F48B819C812FEF8F3F6B
:1029B000920721F485E891E00E9491030F900F9017
:1029C0000F900F90DF91CF910895CF93DF93CDB704
:1029D000DEB781E090E06FEF7FEF0E94C514DF91DA
:1029E000CF910895991B79E004C0991F961708F0BC
:1029F000961B881F7A95C9F78095089597FB092E35
:102A000007260AD077FD04D00CD006D000201AF497
:102A1000709561957F4F0895F6F7909581959F4F3A
:102A20000895AA1BBB1B51E107C0AA1FBB1FA61715
:102A3000B70710F0A61BB70B881F991F5A95A9F767
:102A400080959095BC01CD010895EE0FFF1F059074
:102A5000F491E02D0994FC0188279927E8942191AD
:102A60002032E9F3293010F02E30C8F32B3241F038
:102A70002D3239F4689404C00E948515820F911D8F
:102A8000219120532A30C0F31EF4909581959F4FD9
:102A90000895FB01DC010D900020E9F711970190EA
:102AA0000D920020E1F70895FB01DC018D9101906A
:102AB00080190110D9F3990B0895FB01DC010190F5
:102AC0000D920020E1F70895FB019F01E894423048
:102AD000C4F04532B4F44A3029F497FB1EF49095C3
:102AE00081959F4F642F77270E941115805D8A334F
:102AF0000CF0895D8193CB010097A1F716F45DE29C
:102B000051931082C9010C94AE157AE0979F902DD5
:102B1000879F802D910D11240895F999FECF92BDC4
:102B200081BDF89A992780B50895A8E1B0E042E008
:102B300050E00C94C015262FF999FECF1FBA92BD14
:102B400081BD20BD0FB6F894FA9AF99A0FBE01968E
:102B500008950E949B15272F0C949C15DC01FC0105
:102B6000672F71917723E1F7329704C07C916D93C1
:102B700070836291AE17BF07C8F30895DC01CB01E3
:102B8000FC01F999FECF06C0F2BDE1BDF89A31967D
:102B900000B40D9241505040B8F70895F894FFCF1B
:102BA00041434B572E0041434B47440041434B4761
:102BB000540041434B47420020200053594E4744A4
:102BC0002E0041434B5400646174650074696D6567
:102BD00000626F74680073617665006164630074FD
:102BE000656D70004E4F4E450041434B4E4F4E4574
:102BF0000041434B006261640041434B4552524FD8
:102C0000520041434B570041434B6E6F676F6F64F7
:022C10000000C2
:00000001FF
