S0140000474156525F72654379636C652E73726563BA
S11300000C94F0000C94152A0C94702A0C9423017F
S11300100C9423010C9423010C94B92A0C94022B04
S11300200C94852B0C9423010C9423010C94230130
S11300300C9423010C9423010C9423010C94572C4D
S11300400C9423010C9423010C9423010C9423019C
S11300500C94072C0C94A32B0C9423010C942301D3
S11300600C9423010C946A290C9423010C9423010D
S11300700C9423010C9423010C9423010C9423016C
S11300800C9423010C9423010C9423010C9423015C
S11300900C94A3290C9423010C9423010C942301A4
S11300A00C9423010C9423010C9423010C9423013C
S11300B00C9423010C9423010C9423010C9423012C
S11300C00C9423010C9423010C9423010C94DC293B
S11300D00C9423010C9423010C9423010C9423010C
S11300E00C94230100407A10F35A00A0724E1809B0
S11300F00010A5D4E80000E87648170000E40B548B
S1130100020000CA9A3B000000E1F5050000809659
S11301109800000040420F000000A086010000008B
S1130120102700000000E803000000006400000045
S113013000000A00000000000100000000002C760E
S1130140D888DC674F0823DFC1DFAE59E1B1B79629
S1130150E5E3E453C63AE651997696E8E6C2842686
S1130160EB898C9B62ED407C6FFCEFBC9C9F40F262
S1130170BAA56FA5F490055A2AF75C936B6CF967DE
S11301806DC11BFCE0E40D47FEF520E6B500D0EDA3
S1130190902E0300943577050080841E080000200B
S11301A04E0A000000C80C333333330F986E1283A9
S11301B01141EF8D2114893BE65516CFFEE6DB187D
S11301C0D1844B381BF77C1D901DA4BBE424203242
S11301D084725E228100C9F124ECA1E53D27E83A4E
S11301E011241FBECFEFD1E2DEBFCDBF00E00CBFB4
S11301F016E0A0E0B2E0E8E3F5E800E00BBF02C0DF
S113020007900D92AA32B107D9F71BBE1AE0AAE2F1
S1130210B6E001C01D92A635B107E1F711E0C0EECA
S1130220D1E000E006C022970109FE010BBF0E9445
S11302303E3DCE3DD10780E00807A9F71BBE0E94D2
S11302406E2E0C949A420C940000CF93DF930F927D
S11302500F92CDB7DEB79A83898389819A81FC0195
S11302601182108289819A81FC0113821282898110
S11302709A81FC01158214820F900F90DF91CF9127
S11302800895CF93DF93CDB7DEB728970FB6F894D0
S1130290DEBF0FBECDBF9A8389837C836B835E836D
S11302A04D8338872F8389819A816B817C814D812D
S11302B05E812F8138850E94440228960FB6F894F7
S11302C0DEBF0FBECDBFDF91CF910895CF93DF93F3
S11302D00F920F92CDB7DEB79A83898389819A8171
S11302E0FC01808191810F900F90DF91CF9108954F
S11302F0CF93DF930F920F92CDB7DEB79A838983A2
S113030089819A81FC01848195810F900F90DF91FE
S1130310CF910895CF93DF930F920F92CDB7DEB7AD
S11303209A83898389819A81FC01828193810F90C8
S11303300F90DF91CF910895CF93DF9300D00F9268
S1130340CDB7DEB79A8389837C836B838B819C8151
S11303500C968931910538F489819A812B813C81ED
S1130360FC01318320830F900F900F900F90DF9149
S1130370CF910895CF93DF9300D00F92CDB7DEB71E
S11303809A8389837C836B8389819A81FC01808130
S113039091818930910581F089819A81FC01808164
S11303A091818430910541F089819A81FC01808199
S11303B091818630910541F48B819C814E968D33D9
S11303C0910510F481E001C080E0882341F0898127
S11303D09A812B813C81FC013383228328C089814B
S11303E09A81FC01808191818230910541F48B8155
S11303F09C814C968933910510F481E001C080E022
S1130400882341F089819A812B813C81FC013383CB
S113041022830DC08B819C814F968F33910538F4D4
S113042089819A812B813C81FC01338322830F9043
S11304300F900F900F90DF91CF910895CF93DF939A
S113044000D00F92CDB7DEB79A8389837C836B8308
S11304508B819C8127E0803D920744F089819A81B9
S11304602B813C81FC013583248307C089819A81D7
S113047022EF33E0FC01358324830F900F900F901B
S11304800F90DF91CF910895CF93DF93CDB7DEB76F
S113049028970FB6F894DEBF0FBECDBF9A83898329
S11304A07C836B835E834D8338872F8389819A8114
S11304B02B813C81B9010E949C0189819A812D8103
S11304C03E81B9010E94BA0189819A812F813885C0
S11304D0B9010E941E0228960FB6F894DEBF0FBE23
S11304E0CDBFDF91CF910895CF93DF9300D000D09B
S11304F0CDB7DEB79C838B837E836D838B819C8198
S1130500FC01248135818D819E81820F931F9A8302
S1130510898389819A8121E0F7E08D3D9F070CF45E
S113052020E0222339F029813A818B819C81FC01CE
S11305303583248326960FB6F894DEBF0FBECDBF55
S1130540DF91CF910895CF93DF93CDB7DEB72A978C
S11305500FB6F894DEBF0FBECDBF98878F837A871E
S113056069878F819885FC012081318189859A85ED
S1130570820F931F9E838D838D819E818D30910583
S11305803CF08D819E818931910514F481E001C094
S113059080E0882361F081E090E09A8389838F81F1
S11305A0988529813A81B9010E94740222C08D8103
S11305B09E8121E0893191050CF420E0222391F001
S11305C08D819E812CE030E0B9010E942B3D9B017E
S11305D03C832B838F8198852B813C81B9010E94B8
S11305E0740207C02D813E818F819885FC0131837F
S11305F020832A960FB6F894DEBF0FBECDBFDF91DD
S1130600CF910895CF93DF9300D000D0CDB7DEB75C
S11306109C838B837E836D838B819C81FC012281EF
S113062033818D819E81820F931F9A8389838B816D
S11306309C81FC01808191818930910581F08B81BD
S11306409C81FC01808191818430910541F08B81F2
S11306509C81FC01808191818630910511F481E0B7
S113066001C080E0882331F189819A814E9621E08E
S11306708D33910508F020E0222341F029813A814D
S11306808B819C81FC013383228371C08B819C818B
S113069061E070E00E94A30289819A812FE130E039
S11306A0B9010E942B3D9C018B819C81FC01338309
S11306B022835DC08B819C81FC018081918121E03A
S11306C08230910509F020E0222349F18B819C813D
S11306D0FC01828193814C9621E08933910508F0D5
S11306E020E0222341F029813A818B819C81FC0105
S11306F0338322833CC08B819C8161E070E00E9443
S1130700A30289819A812DE130E0B9010E942B3D39
S11307109C018B819C81FC013383228328C08B81C3
S11307209C81FC01828193814F9621E08F33910556
S113073008F020E0222341F029813A818B819C81B9
S1130740FC013383228313C08B819C8161E070E0C0
S11307500E94A30289819A8120E230E0B9010E94BB
S11307602B3D9C018B819C81FC0133832283269643
S11307700FB6F894DEBF0FBECDBFDF91CF910895C1
S1130780CF93DF9300D0CDB7DEB79B838A831982E2
S11307908A819B81FC01808191810C9621E08931C1
S11307A0910508F020E0222309F466C08A819B8128
S11307B0FC01808191818930910581F08A819B813E
S11307C0FC01808191818430910541F08A819B8173
S11307D0FC01808191818630910559F48A819B8145
S11307E0FC01828193814E968D33910510F481E052
S11307F001C080E0882319F081E0898328C08A81C0
S11308009B81FC01808191818230910559F48A8118
S11308109B81FC01828193814C968933910510F46C
S113082081E001C080E0882319F081E089830FC052
S11308308A819B81FC01828193814F9621E08F33D1
S1130840910508F020E0222311F081E08983898159
S1130850882359F08A819B81FC0184819581F7E08A
S11308608D3D9F0714F081E001C080E0882311F0E2
S113087081E003C080E001C080E00F900F900F90F2
S1130880DF91CF910895CF93DF93CDB7DEB72D9746
S11308900FB6F894DEBF0FBECDBF9D878C878C85C5
S11308A09D85FC01808191819E012F5F3F4FB9019D
S11308B04AE050E00E94483F8C859D85FC0182817E
S11308C093819E012C5F3F4FB9014AE050E00E94A2
S11308D0483F8C859D85FC01848195819E01295F1B
S11308E03F4FB9014AE050E00E94483F8C859D8506
S11308F006969E012F5F3F4FB9010E94333F8C85BE
S11309009D859C012A5F3F4FC901AC01FA0101900A
S11309100020E9F7CF010197841B950B820F931FE9
S11309202CE230E0FC01318320838C859D85069682
S11309309E012C5F3F4FB9010E941F3F8C859D850E
S11309409C012A5F3F4FC901AC01FA0101900020CC
S1130950E9F7CF010197841B950B820F931F2CE2BB
S113096030E0FC01318320838C859D8506969E01B1
S1130970295F3F4FB9010E941F3F8C859D85FC0173
S1130980168A8C859D8506962D960FB6F894DEBF43
S11309900FBECDBFDF91CF910895CF93DF930F9218
S11309A00F92CDB7DEB79A83898389819A810E9499
S11309B0250189819A8160E070E040E050E020E008
S11309C030E00E9415060F900F90DF91CF910895AB
S11309D0CF93DF93CDB7DEB728970FB6F894DEBF79
S11309E00FBECDBF9A8389837C836B835E834D83E3
S11309F038872F8389819A810E94250189819A8170
S1130A006B817C814D815E812F8138850E94150622
S1130A1028960FB6F894DEBF0FBECDBFDF91CF91FD
S1130A200895CF92DF92EF92FF920F931F93CF938B
S1130A30DF93CDB7DEB72E970FB6F894DEBF0FBEA7
S1130A40CDBF9A8389837C836B835E834D83388790
S1130A502F831A870987FC86EB86DE86CD868981FB
S1130A609A8169857A854B855C852D853E850E94B2
S1130A70410189819A816B817C814D815E812F81C5
S1130A8038850E9415062E960FB6F894DEBF0FBE69
S1130A90CDBFDF91CF911F910F91FF90EF90DF9029
S1130AA0CF900895CF93DF930F920F92CDB7DEB717
S1130AB09A83898389819A81FC01838D948D0F9017
S1130AC00F90DF91CF910895CF93DF930F920F9200
S1130AD0CDB7DEB79A83898389819A81FC01818DA0
S1130AE0928D0F900F90DF91CF910895CF93DF9364
S1130AF00F920F92CDB7DEB79A83898389819A8149
S1130B00FC018789908D0F900F90DF91CF9108950C
S1130B10CF93DF93CDB7DEB7A2970FB6F894DEBFBD
S1130B200FBECDBF98A38F8F7AA369A3CE010B9676
S1130B3029A13AA1B9010E94333F1A82198243C004
S1130B401C821B8220C029813A81C901880F991F08
S1130B50280F391F8B819C81820F931F9E01255F73
S1130B603F4F820F931FFC0140819E012B5E3F4F3C
S1130B708B819C81820F931FFC0140838B819C811C
S1130B8001969C838B8321E08B819C81823091052B
S1130B900CF020E02223B9F6CE0145960E94F83EDF
S1130BA09C0189819A81880F991FAE014F5F5F4F25
S1130BB0840F951F0496FC013183208389819A81D7
S1130BC001969A83898321E089819A8183309105F2
S1130BD00CF020E0222309F0B3CF8D819E8147964B
S1130BE08F329105C0F48F819885CB968737910514
S1130BF090F489859A85CB968737910560F46D8149
S1130C007E814F81588529853A858F8D98A10E94D0
S1130C10150681E001C080E0A2960FB6F894DEBF0D
S1130C200FBECDBFDF91CF910895CF93DF93CDB7A2
S1130C30DEB728970FB6F894DEBF0FBECDBF9A83F8
S1130C4089837C836B835E834D8338872F8389817B
S1130C509A812B813C81B9010E94450689819A8140
S1130C602D813E81B9010E94630689819A812F8179
S1130C703885B9010E94810628960FB6F894DEBF24
S1130C800FBECDBFDF91CF910895CF93DF9300D0F6
S1130C900F92CDB7DEB79A8389837C836B838B8174
S1130CA09C8147968F32910538F489819A812B81F2
S1130CB03C81FC01308F278B0F900F900F900F9089
S1130CC0DF91CF910895CF93DF9300D00F92CDB7EA
S1130CD0DEB79A8389837C836B838B819C81CB96DB
S1130CE08737910538F489819A812B813C81FC01F5
S1130CF0328F218F0F900F900F900F90DF91CF9133
S1130D000895CF93DF9300D00F92CDB7DEB79A83C7
S1130D1089837C836B838B819C81CB9687379105F8
S1130D2038F489819A812B813C81FC01348F238F93
S1130D300F900F900F900F90DF91CF910895CF9364
S1130D40DF93CDB7DEB728970FB6F894DEBF0FBE9A
S1130D50CDBF9E838D8378876F838D819E81FC01B7
S1130D602789308D8F819885820F931F9A83898379
S1130D7089819A8128E130E0B9010E942B3D9C01D0
S1130D808D819E81FC01308F278B89819A8121E09E
S1130D90883191050CF420E0222391F089819A8115
S1130DA028E130E0B9010E942B3D9B01C9019C83DD
S1130DB08B838D819E812B813C81B9010E9402032A
S1130DC028960FB6F894DEBF0FBECDBFDF91CF914A
S1130DD00895CF93DF93CDB7DEB728970FB6F89475
S1130DE0DEBF0FBECDBF9E838D8378876F838D81D9
S1130DF09E81FC01218D328D8F819885820F931FF6
S1130E009A83898389819A812CE330E0B9010E9415
S1130E102B3D9C018D819E81FC01328F218F898124
S1130E209A8121E08C3391050CF420E0222391F087
S1130E3089819A812CE330E0B9010E942B3D9B010A
S1130E40C9019C838B832B813C818D819E81B90157
S1130E500E949F0628960FB6F894DEBF0FBECDBF42
S1130E60DF91CF910895CF93DF93CDB7DEB7289765
S1130E700FB6F894DEBF0FBECDBF9E838D837887F7
S1130E806F838D819E81FC01238D348D8F819885A4
S1130E90820F931F9A83898389819A812CE330E09E
S1130EA0B9010E942B3D9C018D819E81FC01348FF0
S1130EB0238F89819A8121E08C3391050CF420E001
S1130EC0222391F089819A812CE330E0B9010E94B8
S1130ED02B3D9B01C9019C838B832B813C818D819C
S1130EE09E81B9010E94E90628960FB6F894DEBFE8
S1130EF00FBECDBFDF91CF910895CF93DF930F92B3
S1130F000F92CDB7DEB79A83898389819A81FC01D8
S1130F10838D948DCB9687379105A0F489819A812E
S1130F20FC01818D928DCB968737910558F4898188
S1130F309A81FC018789908D47968F32910510F430
S1130F4081E001C080E0882369F089819A810E9450
S1130F50C003982F81E0992309F480E0882311F0DD
S1130F6081E001C080E00F900F90DF91CF91089550
S1130F70CF93DF93CDB7DEB72B970FB6F894DEBFD0
S1130F800FBECDBF9B878A878A859B85FC01878995
S1130F90908D9E012F5F3F4FB9014AE050E00E94BF
S1130FA0483F8A859B85FC01818D928D9E012C5F33
S1130FB03F4FB9014AE050E00E94483F8A859B8533
S1130FC0FC01838D948D9E01295F3F4FB9014AE056
S1130FD050E00E94483F8A859B854D969E012F5F75
S1130FE03F4FB9010E94333F8A859B859C01235E54
S1130FF03F4FC901AC01FA0101900020E9F7CF018C
S11310000197841B950B820F931F2AE330E0FC01A8
S1131010318320838A859B854D969E012C5F3F4FAB
S1131020B9010E941F3F8A859B859C01235E3F4F27
S1131030C901AC01FA0101900020E9F7CF01019741
S1131040841B950B820F931F2AE330E0FC0131834C
S113105020838A859B854D969E01295F3F4FB90168
S11310600E941F3F8A859B85FC0110A68A859B856B
S11310704D962B960FB6F894DEBF0FBECDBFDF9111
S1131080CF910895CF93DF930F920F92CDB7DEB730
S11310909A83898329813A8182E396EFA5EBBAE3A7
S11310A0F90184879587A687B78789819A810E94E9
S11310B05E080F900F90DF91CF910895CF93DF9347
S11310C000D00F92CDB7DEB79C838B838B819C813C
S11310D021E0FC0120AF8B819C81FC0111AE2B81AE
S11310E03C8180E090E0DC01F90180839183A2835C
S11310F0B3832B813C8180E090E0DC01F90184839F
S11311009583A683B7832B813C8180E090E0DC014A
S1131110F90180879187A287B3872B813C8180E086
S113112090E0DC01F901808B918BA28BB38B8B81D6
S11311309C81FC0115AA14AA8B819C81FC0117AA2D
S113114016AA8B819C81FC01158A148A8B819C814F
S11311502DED37E0FC01378B268B8B819C81FC01C4
S1131160118E108E8B819C81FC01138E128E8B81CB
S11311709C81FC01158E148E8B819C81FC01178E41
S1131180168E1A82198211C02B813C8189819A8121
S11311904096880F991F820F931FFC0111821082C1
S11311A089819A8101969A83898321E089819A8130
S11311B08A3091050CF020E0222331F70F900F9034
S11311C00F900F90DF91CF910895CF93DF9300D0CC
S11311D000D0CDB7DEB79A8389834B835C836D835C
S11311E07E8329813A818B819C81AD81BE81F90105
S11311F084879587A687B78789819A810E945E082C
S113120026960FB6F894DEBF0FBECDBFDF91CF9107
S113121008950F931F93CF93DF93CDB7DEB72A972B
S11312200FB6F894DEBF0FBECDBF9A8389834B837C
S11312305C836D837E8338872F831A87098789812E
S11312409A810E945E0811E06B817C818D819E8170
S113125020E030E040E85FE30E945A3B88230CF032
S113126010E0112361F029813A8182E396EFA5EB26
S1131270BAE3F90184879587A687B7870BC02981CC
S11312803A818B819C81AD81BE81F90184879587E8
S1131290A687B78789819A812F813885FC01358B90
S11312A0248B89819A8129853A85FC01378B268B89
S11312B02A960FB6F894DEBF0FBECDBFDF91CF9153
S11312C01F910F910895CF93DF93CDB7DEB7689741
S11312D00FB6F894DEBF0FBECDBF9A8B898B7C8B83
S11312E06B8B5E8B4D8B388F2F8B89899A892F89D5
S11312F0388DFC01378B268B8B899C899A83898353
S1131300CE01059620E032E04CE0F90100802F5F29
S11313103F4FFC010082019641504423B1F71C82E7
S11313201B8216C09E012B5F3F4F8B819C81820FD5
S1131330931FFC018081882F90E029813A81820FDC
S1131340931F9A8389838B819C8101969C838B83D1
S11313502B813C818D899E89019741E028173907AB
S113136008F040E04423F1F689899A8929813A8179
S1131370FC01358B248B68960FB6F894DEBF0FBE44
S1131380CDBFDF91CF9108958F929F92AF92BF927C
S1131390CF92DF92EF92FF920F931F93CF93DF933D
S11313A0CDB7DEB762970FB6F894DEBF0FBECDBFE0
S11313B09A8389834B835C836D837E830F83188731
S11313C029873A87CB86DC86ED86FE86B88AAF8687
S11313D09A8A898A29813A818B819C81AD81BE81D7
S11313E0F90180839183A283B38329813A818F8118
S11313F09885A985BA85F90184839583A683B783E3
S113140029813A8180E090E0DC01F90180879187AD
S1131410A287B38729813A818B859C85AD85BE855A
S1131420F90184879587A687B78789819A812F8553
S11314303889FC0135AB24AB89819A8129893A89A1
S1131440FC0137AB26AB89819A812AA13BA1FC011F
S1131450338F228F89819A812CA13DA1FC01358F84
S1131460248F89819A812EA13FA1FC01378F268F79
S113147089819A8128A539A5FC01358B248B898122
S11314809A812AA53BA5FC01378B268B89819A81F9
S113149021E0FC0120AF62960FB6F894DEBF0FBEC8
S11314A0CDBFDF91CF911F910F91FF90EF90DF900F
S11314B0CF90BF90AF909F908F900895CF93DF937C
S11314C000D00F92CDB7DEB79C838B838B819C8138
S11314D0FC01808D918D9C012F5F3F4F8B819C81FE
S11314E0FC01318F208F8B819C81FC01808D918D3B
S11314F08C33910508F447C08B819C81FC01808D5D
S1131500918D2CE330E0B9010E94173D9B013A8391
S113151029838B819C81FC01228D338D89819A8161
S1131520280F391F8B819C81FC01338F228F8B8183
S11315309C81FC01828D938DF5E0803A9F0718F120
S11315408B819C81FC01848D958D9C012F5F3F4F85
S11315508B819C81FC01358F248F8B819C81FC01C4
S1131560848D958DF1E08D369F0768F08B819C8189
S1131570FC01868D978D9C012F5F3F4F8B819C8151
S1131580FC01378F268F8B819C81FC01808D918D8E
S11315902CE330E0B9010E94173D9C018B819C81B2
S11315A0FC01318F208F8B819C81FC01828D938D76
S11315B020EA35E0B9010E94173D9C018B819C8192
S11315C0FC01338F228F8B819C81FC01848D958D4E
S11315D02DE631E0B9010E94173D9C018B819C816D
S11315E0FC01358F248F0F900F900F900F90DF9197
S11315F0CF910895CF93DF93CDB7DEB728970FB679
S1131600F894DEBF0FBECDBF9E838D8378876F8332
S11316108D819E81FC0180AD882331F48D819E8172
S1131620FC0181AD882341F11A82198213C02D81F6
S11316303E8189819A814096880F991F820F931F5A
S11316402F813885FC013183208389819A81019619
S11316509A83898321E089819A818A3091050CF0EB
S113166020E0222321F78D819E81FC0110AE8D8123
S11316709E81FC0111AE31C01C821B821EC08B8175
S11316809C8101962D813E814096880F991F820F7F
S1131690931FFC01208131814D815E818B819C816E
S11316A04096880F991F840F951FFC013183208376
S11316B08B819C8101969C838B8321E08B819C810F
S11316C0893091050CF020E02223C9F68D819E819A
S11316D02F813885FC0133AB22AB8D819E81FC01C7
S11316E084A995A99C012F5F3F4F8D819E81FC01A8
S11316F035AB24AB8D819E81FC0184819581A681CB
S1131700B7812D813E81F90124853585468557852C
S1131710BC01CD010E94F63ADC01CB012D813E8152
S1131720F90184839583A683B7838D819E810E946A
S11317301B0C28960FB6F894DEBF0FBECDBFDF9109
S1131740CF910895CF93DF9300D00F92CDB7DEB73A
S11317509C838B838B819C8121E0FC0121AF2B81B5
S11317603C8180E090E0DC01F90180879187A287C9
S1131770B3871A82198211C089819A812B813C8195
S11317804096880F991F820F931FFC0111821082CB
S113179089819A8101969A83898389819A8121E03A
S11317A08A3091050CF020E0222331F70F900F903E
S11317B00F900F90DF91CF9108951F93CF93DF93F4
S11317C000D000D0CDB7DEB79A8389834B835C8386
S11317D06D837E8311E06B817C818D819E8120E00D
S11317E030E0A9010E945A3B88230CF010E0112339
S11317F041F082E396EFA5EBBAE38B839C83AD8340
S1131800BE8389819A8121E0FC0120AF29813A813C
S11318108B819C81AD81BE81F90184879587A687E0
S1131820B78726960FB6F894DEBF0FBECDBFDF9103
S1131830CF911F910895EF92FF920F931F93CF932F
S1131840DF93CDB7DEB728970FB6F894DEBF0FBE8F
S1131850CDBF98878F8380E090E0DC0189839A83F1
S1131860AB83BC831E821D8226C08D819E812F8105
S113187038854096880F991F820F931FFC01808141
S11318809181CC01A0E0B0E0BC01CD010E94F23B0B
S11318909B01AC0169817A818B819C810E94F63A1B
S11318A0DC01CB0189839A83AB83BC838D819E81C8
S11318B001969E838D838D819E8121E08A309105DE
S11318C00CF020E0222389F68F819885FC01848521
S11318D09585A685B785BC01CD0120E030EA4CE0B2
S11318E057E40E94A83CDC01CB017C018D01698195
S11318F07A818B819C812DEB37E346E058E30E948B
S1131900A83CDC01CB019C01AD01C801B7010E94D8
S11319105E3BDC01CB012F813885F90180879187FB
S1131920A287B3878F819885FC01E080F1800281D2
S113193013818F819885FC0184A995A90197CC0115
S1131940A0E0B0E0BC01CD010E94F23B9B01AC01E0
S1131950C801B7010E94A83CDC01CB012F81388566
S1131960F9012085318542855385BC01CD010E9452
S1131970F63ADC01CB017C018D018F819885FC0155
S113198084A995A9CC01A0E0B0E0BC01CD010E94DE
S1131990F23B9B01AC01C801B7010E945E3BDC0134
S11319A0CB012F813885F90180839183A283B3838E
S11319B028960FB6F894DEBF0FBECDBFDF91CF914E
S11319C01F910F91FF90EF900895CF93DF930F92A3
S11319D00F92CDB7DEB79A83898389819A81FC01FE
S11319E080859185A285B385BC01CD010F900F90B0
S11319F0DF91CF910895CF93DF930F920F92CDB7DC
S1131A00DEB79A83898389819A81FC0180819181DF
S1131A10A281B381BC01CD010F900F90DF91CF91D2
S1131A200895CF93DF930F920F92CDB7DEB79A83C9
S1131A30898389819A81FC0184819581A681B781FA
S1131A40BC01CD010F900F90DF91CF910895CF93FA
S1131A50DF930F920F92CDB7DEB79A838983898182
S1131A609A81FC0184859585A685B785BC01CD0145
S1131A700F900F90DF91CF910895CF93DF930F9242
S1131A800F92CDB7DEB79A83898389819A81FC014D
S1131A9084A995A90F900F90DF91CF910895CF93CA
S1131AA0DF930F920F92CDB7DEB79A838983898132
S1131AB09A81FC0186A997A90F900F90DF91CF918D
S1131AC00895CF93DF930F920F92CDB7DEB79A8329
S1131AD0898389819A81FC01848995890F900F906B
S1131AE0DF91CF910895CF93DF930F920F92CDB7EB
S1131AF0DEB79A83898389819A81FC0186899789D3
S1131B000F900F90DF91CF910895CF93DF930F92B1
S1131B100F92CDB7DEB79A83898389819A81FC01BC
S1131B20808D918D0F900F90DF91CF910895CF9379
S1131B30DF930F920F92CDB7DEB79A8389838981A1
S1131B409A81FC01828D938D0F900F90DF91CF913C
S1131B500895CF93DF930F920F92CDB7DEB79A8398
S1131B60898389819A81FC01848D958D0F900F90D2
S1131B70DF91CF910895CF93DF930F920F92CDB75A
S1131B80DEB79A83898389819A81FC01868D978D3A
S1131B900F900F90DF91CF910895CF93DF930F9221
S1131BA00F92CDB7DEB79A83898389819A810E9487
S1131BB0DE0D0F900F90DF91CF910895CF93DF93B7
S1131BC00F920F92CDB7DEB79A83898329813A8128
S1131BD080E090E0DC01F90184839583A683B783D8
S1131BE089819A81FC01118A108A89819A81FC0178
S1131BF01586148689819A81FC01178616862981A7
S1131C003A8180E090E0DC01F90180839183A28332
S1131C10B38389819A81FC01848595850197298103
S1131C203A81F90124853585B9010E94173D9B014C
S1131C30C901CC01A0E0B0E0BC01CD010E94F23B9F
S1131C40DC01CB0129813A81F90180879187A28740
S1131C50B3870F900F90DF91CF910895CF93DF93C7
S1131C600F920F92CDB7DEB79A83898329813A8187
S1131C7080E090E0DC01F90184839583A683B78337
S1131C8089819A81FC01118A108A89819A81FC01D7
S1131C9084859585019729813A81F90124853585C3
S1131CA0B9010E94173D9B01C901CC01A0E0B0E03D
S1131CB0BC01CD010E94F23BDC01CB0129813A81B8
S1131CC0F90180879187A287B3870F900F90DF91E6
S1131CD0CF9108950F931F93CF93DF93CDB7DEB7C2
S1131CE02A970FB6F894DEBF0FBECDBF9A838983BF
S1131CF04B835C836D837E8338872F831A870987A0
S1131D0029813A818B819C81AD81BE81F9018083D7
S1131D109183A283B38389819A812F813885FC01C1
S1131D203587248789819A8129853A85FC013787FB
S1131D30268789819A810E942E0E2A960FB6F894DE
S1131D40DEBF0FBECDBFDF91CF911F910F910895DC
S1131D50CF93DF930F920F92CDB7DEB79A83898327
S1131D6089819A81FC0184819581A681B781BC0116
S1131D70CD010F900F90DF91CF910895CF93DF9312
S1131D800F920F92CDB7DEB79A83898389819A81A6
S1131D90FC0180819181A281B381BC01CD010F90AE
S1131DA00F90DF91CF910895CF93DF930F920F920D
S1131DB0CDB7DEB79A83898389819A81FC018485B2
S1131DC095850F900F90DF91CF910895CF93DF9376
S1131DD00F920F92CDB7DEB79A83898389819A8156
S1131DE0FC01868597850F900F90DF91CF91089520
S1131DF0EF92FF920F931F93CF93DF93CDB7DEB78C
S1131E00A8970FB6F894DEBF0FBECDBF9CA38BA3DB
S1131E107EA36DA358A74FA31A8219821C821B822A
S1131E201D821E8280E090E0DC018F839887A98761
S1131E30BA871C861B86AAC08B859C85880F991F30
S1131E402DA13EA1820F931FFC0180819181CC01C1
S1131E50A0E0B0E0BC01CD010E94F23B9B01AC01CB
S1131E606F81788589859A850E94F63ADC01CB01D9
S1131E708F839887A987BA878FA198A599230CF493
S1131E800196959587959C018B859C85820F931F60
S1131E90880F991F2DA13EA1820F931FFC01808101
S1131EA09181CC01A0E0B0E0BC01CD010E94F23BE5
S1131EB09B01AC016F81788589859A850E94F63AE9
S1131EC0DC01CB018F839887A987BA878B859C8592
S1131ED0880F991F2DA13EA1820F931FFC01208121
S1131EE0318189819A818217930778F48B859C8547
S1131EF0880F991F2DA13EA1820F931FFC018081A1
S1131F0091819A8389838B858D838FA198A5992349
S1131F100CF40196959587959C018B859C85820F81
S1131F20931F880F991F2DA13EA1820F931FFC01BF
S1131F30208131818B819C818217930710F58FA1B9
S1131F4098A599230CF40196959587959C018B850A
S1131F509C85820F931F880F991F2DA13EA1820F8C
S1131F60931FFC01808191819C838B838FA198A511
S1131F7099230CF4019695958795982F8B85890F55
S1131F808E838B859C8501969C878B878FA198A5D2
S1131F9099230CF40196959587959C0141E08B85D6
S1131FA09C85821793070CF040E0442309F044CF4A
S1131FB029813A818B819C812817390718F08981FE
S1131FC09A8102C08B819C819E8B8D8B29813A8161
S1131FD08B819C812817390710F08D8101C08E8177
S1131FE08D838FA198A5AA2797FDA095BA2FBC0130
S1131FF0CD010E94F43B9B01AC016F8178858985FA
S11320009A850E945E3BDC01CB01BC01CD010E949C
S1132010C63BDC01CB01988F8F8B8D81882F90E09C
S11320209E878D87188A1F861A8A198A1B8A8D852E
S11320309E85893C910508F4CEC08BA19CA1FC012E
S113204084819581A681B78111E0BC01CD0120E096
S113205030E040EA51E40E94A43C18160CF010E071
S1132060112381F18BA19CA1FC0184819581A6811E
S1132070B78111E0BC01CD0120E030E048E453E435
S11320800E945A3B88230CF010E01123D9F08BA155
S11320909CA1FC0120893189C901880F991F880FEF
S11320A0991F820F931F9695879596958795969578
S11320B087952D853E85A901481B590BCA019E872A
S11320C08D8705C08D859E854E979E878D878D85CE
S11320D09E85988B8F8771C08D859E85880F991FEB
S11320E02DA13EA1820F931FFC01208131818F8994
S11320F0988D2817390708F460C08D859E85880F50
S1132100991F2DA13EA1820F931FFC0120813181D3
S11321108F859889880F991F4DA15EA1840F951F03
S1132120FC01808191812817390728F08D859E85CF
S1132130988B8F8742C08D859E85880F991F2DA10E
S11321403EA1820F931FFC01208131818D859E85E4
S11321500196880F991F4DA15EA1840F951FFC0164
S1132160808191812817390730F58D859E85880FE8
S1132170991F2DA13EA1820F931FFC012081318163
S11321808F859889880F991F4DA15EA1840F951F93
S1132190FC01808191812817390768F489899A891B
S11321A001969A8B898B89899A898430910528F0C4
S11321B081E08B8B10C01A8A198A21E08D859E8557
S11321C0009709F420E08D859E8501979E878D8771
S11321D0222309F081CF8D81883C20F08B898823CC
S11321E009F0E3C08D81882F90E09E878D878BA1B5
S11321F09CA1FC0184819581A681B78111E0BC0179
S1132200CD0120E030E040EA51E40E94A43C1816DD
S11322100CF010E0112371F18BA19CA1FC018481CD
S11322209581A681B78111E0BC01CD0120E030E0A9
S113223048E453E40E945A3B88230CF010E0112335
S1132240C9F08BA19CA1FC0120893189C901880FA7
S1132250991F880F991F820F931F969587959695BE
S11322608795969587952D853E85820F931F9E872A
S11322708D8705C08D859E854E969E878D878D851D
S11322809E85988B8F8771C08D859E85880F991F39
S11322902DA13EA1820F931FFC01208131818F89E2
S11322A0988D2817390708F460C08D859E85880F9E
S11322B0991F2DA13EA1820F931FFC012081318122
S11322C08F859889880F991F4DA15EA1840F951F52
S11322D0FC01808191812817390728F08D859E851E
S11322E0988B8F8742C08D859E85880F991F2DA15D
S11322F03EA1820F931FFC01208131818D859E8533
S11323000197880F991F4DA15EA1840F951FFC01B1
S1132310808191812817390730F58D859E85880F36
S1132320991F2DA13EA1820F931FFC0120813181B1
S11323308F859889880F991F4DA15EA1840F951FE1
S1132340FC01808191812817390768F489899A8969
S113235001969A8B898B89899A898430910528F012
S113236081E08B8B10C01A8A198A21E08D859E85A5
S1132370009709F420E08D859E8501969E878D87C0
S1132380222309F081CF8B89882379F48BA19CA126
S1132390FC01118A108A2BA13CA180E090E0DC01B1
S11323A0F90184839583A683B7832D893E898F8918
S11323B0988DA901481B590BCA018731910558F41E
S11323C02BA13CA180E090E0DC01F901848395839A
S11323D0A683B783BDC18B89882309F4AFC18BA1C0
S11323E09CA1FC0184819581A681B781898F9A8FF4
S11323F0AB8FBC8F81E08C8B8D81882F90E02F85F3
S11324003889A901481B590BCA0199231CF49095DA
S113241081959F4F9C018BA19CA1FC01318B208B4A
S11324208BA19CA1FC0180899189CC01A0E0B0E042
S1132430BC01CD010E94F23BDC01CB01BC01CD010A
S113244022E430E645EE5BE30E94A83CDC01CB01CC
S11324508D8F9E8FAF8FB8A360E070E080E792E429
S11324602D8D3E8D4F8D58A10E945E3BDC01CB012A
S11324702BA13CA1F90184839583A683B783698D3D
S11324807A8D8B8D9C8D0E94C63BDC01CB018C0127
S11324908BA19CA1FC0184819581A681B781BC019B
S11324A0CD010E94C63BDC01CB019801281B390BEE
S11324B0C90199231CF4909581959F4F9AA389A3F0
S11324C089A19AA18A30910518F482E08C8B1CC0F2
S11324D089A19AA18A30910540F089A19AA18431F9
S11324E0910518F485E08C8B0FC089A19AA18431E1
S11324F0910540F089A19AA18832910518F488E0E9
S11325008C8B02C081E08C8B8BA19CA1FC0184810B
S11325109581A681B78111E0BC01CD01298D3A8D49
S11325204B8D5C8D0E94A43C18160CF010E0112316
S113253029F18C89282F30E089A19AA1B9010E9440
S1132540173D9B01C901CC01A0E0B0E0BC01CD0165
S11325500E94F23BDC01CB01BC01CD01298D3A8DF7
S11325604B8D5C8D0E94F63ADC01CB012BA13CA182
S1132570F90184839583A683B78322C08C89282F8D
S113258030E089A19AA1B9010E94173D9B01C901BC
S1132590CC01A0E0B0E0BC01CD010E94F23B9B0164
S11325A0AC01698D7A8D8B8D9C8D0E94F53ADC018E
S11325B0CB012BA13CA1F90184839583A683B78326
S11325C08BA19CA1FC0184859585FFEF8F3F9F071C
S11325D0B9F18BA19CA1FC0184819581A681B7816D
S11325E011E0BC01CD0120E030E048E453E40E9456
S11325F05A3B88230CF010E0112311F18BA19CA10C
S1132600FC0184819581A681B78111E0BC01CD01D3
S113261020E030E040EA51E40E94A43C18160CF09B
S113262010E0112369F08BA19CA1FC0184859585A0
S11326309C012F5F3F4F8BA19CA1FC013587248710
S11326408BA19CA1FC0184819581A681B78111E0B5
S1132650BC01CD0120E030E048E453E40E945A3B41
S113266088230CF010E0112309F45DC08BA19CA118
S1132670FC0184819581A681B78111E0BC01CD0163
S113268020E030E040EA51E40E94A43C18160CF02B
S113269010E0112309F447C08BA19CA1FC01E08048
S11326A0F180028113818BA19CA1FC018485958515
S11326B00197CC01A0E0B0E0BC01CD010E94F23B47
S11326C09B01AC01C801B7010E94A83CDC01CB010D
S11326D02BA13CA1F9012481358146815781BC019C
S11326E0CD010E94F63ADC01CB017C018D018BA166
S11326F09CA1FC0184859585CC01A0E0B0E0BC01DF
S1132700CD010E94F23B9B01AC01C801B7010E94BC
S11327105E3BDC01CB012BA13CA1F90180839183B9
S1132720A283B38315C02BA13CA180E090E0DC011F
S1132730F90184839583A683B7830AC02BA13CA1A6
S113274080E090E0DC01F90184839583A683B7835C
S1132750A8960FB6F894DEBF0FBECDBFDF91CF9120
S11327601F910F91FF90EF900895CF93DF930F92F5
S11327700F92CDB7DEB79A83898389819A810E94AB
S1132780420889819A81CA960E94CD0D0E94E83E32
S113279024E630E0B9010E942B3D01969C01898119
S11327A09A81845B9F4FFC01318320830F900F90AB
S11327B0DF91CF910895CF93DF930F920F92CDB70E
S11327C0DEB79A83898389819A810E945E08898110
S11327D09A81CA960E94DE0D0F900F90DF91CF91DF
S11327E00895CF93DF9300D000D0CDB7DEB79A839E
S11327F089834B835C836D837E8389819A812B815A
S11328003C814D815E81BA01A9010E94E50889815C
S11328109A81CA960E94DE0D26960FB6F894DEBF02
S11328200FBECDBFDF91CF9108950F931F93CF9328
S1132830DF93CDB7DEB72A970FB6F894DEBF0FBE8D
S1132840CDBF9A8389834B835C836D837E83388772
S11328502F831A87098789819A812B813C814D8135
S11328605E81AF81B885E985FA85BA01A9019D0128
S11328708F010E94090989819A81CA960E94DE0DFE
S11328802A960FB6F894DEBF0FBECDBFDF91CF916D
S11328901F910F910895CF93DF93CDB7DEB7A4971F
S11328A00FB6F894DEBF0FBECDBF8CA38CA1882FCA
S11328B090E00197982F82E2989F802D11248C5EDE
S11328C089838981882F90E00E948F3FDC01CB01AE
S11328D08A839B83AC83BD838981882F90E004968F
S11328E00E948F3FDC01CB018E839F83A887B98729
S11328F08981882F90E008960E948F3FDC01CB01EC
S11329008A879B87AC87BD878981882F90E00C9646
S11329100E94953F9F878E878981882F90E00E962D
S11329200E94953F998B888B8981882F90E04096EF
S11329300E94953F9B8B8A8B8981882F90E04296D9
S11329400E94953F9D8B8C8B8981882F90E04496C3
S11329500E94953F9F8B8E8B8981882F90E04696AD
S11329600E94953F998F888F8981882F90E048969F
S11329700E94953F9B8F8A8F8981882F90E04A9689
S11329800E94953F9D8F8C8F8981882F90E04C9673
S11329900E94953F9F8F8E8F8981882F90E04E965D
S11329A00E948F3FDC01CB0188A399A3AAA3BBA3F8
S11329B09CA182E2989F802D112480538983898170
S11329C0882F90E02A813B814C815D81BA01A90165
S11329D00E94AD3F8981882F90E004962E813F812B
S11329E048855985BA01A9010E94AD3F8981882F84
S11329F090E008962A853B854C855D85BA01A9013E
S1132A000E94AD3F8981882F90E00C962E853F85EA
S1132A10B9010E94B93F8981882F90E00E962889D8
S1132A203989B9010E94B93F8981882F90E0409685
S1132A302A893B89B9010E94B93F8981882F90E096
S1132A4042962C893D89B9010E94B93F8981882F1A
S1132A5090E044962E893F89B9010E94B93F89814B
S1132A60882F90E04696288D398DB9010E94B93F90
S1132A708981882F90E048962A8D3B8DB9010E9468
S1132A80B93F8981882F90E04A962C8D3D8DB901FC
S1132A900E94B93F8981882F90E04C962E8D3F8DFE
S1132AA0B9010E94B93F8981882F90E04E9628A1F0
S1132AB039A14AA15BA1BA01A9010E94AD3FA49624
S1132AC00FB6F894DEBF0FBECDBFDF91CF9108954E
S1132AD0CF93DF9300D00F92CDB7DEB78C8388E01D
S1132AE090E00E94873F8B838B81282F30E0809178
S1132AF0E2039091E3032817390739F08B81882F7B
S1132B0090E09093E3038093E2038C81882F90E01C
S1132B1001969A83898308C089810E944B14898114
S1132B209A8101969A8389838B81282F30E041E032
S1132B3089819A81281739070CF440E0442361F70E
S1132B408B8181508B838091E2039091E303019701
S1132B509093E3038093E20388E090E06B810E940A
S1132B60BF3F0F900F900F900F90DF91CF9108957A
S1132B700F931F93CF93DF93CDB7DEB764970FB650
S1132B80F894DEBF0FBECDBF88E090E00E94873F7F
S1132B90898389818F5F89838981882F90E0880F59
S1132BA0991F9C0122953295307F3227207F32274E
S1132BB0820F931FC0979B838A8388E090E069818A
S1132BC00E949B3F87E090E061E00E949B3F0A8166
S1132BD01B818DE696E00E94FB0C9B01AC01C801B1
S1132BE0BA01A9010E94AD3F8A819B8104968C01A0
S1132BF087EA96E00E94BE0E9B01AC01C801BA01AF
S1132C00A9010E94AD3F8A819B8108968C018DE6C3
S1132C1096E00E94110D9B01AC01C801BA01A90103
S1132C200E94AD3F8A819B810C968C018DE696E0D3
S1132C300E94610D9C01C801B9010E94B93F8A81BB
S1132C409B810E968C018DE696E00E94730D9C018B
S1132C50C801B9010E94B93F8A819B8140968C01C9
S1132C608DE696E00E94970D9C01C801B9010E946F
S1132C70B93F8A819B8142968C018DE696E00E9441
S1132C80A90D9C01C801B9010E94B93F8A819B81A9
S1132C9044968C018DE696E00E94BB0D9C01C80110
S1132CA0B9010E94B93F8A819B8146968C018DE6C9
S1132CB096E00E943D0D9C01C801B9010E94B93FF4
S1132CC08A819B8148968C018DE696E00E944F0D87
S1132CD09C01C801B9010E94B93F8A819B814A962F
S1132CE08C0187EA96E00E94D40E9C01C801B901C8
S1132CF00E94B93F8A819B814C968C0187EA96E0B9
S1132D000E94E60E9C01C801B9010E94B93F8A8164
S1132D109B814E968C018DE696E00E94270D9B01C7
S1132D20AC01C801BA01A9010E94AD3F8A819B810F
S1132D300C960E94953F9D838C838C819D819E017E
S1132D402A5F3F4FB9014AE050E00E94713F8CE096
S1132D5092E00E94821ACE0106960E94821A83E1B2
S1132D6092E00E94821A64960FB6F894DEBF0FBEFA
S1132D70CDBFDF91CF911F910F9108950F931F93B2
S1132D80CF93DF93CDB7DEB769970FB6F894DEBF64
S1132D900FBECDBF88E090E00E94873F8987898578
S1132DA0882F90E00197880F991F9C0122953295F6
S1132DB0307F3227207F3227820F931F44969B87D0
S1132DC08A87CE010E9620E032E04CE0F9010080C3
S1132DD02F5F3F4FFC010082019641504423B1F71D
S1132DE01A8219821D861C8685E496E00E948A0157
S1132DF0882F90E09A83898385E496E00E94660197
S1132E00882F90E09D878C871C821B8216C09E01B0
S1132E10225F3F4F8B819C81820F931FFC01808135
S1132E20882F90E029813A81820F931F9A838983A6
S1132E308B819C8101969C838B832B813C818C8527
S1132E409D85019741E02817390708F040E04423A5
S1132E50F1F68985823060F08A859B854E960E94C2
S1132E608F3FDC01CB018D839E83AF83B88707C07E
S1132E7080E090E0DC018D839E83AF83B88785E496
S1132E8096E00E947801FC018DE696E02D813E815A
S1132E904F815885A981BA81BA01A9019D018F0189
S1132EA00E94151487E090E060E00E949B3F8985B2
S1132EB0882F90E09093E3038093E20369960FB622
S1132EC0F894DEBF0FBECDBFDF91CF911F910F915C
S1132ED00895CF93DF93CDB7DEB70E94B81587E08E
S1132EE090E060E00E949B3FDF91CF9108958F9224
S1132EF09F92AF92BF92CF92DF92EF92FF920F9385
S1132F001F93CF93DF93CDB7DEB7A7970FB6F8948F
S1132F10DEBF0FBECDBF88E090E00E94873F89836B
S1132F208981823008F4DEC08981882F90E09093F3
S1132F30E3038093E2038981882F90E00197880F4F
S1132F40991F9C0122953295307F3227207F3227AA
S1132F50820F931F44969B838A838A819B810E945C
S1132F608F3FDC01CB018C839D83AE83BF838A8139
S1132F709B8104960E948F3FDC01CB01888799874F
S1132F80AA87BB878A819B8108960E948F3FDC01B8
S1132F90CB018C879D87AE87BF878A819B810C96E6
S1132FA00E94953F998B888B8A819B810E960E9403
S1132FB0953F9B8B8A8B8A819B8140960E94953F8B
S1132FC09D8B8C8B8A819B8142960E94953F9F8B1F
S1132FD08E8B8A819B8144960E94953F998F888F1E
S1132FE08A819B8146960E94953F9B8F8A8F8A8116
S1132FF09B8148960E94953F9D8F8C8F8A819B81EF
S11330004A960E94953F9F8F8E8F8A819B814C9612
S11330100E94953F99A388A38A819B814E960E9422
S11330208F3FDC01CB018AA39BA3ACA3BDA38DB7C7
S11330309EB70A970FB6F8949EBF0FBE8DBF8DB78B
S11330409EB701960F2EFDE6AF2EF6E0BF2EF02DB3
S11330504C815D816E817F810C851D852E853F8528
S1133060CAA0DBA0ECA0FDA0AA8DBB8DEC8DFD8DCC
S1133070FFA3EEA38C889D88FC01918280828E88B8
S11330809F88FC0193828282888C998CFC019582B2
S1133090848288889988FC01978286828A889B88A2
S11330A0FC0191868086C5015D018EA09FA00E94CF
S11330B0C4098DB79EB70A960FB6F8949EBF0FBE8B
S11330C08DBF87EA96E0288539854A855B85AE8D74
S11330D0BF8DE8A1F9A1BA01A9019D018F010E9448
S11330E06A0E02C00E94BE16A7960FB6F894DEBF01
S11330F00FBECDBFDF91CF911F910F91FF90EF9045
S1133100DF90CF90BF90AF909F908F900895CF9312
S1133110DF930F92CDB7DEB787E090E00E94873F40
S113312089838981882321F00E94BE1681E003C02F
S11331300E94771780E00F90DF91CF910895CF938D
S1133140DF93CDB7DEB72F970FB6F894DEBF0FBE6F
S1133150CDBF8E876F87F8948E85882309F44BC082
S11331601A82198281E08B832CC082E090E00E9455
S1133170873F8F8381E090E00E94873F888780E0CB
S113318090E00E94873F89878F818C33A8F48885DB
S11331908C3390F48985883178F48985682F70E0C0
S11331A08885482F50E08F81282F30E085E496E011
S11331B00E9415061B8205C089819A8101969A8313
S11331C089838B81882339F089819A8183309105A1
S11331D014F481E001C080E0882339F68B818823D0
S11331E051F085E496E061E070E041E050E021E0D8
S11331F030E00E9415068F85882309F44EC01D8295
S11332001C8281E08E832FC084E090E00E94873F7F
S11332108A8783E090E00E94873F8B8785E090E077
S11332200E94953F9D878C878A858F31B8F48B8562
S11332308D30A0F48C859D8527E28031920770F44F
S11332408B85682F70E08A85482F50E02C853D855A
S113325085E496E00E9444021E8205C08C819D8113
S113326001969D838C838E81882339F08C819D8186
S11332708330910514F481E001C080E0882321F6B5
S11332808E81882351F085E496E061E070E041E0AE
S113329050E021ED37E00E94440278942F960FB657
S11332A0F894DEBF0FBECDBFDF91CF910895CF93C9
S11332B0DF93CDB7DEB729970FB6F894DEBF0FBE04
S11332C0CDBF88876987F89488858823F1F085E4E1
S11332D096E00E947605898385E496E00E94640561
S11332E08A8385E496E00E9452058B8382E090E015
S11332F06B810E949B3F81E090E06A810E949B3F2A
S113330080E090E069810E949B3F8985882309F1D0
S113331085E496E00E9478019D838C8385E496E0A1
S11333200E9466018E8385E496E00E948A018F8361
S113333085E090E02C813D81B9010E94B93F83E092
S113334090E06E810E949B3F84E090E06F810E9438
S11333509B3F789429960FB6F894DEBF0FBECDBF7D
S1133360DF91CF910895CF93DF9300D000D0CDB7F4
S1133370DEB79E838D8385E496E00E945205882FF4
S113338090E09A83898389819A819C018D819E81B1
S1133390820F931F2CE330E0B9010E94173D9C83F8
S11333A08B8301C0000085E496E00E945205282F1B
S11333B030E08B819C8141E02817390709F440E013
S11333C0442381F726960FB6F894DEBF0FBECDBF17
S11333D0DF91CF910895CF93DF9300D00F92CDB7B3
S11333E0DEB79C838B8317C01A82198206C0000043
S11333F089819A8101969A83898389819A8121E0BE
S1133400883C91050CF020E0222389F78B819C8174
S113341001979C838B8321E08B819C81009709F425
S113342020E0222309F70F900F900F900F90DF9167
S1133430CF910895CF93DF930F92CDB7DEB78983F1
S1133440000080EC90E0FC018081882F90E0807285
S1133450907021E0009709F020E0222391F786EC98
S113346090E02981FC0120830F90DF91CF91089592
S1133470CF93DF9300D0CDB7DEB79B838A831982C5
S11334800EC08981882F90E02A813B81820F931F8F
S1133490FC01808199819F5F99830E941A1A898116
S11334A0882F90E02A813B81820F931FFC01908139
S11334B081E0992309F480E0882319F70F900F9095
S11334C00F90DF91CF910895CF93DF930F92CDB7F3
S11334D0DEB78983000080ED90E0FC018081882FB5
S11334E090E08072907021E0009709F020E02223A0
S11334F091F786ED90E02981FC0120830F90DF9104
S1133500CF910895CF93DF9300D0CDB7DEB79B83DF
S11335108A8319820EC08981882F90E02A813B8199
S1133520820F931FFC01808199819F5F99830E9480
S1133530641A8981882F90E02A813B81820F931F2E
S1133540FC01908181E0992309F480E0882319F734
S11335500F900F900F90DF91CF910895CF93DF9349
S11335600F92CDB7DEB78983000088EC90E0FC01B0
S11335708081882F90E08072907021E0009709F09C
S113358020E0222391F78EEC90E02981FC01208336
S11335900F90DF91CF910895CF93DF9300D0CDB7F3
S11335A0DEB79B838A83198212C08EE591E00E9464
S11335B0EB198981882F90E02A813B81820F931F28
S11335C0FC01808199819F5F99830E94AE1A898151
S11335D0882F90E02A813B81820F931FFC01908108
S11335E081E0992309F480E08823F9F60F900F9085
S11335F00F90DF91CF910895CF93DF93CDB7DEB7CE
S1133600C155D0400FB6F894DEBF0FBECDBF78943D
S113361019821A8281E08B832DC38981882F90E0DF
S11336208230910509F49CC0833091053CF40097E5
S113363091F08130910509F485C017C38430910558
S113364009F4CDC2843091050CF4D8C085309105BD
S113365009F4E6C20AC31A828EEC90E0FC01808170
S1133660888F888D8E3239F48BE192E00E94CC1AD7
S113367084E08983FFC28A81882F90E09E01265DC1
S11336803F4F820F931F288DFC0120838A818F5F17
S11336908A8381E08983EEC2000088EC90E0FC011B
S11336A08081882334F080913106882311F081E0F1
S11336B001C080E0882389F782E390E00E94EB193F
S11336C080913106882359F48EE192E00E94821A97
S11336D0CE018A960E94381A19820000CBC28EEC61
S11336E090E0FC018081888F8A81882F90E09E0180
S11336F0265D3F4F820F931F288DFC0120838A8112
S11337008F5F8A83888D8E3219F0888D882371F4B7
S11337108A81882F90E09E01265D3F4F820F931F80
S1133720FC0110821B8282E089830CC08A8187326B
S113373048F01A821B82109231068BE192E00E94BB
S1133740CC1A19828B81882331F080913106882329
S113375011F081E001C080E0882309F09DCF8AC286
S1133760CE018A9629E232E0B90143E050E00E949A
S11337703A3F009799F484E0898389E292E00E94B9
S1133780CC1A81E080932C0680912D06882309F4BD
S113379070C210922D06109230066BC28CA591E077
S11337A08A3309F090E02DA581E02A3309F080E006
S11337B08927882319F083E089835BC2CE018A9626
S11337C02CE232E0B90142E050E00E943A3F009717
S11337D071F481E080932C06CE018A960E94CC1A63
S11337E08FE292E00E94821A84E0898342C28BE1D4
S11337F092E00E94CC1A84E089833BC21C821D8221
S113380081E090E09F838E831A8E198E1C8E1B8E0E
S11338101E8E1D8E18A21F8E1AA219A21CA21BA2F4
S1133820198618861B861A861D861C8673C09E01FF
S1133830265D3F4F8E819F81820F931FFC01808103
S11338408A33E9F08A859B8583309105C4F49E010F
S1133850265D3F4F8E819F81820F931FFC01408123
S11338609E012B5D3F4F8C859D85820F931FFC012C
S113387040838C859D8501969D878C8746C08A856B
S11338809B85823091050CF040C09E01265D3F4F20
S11338908E819F81820F931FFC0180818A33A9F559
S11338A0CE0185960E94F83E9C018A859B85880FEF
S11338B0991FAE014F5F5F4F840F951F4896FC011F
S11338C0318320838A859B8501969B878A871F86FF
S11338D01E860EC09E012B5D3F4F8E859F85820FF5
S11338E0931FFC0110828E859F8501969F878E878A
S11338F041E02E853F858C859D85821793070CF4C6
S113390040E0442339F71D861C868E819F810196F1
S11339109F838E839E01265D3F4F8E819F81820F00
S1133920931FFC0180818F3269F09E01265D3F4F19
S11339308E819F81820F931FFC018081882311F067
S113394081E001C080E0882309F071CF9E01265DEB
S11339503F4F8E819F81820F931FFC0180818F32A4
S1133960A9F4CE0185960E94F83E9C018A859B8528
S1133970880F991FAE014F5F5F4F840F951F4896C4
S1133980FC013183208381E08C8302C085E089833C
S1133990198A188A0EC09E012B5D3F4F8889998928
S11339A0820F931FFC011082888999890196998B53
S11339B0888B41E0288939898C859D8582179307F6
S11339C00CF440E0442339F71D861C868E819F81C8
S11339D001969F838E8373C09E01265D3F4F8E8127
S11339E09F81820F931FFC0180818C32E9F08885CE
S11339F0998583309105C4F49E01265D3F4F8E81E5
S1133A009F81820F931FFC0140819E012B5D3F4FDC
S1133A108C859D85820F931FFC0140838C859D8539
S1133A2001969D878C8746C088859985823091054B
S1133A300CF040C09E01265D3F4F8E819F81820F16
S1133A40931FFC0180818C32A9F5CE0185960E94DA
S1133A50F83E9C0188859985880F991FAE014F5FB8
S1133A605F4F840F951F4E96FC0131832083888518
S1133A7099850196998788871B8A1A8A0EC09E01A8
S1133A802B5D3F4F8A899B89820F931FFC01108213
S1133A908A899B8901969B8B8A8B41E02A893B8981
S1133AA08C859D85821793070CF440E0442339F7F5
S1133AB01D861C868E819F8101969F838E839E0125
S1133AC0265D3F4F8E819F81820F931FFC01808171
S1133AD08E32A9F09E01265D3F4F8E819F81820F19
S1133AE0931FFC018081882351F08A81282F30E0C4
S1133AF08E819F812817390711F081E001C080E091
S1133B00882309F069CF9E01265D3F4F8E819F81F6
S1133B10820F931FFC0180818E32A9F4CE01859619
S1133B200E94F83E9C0188859985880F991FAE01F3
S1133B304F5F5F4F840F951F4E96FC0131832083A6
S1133B4081E08D8302C085E089838D81882309F417
S1133B503EC08C818823D9F1698D7A8D4B8D5C8D23
S1133B602D8D3E8D85E496E00E9415066F8D78A11B
S1133B7049A15AA12BA13CA185E496E00E944402EC
S1133B8081E061E00E94571910922C0681E0809335
S1133B902D0610922E0680913906882379F0109212
S1133BA039068F8D98A1BC0189A19AA1AC018BA182
S1133BB09CA19C018DE696E00E94630981E48AA79A
S1133BC0CE018A960E94CC1A84E0898353C081E096
S1133BD080932C0610922D0685E089834BC01982B0
S1133BE0109231061D8A1C8A0EC09E01265D3F4F2D
S1133BF08C899D89820F931FFC0110828C899D8979
S1133C0001969D8B8C8B8A81282F30E041E08C8932
S1133C109D89281739070CF440E0442331F72AC062
S1133C2085E592E00E94CC1A109231061F8A1E8A02
S1133C300EC09E01265D3F4F8E899F89820F931F80
S1133C40FC0110828E899F8901969F8B8E8B8A81BD
S1133C50282F30E041E08E899F89281739070CF41A
S1133C6040E0442331F7198205C0198210923106CD
S1133C7001C000009091310681E0992309F480E0AD
S1133C80882309F0CACCCF5ADF4F0FB6F894DEBFB1
S1133C900FBECDBFDF91CF910895CF93DF93CDB702
S1133CA0DEB7CD55D0400FB6F894DEBF0FBECDBF02
S1133CB019821A8281E08B8381E08093320609C2E3
S1133CC08981882F90E08330910509F403C1843001
S1133CD091055CF48130910509F484C0823091052A
S1133CE00CF08EC0009771F0F0C18530910509F495
S1133CF0AAC1853091050CF498C18630910509F468
S1133D00C3C1E3C188E091E028E031E0F9012081FA
S1133D102068FC0120831D821C8206C000008C8167
S1133D209D8101969D838C8321E08C819D818230CD
S1133D3091050CF020E0222389F788E091E028E047
S1133D4031E0F90120812F77FC01208381E0898310
S1133D50C0C182E390E00E94EB19000088EC90E07F
S1133D60FC018081882334F080913206882311F08D
S1133D7081E001C080E0882389F78091320688239E
S1133D8019F419820000A5C18EEC90E0FC01808139
S1133D908C878A81882F90E09E012A5C3F4F820F96
S1133DA0931F2C85FC0120838A818F5F8A838C85F5
S1133DB08E3219F08C85882371F48A81882F90E0E3
S1133DC09E012A5C3F4F820F931FFC0110821B82CD
S1133DD082E0898307C08A81873220F01A821B829D
S1133DE085E089838B81882331F080913206882392
S1133DF011F081E001C080E0882309F0AACF69C1F5
S1133E00CE01C69628E532E0B90142E050E00E94B6
S1133E103A3F009719F483E089835BC1CE01C696CB
S1133E202BE532E0B90142E050E00E943A3F0097AE
S1133E3051F486E0898381E08093360610922E0641
S1133E401092300646C1CE01C6969E01225F3F4FB6
S1133E50B9010E942A3F009739F486E089831092C1
S1133E60300610922E0635C1CE01C6962EE532E0FC
S1133E70B90143E050E00E943A3F009739F486E0EC
S1133E80898310922E061092300623C1CE01C69665
S1133E9025E532E0B90142E050E00E943A3F009744
S1133EA019F484E0898315C1CE01C6962CE232E070
S1133EB0B90142E050E00E943A3F009741F486E0A5
S1133EC089831092300681E080932E0602C185E03A
S1133ED08983FFC084E690E00E94EB1980912E064E
S1133EE0882349F080913006882329F48BE592E0F9
S1133EF00E94CC1A76C080913006882309F453C0FE
S1133F0080912E06882309F04EC0CE010E9621E43E
S1133F1030E0FC013183208385E496E00E94B807F9
S1133F209C01CE010E96B9010E941F3FCE010E9650
S1133F309C01F90101900020E9F7CF010197821B50
S1133F40930B9E01225F3F4F820F931F2FE230E0BD
S1133F50FC013183208385E496E00E9443049C01A4
S1133F60CE010E96B9010E941F3FCE010E969C0110
S1133F70F90101900020E9F7CF010197821B930B0F
S1133F809E01225F3F4F820F931F2EE230E0FC011F
S1133F903183208383E50E94AE1A80E061E041E032
S1133FA00E94E3281EC080913006882359F0809136
S1133FB02E06882339F08BE192E00E94CC1A1092ED
S1133FC030060FC080913006882359F480912E0664
S1133FD0882339F48BE592E00E94CC1A81E0809327
S1133FE02E061F821E820EC09E012A5C3F4F8E81C8
S1133FF09F81820F931FFC0110828E819F81019605
S11340009F838E838A81282F30E041E08E819F81B7
S1134010281739070CF440E0442331F71A821C8630
S113402081E08B8381E0898354C085E496E00E941B
S11340307D078D878D85882319F481E080932F0671
S113404086E0898346C01982109232061986188642
S11340500EC09E012A5C3F4F88859985820F931F6D
S1134060FC011082888599850196998788878A81C1
S1134070282F30E041E088859985281739070CF40A
S113408040E0442331F725C01982109232061B8682
S11340901A860EC09E012A5C3F4F8A859B85820F3B
S11340A0931FFC0110828A859B8501969B878A87D2
S11340B08A81282F30E041E08A859B8528173907BB
S11340C00CF440E0442331F704C019821092320604
S11340D000009091320681E0992309F480E088235E
S11340E009F0EECDC35ADF4F0FB6F894DEBF0FBE12
S11340F0CDBFDF91CF910895CF93DF93CDB7DEB7D6
S1134100E7970FB6F894DEBF0FBECDBF19821A82AF
S113411081E08B8331C28A81882F90E082309105BF
S113412009F481C0833091053CF4009771F081302B
S1134130910509F468C01CC28330910509F4D2C109
S11341408430910509F4F3C113C2198286ED90E01D
S1134150FC018081888788858E3219F483E08A8304
S11341600BC28981882F90E09E01205F3F4F820F10
S1134170931F2885FC01208389818F5F898381E0D7
S11341808A83FAC1000080ED90E0FC0180818823DD
S113419034F080913406882311F081E001C080E07E
S11341A0882389F7809134068823D9F186ED90E03D
S11341B0FC01808188878981882F90E09E01205F9F
S11341C03F4F820F931F2885FC01208389818F5FD5
S11341D0898388858E3219F08885882371F48981D2
S11341E0882F90E09E01205F3F4F820F931FFC01B8
S11341F010821B8282E08A8306C08981873218F08C
S113420083E08A831B828B81882331F0809134067A
S1134210882311F081E001C080E0882309F0B2CF47
S1134220ABC10000A9C1CE01409622E632E0B9013B
S113423042E050E00E943A3F009741F481E061E09F
S113424041E00E94E32884E08A8396C1CE0140962F
S113425025E632E0B90143E050E00E943A3F00977E
S113426039F489E692E00E94821A84E08A8384C148
S1134270CE0140962BE732E0B90142E050E00E94C3
S11342803A3F009759F481E060E00E945719CE014B
S113429040960E94821A84E08A836EC1CE014096C1
S11342A02EE732E0B90143E050E00E943A3F009724
S11342B051F4CE0140960E94821A81E08093440614
S11342C084E08A8359C1CE01409622E832E0B901E4
S11342D043E050E00E943A3F0097B1F480914006D9
S11342E0882329F0CE0140960E94821A07C081E0FB
S11342F08093420686E892E00E94821A81E08093CD
S1134300430684E08A8338C1CE01409624EA32E031
S1134310B90144E050E00E943A3F009751F4CE01C5
S113432040960E94821A81E080933D0684E08A834D
S113433023C188898F3609F042C089898D871E86FA
S1134340CE010D960E94F83E9093E5038093E4031A
S11343508091E4039091E50318161906A4F4809162
S1134360E4039091E5039C018091E2039091E303BF
S11343708217930740F080913B06882321F081E067
S11343808093410619C0109241068FEF9FEF9093DE
S1134390E5038093E40380913B06882349F089EA8E
S11343A092E00E94821ACE010D960E94821A04C0E5
S11343B083EC92E00E94821A84E08A83DDC08889BB
S11343C0843609F088C08989853709F042C02A8972
S11343D089859A85FC01208389859A850196FC014B
S11343E0108289859A850E94F83E9093E703809312
S11343F0E6038091E6039091E703853091059CF4F0
S11344008091E6039091E7031816190664F48091ED
S11344103B06882341F081E080933F06CE0140961D
S11344200E94821A55C010923F068FEF9FEF90931F
S1134430E7038093E60380913B06882329F086ED09
S113444092E00E94821A44C088EE92E00E94821A8E
S11344503FC089898736E1F52A898B859C85FC01D3
S113446020838B859C850196FC0110828B859C851D
S11344700E94F83E9093E9038093E8038091E80357
S11344809091E90318161906A4F48091E803909119
S1134490E9039C018091E2039091E3032817390713
S11344A040F481E080933E06CE0140960E94821A39
S11344B00FC010923E068FEF9FEF9093E903809315
S11344C0E80384EF92E00E94821A8A890E94641AA7
S11344D084E08A8351C0CE0140960E94821A83E010
S11344E08A834AC084E690E00E94EB191092340655
S11344F01D821C820EC09E01205F3F4F8C819D81D6
S1134500820F931FFC0110828C819D8101969D83F3
S11345108C838981282F30E041E08C819D81821732
S113452093070CF040E0442331F71A8225C010921F
S113453034061F821E820EC09E01205F3F4F8E8173
S11345409F81820F931FFC0110828E819F810196AF
S11345509F838E838981282F30E041E08E819F8163
S1134560821793070CF040E0442331F71A8204C009
S1134570109234061A8200009091340681E0992347
S113458009F480E0882309F0C6CDE7960FB6F894C5
S1134590DEBF0FBECDBFDF91CF910895CF93DF93E0
S11345A0CDB7DEB7E1970FB6F894DEBF0FBECDBF2F
S11345B019821A828091E7078B8381E08C8363C11F
S11345C08981882F90E08330910509F4C8C0843034
S11345D091055CF48130910509F472C08230910533
S11345E00CF07EC0009771F04BC18530910509F441
S11345F02CC1853091050CF40BC18630910509F46A
S113460033C13EC11A8286EC90E0FC018081898727
S113461089858E3219F485E0898335C18A81882F92
S113462090E09E01265F3F4F820F931F2985FC0176
S113463020838A818F5F8A8381E0898324C100007B
S113464080EC90E0FC018081882334F08091330673
S1134650882311F081E001C080E0882389F78091EC
S113466033068823D9F186EC90E0FC0180818987A8
S11346708A81882F90E09E01265F3F4F820F931F0F
S11346802985FC0120838A818F5F8A8389858E3204
S113469019F08985882371F48A81882F90E09E011E
S11346A0265F3F4F820F931FFC0110821C8282E021
S11346B0898306C08A81873218F085E089831C8249
S11346C08C81882331F080913306882311F081E0B6
S11346D001C080E0882309F0B2CFD5C00000D3C068
S11346E08A85843519F483E08983CDC0CE010A9686
S11346F027E033E0B90142E050E00E943A3F0097DE
S1134700D9F48091E707882351F08AE093E00E946E
S1134710821A81E080934006109242060AC01092E9
S11347204006109242061092430689E193E00E94EB
S1134730821A84E08983A7C0CE010A962BE132E075
S1134740B90142E050E00E943A3F009729F41092E8
S1134750400684E0898397C085E0898394C08CE413
S113476093E00E94821A80914006882371F58B8120
S1134770882359F58DE593E00E94821ACE010A96AA
S11347800E94821A4091E707242F30E0C901880F64
S1134790991F820F931F9C01220F331F220F331F77
S11347A0820F931F8554994F242F2F5F2093E7077F
S11347B09E01265F3F4FB9010E94333F81E0898308
S11347C088E592E00E94381A02C086E089831E823E
S11347D01D820EC09E01265F3F4F8D819E81820FF8
S11347E0931FFC0110828D819E8101969E838D838F
S11347F08A81282F30E041E08D819E8182179307C2
S11348000CF040E0442331F71A8281E08C833BC0F2
S113481018861F820EC09E01265F3F4F8F819885A8
S1134820820F931FFC0110828F81988501969887CF
S11348308F8321E08F819885883291050CF020E0E8
S1134840222349F7109233061EC082E693E00E94A9
S1134850821ACE010A960E94821A8BE192E00E948B
S1134860381A84E089830FC089E693E00E94821A93
S11348701092E7071B821092400683E0898303C0ED
S11348801092330600009091330681E0992309F4D5
S113489080E0882309F094CEE1960FB6F894DEBF49
S11348A00FBECDBFDF91CF9108950F931F93CF9388
S11348B0DF93CDB7DEB7C057D0400FB6F894DEBF54
S11348C00FBECDBF9E0120593F4FF9018083CE0119
S11348D08C5A9F4F2DEC33E042E1F90100802F5FA9
S11348E03F4FFC010082019641504423B1F71982E5
S11348F01A821B8281E08C8318A61FA280E090E0BC
S1134900DC018F87988BA98BBA8B80E090E0DC0167
S11349108B8B9C8BAD8BBE8B80E090E0DC018F8B0E
S1134920988FA98FBA8FCE0180599F4FFC01808147
S1134930882309F45EC080914106882309F459C094
S1134940CE0180599F4FFC018081882F90E0019710
S1134950880F991F9C0122953295307F3227207F42
S11349603227820F931F449698A78FA38FA198A5EF
S11349700E948F3FDC01CB018F87988BA98BBA8B68
S11349808FA198A504960E948F3FDC01CB018B8BED
S11349909C8BAD8BBE8B8FA198A508960E948F3FF0
S11349A0DC01CB018F8B988FA98FBA8F8FA198A52B
S11349B00C960E94953F9E838D838FA198A50E9699
S11349C00E94953F98878F838FA198A540960E9457
S11349D0953F9A8789878FA198A542960E94953F13
S11349E09C878B878FA198A544960E94953F9E87AC
S11349F08D8781E080933506D1C38A81882F90E02A
S1134A008730910509F405C288309105DCF48330C0
S1134A10910509F4D0C0843091055CF4813091058E
S1134A2009F493C0823091050CF09FC0009739F1CE
S1134A30B2C38530910509F4DDC1863091050CF0CF
S1134A40DDC1EAC08B30910509F4C7C28C309105F1
S1134A504CF48930910509F424C28A3091050CF094
S1134A604DC2F8C18D30910509F43DC38D309105D7
S1134A700CF4D3C28E30910509F462C38CC388E070
S1134A8091E028E031E0F90120812064FC012083D9
S1134A901C8E1B8E06C000008B8D9C8D01969C8FF6
S1134AA08B8F21E08B8D9C8D853091050CF020E05F
S1134AB0222389F788E091E028E031E0F9012081A0
S1134AC02F7BFC01208381E08A8368C3000080EC93
S1134AD090E0FC018081882334F08091350688239E
S1134AE011F081E001C080E0882389F780913506C8
S1134AF08823C9F186EC90E0FC01808189A78B8131
S1134B00882F90E09E01265D3F4F820F931F29A5B9
S1134B10FC0120838B818F5F8B8389A58E3271F496
S1134B208B81882F90E09E01265D3F4F820F931F5B
S1134B30FC0110821C8282E08A8307C08B81873249
S1134B4020F01B821C8286E08A838C81882331F0CA
S1134B5080913506882311F081E001C080E088232C
S1134B6009F0B4CF1BC3000019C380914106882308
S1134B7019F083E08A8312C380913F06882319F0D9
S1134B8089E08A830BC380914206882319F087E069
S1134B908A8304C380913E06882319F08BE08A83BC
S1134BA0FDC280913D06882319F08DE08A83F6C208
S1134BB086E08A83F3C2CE018A9628E532E0B90101
S1134BC042E050E00E943A3F009719F484E08A835F
S1134BD0E5C28981882F90E001979E012C5A3F4FAE
S1134BE0880F991F820F931FFC0120813181CE0110
S1134BF08A96B90142E050E00E943A3F009719F4C6
S1134C0084E08A83CBC28AA5843519F484E08A833C
S1134C10C5C285E08A83C2C28981893008F0E0C0B8
S1134C208981882F90E09E012C5A3F4F880F991F4D
S1134C30820F931FFC01808191810E94381A89811F
S1134C40882F90E08430910509F462C08530910585
S1134C508CF48130910579F1823091051CF4009730
S1134C60D1F08DC082309105A9F18330910509F40A
S1134C7040C085C08630910509F460C08630910536
S1134C800CF451C08730910509F463C08830910554
S1134C9009F46AC074C0CE0180599F4FFC01808121
S1134CA0882F90E09E01205C3F4FB9014AE050E01C
S1134CB00E94713F67C08F859889A989BA89FE01CE
S1134CC0E05CFF4FBC01CD0140E022E08F010E9477
S1134CD0423D58C08B899C89AD89BE89FE01E05C48
S1134CE0FF4FBC01CD0140E022E08F010E94423D14
S1134CF049C08F89988DA98DBA8DFE01E05CFF4F64
S1134D00BC01CD0140E022E08F010E94423D3AC047
S1134D108D819E819E01205C3F4FB9014AE050E0A5
S1134D200E94713F2FC08F8198859E01205C3F4F68
S1134D30B9014AE050E00E94713F24C089859A85F8
S1134D409E01205C3F4FB9014AE050E00E94713F50
S1134D5019C08B859C859E01205C3F4FB9014AE0B8
S1134D6050E00E94713F0EC08D859E859E01205C9F
S1134D703F4FB9014AE050E00E94713F03C086E012
S1134D808A830000CE01805C9F4F0E94381A8EE215
S1134D900E941A1A89818F5F898381E08A831E8E1B
S1134DA01D8E0EC09E01265D3F4F8D8D9E8D820F00
S1134DB0931FFC0110828D8D9E8D01969E8F8D8F89
S1134DC08B81282F30E041E08D8D9E8D82179307D3
S1134DD00CF040E0442331F71B8281E08C83DEC178
S1134DE085E08A8319821092410687E093E00E944D
S1134DF0381AD4C11B8210923506D0C1CE018A96CE
S1134E000E94821A8BE192E00E94381A85E08A831C
S1134E10C5C1CE018A9628E532E0B90142E050E0EE
S1134E200E943A3F009719F488E08A83B7C1CE0103
S1134E308A962BE733E0B90143E050E00E943A3F01
S1134E40009729F485E08A8310924206A7C186E080
S1134E508A83A4C18BE793E00E94381A81E08A8395
S1134E6018A21F8E0EC09E01265D3F4F8F8D98A104
S1134E70820F931FFC0110828F8D98A1019698A335
S1134E808F8F8B81282F30E041E08F8D98A182177E
S1134E9093070CF040E0442331F71B8281E08C83BC
S1134EA07DC1CE018A9628E532E0B90142E050E0A6
S1134EB00E943A3F009719F48AE08A836FC1CE01B9
S1134EC08A962FE733E0B90142E050E00E943A3F6E
S1134ED0009749F482E893E00E94821A85E08A836D
S1134EE010923F065BC189E893E00E94821ACE01CA
S1134EF08A960E94821A86E08A8350C184E993E0EC
S1134F000E94821ACE0180599F4FFC018081882F14
S1134F1090E09E012A593F4FB9014AE050E00E94B7
S1134F20713FCE01805C9F4F2FE733E043E0F901EE
S1134F3000802F5F3F4FFC010082019641504423C3
S1134F40B1F7CE018A599F4F9C01F90101900020CD
S1134F50E9F7CF010197821B930B9E012A593F4F1A
S1134F60820F931F2EE230E0FC0131832083CE01B7
S1134F70805C9F4F9E012A593F4FB9010E941F3FF9
S1134F80CE01805C9F4F0E94821ACE01805C9F4FAD
S1134F900E94381A81E08A831AA219A20EC09E01C7
S1134FA0265D3F4F89A19AA1820F931FFC011082B5
S1134FB089A19AA101969AA389A38B81282F30E015
S1134FC041E089A19AA1821793070CF040E04423A1
S1134FD031F71B8281E08C83E1C0CE018A9628E5FB
S1134FE032E0B90142E050E00E943A3F009719F4E0
S1134FF08CE08A83D3C0CE018A969E01205C3F4F09
S1135000B9010E942A3F009729F485E08A8310920F
S11350103E06C4C086E08A83C1C0CE0180599F4F3A
S1135020FC018081882F90E09E0125593F4FB901F2
S11350304AE050E00E94713FCE01805C9F4F2DE911
S113504033E043E0F90100802F5F3F4FFC01008211
S1135050019641504423B1F7CE0185599F4F9C01DD
S1135060F90101900020E9F7CF010197821B930B0E
S11350709E0125593F4F820F931F2EE230E0FC0121
S113508031832083CE01805C9F4F9E0125593F4F81
S1135090B9010E941F3FCE01805C9F4F0E94381AC5
S11350A081E08A831CA21BA20EC09E01265D3F4F95
S11350B08BA19CA1820F931FFC0110828BA19CA148
S11350C001969CA38BA38B81282F30E041E08BA118
S11350D09CA1821793070CF040E0442331F71B8214
S11350E081E08C835BC0CE018A9628E532E0B90169
S11350F042E050E00E943A3F009719F48EE08A8320
S11351004DC0CE018A9620EA33E0B90143E050E075
S11351100E943A3F009749F484EA93E00E94821A7D
S113512085E08A8310923D0639C08DE593E00E94A4
S1135130821ACE018A960E94821A86E08A832EC041
S11351408CEA93E00E94821A80EA93E00E94381A63
S113515081E08A831EA21DA20EC09E01265D3F4FE0
S11351608DA19EA1820F931FFC0110828DA19EA18F
S113517001969EA38DA38B81282F30E041E08DA161
S11351809EA1821793070CF040E0442331F71B8261
S113519081E08C8303C0109235060000909135069F
S11351A081E0992309F480E0882309F026CCC059D2
S11351B0DF4F0FB6F894DEBF0FBECDBFDF91CF91A6
S11351C01F910F910895CF93DF93CDB7DEB7EB977F
S11351D00FB6F894DEBF0FBECDBF89AF6AAF4BAF39
S11351E089AD882309F444C08AAD8823E9F085E4B5
S11351F096E00E94B8079C01CE010196B9010E9475
S1135200333F80913406882341F0CE0101960E94F9
S1135210821A8FE20E94641A07C0CE0101960E948E
S1135220381A8FE20E941A1A8BAD882309F449C0F8
S113523085E496E00E9443049C01CE010C96B901DA
S11352400E94333F80913406882349F0CE010C96A6
S11352500E94821A8FED93E00E94821A32C0CE011E
S11352600C960E94381A8FED93E00E94381A29C0D8
S11352708AAD882389F085E496E00E94B8079C01F2
S1135280CE014D96B9010E94333FCE014D960E9446
S1135290CC1A8FE20E94AE1A8BAD882391F085E47C
S11352A096E00E9443049C01CE018896B9010E94B5
S11352B0333FCE0188960E94CC1A8FED93E00E9472
S11352C0CC1AEB960FB6F894DEBF0FBECDBFDF91BC
S11352D0CF9108951F920F920FB60F9200905B002A
S11352E00F9211242F933F938F939F93EF93FF93E8
S11352F0CF93DF93CDB7DEB7F89480913706882338
S113530031F01092370681E08093330602C0109288
S1135310330681EC90E021EC30E0F90120812F7715
S1135320FC0120837894DF91CF91FF91EF919F91BD
S11353308F913F912F910F9000925B000F900FBEC1
S11353400F901F9018951F920F920FB60F92009016
S11353505B000F9211242F933F938F939F93EF93AE
S1135360FF93CF93DF93CDB7DEB7F89480913606E1
S1135370882331F01092360681E08093310602C012
S11353801092310689EC90E029EC30E0F90120819B
S11353902F77FC0120837894DF91CF91FF91EF91D7
S11353A09F918F913F912F910F9000925B000F90EE
S11353B00FBE0F901F9018951F920F920FB60F9269
S11353C000905B000F9211242F933F938F939F9330
S11353D0EF93FF93CF93DF93CDB7DEB7F89480912B
S11353E03806882331F01092380681E08093340621
S11353F002C01092340681ED90E021ED30E0F90115
S113540020812F77FC0120837894DF91CF91FF9145
S1135410EF919F918F913F912F910F9000925B009C
S11354200F900FBE0F901F9018951F920F920FB6FA
S11354300F9200905B000F9211242F933F934F9390
S11354405F936F937F938F939F93AF93BF93EF93E8
S1135450FF93CF93DF93CDB7DEB7F8948BE091E061
S11354602BE031E0F90120812860FC01208381E0F8
S1135470809336068DE390E02DE330E0F90120813E
S11354802C7DFC01208388E592E00E94CC1A89ECF3
S113549090E029EC30E0F90120812068FC012083B0
S11354A08BE091E02BE031E0F9012081277FFC01C2
S11354B020837894DF91CF91FF91EF91BF91AF91C9
S11354C09F918F917F916F915F914F913F912F9118
S11354D00F9000925B000F900FBE0F901F901895D5
S11354E01F920F920FB60F9200905B000F9211243F
S11354F02F933F934F935F936F937F938F939F93D8
S1135500AF93BF93EF93FF93CF93DF93CDB7DEB702
S1135510F89481E08093370681EC90E021EC30E050
S1135520F90120812068FC0120838DE390E02DE3C4
S113553030E0F90120812C7DFC01208388E592E094
S11355400E94381A7894DF91CF91FF91EF91BF9127
S1135550AF919F918F917F916F915F914F913F9107
S11355602F910F9000925B000F900FBE0F901F9031
S113557018951F920F920FB60F9200905B000F9236
S113558011242F933F934F935F936F937F938F9344
S11355909F93AF93BF93EF93FF93CF93DF93CDB7D5
S11355A0DEB7F89481E08093380681ED90E021ED38
S11355B030E0F90120812068FC0120838DE390E034
S11355C02DE330E0F90120812C7DFC01208388E566
S11355D092E00E94821A7894DF91CF91FF91EF912B
S11355E0BF91AF919F918F917F916F915F914F91F7
S11355F03F912F910F9000925B000F900FBE0F9080
S11356001F9018951F920F920FB60F9200905B0097
S11356100F9211242F933F934F935F936F937F9334
S11356208F939F93AF93BF93EF93FF93CF93DF93A6
S11356300F920F92CDB7DEB7F89484E890E0FC01A6
S1135640808191819A8389838091420A882331F0F1
S11356501092420A8DE696E00E94A20B89819A81FB
S1135660F7E0813D9F0730F08091400A9091410A14
S1135670009731F08091400A9091410A009739F1E6
S11356808091420A882319F58BE091E02BE031E008
S1135690F90120812064FC0120838091400A9091CB
S11356A0410A29813A81281B390B8DE696E0B9011C
S11356B00E94FA0A1092410A1092400A8BE091E08B
S11356C02BE031E0F90120812F7BFC01208384E869
S11356D090E0FC011182108278940F900F90DF917A
S11356E0CF91FF91EF91BF91AF919F918F917F9156
S11356F06F915F914F913F912F910F9000925B00BA
S11357000F900FBE0F901F9018951F920F920FB617
S11357100F9211248F93CF93DF93CDB7DEB7F89414
S113572080912B06882319F010922B0603C081E088
S113573080932B067894DF91CF918F910F900FBEB9
S11357400F901F9018951F920F920FB60F92009012
S11357505B000F9211242F933F934F935F936F93AA
S11357607F938F939F93AF93BF93EF93FF93CF93C5
S1135770DF930F920F92CDB7DEB7F8941A82198295
S11357800E9497399A8389838091500A9091510A93
S11357909C01220F331F2851384F49815A81F90146
S11357A05183408301969093510A8093500A8091CB
S11357B0500A9091510AF1E08C329F0778F01092D0
S11357C0510A1092500A87EA96E028EE37E0B901B0
S11357D04CE251E00E94F80E0E945C3978940F90DC
S11357E00F90DF91CF91FF91EF91BF91AF919F9176
S11357F08F917F916F915F914F913F912F910F9076
S113580000925B000F900FBE0F901F9018951F928F
S11358100F920FB60F9200905B000F9211242F93FA
S11358203F934F935F936F937F938F939F93AF9324
S1135830BF93EF93FF93CF93DF93CDB7DEB7F89485
S11358408091400A9091410A21E08430910508F446
S113585020E001969093410A8093400A222331F07C
S11358608091420A882311F481E001C080E08823FA
S113587039F081E08093420A8DE696E00E94A20B03
S11358807894DF91CF91FF91EF91BF91AF919F9168
S11358908F917F916F915F914F913F912F910F90D5
S11358A000925B000F900FBE0F901F9018951F92EF
S11358B00F920FB60F9200905B000F9211242F935A
S11358C03F934F935F936F937F938F939F93AF9384
S11358D0BF93EF93FF93CF93DF93CDB7DEB785E20A
S11358E090E025E230E0F901308120E22327FC0139
S11358F0208385E496E00E9452059AE0692F0E9475
S11359000B3D892F982F81E0992309F080E08823AB
S113591019F081E08093430A85E496E00E945205E1
S113592099E0692F0E940B3D892F982F81E09923DC
S113593009F080E0882311F00E94103985E496E094
S113594061E070E00E9433078DE696E00E945E0AF3
S11359508091440A9091450A8131910554F48091D3
S11359603306882321F480913706882311F081E0DF
S113597001C080E0882351F08091440A9091450A47
S113598001969093450A8093440A3EC08091440A4C
S11359909091450A8131910554F080913306882312
S11359A021F480913706882311F081E001C080E062
S11359B0882391F01092450A1092440A10923306FB
S11359C0109237068DE390E02DE330E0F901208159
S11359D02362FC01208318C080913306882369F474
S11359E080913706882349F48091440A9091450AAE
S11359F01816190614F481E001C080E0882321F010
S1135A001092450A1092440A80913506882349F081
S1135A108091460A9091470A8131910514F481E0FE
S1135A2001C080E0882351F08091460A9091470A92
S1135A3001969093470A8093460A34C080913506B4
S1135A40882349F08091460A9091470A8131910553
S1135A5014F081E001C080E0882381F01092470AAD
S1135A601092460A109235068DE390E02DE330E063
S1135A70F90120812362FC01208314C08091350642
S1135A80882349F48091460A9091470A181619060A
S1135A9014F481E001C080E0882321F01092470AC9
S1135AA01092460A8091480A9091490A89309105DA
S1135AB054F480913406882321F480913806882395
S1135AC011F081E001C080E0882351F08091480A00
S1135AD09091490A01969093490A8093480A3EC0DE
S1135AE08091480A9091490A8930910554F0809137
S1135AF03406882321F480913806882311F081E04C
S1135B0001C080E0882391F01092490A1092480A5B
S1135B1010923406109238068DE390E02DE330E0C5
S1135B20F90120812362FC01208318C0809134068E
S1135B30882369F480913806882349F48091480ABF
S1135B409091490A1816190614F481E001C080E006
S1135B50882321F01092490A1092480A8091320653
S1135B60882349F080914A0A90914B0A8930910523
S1135B7014F481E001C080E0882351F080914A0A46
S1135B8090914B0A019690934B0A80934A0A34C031
S1135B9080913206882349F080914A0A90914B0AF9
S1135BA08930910514F081E001C080E0882381F000
S1135BB010924B0A10924A0A109232068DE390E03A
S1135BC02DE330E0F90120812362FC01208314C01D
S1135BD080913206882349F480914A0A90914B0AB5
S1135BE01816190614F481E001C080E0882321F01E
S1135BF010924B0A10924A0A80914C0A90914D0AD5
S1135C008930910554F480913106882321F48091E0
S1135C103606882311F081E001C080E0882351F02A
S1135C2080914C0A90914D0A019690934D0A80936D
S1135C304C0A3EC080914C0A90914D0A89309105DE
S1135C4054F080913106882321F48091360688230C
S1135C5011F081E001C080E0882391F010924D0A98
S1135C6010924C0A10923106109236068DE390E0A1
S1135C702DE330E0F90120812362FC01208318C068
S1135C8080913106882369F480913606882349F48B
S1135C9080914C0A90914D0A1816190614F481E06B
S1135CA001C080E0882321F010924D0A10924C0A22
S1135CB0DF91CF91FF91EF91BF91AF919F918F9120
S1135CC07F916F915F914F913F912F910F9000922F
S1135CD05B000F900FBE0F901F9018950F931F93AA
S1135CE0CF93DF93CDB7DEB7CA5FD0400FB6F89439
