S0140000474156525F72654379636C652E73726563BA
S11300000C943F000C9467000C9467000C94BC079C
S11300100C9453070C9467000C9467000C946700CD
S11300200C9467000C9467000C9467000C941608F9
S11300300C9467000C9467000C9467000C946700A0
S11300400C9467000C9467000C9467000C94670090
S11300500C9424090C9467000C9467000C946700BA
S11300600C9467000C9467000C9467000C94670070
S11300700C944E090C9467000C9467006A141124C4
S11300801FBECFEFD0E1DEBFCDBF11E0A0E0B1E0F5
S1130090E2E9FAE202C005900D92AC37B107D9F754
S11300A011E0ACE7B1E001C01D92AB3BB107E1F751
S11300B010E0CEE7D0E004C02297FE010E94A01415
S11300C0CC37D107C9F70E9478090C9447150C94D2
S11300D00000CF93DF9300D0CDB7DEB79A83898336
S11300E089819A81FC011182108289819A81FC01A3
S11300F01382128289819A81FC01158214820F90E5
S11301000F90DF91CF910895CF93DF93CDB7DEB7F2
S113011028970FB6F894DEBF0FBECDBF9A838983AC
S11301207C836B835E834D8338872F8389819A8197
S11301306B817C814D815E812F8138850E94840191
S113014028960FB6F894DEBF0FBECDBFDF91CF91D6
S11301500895CF93DF9300D0CDB7DEB79A83898318
S113016089819A81FC01808191810F900F90DF91A8
S1130170CF910895CF93DF9300D0CDB7DEB79A83A4
S1130180898389819A81FC01848195810F900F90E4
S1130190DF91CF910895CF93DF9300D0CDB7DEB731
S11301A09A83898389819A81FC01828193810F904A
S11301B00F90DF91CF910895CF93DF9300D000D0BB
S11301C0CDB7DEB79A8389837C836B838B819C81D3
S11301D00C968931910538F489819A812B813C816F
S11301E0FC01318320830F900F900F900F90DF91CB
S11301F0CF910895CF93DF9300D000D0CDB7DEB771
S11302009A8389837C836B8389819A81FC018081B1
S113021091818930910581F089819A81FC018081E5
S113022091818430910541F089819A81FC0180811A
S113023091818630910541F48B819C814E968D335A
S1130240910510F481E001C080E0882341F08981A8
S11302509A812B813C81FC013383228328C08981CC
S11302609A81FC01808191818230910541F48B81D6
S11302709C814C968933910510F481E001C080E0A3
S1130280882341F089819A812B813C81FC0133834D
S113029022830DC08B819C814F968F33910538F456
S11302A089819A812B813C81FC01338322830F90C5
S11302B00F900F900F90DF91CF910895CF93DF931C
S11302C000D000D0CDB7DEB79A8389837C836B835B
S11302D08B819C8127E0803D920744F089819A813B
S11302E02B813C81FC013583248307C089819A8159
S11302F022EF33E0FC01358324830F900F900F909D
S11303000F90DF91CF910895CF93DF93CDB7DEB7F0
S113031028970FB6F894DEBF0FBECDBF9A838983AA
S11303207C836B835E834D8338872F8389819A8195
S11303302B813C81B9010E94DC0089819A812D8145
S11303403E81B9010E94FA0089819A812F81388502
S1130350B9010E945E0128960FB6F894DEBF0FBE65
S1130360CDBFDF91CF910895CF93DF9300D000D01C
S113037000D0CDB7DEB79C838B837E836D838B8166
S11303809C81FC01248135818D819E81820F931F84
S11303909A83898389819A8121E0F7E08D3D9F07C3
S11303A00CF420E0222339F029813A818B819C814D
S11303B0FC013583248326960FB6F894DEBF0FBE66
S11303C0CDBFDF91CF910895CF93DF93CDB7DEB743
S11303D02A970FB6F894DEBF0FBECDBF98878F83E0
S11303E07A8769878F819885FC012081318189858D
S11303F09A85820F931F9E838D838D819E818D307C
S113040091053CF08D819E818931910514F481E040
S113041001C080E0882361F081E090E09A838983C1
S11304208F81988529813A81B9010E94B40122C043
S11304308D819E8121E0893191050CF420E02223F5
S113044091F08D819E812CE030E0B9010E947714F7
S11304509B013C832B838F8198852B813C81B9013F
S11304600E94B40107C02D813E818F819885FC01D3
S1130470318320832A960FB6F894DEBF0FBECDBF1A
S1130480DF91CF910895CF93DF9300D000D000D0B7
S1130490CDB7DEB79C838B837E836D838B819C81F8
S11304A0FC01228133818D819E81820F931F9A8367
S11304B089838B819C81FC018081918189309105A4
S11304C081F08B819C81FC01808191818430910534
S11304D041F08B819C81FC01808191818630910562
S11304E011F481E001C080E0882331F189819A818F
S11304F04E9621E08D33910508F020E0222341F04F
S113050029813A818B819C81FC013383228371C0D0
S11305108B819C8161E070E00E94E40189819A8171
S11305202FE130E0B9010E9477149C018B819C81FA
S1130530FC01338322835DC08B819C81FC0180811B
S1130540918121E08230910509F020E0222349F1D4
S11305508B819C81FC01828193814C9621E08933BB
S1130560910508F020E0222341F029813A818B8112
S11305709C81FC01338322833CC08B819C8161E09C
S113058070E00E94E40189819A812DE130E0B90193
S11305900E9477149C018B819C81FC01338322830C
S11305A028C08B819C81FC01828193814F9621E03C
S11305B08F33910508F020E0222341F029813A810C
S11305C08B819C81FC013383228313C08B819C81AA
S11305D061E070E00E94E40189819A8120E230E0C8
S11305E0B9010E9477149C018B819C81FC013383A7
S11305F0228326960FB6F894DEBF0FBECDBFDF91DF
S1130600CF910895CF93DF93CDB7DEB72D970FB673
S1130610F894DEBF0FBECDBF9D878C878C859D85EA
S1130620FC01808191819E012F5F3F4FB9014AE017
S113063050E00E94DD148C859D85FC0182819381AC
S11306409E012C5F3F4FB9014AE050E00E94DD1447
S11306508C859D85FC01848195819E01295F3F4F96
S1130660B9014AE050E00E94DD148C859D85069610
S11306709E012F5F3F4FB9010E94D6148C859D8542
S11306809C012A5F3F4FC901AC01FA01019000208F
S1130690E9F7CF010197841B950B820F931F2CE27E
S11306A030E0FC01318320838C859D8506969E0174
S11306B02C5F3F4FB9010E94C2148C859D859C011B
S11306C02A5F3F4FC901AC01FA0101900020E9F70C
S11306D0CF010197841B950B820F931F2CE230E00E
S11306E0FC01318320838C859D8506969E01295FBC
S11306F03F4FB9010E94C2148C859D8520E2FC0104
S1130700258B8C859D85FC01168A8C859D85069696
S11307102D960FB6F894DEBF0FBECDBFDF91CF91FB
S11307200895CF93DF9300D0CDB7DEB79A83898342
S113073089819A810E94690089819A8160E070E0D0
S113074040E050E020E030E00E9448040F900F9019
S1130750DF91CF910895CF93DF93CDB7DEB728977C
S11307600FB6F894DEBF0FBECDBF9A8389837C8316
S11307706B835E834D8338872F8389819A810E949E
S1130780690089819A816B817C814D815E812F8191
S113079038850E94480428960FB6F894DEBF0FBE31
S11307A0CDBFDF91CF910895CF92DF92EF92FF9268
S11307B00F931F93CF93DF93CDB7DEB72E970FB66A
S11307C0F894DEBF0FBECDBF9A8389837C836B838D
S11307D05E834D8338872F831A870987FC86EB86CF
S11307E0DE86CD8689819A8169857A854B855C858B
S11307F02D853E850E94840089819A816B817C814C
S11308004D815E812F8138850E9448042E960FB653
S1130810F894DEBF0FBECDBFDF91CF911F910F9132
S1130820FF90EF90DF90CF900895CF93DF9300D0A7
S1130830CDB7DEB79A83898389819A81FC01838D40
S1130840948D0F900F90DF91CF910895CF93DF9304
S113085000D0CDB7DEB79A83898389819A81FC0160
S1130860818D928D0F900F90DF91CF910895CF934A
S1130870DF9300D0CDB7DEB79A83898389819A81CB
S1130880FC018789908D0F900F90DF91CF9108958F
S1130890CF93DF93CDB7DEB728970FB6F894DEBFBA
S11308A00FBECDBF9A8389837C836B835E834D8324
S11308B038872F8389819A812B813C81B9010E94D9
S11308C0780489819A812D813E81B9010E94960420
S11308D089819A812F813885B9010E94B4042896B0
S11308E00FB6F894DEBF0FBECDBFDF91CF91089550
S11308F0CF93DF9300D000D0CDB7DEB79A8389833E
S11309007C836B838B819C8147968F32910538F46D
S113091089819A812B813C81FC01308F278B0F9038
S11309200F900F900F90DF91CF910895CF93DF93A5
S113093000D000D0CDB7DEB79A8389837C836B83E4
S11309408B819C81CB968737910538F489819A8174
S11309502B813C81FC01328F218F0F900F900F90DF
S11309600F90DF91CF910895CF93DF9300D000D003
S1130970CDB7DEB79A8389837C836B838B819C811B
S1130980CB968737910538F489819A812B813C81F4
S1130990FC01348F238F0F900F900F900F90DF91F5
S11309A0CF910895CF93DF93CDB7DEB728970FB6D5
S11309B0F894DEBF0FBECDBF9E838D8378876F838F
S11309C08D819E81FC012789308D8F819885820FCE
S11309D0931F9A83898389819A8128E130E0B90140
S11309E00E9477149C018D819E81FC01308F278B9E
S11309F089819A8121E0883191050CF420E0222339
S1130A0091F089819A8128E130E0B9010E9477143C
S1130A109B01C9019C838B838D819E812B813C81A9
S1130A20B9010E94430228960FB6F894DEBF0FBEA8
S1130A30CDBFDF91CF910895CF93DF93CDB7DEB7CC
S1130A4028970FB6F894DEBF0FBECDBF9E838D836B
S1130A5078876F838D819E81FC01218D328D8F81FA
S1130A609885820F931F9A83898389819A812CE3C5
S1130A7030E0B9010E9477149C018D819E81FC01B4
S1130A80328F218F89819A8121E08C3391050CF476
S1130A9020E0222391F089819A812CE330E0B9018E
S1130AA00E9477149B01C9019C838B832B813C8119
S1130AB08D819E81B9010E94D20428960FB6F894C4
S1130AC0DEBF0FBECDBFDF91CF910895CF93DF93EB
S1130AD0CDB7DEB728970FB6F894DEBF0FBECDBFF3
S1130AE09E838D8378876F838D819E81FC01238D06
S1130AF0348D8F819885820F931F9A83898389818E
S1130B009A812CE330E0B9010E9477149C018D8115
S1130B109E81FC01348F238F89819A8121E08C335B
S1130B2091050CF420E0222391F089819A812CE331
S1130B3030E0B9010E9477149B01C9019C838B8327
S1130B402B813C818D819E81B9010E941C052896D0
S1130B500FB6F894DEBF0FBECDBFDF91CF910895DD
S1130B60CF93DF93CDB7DEB72B970FB6F894DEBFE4
S1130B700FBECDBF9B878A878A859B85FC018789A9
S1130B80908D9E012F5F3F4FB9014AE050E00E94D3
S1130B90DD148A859B85FC01818D928D9E012C5FDD
S1130BA03F4FB9014AE050E00E94DD148A859B85DD
S1130BB0FC01838D948D9E01295F3F4FB9014AE06A
S1130BC050E00E94DD148A859B854D969E012F5F1F
S1130BD03F4FB9010E94D6148A859B859C01235EF0
S1130BE03F4FC901AC01FA0101900020E9F7CF01A0
S1130BF00197841B950B820F931F2AE330E0FC01BD
S1130C00318320838A859B854D969E012C5F3F4FBF
S1130C10B9010E94C2148A859B859C01235E3F4FC3
S1130C20C901AC01FA0101900020E9F7CF01019755
S1130C30841B950B820F931F2AE330E0FC01318360
S1130C4020838A859B854D969E01295F3F4FB9017C
S1130C500E94C2148A859B8520E2FC0127A38A8511
S1130C609B85FC0110A68A859B854D962B960FB615
S1130C70F894DEBF0FBECDBFDF91CF910895CF931F
S1130C80DF93CDB7DEB72F970FB6F894DEBF0FBE54
S1130C90CDBF8E876F87F8948E85882309F44BC067
S1130CA01A82198281E08B832CC082E090E00E943A
S1130CB006158F8381E090E00E940615888780E006
S1130CC090E00E94061589878F818C33A8F488856B
S1130CD08C3390F48985883178F48985682F70E0A5
S1130CE08885482F50E08F81282F30E087E891E0F5
S1130CF00E9448041B8205C089819A8101969A83C7
S1130D0089838B81882339F089819A818330910585
S1130D1014F481E001C080E0882339F68B818823B4
S1130D2051F087E891E061E070E041E050E021E0BB
S1130D3030E00E9448048F85882309F44EC01D8248
S1130D401C8281E08E832FC084E090E00E9406150F
S1130D508A8783E090E00E9406158B8785E090E007
S1130D600E940E159D878C878A858F31B8F48B85F8
S1130D708D30A0F48C859D8527E28031920770F434
S1130D808B85682F70E08A85482F50E02C853D853F
S1130D9087E891E00E9484011E8205C08C819D81B8
S1130DA001969D838C838E81882339F08C819D816B
S1130DB08330910514F481E001C080E0882321F69A
S1130DC08E81882351F087E891E061E070E041E092
S1130DD050E021ED37E00E94840178942F960FB6FD
S1130DE0F894DEBF0FBECDBFDF91CF910895CF93AE
S1130DF0DF93CDB7DEB729970FB6F894DEBF0FBEE9
S1130E00CDBF88876987F89488858823F1F087E8BF
S1130E1091E00E943704898387E891E00E942604C8
S1130E208A8387E891E00E9415048B8382E090E036
S1130E306B810E94141581E090E06A810E94141570
S1130E4080E090E069810E9414158985882309F166
S1130E5087E891E00E94BA009D838C8387E891E043
S1130E600E94A9008E8387E891E00E94CB008F83C3
S1130E7085E090E02C813D81B9010E94221583E038
S1130E8090E06E810E94141584E090E06F810E94CE
S1130E901415789429960FB6F894DEBF0FBECDBF13
S1130EA0DF91CF9108951F920F920FB60F921124E4
S1130EB02F933F934F935F936F937F938F939F935E
S1130EC0AF93BF93EF93FF93CF93DF93CDB7DEB789
S1130ED080E290E0FC018081882F90E08170907026
S1130EE08823B9F18091B9019091BA010196909348
S1130EF0BA018093B9018091B9019091BA0121E0BE
S1130F00181619060CF020E0222319F1F89481E058
S1130F108093840181EC90E021EC30E0F9012081A0
S1130F202068FC0120838BE690E02BE630E0F90199
S1130F3020812E7FFC0120838DE390E0FC01108250
S1130F4080E091E00E942A0C78941092BA011092E9
S1130F50B901DF91CF91FF91EF91BF91AF919F9133
S1130F608F917F916F915F914F913F912F910F904E
S1130F700FBE0F901F9018951F920F920FB60F92ED
S1130F8011242F933F934F935F936F937F938F938A
S1130F909F93AF93BF93EF93FF93CF93DF93CDB71B
S1130FA0DEB78091B7019091B80101969093B80192
S1130FB08093B7018091B7019091B80121E0181690
S1130FC019060CF020E02223F1F0F89481E08093DC
S1130FD0830189EC90E029EC30E0F901208120685C
S1130FE0FC0120838BE690E0FC0110828DE390E00D
S1130FF0FC01108285E091E00E94750C78941092B7
S1131000B8011092B701DF91CF91FF91EF91BF9199
S1131010AF919F918F917F916F915F914F913F918C
S11310202F910F900FBE0F901F9018951F920F9243
S11310300FB60F9211242F933F934F935F936F93A7
S11310407F938F939F93AF93BF93EF93FF93CF932C
S1131050DF93CDB7DEB789E290E029E230E0F90111
S113106020812068FC01208387E891E061E070E042
S11310700E94660580917E01882321F48091840179
S1131080882311F081E001C080E0882349F0809139
S1131090B3019091B40101969093B4018093B3018C
S11310A080917D01882321F480918301882311F0AC
S11310B081E001C080E0882349F08091B5019091DE
S11310C0B60101969093B6018093B5018091B50164
S11310D09091B6018A30910554F080917D01882366
S11310E021F480918301882311F081E001C080E024
S11310F08823B9F01092B6011092B50110927D01C7
S1131100109283018BE690E02BE630E0F901208118
S11311102160FC0120838DE390E024E0FC01208326
S11311201AC080917D01882369F48091830188230A
S113113049F48091B5019091B6011816190614F47A
S113114081E001C080E0882329F01092B60110925A
S1131150B50101C000008091B3019091B4018A30BF
S1131160910554F080917E01882321F480918401BB
S1131170882311F081E001C080E08823B9F0109247
S1131180B4011092B30110927E01109284018DE398
S113119090E024E0FC0120838BE690E02BE630E035
S11311A0F90120812160FC0120831AC080917E0115
S11311B0882369F480918401882349F48091B301E0
S11311C09091B4011816190614F481E001C080E06E
S11311D0882329F01092B4011092B30101C00000D9
S11311E090917C0181E0992309F480E08823B9F08F
S11311F08091850190918601019690938601809358
S11312008501809185019091860121E084329105C8
S11312100CF420E0222329F010927C0102C080917A
S11312207C01DF91CF91FF91EF91BF91AF919F919D
S11312308F917F916F915F914F913F912F910F907B
S11312400FBE0F901F9018951F920F920FB60F921A
S113125011242F933F938F939F93EF93FF93CF93F7
S1131260DF93CDB7DEB71092840181EC90E021ECDE
S113127030E0F90120812F77FC01208381E0809305
S11312807E01DF91CF91FF91EF919F918F913F91DB
S11312902F910F900FBE0F901F9018951F920F92D1
S11312A00FB60F9211242F933F938F939F93EF9335
S11312B0FF93CF93DF93CDB7DEB71092830189EC10
S11312C090E029EC30E0F90120812F77FC012083A4
S11312D081E080937D01DF91CF91FF91EF919F9108
S11312E08F913F912F910F900FBE0F901F901895E3
S11312F0CF93DF93CDB7DEB70E949D0A81E890E0DB
S11313000E94BC0A0E94650B81E061E00E943F06D6
S1131310789401C0000090917C0181E0992309F444
S113132080E08823D1F0809185019091860121E0AD
S11313308F3191050CF420E0222311F181E0809398
S1131340800181E080937F0181E08093820181E0CC
S11313508093810110927C0113C090917C0181E003
S1131360992309F080E0882351F088E290E028E294
S113137030E0F9012081277FFC01208301C00000B7
S113138090917D0181E0992309F480E0882361F143
S113139088E290E028E230E0F90120812260FC013B
S11313A020830E94A20C88E290E028E230E0F90158
S11313B020812D7FFC01208390917E0181E099237F
S11313C009F080E0882371F08BE690E02BE630E0B2
S11313D0F90120812160FC0120838DE390E024E069
S11313E0FC01208310927D0190917E0181E099237C
S11313F009F480E0882361F188E290E028E230E09B
S1131400F90120812460FC0120830E94071388E2F3
S113141090E028E230E0F90120812B7FFC01208359
S113142090917D0181E0992309F080E0882371F097
S11314308BE690E02BE630E0F90120812160FC018D
S113144020838DE390E024E0FC01208310927E0150
S113145080917F01882321F480918001882311F0F9
S113146081E001C080E0882309F454CF80917F019A
S1131470882331F080918001882311F081E001C03C
S113148080E08823D9F088E290E028E230E0F90196
S113149020812063FC01208383E090E00E94D40B30
S11314A01092800110927F0188E290E028E230E0FF
S11314B0F90120812F7CFC0120832CCF80917F01B6
S11314C0882331F080918001882311F481E001C0E8
S11314D080E08823C9F088E290E028E230E0F90156
S11314E020812061FC01208383E090E00E94D40BE2
S11314F010927F0188E290E028E230E0F901208137
S11315002F7EFC01208306CF88E290E028E230E0C1
S1131510F90120812062FC01208383E090E00E9495
S1131520D40B1092800188E290E028E230E0F901C7
S113153020812F7DFC012083EDCECF93DF93CDB7A7
S1131540DEB784E290E0FC01108287E290E0FC01C7
S113155010828AE290E0FC01108285E290E0FC01B6
S1131560108288E290E0FC0110828BE290E0FC01A2
S11315701082DF91CF910895CF93DF9300D0CDB740
S1131580DEB79A83898384EC90E02981FC0120836F
S113159085EC90E029813A81232F3327FC012083B5
S11315A08CEC90E02981FC0120838DEC90E0298172
S11315B03A81232F3327FC01208381EC90E028E13A
S11315C0FC01208382EC90E026E0FC01208389EC7E
S11315D090E028E1FC0120838AEC90E026E0FC0105
S11315E0208387E290E027E230E0F90120812A633A
S11315F0FC01208388E290E028E230E0F9012081B8
S11316002D7CFC01208388E290E028E230E0F9019F
S113161020812860FC01208387E290E027E230E00B
S1131620F90120812160FC0120838AE290E02AE212
S113163030E0F90120812068FC0120838BE290E0F6
S11316402BE230E0F90120812068FC01208388E24C
S113165090E028E230E0F90120812160FC01208340
S113166084E690E024E630E0F90120812D6EFC014F
S1131670208388E690E021E0FC0120838BE690E063
S11316802BE630E0F90120812160FC0120838DE309
S113169090E024E0FC01208389E690E020E3FC0153
S11316A0208381E080937C0110927D0110927E0161
S11316B010927F0110928001109281011092820198
S11316C00F900F90DF91CF910895CF93DF93CDB713
S11316D0DEB784E690E024E630E0F90120812F7B38
S11316E0FC01208381E090E00E94A30B86EB90E054
S11316F026EB30E0F90120812062FC01208381EB9C
S113170090E021EB30E0F90120812560FC01208389
S113171086EB90E0FC018081882F90E081719070CD
S113172021E0009709F420E0222391F787E390E079
S113173021E0FC01208380E790E021E0FC0120838C
S1131740DF91CF910895CF93DF9300D000D0CDB730
S1131750DEB79C838B8318C01A82198206C00000EE
S113176089819A8101969A83898389819A8121E06A
S113177033E0803293070CF020E0222381F78B8141
S11317809C8101979C838B838B819C8121E018161B
S113179019060CF020E02223F9F60F900F900F9019
S11317A00F90DF91CF910895CF93DF9300D000D0B5
S11317B000D0CDB7DEB79E838D8387E891E00E9489
S11317C01504882F90E09A83898329813A818D8139
S11317D09E81820F931F2CE330E0B9010E9477149D
S11317E09C838B8301C0000087E891E00E9415046C
S11317F0282F30E08B819C8141E02817390709F4B8
S113180040E0442381F726960FB6F894DEBF0FBE5E
S1131810CDBFDF91CF910895CF93DF930F92CDB7D2
S1131820DEB78983000080EC90E0FC018081882F82
S113183090E08072907021E0009709F020E022236C
S113184091F786EC90E02981FC0120830F90DF91D1
S1131850CF910895CF93DF9300D00F92CDB7DEB729
S11318609B838A8319820EC08981882F90E02A8104
S11318703B81820F931FFC0180810E940C0C8981A3
S11318808F5F89838981882F90E02A813B81820F31
S1131890931FFC01908181E0992309F480E088235F
S11318A019F70F900F900F90DF91CF910895CF9378
S11318B0DF930F92CDB7DEB78983000088EC90E008
S11318C0FC018081882F90E08072907021E0009765
S11318D009F020E0222391F78EEC90E02981FC01AD
S11318E020830F90DF91CF910895CF93DF9300D0A1
S11318F00F92CDB7DEB79B838A8319820EC089818C
S1131900882F90E02A813B81820F931FFC01808104
S11319100E94570C89818F5F89838981882F90E089
S11319202A813B81820F931FFC01908181E09923DE
S113193009F480E0882319F70F900F900F90DF913E
S1131940CF910895CF93DF93CDB7DEB7E3970FB66A
S1131950F894DEBF0FBECDBF1A82198281E08B835B
S11319608EEC90E0FC0180818C878C858E3231F482
S11319708AE091E00E94750C1B82DCC19E01235F0A
S11319803F4F89819A81820F931F2C85FC0120830C
S113199089819A8101969A838983CCC1000088EC5D
S11319A090E0FC018081882334F080917D018823BC
S11319B011F081E001C080E0882389F78EEC90E08B
S11319C0FC0180818C878C858E3209F094C19E0144
S11319D0235F3F4F89819A81820F931FFC011082FC
S11319E01B82CE010D962DE031E0B9010E94CD1489
S11319F0009731F480E060E041E00E94E6139AC170
S1131A00CE010D9622E131E0B9010E94CD14009778
S1131A1031F480E061E040E00E94E6138BC1CE0126
S1131A200D9627E131E0B9010E94CD14009731F4FD
S1131A3080E061E041E00E94E6137CC1CE010D9696
S1131A402CE131E0B9010E94CD14009791F481E0BA
S1131A5080937F0181E08093820181E291E00E9482
S1131A60750CCE010D960E94750C8EE20E94570CE7
S1131A7061C18E8591E08A3309F090E02F8581E081
S1131A802A3309F080E08927882309F453C1188E8A
S1131A901F8A1A8E198E1C8E1B8E1D821C821F8219
S1131AA01E8219861886ADC09E01235F3F4F88852C
S1131AB09985820F931FFC0180818A3341F18C81C7
S1131AC09D81833091051CF59E01235F3F4F8885DE
S1131AD09985820F931FFC0180818823C1F09E01A8
S1131AE0235F3F4F88859985820F931FFC014081B6
S1131AF09E01235E3F4F8E819F81820F931FFC01C5
S1131B0040838E819F8101969F838E8375C08C81D3
S1131B109D81823091050CF041C09E01235F3F4FAF
S1131B2088859985820F931FFC0180818A33B1F5E2
S1131B30CE014D960E94A4149C018C819D81880F36
S1131B40991FAE014F5F5F4F840F951F4696FC01AE
S1131B50318320838C819D8101969D838C831B8698
S1131B601A860EC09E01235E3F4F8A859B85820F95
S1131B70931FFC0110828A859B8501969B878A8727
S1131B8041E02A853B858E819F81821793070CF45F
S1131B9040E0442339F71F821E822EC08C819D8130
S1131BA0833091054CF59E01235F3F4F88859985CD
S1131BB0820F931FFC018081882339F028853985A1
S1131BC089819A8128173907B9F4CE014D960E946C
S1131BD0A4149C018C819D81880F991FAE014F5FD5
S1131BE05F4F840F951F4696FC01318320838C81BF
S1131BF09D8101969D838C8388859985019699871B
S1131C00888741E02885398589819A8182179307DD
S1131C100CF440E0442309F047CF8F89988D479610
S1131C208F32910508F040C0898D9A8DCB96873705
S1131C309105D0F58B8D9C8DCB9687379105A0F5BA
S1131C406F89788D498D5A8D2B8D3C8D87E891E075
S1131C500E94480481E060E00E94F70687E891E072
S1131C600E94B0059C01CE018096B9010E94D61451
S1131C7081E291E00E94750CCE0180960E94750C61
S1131C808EE20E94570C1092B2011092B101909111
S1131C907C0181E0992309F480E0882309F449C098
S1131CA010927C01000045C08091B1019091B20175
S1131CB001969093B2018093B10121E083309105A4
S1131CC00CF420E0222359F085E291E00E94750C87
S1131CD081E08093800181E0809381012BC08FE2B9
S1131CE091E00E94750CCE010D960E94750C8EE257
S1131CF00E94570C1FC09E01235F3F4F89819A8128
S1131D00820F931F2C85FC01208389819A8101967F
S1131D109A83898389819A81833191055CF01A823F
S1131D2019821B8210927D0189E391E00E94750C57
S1131D3001C000008B81882331F080917D018823CC
S1131D4011F081E001C080E0882309F027CEE396FA
S1131D500FB6F894DEBF0FBECDBFDF91CF910895CB
S1131D60CF93DF93CDB7DEB7CF5AD0400FB6F894F8
S1131D70DEBF0FBECDBF9E0122553F4FF9018083C8
S1131D80CE0181559F4FFC016083188A1F861982FA
S1131D9081E08A8387E891E00E941504882F90E00F
S1131DA098AB8FA78FA598A90A962CE330E0B901C8
S1131DB00E9477149AAB89ABD7C38F8598898330F7
S1131DC0910509F47DC1843091055CF4813091055D
S1131DD009F45CC0823091050CF0F2C0009771F0F8
S1131DE0B1C38530910509F497C2853091050CF48F
S1131DF012C28630910509F424C3A4C3CE018255CE
S1131E009F4FFC018081882381F0CE0181559F4F33
S1131E10FC018081882349F08FE391E00E94750CD6
S1131E2081E090E0988B8F8731C0CE0182559F4F1F
S1131E30FC018081882381F0CE0181559F4FFC01F4
S1131E408081882349F486E491E00E94750C83E044
S1131E5090E0988B8F871AC0CE0182559F4FFC016A
S1131E608081882381F4CE0181559F4FFC018081BC
S1131E70882349F08CE491E00E94750C85E090E0A1
S1131E80988B8F8703C081E089835FC31BAE1AAE32
S1131E9081E08B8388C0000088EC90E0FC018081A5
S1131EA088232CF08A81882311F081E001C080E02E
S1131EB0882391F78EEC90E0FC01808189878985E5
S1131EC08E3209F051C08AAD9BAD9E012D5C3F4F0F
S1131ED0820F931FFC0110821B82CE01C39622E560
S1131EE031E0B9010E94CD140097B1F582E090E091
S1131EF0988B8F8780E061E041E00E94E6138EE2D8
S1131F000E94570C87E891E00E94B0059C01CE0125
S1131F104196B9010E94D614CE0141969C01F90163
S1131F2001900020E9F7CF010197821B930B9E01DA
S1131F302F5E3F4F820F931F2FE230E0FC0131836D
S1131F40208387E891E00E9402039C01CE01419620
S1131F50B9010E94C21427C0188A1F861B8288E513
S1131F6091E00E94750C1FC08AAD9BAD9E012D5C53
S1131F703F4F280F391F4985F901408301969BAFD4
S1131F808AAF8AAD9BAD21E0873091050CF420E047
S1131F90222349F01BAE1AAE1B82188A1F8688E5DD
S1131FA091E00E94750C8B81882329F08A81882313
S1131FB011F081E001C080E0882309F06CCFC5C234
S1131FC0CE01865A9F4FFC011182108281E08C83DE
S1131FD06AC0000088EC90E0FC01808188232CF02A
S1131FE08A81882311F081E001C080E0882391F781
S1131FF08EEC90E0FC0180818A878A858E3211F50F
S1132000CE01865A9F4FFC01808191819E01245C00
S11320103F4F820F931FFC0110821C82CE01CC968D
S11320209E012F5E3F4FB9010E94CD14009719F411
S113203081E0898338C0188A1F8688E591E00E9470
S1132040750C31C0CE01865A9F4FFC01808191816D
S11320509E01245C3F4F280F391F4A85F9014083B4
S11320609C012F5F3F4FCE01865A9F4FFC01318365
S11320702083CE01865A9F4FFC018081918121E00B
S11320808F3191050CF420E0222369F0CE01865AA9
S11320909F4FFC0111821082188A1F861C8288E5DA
S11320A091E00E94750C8C81882329F08A81882311
S11320B011F081E001C080E0882309F08ACF45C295
S11320C0CE018D599F4FFC011182108281E08D83D6
S11320D095C0000088EC90E0FC01808188232CF0FE
S11320E08A81882311F081E001C080E0882391F780
S11320F08EEC90E0FC0180818B878B858E3209F019
S11321004CC0CE018D599F4FFC01808191819E016D
S1132110245A3F4F820F931FFC0110821D82CE016F
S1132120845A9F4F22E631E0B9010E94CD140097F2
S113213061F584E090E0988B8F8780E061E040E077
S11321400E94E61387E891E00E94B0059C01CE014D
S11321504196B9010E94D614CE0141969C01F90121
S113216001900020E9F7CF010197821B930B9E0198
S11321702F5E3F4F820F931F2FE230E0FC0131832B
S113218020838EE20E94570C39C0188A1F861D8254
S113219088E591E00E94750C31C0CE018D599F4FA6
S11321A0FC01808191819E01245A3F4F280F391FE1
S11321B04B85F90140839C012F5F3F4FCE018D5920
S11321C09F4FFC0131832083CE018D599F4FFC0129
S11321D08081918121E0873091050CF420E0222355
S11321E069F0CE018D599F4FFC01118210821D822E
S11321F0188A1F8688E591E00E94750C8D818823DA
S113220029F08A81882311F081E001C080E08823CD
S113221009F05FCF9AC1CE018D579F4FFC01118207
S1132220108281E08E836BC0000088EC90E0FC019A
S1132230808188232CF08A81882311F081E001C0F9
S113224080E0882391F78EEC90E0FC0180818C87FC
S11322508C858E3219F5CE018D579F4FFC018081FC
S113226091819E012B593F4F820F931FFC011082D5
S11322701E82CE018B599F4F9E012F5E3F4FB901A5
S11322800E94CD14009719F481E0898338C0188A1C
S11322901F8688E591E00E94750C31C0CE018D57F0
S11322A09F4FFC01808191819E012B593F4F280F44
S11322B0391F4C85F90140839C012F5F3F4FCE01AC
S11322C08D579F4FFC0131832083CE018D579F4F43
S11322D0FC018081918121E08F3191050CF420E093
S11322E0222369F0CE018D579F4FFC011182108289
S11322F0188A1F861E8288E591E00E94750C8E81E3
S1132300882329F08A81882311F081E001C080E0CC
S1132310882309F089CF19C1CE0184579F4FFC014E
S11323201182108281E08F837FC0000088EC90E0EE
S1132330FC01808188232CF08A81882311F081E0BC
S113234001C080E0882391F78EEC90E0FC0180814D
S11323508D878D858E32B9F5CE0184579F4FFC0150
S1132360808191819E012B573F4F820F931FFC0167
S113237010821F82CE018B579F4F27E631E0B901AF
S11323800E94CD140097B9F486E090E0988B8F8773
S113239080E060E041E00E94E6138EE20E94570C68
S11323A087E891E00E9402039C01CE014196B901A5
S11323B00E94D61439C0188A1F861F8288E591E0CE
S11323C00E94750C31C0CE0184579F4FFC0180815F
S11323D091819E012B573F4F280F391F4D85F901DD
S11323E040839C012F5F3F4FCE0184579F4FFC01D8
S11323F031832083CE0184579F4FFC0180819181DA
S113240021E0873091050CF420E0222369F0CE010D
S113241084579F4FFC01118210821F82188A1F86E5
S113242088E591E00E94750C8F81882329F08A81C8
S1132430882311F081E001C080E0882309F075CF82
S113244084C0CE0184559F4FFC011182108281E02B
S113245088876BC0000088EC90E0FC0180818823B1
S11324602CF08A81882311F081E001C080E0882368
S113247091F78EEC90E0FC0180818E878E858E3200
S113248019F5CE0184559F4FFC01808191819E01F5
S113249022573F4F820F931FFC0110821886CE01F2
S11324A082579F4F9E012F5E3F4FB9010E94CD146A
S11324B0009719F481E0898338C0188A1F8688E55B
S11324C091E00E94750C31C0CE0184559F4FFC01F0
S11324D0808191819E0122573F4F280F391F4E85DD
S11324E0F90140839C012F5F3F4FCE0184559F4FDC
S11324F0FC0131832083CE0184559F4FFC018081F0
S1132500918121E08F3191050CF420E0222369F0C0
S1132510CE0184559F4FFC0111821082188A1F86B8
S1132520188688E591E00E94750C8885882329F037
S11325308A81882311F081E001C080E0882309F0BA
S113254089CF03C0188A1F8600002FA538A989A93E
S11325509AA941E02817390709F440E0442319F007
S113256081E08A8301C01A828981882329F48A81BF
S1132570882311F081E001C080E0882309F01DCC9C
S11325808A81882389F0CE0182559F4FFC01808186
S1132590882351F0CE0181559F4FFC01808188230F
S11325A019F41092810129C08A81882389F0CE010F
S11325B082559F4FFC018081882351F4CE018155BF
S11325C09F4FFC018081882319F01092820115C06D
S11325D08A81882391F0CE0182559F4FFC0180812E
S11325E0882359F0CE0181559F4FFC0180818823B7
S11325F021F01092820110928101C155DF4F0FB674
S1132600F894DEBF0FBECDBFDF91CF910895CF9375
S1132610DF93CDB7DEB72F970FB6F894DEBF0FBEAA
S1132620CDBF1A82198281E08B8386EC90E0FC0195
S113263080818C838C818E3231F48CE691E00E940F
S11326402A0C1B82A8C09E012A5F3F4F89819A8170
S1132650820F931F2C81FC01208389819A8101962A
S11326609A83898398C0000080EC90E0FC0180810B
S1132670882334F080917E01882311F081E001C029
S113268080E0882389F786EC90E0FC0180818C83CC
S11326908C818E3209F044C09E012A5F3F4F8981AC
S11326A09A81820F931FFC0110821B82CE01069631
S11326B022E131E0B9010E94CD14009731F481E0A8
S11326C061E040E00E94E61326C0CE0106962DE0AC
S11326D031E0B9010E94CD14009731F481E060E04B
S11326E041E00E94E61317C0CE01069627E131E0CF
S11326F0B9010E94CD14009731F481E061E041E01A
S11327000E94E61308C081E291E00E942A0CCE01E7
S113271006960E942A0C1092B0011092AF013BC0A1
S11327208091AF019091B00121E0843091050CF4C7
S113273020E0222359F08EE691E00E942A0C1092A8
S11327407E011092B0011092AF0125C09E012A5F54
S11327503F4F89819A81820F931F2C81FC01208332
S113276089819A8101969A83898389819A818A30A1
S113277091058CF01A8219828091AF019091B00179
S113278001969093B0018093AF0110927E0187E788
S113279091E00E942A0C8B81882331F080917E0184
S11327A0882311F081E001C080E0882309F05BCF29
S11327B086EC90E0FC0180818D832F960FB6F8940F
S11327C0DEBF0FBECDBFDF91CF910895CF93DF93CE
S11327D0CDB7DEB7EB970FB6F894DEBF0FBECDBF13
S11327E089AF6AAF4BAF89AD882331F18AAD8823B5
S11327F089F087E891E00E94B0059C01CE01019622
S1132800B9010E94D614CE0101960E942A0C8FE2CF
S11328100E940C0C8BAD8823A1F187E891E00E9403
S113282002039C01CE010C96B9010E94D614CE017C
S11328300C960E942A0C25C08AAD882389F087E86B
S113284091E00E94B0059C01CE014D96B9010E9411
S1132850D614CE014D960E94750C8FE20E94570C3F
S11328608BAD882371F087E891E00E9402039C01FC
S1132870CE018896B9010E94D614CE0188960E9492
S1132880750CEB960FB6F894DEBF0FBECDBFDF918B
S1132890CF910895CF93DF9300D000D0CDB7DEB7AA
S11328A09A8389837C836B8389819A8181309105A2
S11328B051F48B819C812FEF8F3F920721F487E89D
S11328C091E00E9491030F900F900F900F90DF9171
S11328D0CF910895CF93DF93CDB7DEB781E090E039
S11328E06FEF7FEF0E944A14DF91CF91089597FB19
S11328F0092E07260AD077FD04D00CD006D000207C
S11329001AF4709561957F4F0895F6F79095819527
S11329109F4F0895AA1BBB1B51E107C0AA1FBB1FF1
S1132920A617B70710F0A61BB70B881F991F5A9557
S1132930A9F780959095BC01CD010895EE0FFF1F76
S11329400590F491E02D0994FC0188279927E894D7
S113295021912032E9F3293010F02E30C8F32B32C4
S113296041F02D3239F4689404C00E94FE14820FA1
S1132970911D219120532A30C0F31EF49095819526
S11329809F4F0895FB01DC010D900020E9F711979A
S113299001900D920020E1F70895FB01DC018D9177
S11329A0019080190110D9F3990B0895FB01DC0102
S11329B001900D920020E1F70895FB019F01E89436
S11329C04230C4F04532B4F44A3029F497FB1EF483
S11329D0909581959F4F642F77270E948A14805D7C
S11329E08A330CF0895D8193CB010097A1F716F42B
S11329F05DE251931082C9010C9427157AE0979FE8
S1132A00902D879F802D910D11240895F999FECF63
S1132A1092BD81BDF89A992780B50895A8E1B0E0E8
S1132A2042E050E00C943915262FF999FECF1FBAD5
S1132A3092BD81BD20BD0FB6F894FA9AF99A0FBEE3
S1132A40019608950E941415272F0C941515DC0186
S1132A50FC01672F71917723E1F7329704C07C91D1
S1132A606D9370836291AE17BF07C8F30895DC01BC
S1132A70CB01FC01F999FECF06C0F2BDE1BDF89A85
S1132A80319600B40D9241505040B8F70895F8942F
S1052A90FFCF72
S1132A9241434B420041434B5700522E0064617440
S1132AA2650074696D6500626F7468004441544541
S1132AB20041434B0041434B4552524F522E004179
S1132AC2434B6E6F676F6F640041434B522E00534A
S1132AD2594E54442E0053594E542E0053594E44C9
S1132AE22E0041434B54440053594E4552524F52C7
S1132AF22E0041434B540041434B44005200414396
S10F2B024B4552524F520041434B5200CD
S9030000FC
