S0140000474156525F72654379636C652E73726563BA
S11300000C94F1000C9493270C94EE270C94240187
S11300100C9424010C9424010C9437280C9480280B
S11300200C940F290C9424010C9424010C942401A5
S11300300C9424010C9424010C9424010C94E329C1
S11300400C9424010C9424010C9424010C94240198
S11300500C9493290C942D290C9424010C942401C0
S11300600C9424010C94E8260C9424010C9424018F
S11300700C9424010C9424010C9424010C94240168
S11300800C9424010C9424010C9424010C94240158
S11300900C9421270C9424010C9424010C94240125
S11300A00C9424010C9424010C9424010C94240138
S11300B00C9424010C9424010C9424010C94240128
S11300C00C9424010C9424010C9424010C945A27BC
S11300D00C9424010C9424010C9424010C94240108
S11300E00C94240100407A10F35A00A0724E1809AF
S11300F00010A5D4E80000E87648170000E40B548B
S1130100020000CA9A3B000000E1F5050000809659
S11301109800000040420F000000A086010000008B
S1130120102700000000E803000000006400000045
S113013000000A00000000000100000000002C760E
S1130140D888DC674F0823DFC1DFAE59E1B1B79629
S1130150E5E3E453C63AE651997696E8E6C2842686
S1130160EB898C9B62ED407C6FFCEFBC9C9F40F262
S1130170BAA56FA5F490055A2AF75C936B6CF967DE
S11301806DC11BFCE0E40D47FEF520E6B500D0EDA3
S1130190902E0300943577050080841E080000200B
S11301A04E0A000000C80C333333330F986E1283A9
S11301B01141EF8D2114893BE65516CFFEE6DB187D
S11301C0D1844B381BF77C1D901DA4BBE424203242
S11301D084725E228100C9F124ECA1E53D272A3313
S11301E0373311241FBECFEFD1E2DEBFCDBF00E015
S11301F00CBF13E0A0E0B2E0E8EDF5E700E00BBFD0
S113020002C007900D92AA32B107D9F71BBE16E0BF
S1130210AAE2B3E001C01D92AA33B107E1F711E0ED
S1130220C0EED1E000E006C022970109FE010BBF39
S11302300E947D35CE3DD10780E00807A9F71BBE9B
S11302400E94D12B0C94D93A0C940000CF93DF93E5
S11302500F920F92CDB7DEB79A83898389819A81F1
S1130260FC011182108289819A81FC01138212821D
S113027089819A81FC01158214820F900F90DF917D
S1130280CF910895CF93DF93CDB7DEB728970FB6FC
S1130290F894DEBF0FBECDBF9A8389837C836B83C2
S11302A05E834D8338872F8389819A816B817C811A
S11302B04D815E812F8138850E94450228960FB6B4
S11302C0F894DEBF0FBECDBFDF91CF910895CF93D9
S11302D0DF930F920F92CDB7DEB79A83898389811A
S11302E09A81FC01808191810F900F90DF91CF91D1
S11302F00895CF93DF930F920F92CDB7DEB79A8311
S1130300898389819A81FC01848195810F900F9062
S1130310DF91CF910895CF93DF930F920F92CDB7D2
S1130320DEB79A83898389819A81FC0182819381D2
S11303300F900F90DF91CF910895CF93DF9300D06A
S11303400F92CDB7DEB79A8389837C836B838B81CD
S11303509C810C968931910538F489819A812B818D
S11303603C81FC01318320830F900F900F900F90FC
S1130370DF91CF910895CF93DF9300D00F92CDB743
S1130380DEB79A8389837C836B8389819A81FC019C
S1130390808191818930910581F089819A81FC0164
S11303A0808191818430910541F089819A81FC0199
S11303B0808191818630910541F48B819C814E9698
S11303C08D33910510F481E001C080E0882341F071
S11303D089819A812B813C81FC013383228328C04B
S11303E089819A81FC01808191818230910541F457
S11303F08B819C814C968933910510F481E001C076
S113040080E0882341F089819A812B813C81FC0121
S1130410338322830DC08B819C814F968F3391054A
S113042038F489819A812B813C81FC0133832283B6
S11304300F900F900F900F90DF91CF910895CF936D
S1130440DF9300D00F92CDB7DEB79A8389837C8384
S11304506B838B819C8127E0803D920744F08981E6
S11304609A812B813C81FC013583248307C08981D7
S11304709A8122EF33E0FC01358324830F900F909F
S11304800F900F90DF91CF910895CF93DF93CDB765
S1130490DEB728970FB6F894DEBF0FBECDBF9A83A0
S11304A089837C836B835E834D8338872F83898123
S11304B09A812B813C81B9010E949D0189819A8195
S11304C02D813E81B9010E94BB0189819A812F81CE
S11304D03885B9010E941F0228960FB6F894DEBF32
S11304E00FBECDBFDF91CF910895CF93DF9300D09E
S11304F000D0CDB7DEB79C838B837E836D838B81E5
S11305009C81FC01248135818D819E81820F931F02
S11305109A83898389819A8121E0F7E08D3D9F0741
S11305200CF420E0222339F029813A818B819C81CB
S1130530FC013583248326960FB6F894DEBF0FBEE4
S1130540CDBFDF91CF910895CF93DF93CDB7DEB7C1
S11305502A970FB6F894DEBF0FBECDBF98878F835E
S11305607A8769878F819885FC012081318189850B
S11305709A85820F931F9E838D838D819E818D30FA
S113058091053CF08D819E818931910514F481E0BF
S113059001C080E0882361F081E090E09A83898340
S11305A08F81988529813A81B9010E94750222C000
S11305B08D819E8121E0893191050CF420E0222374
S11305C091F08D819E812CE030E0B9010E946A3562
S11305D09B013C832B838F8198852B813C81B901BE
S11305E00E94750207C02D813E818F819885FC0190
S11305F0318320832A960FB6F894DEBF0FBECDBF99
S1130600DF91CF910895CF93DF9300D000D0CDB781
S1130610DEB79C838B837E836D838B819C81FC01FD
S1130620228133818D819E81820F931F9A838983D6
S11306308B819C81FC01808191818930910581F0BD
S11306408B819C81FC01808191818430910541F0F2
S11306508B819C81FC01808191818630910511F40C
S113066081E001C080E0882331F189819A814E962E
S113067021E08D33910508F020E0222341F0298107
S11306803A818B819C81FC013383228371C08B81ED
S11306909C8161E070E00E94A40289819A812FE12B
S11306A030E0B9010E946A359C018B819C81FC0178
S11306B0338322835DC08B819C81FC018081918185
S11306C021E08230910509F020E0222349F18B8159
S11306D09C81FC01828193814C9621E089339105B0
S11306E008F020E0222341F029813A818B819C810A
S11306F0FC01338322833CC08B819C8161E070E0E8
S11307000E94A40289819A812DE130E0B9010E94FE
S11307106A359C018B819C81FC013383228328C030
S11307208B819C81FC01828193814F9621E08F33E0
S1130730910508F020E0222341F029813A818B8140
S11307409C81FC013383228313C08B819C8161E0F3
S113075070E00E94A40289819A8120E230E0B9010C
S11307600E946A359C018B819C81FC013383228326
S113077026960FB6F894DEBF0FBECDBFDF91CF91A2
S11307800895CF93DF9300D0CDB7DEB79B838A83E0
S113079019828A819B81FC01808191810C9621E0E0
S11307A08931910508F020E0222309F466C08A818A
S11307B09B81FC01808191818930910581F08A813E
S11307C09B81FC01808191818430910541F08A8173
S11307D09B81FC01808191818630910559F48A8145
S11307E09B81FC01828193814E968D33910510F497
S11307F081E001C080E0882319F081E0898328C06A
S11308008A819B81FC01808191818230910559F418
S11308108A819B81FC01828193814C968933910565
S113082010F481E001C080E0882319F081E089831D
S11308300FC08A819B81FC01828193814F9621E0C4
S11308408F33910508F020E0222311F081E08983A1
S11308508981882359F08A819B81FC018481958157
S1130860F7E08D3D9F0714F081E001C080E088230C
S113087011F081E003C080E001C080E00F900F9090
S11308800F90DF91CF910895CF93DF93CDB7DEB76B
S11308902D970FB6F894DEBF0FBECDBF9D878C8712
S11308A08C859D85FC01808191819E012F5F3F4F46
S11308B0B9014AE050E00E9487378C859D85FC0190
S11308C0828193819E012C5F3F4FB9014AE050E041
S11308D00E9487378C859D85FC01848195819E01CA
S11308E0295F3F4FB9014AE050E00E9487378C8569
S11308F09D8506969E012F5F3F4FB9010E94723776
S11309008C859D859C012A5F3F4FC901AC01FA018A
S113091001900020E9F7CF010197841B950B820F0A
S1130920931F2CE230E0FC01318320838C859D856C
S113093006969E012C5F3F4FB9010E945E378C855D
S11309409D859C012A5F3F4FC901AC01FA010190CA
S11309500020E9F7CF010197841B950B820F931FA9
S11309602CE230E0FC01318320838C859D85069642
S11309709E01295F3F4FB9010E945E378C859D859A
S1130980FC01168A8C859D8506962D960FB6F894E3
S1130990DEBF0FBECDBFDF91CF910895CF93DF931C
S11309A00F920F92CDB7DEB79A83898389819A819A
S11309B00E94260189819A8160E070E040E050E065
S11309C020E030E00E9416060F900F90DF91CF9147
S11309D00895CF93DF93CDB7DEB728970FB6F89479
S11309E0DEBF0FBECDBF9A8389837C836B835E8316
S11309F04D8338872F8389819A810E9426018981BA
S1130A009A816B817C814D815E812F8138850E9422
S1130A10160628960FB6F894DEBF0FBECDBFDF9141
S1130A20CF910895CF92DF92EF92FF920F931F938D
S1130A30CF93DF93CDB7DEB72E970FB6F894DEBF12
S1130A400FBECDBF9A8389837C836B835E834D8382
S1130A5038872F831A870987FC86EB86DE86CD8646
S1130A6089819A8169857A854B855C852D853E854A
S1130A700E94420189819A816B817C814D815E81D2
S1130A802F8138850E9416062E960FB6F894DEBF85
S1130A900FBECDBFDF91CF911F910F91FF90EF90CB
S1130AA0DF90CF900895CF93DF930F920F92CDB73D
S1130AB0DEB79A83898389819A81FC01838D948D21
S1130AC00F900F90DF91CF910895CF93DF930F9202
S1130AD00F92CDB7DEB79A83898389819A81FC010D
S1130AE0818D928D0F900F90DF91CF910895CF93C8
S1130AF0DF930F920F92CDB7DEB79A8389838981F2
S1130B009A81FC018789908D0F900F90DF91CF918E
S1130B100895CF93DF93CDB7DEB7A2970FB6F894BD
S1130B20DEBF0FBECDBF98A38F8F7AA369A3CE017A
S1130B300B9629A13AA1B9010E9472371A8219822F
S1130B4043C01C821B8220C029813A81C901880FBD
S1130B50991F280F391F8B819C81820F931F9E013F
S1130B60255F3F4F820F931FFC0140819E012B5E46
S1130B703F4F8B819C81820F931FFC0140838B81AB
S1130B809C8101969C838B8321E08B819C818230A4
S1130B9091050CF020E02223B9F6CE0145960E947F
S1130BA037379C0189819A81880F991FAE014F5F65
S1130BB05F4F840F951F0496FC0131832083898144
S1130BC09A8101969A83898321E089819A8183306D
S1130BD091050CF020E0222309F0B3CF8D819E8192
S1130BE047968F329105C0F48F819885CB968737CD
S1130BF0910590F489859A85CB968737910560F4A1
S1130C006D817E814F81588529853A858F8D98A184
S1130C100E94160681E001C080E0A2960FB6F89407
S1130C20DEBF0FBECDBFDF91CF910895CF93DF9389
S1130C30CDB7DEB728970FB6F894DEBF0FBECDBF91
S1130C409A8389837C836B835E834D8338872F8368
S1130C5089819A812B813C81B9010E944606898150
S1130C609A812D813E81B9010E94640689819A810D
S1130C702F813885B9010E94820628960FB6F89410
S1130C80DEBF0FBECDBFDF91CF910895CF93DF9329
S1130C9000D00F92CDB7DEB79A8389837C836B83B0
S1130CA08B819C8147968F32910538F489819A8192
S1130CB02B813C81FC01308F278B0F900F900F907C
S1130CC00F90DF91CF910895CF93DF9300D00F92CF
S1130CD0CDB7DEB79A8389837C836B838B819C81B8
S1130CE0CB968737910538F489819A812B813C8191
S1130CF0FC01328F218F0F900F900F900F90DF9196
S1130D00CF910895CF93DF9300D00F92CDB7DEB784
S1130D109A8389837C836B838B819C81CB96873771
S1130D20910538F489819A812B813C81FC01348FAF
S1130D30238F0F900F900F900F90DF91CF91089514
S1130D40CF93DF93CDB7DEB728970FB6F894DEBF05
S1130D500FBECDBF9E838D8378876F838D819E81E7
S1130D60FC012789308D8F819885820F931F9A8388
S1130D70898389819A8128E130E0B9010E946A352A
S1130D809C018D819E81FC01308F278B89819A8102
S1130D9021E0883191050CF420E0222391F089812F
S1130DA09A8128E130E0B9010E946A359B01C901AA
S1130DB09C838B838D819E812B813C81B9010E9410
S1130DC0030328960FB6F894DEBF0FBECDBFDF91A4
S1130DD0CF910895CF93DF93CDB7DEB728970FB6A1
S1130DE0F894DEBF0FBECDBF9E838D8378876F835B
S1130DF08D819E81FC01218D328D8F819885820F9A
S1130E00931F9A83898389819A812CE330E0B90105
S1130E100E946A359C018D819E81FC01328F218F55
S1130E2089819A8121E08C3391050CF420E02223FE
S1130E3091F089819A812CE330E0B9010E946A35EE
S1130E409B01C9019C838B832B813C818D819E8175
S1130E50B9010E94A00628960FB6F894DEBF0FBE13
S1130E60CDBFDF91CF910895CF93DF93CDB7DEB798
S1130E7028970FB6F894DEBF0FBECDBF9E838D8337
S1130E8078876F838D819E81FC01238D348D8F81C2
S1130E909885820F931F9A83898389819A812CE391
S1130EA030E0B9010E946A359C018D819E81FC016C
S1130EB0348F238F89819A8121E08C3391050CF43E
S1130EC020E0222391F089819A812CE330E0B9015A
S1130ED00E946A359B01C9019C838B832B813C81D1
S1130EE08D819E81B9010E94EA0628960FB6F89476
S1130EF0DEBF0FBECDBFDF91CF910895CF93DF93B7
S1130F000F920F92CDB7DEB79A83898389819A8134
S1130F10FC01838D948DCB9687379105A0F489814C
S1130F209A81FC01818D928DCB968737910558F477
S1130F3089819A81FC018789908D47968F3291052A
S1130F4010F481E001C080E0882369F089819A81EE
S1130F500E94C103982F81E0992309F480E088233B
S1130F6011F081E001C080E00F900F90DF91CF91EC
S1130F700895CF93DF93CDB7DEB72B970FB6F894D0
S1130F80DEBF0FBECDBF9B878A878A859B85FC0108
S1130F908789908D9E012F5F3F4FB9014AE050E051
S1130FA00E9487378A859B85FC01818D928D9E01E5
S1130FB02C5F3F4FB9014AE050E00E9487378A8591
S1130FC09B85FC01838D948D9E01295F3F4FB90160
S1130FD04AE050E00E9487378A859B854D969E01A2
S1130FE02F5F3F4FB9010E9472378A859B859C0110
S1130FF0235E3F4FC901AC01FA0101900020E9F7DB
S1131000CF010197841B950B820F931F2AE330E0D5
S1131010FC01318320838A859B854D969E012C5F3C
S11310203F4FB9010E945E378A859B859C01235EF0
S11310303F4FC901AC01FA0101900020E9F7CF014B
S11310400197841B950B820F931F2AE330E0FC0168
S1131050318320838A859B854D969E01295F3F4F6E
S1131060B9010E945E378A859B85FC0110A68A859A
S11310709B854D962B960FB6F894DEBF0FBECDBF61
S1131080DF91CF910895CF93DF930F920F92CDB755
S1131090DEB79A83898329813A8182E396EFA5EBAF
S11310A0BAE3F90184879587A687B78789819A81EE
S11310B00E945F080F900F90DF91CF910895CF9316
S11310C0DF9300D00F92CDB7DEB79C838B838B81E7
S11310D09C8121E0FC0120AF8B819C81FC0111AE3D
S11310E02B813C8180E090E0DC01F90180839183D5
S11310F0A283B3832B813C8180E090E0DC01F90181
S113110084839583A683B7832B813C8180E090E020
S1131110DC01F90180879187A287B3872B813C8109
S113112080E090E0DC01F901808B918BA28BB38B82
S11311308B819C81FC0115AA14AA8B819C81FC01E2
S113114017AA16AA8B819C81FC01158A148A8B81AB
S11311509C812DED37E0FC01378B268B8B819C81A4
S1131160FC01138E128E8B819C81FC01158E148ED2
S11311708B819C81FC01178E168E1A82198211C0F4
S11311802B813C8189819A814096880F991F820F17
S1131190931FFC011182108289819A8101969A839E
S11311A0898321E089819A818A3091050CF020E0BD
S11311B0222331F70F900F900F900F90DF91CF9172
S11311C00895CF93DF9300D000D0CDB7DEB79A83D4
S11311D089834B835C836D837E8329813A818B81F0
S11311E09C81AD81BE81F90184879587A687B787E5
S11311F089819A810E945F0826960FB6F894DEBF13
S11312000FBECDBFDF91CF9108950F931F93CF935E
S1131210DF93CDB7DEB72A970FB6F894DEBF0FBEC3
S1131220CDBF9A8389834B835C836D837E833887A8
S11312302F831A87098789819A810E945F0811E0A8
S11312406B817C818D819E8120E030E040E85FE30A
S11312500E94A93388230CF010E0112361F0298146
S11312603A8182E396EFA5EBBAE3F9018487958787
S1131270A687B7870BC029813A818B819C81AD8178
S1131280BE81F90184879587A687B78789819A816A
S11312902F813885FC01358B248B89819A8129859E
S11312A03A85FC01378B268B2A960FB6F894DEBF5D
S11312B00FBECDBFDF91CF911F910F910895CF93B2
S11312C0DF93CDB7DEB768970FB6F894DEBF0FBED5
S11312D0CDBF9A8B898B7C8B6B8B5E8B4D8B388FC0
S11312E02F8B89899A892F89388DFC01378B268B1E
S11312F08B899C899A838983CE01059620E032E00C
S11313004CE0F90100802F5F3F4FFC010082019601
S113131041504423B1F71C821B8216C09E012B5FEF
S11313203F4F8B819C81820F931FFC018081882F0A
S113133090E029813A81820F931F9A8389838B815C
S11313409C8101969C838B832B813C818D899E8912
S1131350019741E02817390708F040E04423F1F6EB
S113136089899A8929813A81FC01358B248B689675
S11313700FB6F894DEBF0FBECDBFDF91CF910895B5
S11313808F929F92AF92BF92CF92DF92EF92FF9291
S11313900F931F93CF93DF93CDB7DEB762970FB64A
S11313A0F894DEBF0FBECDBF9A8389834B835C83E1
S11313B06D837E830F83188729873A87CB86DC86E3
S11313C0ED86FE86B88AAF869A8A898A29813A810F
S11313D08B819C81AD81BE81F90180839183A2833D
S11313E0B38329813A818F819885A985BA85F901CA
S11313F084839583A683B78329813A8180E090E032
S1131400DC01F90180879187A287B38729813A811A
S11314108B859C85AD85BE85F90184879587A687D4
S1131420B78789819A812F853889FC0135AB24AB34
S113143089819A8129893A89FC0137AB26AB898154
S11314409A812AA13BA1FC01338F228F89819A8141
S11314502CA13DA1FC01358F248F89819A812EA175
S11314603FA1FC01378F268F89819A8128A539A550
S1131470FC01358B248B89819A812AA53BA5FC012B
S1131480378B268B89819A8121E0FC0120AF6296FB
S11314900FB6F894DEBF0FBECDBFDF91CF911F9181
S11314A00F91FF90EF90DF90CF90BF90AF909F90FF
S11314B08F900895EF92FF920F931F93CF93DF9332
S11314C0CDB7DEB728970FB6F894DEBF0FBECDBFF9
S11314D09E838D8378876F838D819E81FC0180AD8F
S11314E0882331F48D819E81FC0181AD882341F1F3
S11314F01A82198213C02D813E8189819A81409676
S1131500880F991F820F931F2F813885FC01318327
S1131510208389819A8101969A83898321E0898134
S11315209A818A3091050CF020E0222321F78D81E5
S11315309E81FC0110AE8D819E81FC0111AE31C0F3
S11315401C821B821EC08B819C8101962D813E8151
S11315504096880F991F820F931FFC0120813181CF
S11315604D815E818B819C814096880F991F840FE9
S1131570951FFC01318320838B819C8101969C8380
S11315808B8321E08B819C81893091050CF020E0D4
S11315902223C9F68D819E812F813885FC0133ABCE
S11315A022AB8D819E81FC0184A995A99C012F5FAA
S11315B03F4F8D819E81FC0135AB24AB8D819E8193
S11315C0FC0184819581A681B7812D813E81F90139
S11315D02485358546855785BC01CD010E94453358
S11315E0DC01CB012D813E81F90184839583A6839F
S11315F0B7838D819E81FC01808D918DCC01A0E00B
S1131600B0E0BC01CD010E9441347B018C018F818B
S11316109885CC01A0E0B0E0BC01CD010E9441342A
S1131620DC01CB01BC01CD012DEB37E346E058E3EF
S11316300E94F334DC01CB019C01AD01C801B70168
S11316400E944533DC01CB01BC01CD010E9415345D
S1131650DC01CB019C018D819E81FC01318F208FA7
S11316608D819E81FC01808D918D8C33910508F4D0
S113167044C08D819E81FC01228D338D8D819E819C
S1131680FC01808D918D4CE350E0BA010E945635E7
S1131690AB01CA01280F391F8D819E81FC01338F54
S11316A0228F8D819E81FC01828D938DF5E0803A9D
S11316B09F0718F18D819E81FC01848D958D9C017D
S11316C02F5F3F4F8D819E81FC01358F248F8D814B
S11316D09E81FC01848D958DF1E08D369F0768F025
S11316E08D819E81FC01868D978D9C012F5F3F4FDC
S11316F08D819E81FC01378F268F8D819E81FC0117
S1131700808D918D2CE330E0B9010E9456359C0107
S11317108D819E81FC01318F208F8D819E81FC0102
S1131720828D938D20EA35E0B9010E9456359C01E3
S11317308D819E81FC01338F228F8D819E81FC01DE
S1131740848D958D2DE631E0B9010E9456359C01BA
S11317508D819E81FC01358F248F9091350681E027
S1131760933008F480E09F5F90933506882331F02E
S11317708D819E810E94440C1092350628960FB6E6
S1131780F894DEBF0FBECDBFDF91CF911F910F91B3
S1131790FF90EF900895CF93DF9300D00F92CDB7D1
S11317A0DEB79C838B838B819C8121E0FC0121AF7C
S11317B02B813C8180E090E0DC01F90180879187F6
S11317C0A287B3871A82198211C089819A812B81D9
S11317D03C814096880F991F820F931FFC01118250
S11317E0108289819A8101969A83898389819A8159
S11317F021E08A3091050CF020E0222331F70F908C
S11318000F900F900F90DF91CF9108951F93CF9376
S1131810DF9300D000D0CDB7DEB79A8389834B83A2
S11318205C836D837E8311E06B817C818D819E81DD
S113183020E030E0A9010E94A93388230CF010E0D5
S1131840112341F082E396EFA5EBBAE38B839C83EB
S1131850AD83BE8389819A8121E0FC0120AF298177
S11318603A818B819C81AD81BE81F9018487958702
S1131870A687B78726960FB6F894DEBF0FBECDBFF6
S1131880DF91CF911F910895AF92BF92CF92DF92D3
S1131890EF92FF920F931F93CF93DF9300D000D06A
S11318A0CDB7DEB79E838D831A8219821C821B8278
S11318B017C08B819C812D813E814096880F991F92
S11318C0820F931FFC018081918129813A81820FCB
S11318D0931F9A8389838B819C8101969C838B833C
S11318E08B819C8121E08A3091050CF020E0222339
S11318F001F78D819E81FC0184859585A685B78538
S1131900BC01CD0120E030EA4CE057E40E94F334FE
S1131910DC01CB017C018D0189819A81CC01A0E09D
S1131920B0E0BC01CD010E944134DC01CB01BC011B
S1131930CD012DEB37E346E058E30E94F334DC019C
S1131940CB019C01AD01C801B7010E94AD33DC019C
S1131950CB012D813E81F90180879187A287B387CE
S11319608D819E81FC0184A995A901972D813E81D9
S1131970F90124A935A9B9010E9456359B01C90171
S1131980CC01A0E0B0E0BC01CD010E944134DC01F7
S1131990CB012D813E81F901808B918BA28BB38B7E
S11319A08D819E81FC0180819181A281B3812D81F1
S11319B03E81F9012089318942895389BC01CD01D5
S11319C00E94F334DC01CB017C018D018D819E8169
S11319D0FC01A084B184C284D3848D819E81FC01E6
S11319E084A995A9CC01A0E0B0E0BC01CD010E947E
S11319F041349B01AC01C601B5010E94AD33DC0149
S1131A00CB019C01AD01C801B7010E944533DC0143
S1131A10CB012D813E81F90180839183A283B3831D
S1131A2026960FB6F894DEBF0FBECDBFDF91CF91DF
S1131A301F910F91FF90EF90DF90CF90BF90AF90E8
S1131A400895CF93DF930F920F92CDB7DEB79A83A9
S1131A50898389819A81FC0180859185A285B385DA
S1131A60BC01CD010F900F90DF91CF910895CF93DA
S1131A70DF930F920F92CDB7DEB79A838983898162
S1131A809A81FC0180819181A281B381BC01CD0145
S1131A900F900F90DF91CF910895CF93DF930F9222
S1131AA00F92CDB7DEB79A83898389819A81FC012D
S1131AB084819581A681B781BC01CD010F900F90DF
S1131AC0DF91CF910895CF93DF930F920F92CDB70B
S1131AD0DEB79A83898389819A81FC0184859585FF
S1131AE0A685B785BC01CD010F900F90DF91CF91F2
S1131AF00895CF93DF930F920F92CDB7DEB79A83F9
S1131B00898389819A81FC0184A995A90F900F90FA
S1131B10DF91CF910895CF93DF930F920F92CDB7BA
S1131B20DEB79A83898389819A81FC0186A997A962
S1131B300F900F90DF91CF910895CF93DF930F9281
S1131B400F92CDB7DEB79A83898389819A81FC018C
S1131B50848995890F900F90DF91CF910895CF9349
S1131B60DF930F920F92CDB7DEB79A838983898171
S1131B709A81FC01868997890F900F90DF91CF910C
S1131B800895CF93DF930F920F92CDB7DEB79A8368
S1131B90898389819A81FC01828D938D0F900F90A6
S1131BA0DF91CF910895CF93DF930F920F92CDB72A
S1131BB0DEB79A83898389819A81FC01848D958D0E
S1131BC00F900F90DF91CF910895CF93DF930F92F1
S1131BD00F92CDB7DEB79A83898389819A81FC01FC
S1131BE0868D978D0F900F90DF91CF910895CF93AD
S1131BF0DF930F920F92CDB7DEB79A8389838981E1
S1131C009A810E94080E0F900F90DF91CF91089552
S1131C10CF93DF930F920F92CDB7DEB79A83898368
S1131C2029813A8180E090E0DC01F9018483958385
S1131C30A683B78389819A81FC01158614868981DC
S1131C409A81FC011786168629813A8180E090E00A
S1131C50DC01F90180839183A283B38389819A8112
S1131C60FC0184859585019729813A81F9012485B0
S1131C703585B9010E9456359B01C901CC01A0E00C
S1131C80B0E0BC01CD010E944134DC01CB012981CB
S1131C903A81F90180879187A287B3870F900F90CB
S1131CA0DF91CF910895CF93DF930F920F92CDB729
S1131CB0DEB79A83898329813A8180E090E0DC0150
S1131CC0F90184839583A683B78389819A81FC0172
S1131CD084859585019729813A81F9012485358583
S1131CE0B9010E9456359B01C901CC01A0E0B0E0C6
S1131CF0BC01CD010E944134DC01CB0129813A8130
S1131D00F90180879187A287B3870F900F90DF91A5
S1131D10CF9108950F931F93CF93DF93CDB7DEB781
S1131D202A970FB6F894DEBF0FBECDBF9A8389837E
S1131D304B835C836D837E8338872F831A8709875F
S1131D4029813A818B819C81AD81BE81F901808397
S1131D509183A283B38389819A812F813885FC0181
S1131D603587248789819A8129853A85FC013787BB
S1131D70268789819A810E94530E2A960FB6F89479
S1131D80DEBF0FBECDBFDF91CF911F910F9108959C
S1131D90CF93DF930F920F92CDB7DEB79A838983E7
S1131DA089819A81FC0184819581A681B781BC01D6
S1131DB0CD010F900F90DF91CF910895CF93DF93D2
S1131DC00F920F92CDB7DEB79A83898389819A8166
S1131DD0FC0180819181A281B381BC01CD010F906E
S1131DE00F90DF91CF910895CF93DF930F920F92CD
S1131DF0CDB7DEB79A83898389819A81FC01848572
S1131E0095850F900F90DF91CF910895CF93DF9335
S1131E100F920F92CDB7DEB79A83898389819A8115
S1131E20FC01868597850F900F90DF91CF910895DF
S1131E30AF92BF92CF92DF92EF92FF920F931F93D4
S1131E40CF93DF93CDB7DEB7A9970FB6F894DEBF73
S1131E500FBECDBF9DA38CA37FA36EA359A748A794
S1131E601E8A1D8A188E1F8A198E1A8E1A8219824A
S1131E7068C089819A81880F991F2EA13FA1820F82
S1131E80931FFC01208131818D899E8941E0821755
S1131E90930708F040E0442379F089819A81880F00
S1131EA0991F2EA13FA1820F931FFC018081918174
S1131EB09E8B8D8B8981898F88A599A599230CF494
S1131EC00196959587959C0189819A81820F931F2C
S1131ED0880F991F2EA13FA1820F931FFC0120811F
S1131EE031818F89988D41E08217930708F040E093
S1131EF0442311F188A599A599230CF4019695958D
S1131F0087959C0189819A81820F931F880F991F5D
S1131F102EA13FA1820F931FFC0180819181988F94
S1131F208F8B88A599A599230CF40196959587958F
S1131F30982F8981890F8A8F89819A8101969A8342
S1131F40898388A599A599230CF40196959587957D
S1131F509C0141E089819A81821793070CF040E04B
S1131F60442309F086CF2D893E898F89988D2817BF
S1131F70390718F08D899E8902C08F89988D988BB6
S1131F808F872D893E898F89988D2817390710F0FE
S1131F90898D01C08A8D898F1C8E1B8E1E8E1D8E8D
S1131FA01F8E18A219A21BA21AA2898D282F30E015
S1131FB088A599A599230CF401969595879541E0F8
S1131FC0281739070CF040E0442309F4E3C0898D55
S1131FD0882F90E00F969BA38AA38AA19BA19C8340
S1131FE08B83CBC08B819C81880F991F2EA13FA12D
S1131FF0820F931FFC01808191819C8F8B8F8B8139
S11320009C819E838D832AC08D819E81880F991F18
S11320102EA13FA1820F931FFC01208131818B8D62
S11320209C8D41E02817390708F440E0442389F0E7
S11320308D819E81880F991F2EA13FA1820F931F2E
S11320402B8D3C8DFC01318320838D819E819E8F5D
S11320508D8F8D819E8101969E838D838B819C8142
S11320609C01225E3F4F41E08D819E818217930740
S11320700CF040E0442341F68D8D9E8D0F97988798
S11320808F8355C08D8D9E8D2F81388528173907F4
S1132090DCF48D8D9E8D880F991F2EA13FA1820F98
S11320A0931FFC01208131818F819885880F991FAE
S11320B04EA15FA1840F951FFC0180819181281797
S11320C0390710F481E001C080E0882319F088A169
S11320D08F5F88A38D8D9E8D2F81388528173907B2
S11320E0DCF08D8D9E8D880F991F2EA13FA1820F4C
S11320F0931FFC01208131818F819885880F991F5E
S11321004EA15FA1840F951FFC0180819181281746
S1132110390710F081E001C080E0882319F08F8D29
S11321208F5F8F8F8F819885019698878F838D8D90
S11321309E8D9C01215F3F4F41E08F819885281738
S113214039070CF440E0442309F09CCF8F8D8B3089
S113215028F088A18B3010F081E001C080E0882352
S113216021F081E089A300000CC118A21F8E19A2DE
S11321708B819C8105969C838B8341E02B813C81E0
S113218088A599A5281739070CF040E0442309F0E5
S113219029CFF7C0898D282F30E088A599A59923E8
S11321A00CF4019695958795281739072CF089A189
S11321B0882311F481E001C080E0882309F4E1C0A0
S11321C0898D882F90E00F979BA38AA318A21F8E56
S11321D08AA19BA19A878987CAC089859A85880F15
S11321E0991F2EA13FA1820F931FFC018081918131
S11321F09C8F8B8F89859A859C878B872AC08B853A
S11322009C85880F991F2EA13FA1820F931FFC016B
S1132210208131818B8D9C8D41E02817390708F48A
S113222040E0442389F08B859C85880F991F2EA15B
S11322303FA1820F931FFC01808191819C8F8B8F22
S11322408B859C859E8F8D8F8B859C8501979C8724
S11322508B8789859A859C012E51304041E08B857E
S11322609C85281739070CF040E0442341F68D8DF6
S11322709E8D0F969E878D8755C08D8D9E8D2D8545
S11322803E8528173907DCF08D8D9E8D880F991FA8
S11322902EA13FA1820F931FFC01208131818D85E6
S11322A09E85880F991F4EA15FA1840F951FFC0185
S11322B0808191812817390710F081E001C080E006
S11322C0882319F088A18F5F88A38D8D9E8D2D851D
S11322D03E8528173907DCF48D8D9E8D880F991F54
S11322E02EA13FA1820F931FFC01208131818D8596
S11322F09E85880F991F4EA15FA1840F951FFC0135
S1132300808191818217930710F081E001C080E001
S1132310882319F08F8D8F5F8F8F8D859E85019710
S11323209E878D878D8D9E8D9C012F50304041E07E
S11323308D859E85281739070CF040E0442309F069
S11323409CCF8F8D8B3028F088A18B3010F081E0EA
S113235001C080E0882319F081E089A312C018A28B
S11323601F8E19A289859A8505979A87898721E006
S113237089859A85181619060CF020E0222309F0A5
S11323802CCF99A181E0992309F480E0882309F4F2
S1132390B5C0898D282F30E08D8D9E8DA901481BF5
S11323A0590BCA0199231CF4909581959F4FAA2734
S11323B097FDA095BA2FBC01CD010E944334DC01E6
S11323C0CB01BC01CD012FE632E143E05CE30E9486
S11323D0F334DC01CB01898B9A8BAB8BBC8B60E033
S11323E070E080E792E429893A894B895C890E94EC
S11323F0AD33DC01CB012CA13DA1F901848395838C
S1132400A683B7838CA19DA1FC01848595859C013D
S11324102F5F3F4F8CA19DA1FC01358724878CA1A0
S11324209DA1FC0184859585FFEF8E3F9F0729F4CC
S11324308CA19DA1FC01158614868CA19DA1FC0193
S11324408485958501972CA13DA1F90124853585C5
S1132450B9010E9456359B01C901CC01A0E0B0E04E
S1132460BC01CD010E944134DC01CB012CA13DA172
S1132470F90180879187A287B3878CA19DA1FC0174
S113248080819181A281B3812CA13DA1F901208594
S1132490318542855385BC01CD010E94F334DC01B2
S11324A0CB017C018D018CA19DA1FC01A480B58090
S11324B0C680D7808CA19DA1FC0184859585CC0123
S11324C0A0E0B0E0BC01CD010E9441349B01AC010D
S11324D0C601B5010E94AD33DC01CB019C01AD0105
S11324E0C801B7010E944533DC01CB012CA13DA1F9
S11324F0F90180839183A283B38322C08091330640
S1132500909134060196909334068093330680911B
S113251033069091340621E08430910508F420E0DC
S1132520222371F02CA13DA180E090E0DC01F901AF
S113253084839583A683B78310923406109233065E
S1132540A9960FB6F894DEBF0FBECDBFDF91CF9131
S11325501F910F91FF90EF90DF90CF90BF90AF90BD
S11325600895CF93DF930F920F92CDB7DEB79A837E
S1132570898389819A810E94430889819A81CA96B4
S11325800E94F70D0E94273724E630E0B9010E942B
S11325906A3501969C0189819A81865B9F4FFC0173
S11325A0318320830F900F90DF91CF910895CF93C3
S11325B0DF930F920F92CDB7DEB79A838983898117
S11325C09A810E945F0889819A81CA960E94080EA6
S11325D00F900F90DF91CF910895CF93DF9300D0A8
S11325E000D0CDB7DEB79A8389834B835C836D8338
S11325F07E8389819A812B813C814D815E81BA01E0
S1132600A9010E94E10889819A81CA960E94080E54
S113261026960FB6F894DEBF0FBECDBFDF91CF91E3
S113262008950F931F93CF93DF93CDB7DEB72A9707
S11326300FB6F894DEBF0FBECDBF9A8389834B8358
S11326405C836D837E8338872F831A87098789810A
S11326509A812B813C814D815E81AF81B885E9856A
S1132660FA85BA01A9019D018F010E94050989819A
S11326709A81CA960E94080E2A960FB6F894DEBF75
S11326800FBECDBFDF91CF911F910F910895CF93CE
S1132690DF93CDB7DEB7A4970FB6F894DEBF0FBEB5
S11326A0CDBF8CA38CA1882F90E00197982F82E254
S11326B0989F802D11248C5E89838981882F90E0D6
S11326C00E94CE37DC01CB018A839B83AC83BD831C
S11326D08981882F90E004960E94CE37DC01CB01DB
S11326E08E839F83A887B9878981882F90E0089675
S11326F00E94CE37DC01CB018A879B87AC87BD87DC
S11327008981882F90E00C960E94D4379F878E870A
S11327108981882F90E00E960E94D437998B888BFC
S11327208981882F90E040960E94D4379B8B8A8BB6
S11327308981882F90E042960E94D4379D8B8C8BA0
S11327408981882F90E044960E94D4379F8B8E8B8A
S11327508981882F90E046960E94D437998F888F7C
S11327608981882F90E048960E94D4379B8F8A8F66
S11327708981882F90E04A960E94D4379D8F8C8F50
S11327808981882F90E04C960E94D4379F8F8E8F3A
S11327908981882F90E04E960E94CE37DC01CB01D0
S11327A088A399A3AAA3BBA39CA182E2989F802D8E
S11327B01124805389838981882F90E02A813B8169
S11327C04C815D81BA01A9010E94EC378981882F6F
S11327D090E004962E813F8148855985BA01A9016C
S11327E00E94EC378981882F90E008962A853B85E2
S11327F04C855D85BA01A9010E94EC378981882F37
S113280090E00C962E853F85B9010E94F8378981A6
S1132810882F90E00E9628893989B9010E94F837EB
S11328208981882F90E040962A893B89B9010E94CA
S1132830F8378981882F90E042962C893D89B90127
S11328400E94F8378981882F90E044962E893F8929
S1132850B9010E94F8378981882F90E04696288D27
S1132860398DB9010E94F8378981882F90E0489604
S11328702A8D3B8DB9010E94F8378981882F90E019
S11328804A962C8D3D8DB9010E94F8378981882F95
S113289090E04C962E8D3F8DB9010E94F8378981C6
S11328A0882F90E04E9628A139A14AA15BA1BA01D4
S11328B0A9010E94EC37A4960FB6F894DEBF0FBEB0
S11328C0CDBFDF91CF910895CF93DF9300D00F92C6
S11328D0CDB7DEB78C8388E090E00E94C6378B8347
S11328E08C81882F90E001969A83898308C089811E
S11328F00E94471389819A8101969A8389838B81E7
S1132900282F30E041E089819A81281739070CF497
S113291040E0442361F78B8181508B8388E090E011
S11329206B810E94FE370F900F900F900F90DF91F4
S1132930CF9108950F931F93CF93DF9300D0CDB71A
S1132940DEB788E090E00E94C637898389818F5F73
S113295089838981882F90E00197880F991F9C01B2
S113296022953295307F3227207F3227820F931FA2
S113297044969B838A8388E090E069810E94DA37D9
S113298087E090E061E00E94DA370A811B818DE6DE
S113299093E00E94370D9B01AC01C801BA01A90163
S11329A00E94EC378A819B8104968C0187EA93E02C
S11329B00E94DE0E9B01AC01C801BA01A9010E946C
S11329C0EC378A819B8108968C018DE693E00E9406
S11329D04D0D9B01AC01C801BA01A9010E94EC375D
S11329E08A819B810C968C018DE693E00E949D0D5B
S11329F09C01C801B9010E94F8378A819B810E9617
S1132A008C018DE693E00E94AF0D9C01C801B901D1
S1132A100E94F8378A819B8140968C018DE693E071
S1132A200E94C10D9C01C801B9010E94F8378A8136
S1132A309B8142968C018DE693E00E94D30D9C010C
S1132A40C801B9010E94F8378A819B8144968C01A0
S1132A508DE693E00E94E50D9C01C801B9010E9436
S1132A60F8378A819B8146968C018DE693E00E941B
S1132A70790D9C01C801B9010E94F8378A819B81B4
S1132A8048968C018DE693E00E948B0D9C01C80151
S1132A90B9010E94F8378A819B814A968C0187EAA2
S1132AA093E00E94F40E9C01C801B9010E94F8371A
S1132AB08A819B814C968C0187EA93E00E94060FE1
S1132AC09C01C801B9010E94F8378A819B814E9606
S1132AD08C018DE693E00E94630D9B01AC01C8015B
S1132AE0BA01A9010E94EC370F900F900F90DF916B
S1132AF0CF911F910F9108950F931F93CF93DF935D
S1132B00CDB7DEB769970FB6F894DEBF0FBECDBF61
S1132B1088E090E00E94C63789878985882F90E0F5
S1132B200197880F991F9C0122953295307F322797
S1132B30207F3227820F931F44969B878A87CE017A
S1132B400E9620E032E04CE0F90100802F5F3F4F09
S1132B50FC010082019641504423B1F71A82198284
S1132B601D861C8685E493E00E948B01882F90E0EB
S1132B709A83898385E493E00E946701882F90E01B
S1132B809D878C871C821B8216C09E01225F3F4F4B
S1132B908B819C81820F931FFC018081882F90E0A0
S1132BA029813A81820F931F9A8389838B819C8127
S1132BB001969C838B832B813C818C859D85019719
S1132BC041E02817390708F040E04423F1F68985ED
S1132BD0823060F08A859B854E960E94CE37DC0158
S1132BE0CB018D839E83AF83B88707C080E090E0DC
S1132BF0DC018D839E83AF83B88785E493E00E94D4
S1132C007901FC018DE693E02D813E814F81588549
S1132C10A981BA81BA01A9019D018F010E941113F2
S1132C2087E090E060E00E94DA378985882F90E0A1
S1132C30909322068093210669960FB6F894DEBF1E
S1132C400FBECDBFDF91CF911F910F910895CF9308
S1132C50DF93CDB7DEB70E949A1487E090E060E07E
S1132C600E94DA37DF91CF9108958F929F92AF92AD
S1132C70BF92CF92DF92EF92FF920F931F93CF9365
S1132C80DF93CDB7DEB7A7970FB6F894DEBF0FBEBC
S1132C90CDBF88E090E00E94C63789838981823065
S1132CA008F4DEC08981882F90E0909322068093F7
S1132CB021068981882F90E00197880F991F9C0134
S1132CC022953295307F3227207F3227820F931F3F
S1132CD044969B838A838A819B810E94CE37DC0140
S1132CE0CB018C839D83AE83BF838A819B810496B1
S1132CF00E94CE37DC01CB0188879987AA87BB87DE
S1132D008A819B8108960E94CE37DC01CB018C8797
S1132D109D87AE87BF878A819B810C960E94D4379A
S1132D20998B888B8A819B810E960E94D4379B8BCA
S1132D308A8B8A819B8140960E94D4379D8B8C8B91
S1132D408A819B8142960E94D4379F8B8E8B8A8185
S1132D509B8144960E94D437998F888F8A819B8166
S1132D6046960E94D4379B8F8A8F8A819B8148968E
S1132D700E94D4379D8F8C8F8A819B814A960E94B2
S1132D80D4379F8F8E8F8A819B814C960E94D43733
S1132D9099A388A38A819B814E960E94CE37DC0139
S1132DA0CB018AA39BA3ACA3BDA38DB79EB70A97FF
S1132DB00FB6F8949EBF0FBE8DBF8DB79EB7019618
S1132DC00F2EFDE6AF2EF3E0BF2EF02D4C815D817A
S1132DD06E817F810C851D852E853F85CAA0DBA071
S1132DE0ECA0FDA0AA8DBB8DEC8DFD8DFFA3EEA301
S1132DF08C889D88FC01918280828E889F88FC014A
S1132E0093828282888C998CFC0195828482888842
S1132E109988FC01978286828A889B88FC01918626
S1132E208086C5015D018EA09FA00E94C0098DB758
S1132E309EB70A960FB6F8949EBF0FBE8DBF87EA61
S1132E4093E0288539854A855B85AE8DBF8DE8A1E1
S1132E50F9A1BA01A9019D018F010E948A0E02C045
S1132E600E947C15A7960FB6F894DEBF0FBECDBFA7
S1132E70DF91CF911F910F91FF90EF90DF90CF9052
S1132E80BF90AF909F908F900895CF93DF930F9250
S1132E90CDB7DEB787E090E00E94C6378983898189
S1132EA0882321F00E947C1581E003C00E9435161E
S1132EB080E00F90DF91CF910895CF93DF93CDB74A
S1132EC0DEB72F970FB6F894DEBF0FBECDBF8E8747
S1132ED06F87F8948E85882309F44BC01A8219826F
S1132EE081E08B832CC082E090E00E94C6378F8300
S1132EF081E090E00E94C637888780E090E00E94DD
S1132F00C63789878F818C33A8F488858C3390F4F5
S1132F108985883178F48985682F70E08885482F01
S1132F2050E08F81282F30E085E493E00E9416065C
S1132F301B8205C089819A8101969A8389838B813A
S1132F40882339F089819A818330910514F481E0D2
S1132F5001C080E0882339F68B81882351F085E411
S1132F6093E061E070E041E050E021E030E00E9455
S1132F7016068F85882309F44EC01D821C8281E0C9
S1132F808E832FC084E090E00E94C6378A8783E056
S1132F9090E00E94C6378B8785E090E00E94D4378A
S1132FA09D878C878A858F31B8F48B858D30A0F40A
S1132FB08C859D8527E28031920770F48B85682F7C
S1132FC070E08A85482F50E02C853D8585E493E0A8
S1132FD00E9445021E8205C08C819D8101969D83BD
S1132FE08C838E81882339F08C819D818330910577
S1132FF014F481E001C080E0882321F68E818823C7
S113300051F085E493E061E070E041E050E021EDAF
S113301037E00E94450278942F960FB6F894DEBFED
S11330200FBECDBFDF91CF910895CF93DF93CDB77E
S1133030DEB729970FB6F894DEBF0FBECDBF8887E1
S11330406987F89488858823F1F085E493E00E94E9
S11330507705898385E493E00E9465058A8385E486
S113306093E00E9453058B8382E090E06B810E9481
S1133070DA3781E090E06A810E94DA3780E090E0FC
S113308069810E94DA378985882309F185E493E010
S11330900E9479019D838C8385E493E00E946701FB
S11330A08E8385E493E00E948B018F8385E090E01A
S11330B02C813D81B9010E94F83783E090E06E8154
S11330C00E94DA3784E090E06F810E94DA377894C6
S11330D029960FB6F894DEBF0FBECDBFDF91CF9116
S11330E00895CF93DF9300D000D0CDB7DEB79E8391
S11330F08D8385E493E00E945305882F90E09A83A2
S1133100898389819A819C018D819E81820F931F7D
S11331102CE330E0B9010E9456359C838B8301C0B7
S1133120000085E493E00E945305282F30E08B8152
S11331309C8141E02817390709F440E0442381F7D2
S113314026960FB6F894DEBF0FBECDBFDF91CF91A8
S11331500895CF93DF9300D00F92CDB7DEB79C8351
S11331608B8317C01A82198206C0000089819A8154
S113317001969A83898389819A8121E0883C91050B
S11331800CF020E0222389F78B819C8101979C839A
S11331908B8321E08B819C81009709F420E022231A
S11331A009F70F900F900F900F90DF91CF91089532
S11331B0CF93DF930F92CDB7DEB78983000080EC05
S11331C090E0FC018081882F90E08072907021E073
S11331D0009709F020E0222391F786EC90E0298102
S11331E0FC0120830F90DF91CF910895CF93DF935B
S11331F000D0CDB7DEB79B838A8319820EC0898144
S1133200882F90E02A813B81820F931FFC018081EB
S113321099819F5F99830E94D8188981882F90E0B3
S11332202A813B81820F931FFC01908181E09923C5
S113323009F480E0882319F70F900F900F90DF9125
S1133240CF910895CF93DF930F92CDB7DEB78983E3
S1133250000080ED90E0FC018081882F90E0807276
S1133260907021E0009709F020E0222391F786ED89
S113327090E02981FC0120830F90DF91CF91089584
S1133280CF93DF9300D0CDB7DEB79B838A831982B7
S11332900EC08981882F90E02A813B81820F931F81
S11332A0FC01808199819F5F99830E942219898101
S11332B0882F90E02A813B81820F931FFC0190812B
S11332C081E0992309F480E0882319F70F900F9087
S11332D00F90DF91CF910895CF93DF930F92CDB7E5
S11332E0DEB78983000088EC90E0FC018081882FA0
S11332F090E08072907021E0009709F020E0222392
S113330091F78EEC90E02981FC0120830F90DF91EE
S1133310CF910895CF93DF9300D0CDB7DEB79B83D1
S11333208A83198212C08EE591E00E94A9188981CE
S1133330882F90E02A813B81820F931FFC018081BA
S113334099819F5F99830E946C198981882F90E0ED
S11333502A813B81820F931FFC01908181E0992394
S113336009F480E08823F9F60F900F900F90DF9115
S1133370CF910895CF93DF93CDB7DEB7C155D04039
S11333800FB6F894DEBF0FBECDBF789419821A82AF
S113339081E08B832DC38981882F90E08230910551
S11333A009F49CC0833091053CF4009791F081307E
S11333B0910509F485C017C38430910509F4CDC281
S11333C0843091050CF4D8C08530910509F4E6C227
S11333D00AC31A828EEC90E0FC018081888F888D6C
S11333E08E3239F48CE092E00E948A1984E0898359
S11333F0FFC28A81882F90E09E01265D3F4F820F95
S1133400931F288DFC0120838A818F5F8A8381E04A
S11334108983EEC2000088EC90E0FC01808188235F
S113342034F080913103882311F081E001C080E001
S1133430882389F782E390E00E94A91880913103E0
S1133440882359F48FE092E00E944019CE018A96B5
S11334500E94F61819820000CBC28EEC90E0FC01A9
S11334608081888F8A81882F90E09E01265D3F4F5E
S1133470820F931F288DFC0120838A818F5F8A83AA
S1133480888D8E3219F0888D882371F48A81882F73
S113349090E09E01265D3F4F820F931FFC01108236
S11334A01B8282E089830CC08A81873248F01A82A9
S11334B01B82109231038CE092E00E948A191982D7
S11334C08B81882331F080913103882311F081E0CE
S11334D001C080E0882309F09DCF8AC2CE018A967C
S11334E02AE132E0B90143E050E00E9479370097C5
S11334F099F484E089838AE192E00E948A1981E048
S113350080932C0380912D03882309F470C21092B8
S11335102D03109230036BC28CA591E08A3309F01D
S113352090E02DA581E02A3309F080E089278823E3
S113353019F083E089835BC2CE018A962DE132E0E3
S1133540B90142E050E00E947937009771F481E0BC
S113355080932C03CE018A960E948A1980E292E01D
S11335600E94401984E0898342C28CE092E00E9468
S11335708A1984E089833BC21C821D8281E090E029
S11335809F838E831A8E198E1C8E1B8E1E8E1D8E0B
S113359018A21F8E1AA219A21CA21BA21986188691
S11335A01B861A861D861C8673C09E01265D3F4FAE
S11335B08E819F81820F931FFC0180818A33E9F001
S11335C08A859B8583309105C4F49E01265D3F4F17
S11335D08E819F81820F931FFC0140819E012B5D90
S11335E03F4F8C859D85820F931FFC0140838C8502
S11335F09D8501969D878C8746C08A859B858230F0
S113360091050CF040C09E01265D3F4F8E819F8145
S1133610820F931FFC0180818A33A9F5CE01859620
S11336200E9437379C018A859B85880F991FAE01BC
S11336304F5F5F4F840F951F4896FC0131832083B1
S11336408A859B8501969B878A871F861E860EC066
S11336509E012B5D3F4F8E859F85820F931FFC013A
S113366010828E859F8501969F878E8741E02E85E7
S11336703F858C859D85821793070CF440E0442395
S113368039F71D861C868E819F8101969F838E83C8
S11336909E01265D3F4F8E819F81820F931FFC0107
S11336A080818F3269F09E01265D3F4F8E819F811C
S11336B0820F931FFC018081882311F081E001C0F7
S11336C080E0882309F071CF9E01265D3F4F8E81F3
S11336D09F81820F931FFC0180818F32A9F4CE0158
S11336E085960E9437379C018A859B85880F991F90
S11336F0AE014F5F5F4F840F951F4896FC013183E5
S1133700208381E08C8302C085E08983198A188A2A
S11337100EC09E012B5D3F4F88899989820F931FAC
S1133720FC011082888999890196998B888B41E0E4
S1133730288939898C859D85821793070CF440E08C
S1133740442339F71D861C868E819F8101969F83B1
S11337508E8373C09E01265D3F4F8E819F81820FB1
S1133760931FFC0180818C32E9F088859985833030
S11337709105C4F49E01265D3F4F8E819F81820F87
S1133780931FFC0140819E012B5D3F4F8C859D85DD
S1133790820F931FFC0140838C859D8501969D8734
S11337A08C8746C088859985823091050CF040C08D
S11337B09E01265D3F4F8E819F81820F931FFC01E6
S11337C080818C32A9F5CE0185960E9437379C0101
S11337D088859985880F991FAE014F5F5F4F840FCD
S11337E0951F4E96FC013183208388859985019627
S11337F0998788871B8A1A8A0EC09E012B5D3F4FCA
S11338008A899B89820F931FFC0110828A899B8974
S113381001969B8B8A8B41E02A893B898C859D8507
S1133820821793070CF440E0442339F71D861C8665
S11338308E819F8101969F838E839E01265D3F4FDB
S11338408E819F81820F931FFC0180818E32A9F0AB
S11338509E01265D3F4F8E819F81820F931FFC0145
S11338608081882351F08A81282F30E08E819F81C6
S11338702817390711F081E001C080E0882309F09E
S113388069CF9E01265D3F4F8E819F81820F931FDA
S1133890FC0180818E32A9F4CE0185960E943737CF
S11338A09C0188859985880F991FAE014F5F5F4FF2
S11338B0840F951F4E96FC013183208381E08D8314
S11338C002C085E089838D81882309F43EC08C8100
S11338D08823D9F1698D7A8D4B8D5C8D2D8D3E8D2C
S11338E085E493E00E9416066F8D78A149A15AA140
S11338F02BA13CA185E493E00E94450281E061E0B4
S11339000E94151810922C0381E080932D031092CD
S11339102E0380913903882379F0109239038F8D17
S113392098A1BC0189A19AA1AC018BA19CA19C0185
S11339308DE693E00E945F0981E48AA7CE018A960E
S11339400E948A1984E0898353C081E080932C0308
S113395010922D0385E089834BC0198210923103A4
S11339601D8A1C8A0EC09E01265D3F4F8C899D894D
S1133970820F931FFC0110828C899D8901969D8B77
S11339808C8B8A81282F30E041E08C899D8928170F
S113399039070CF440E0442331F72AC086E492E06E
S11339A00E948A19109231031F8A1E8A0EC09E013A
S11339B0265D3F4F8E899F89820F931FFC011082E1
S11339C08E899F8901969F8B8E8B8A81282F30E068
S11339D041E08E899F89281739070CF440E044237D
S11339E031F7198205C019821092310301C0000019
S11339F09091310381E0992309F480E0882309F050
S1133A00CACCCF5ADF4F0FB6F894DEBF0FBECDBF7E
S1133A10DF91CF910895CF93DF93CDB7DEB7CD5526
S1133A20D0400FB6F894DEBF0FBECDBF19821A8204
S1133A3081E08B8381E08093320309C28981882FDE
S1133A4090E08330910509F403C1843091055CF45E
S1133A508130910509F484C0823091050CF08EC048
S1133A60009771F0F0C18530910509F4AAC1853041
S1133A7091050CF498C18630910509F4C3C1E3C1E2
S1133A8088E091E028E031E0F90120812068FC0120
S1133A9020831D821C8206C000008C819D810196BA
S1133AA09D838C8321E08C819D81823091050CF073
S1133AB020E0222389F788E091E028E031E0F90151
S1133AC020812F77FC01208381E08983C0C182E3B8
S1133AD090E00E94A918000088EC90E0FC0180812D
S1133AE0882334F080913203882311F081E001C0EF
S1133AF080E0882389F780913203882319F419829E
S1133B000000A5C18EEC90E0FC0180818C878A8145
S1133B10882F90E09E012A5C3F4F820F931F2C85D3
S1133B20FC0120838A818F5F8A838C858E3219F011
S1133B308C85882371F48A81882F90E09E012A5C09
S1133B403F4F820F931FFC0110821B8282E0898306
S1133B5007C08A81873220F01A821B8285E089831C
S1133B608B81882331F080913203882311F081E026
S1133B7001C080E0882309F0AACF69C1CE01C696AE
S1133B8029E432E0B90142E050E00E94793700971D
S1133B9019F483E089835BC1CE01C6962CE432E03C
S1133BA0B90142E050E00E947937009751F486E071
S1133BB0898381E08093360310922E0310923003A0
S1133BC046C1CE01C6969E01225F3F4FB9010E94B5
S1133BD06937009739F486E0898310923003109294
S1133BE02E0335C1CE01C6962FE432E0B90143E07D
S1133BF050E00E947937009739F486E08983109267
S1133C002E031092300323C1CE01C69626E432E07F
S1133C10B90142E050E00E947937009719F484E03A
S1133C20898315C1CE01C6962DE132E0B90142E087
S1133C3050E00E947937009741F486E0898310921E
S1133C40300381E080932E0302C185E08983FFC0A5
S1133C5084E690E00E94A91880912E03882349F0FD
S1133C6080913003882329F48CE492E00E948A191D
S1133C7076C080913003882309F453C080912E03C9
S1133C80882309F04EC0CE010E9621E430E0FC01F9
S1133C903183208385E493E00E94B9079C01CE011F
S1133CA00E96B9010E945E37CE010E969C01F90171
S1133CB001900020E9F7CF010197821B930B9E012D
S1133CC0225F3F4F820F931F2FE230E0FC013183CC
S1133CD0208385E493E00E9444049C01CE010E9667
S1133CE0B9010E945E37CE010E969C01F901019044
S1133CF00020E9F7CF010197821B930B9E01225FFD
S1133D003F4F820F931F2EE230E0FC01318320836A
S1133D1083E50E946C1980E061E041E00E94612625
S1133D201EC080913003882359F080912E0388238C
S1133D3039F08CE092E00E948A19109230030FC08F
S1133D4080913003882359F480912E03882339F419
S1133D508CE492E00E948A1981E080932E031F82F2
S1133D601E820EC09E012A5C3F4F8E819F81820F6E
S1133D70931FFC0110828E819F8101969F838E8305
S1133D808A81282F30E041E08E819F8128173907EE
S1133D900CF440E0442331F71A821C8681E08B83C3
S1133DA081E0898354C085E493E00E947E078D8777
S1133DB08D85882319F481E080932F0386E089831D
S1133DC046C0198210923203198618860EC09E01CD
S1133DD02A5C3F4F88859985820F931FFC011082CE
S1133DE0888599850196998788878A81282F30E06C
S1133DF041E088859985281739070CF440E044236D
S1133E0031F725C01982109232031B861A860EC020
S1133E109E012A5C3F4F8A859B85820F931FFC017C
S1133E2010828A859B8501969B878A878A81282FA1
S1133E3030E041E08A859B85281739070CF440E07F
S1133E40442331F704C01982109232030000909188
S1133E50320381E0992309F480E0882309F0EECD50
S1133E60C35ADF4F0FB6F894DEBF0FBECDBFDF914C
S1133E70CF910895CF93DF93CDB7DEB7E0970FB618
S1133E80F894DEBF0FBECDBF19821A8281E08B8306
S1133E9024C18A81882F90E08230910509F481C081
S1133EA0833091053CF4009771F08130910509F459
S1133EB068C00FC18330910509F4C5C084309105F1
S1133EC009F4E6C006C1198286EC90E0FC01808109
S1133ED0888788858E3219F483E08A83FEC08981BD
S1133EE0882F90E09E01275F3F4F820F931F288504
S1133EF0FC01208389818F5F898381E08A83EDC0FF
S1133F00000080EC90E0FC018081882334F08091F3
S1133F103403882311F081E001C080E0882389F70D
S1133F20809133038823D9F186EC90E0FC018081F1
S1133F3088878981882F90E09E01275F3F4F820FF9
S1133F40931F2885FC01208389818F5F898388855D
S1133F508E3219F08885882371F48981882F90E046
S1133F609E01275F3F4F820F931FFC0110821B822B
S1133F7082E08A8306C08981873218F083E08A83CD
S1133F801B828B81882331F080913403882311F0C4
S1133F9081E001C080E0882309F0B2CF9EC0000018
S1133FA09CC0CE01099623E532E0B90142E050E01D
S1133FB00E947937009741F481E060E041E00E947B
S1133FC0612684E08A8389C0CE01099626E532E021
S1133FD0B90142E050E00E947937009741F481E052
S1133FE061E040E00E94612684E08A8376C0CE01CD
S1133FF0099629E532E0B90142E050E00E947937A0
S1134000009741F481E061E041E00E94612684E090
S11340108A8363C0CE0109962CE532E0B90142E0FF
S113402050E00E947937009759F481E060E00E94E3
S11340301518CE0109960E94F61884E08A834DC0B3
S113404083E08A834AC084E690E00E94A918109213
S113405034031D821C820EC09E01275F3F4F8C815A
S11340609D81820F931FFC0110828C819D8101969A
S11340709D838C838981282F30E041E08C819D8150
S1134080821793070CF040E0442331F71A8225C0CD
S1134090109234031F821E820EC09E01275F3F4F81
S11340A08E819F81820F931FFC0110828E819F81DC
S11340B001969F838E838981282F30E041E08E8191
S11340C09F81821793070CF040E0442331F71A8252
S11340D004C0109234031A8200009091340381E0EA
S11340E0992309F480E0882309F0D3CEE0960FB633
S11340F0F894DEBF0FBECDBFDF91CF9108950F932B
S11341001F93CF93DF93CDB7DEB7E6970FB6F8943E
S1134110DEBF0FBECDBF19821A8281E08B832EC110
S11341208981882F90E08330910509F4A3C08430FD
S113413091055CF48130910509F472C082309105D7
S11341400CF07EC0009771F016C18530910509F41A
S1134150EBC0853091050CF4C7C08630910509F495
S1134160EAC009C11A8286EC90E0FC0180818A874A
S11341708A858E3219F486E0898300C18A81882F6A
S113418090E09E01215F3F4F820F931F2A85FC011F
S113419020838A818F5F8A8381E08983EFC0000056
S11341A080EC90E0FC018081882334F0809133031B
S11341B0882311F081E001C080E0882389F7809191
S11341C033038823D9F186EC90E0FC0180818A874F
S11341D08A81882F90E09E01215F3F4F820F931FB9
S11341E02A85FC0120838A818F5F8A838A858E32A7
S11341F019F08A85882371F48A81882F90E09E01C2
S1134200215F3F4F820F931FFC0110821B8282E0CB
S1134210898306C08A81873218F085E089831B82EE
S11342208B81882331F080913303882311F081E05E
S113423001C080E0882309F0B2CFA0C000009EC076
S11342408F85843519F483E0898398C0CE010F9655
S11342502FE532E0B90142E050E00E94793700973F
S113426031F481E08093400384E0898387C085E052
S1134270898384C080914003882399F4CE010F96EA
S11342809E878D8789EB93E09E01235F3F4FB901A1
S11342900E94D13181E0898389E492E00E94F6187A
S11342A002C086E089831D821C820EC09E01215FAC
S11342B03F4F8C819D81820F931FFC0110828C8162
S11342C09D8101969D838C838A81282F30E041E073
S11342D08C819D81821793070CF040E0442331F7D1
S11342E01A8281E08B834AC01F821E820EC09E0107
S11342F0215F3F4F8E819F81820F931FFC011082AB
S11343008E819F8101969F838E838A81282F30E03E
S113431041E08E819F81821793070CF040E0442393
S113432031F7109233032AC08CE092E00E94F61811
S113433085E0898323C0198618860BC089EB93E036
S11343400E9424329C878B8788859985019699875A
S113435088870885198589EB93E00E94123221E051
S11343600817190708F020E0222341F710924003B0
S113437083E0898303C010923303000090913303D8
S113438081E0992309F480E0882309F0C9CEE696F8
S11343900FB6F894DEBF0FBECDBFDF91CF911F9152
S11343A00F9108950F931F93CF93DF93CDB7DEB78B
S11343B0C257D0400FB6F894DEBF0FBECDBF9E01EA
S11343C02E583F4FF9018083CE018A5A9F4F2AE825
S11343D032E042E1F90100802F5F3F4FFC0100828F
S11343E0019641504423B1F719821A821B8281E05D
S11343F08C831AA619A680E090E0DC018F87988B45
S1134400A98BBA8B80E090E0DC018B8B9C8BAD8B0D
S1134410BE8B80E090E0DC018F8B988FA98FBA8FE0
S1134420CE018E589F4FFC018081882309F45EC021
S113443080914103882309F459C0CE018E589F4FBF
S1134440FC018081882F90E00197880F991F9C01BF
S113445022953295307F3227207F3227820F931F97
S113446044969AA789A789A59AA50E94CE37DC010C
S1134470CB018F87988BA98BBA8B89A59AA50496B3
S11344800E94CE37DC01CB018B8B9C8BAD8BBE8B1A
S113449089A59AA508960E94CE37DC01CB018F8BA3
S11344A0988FA98FBA8F89A59AA50C960E94D437A4
S11344B09E838D8389A59AA50E960E94D4379887EA
S11344C08F8389A59AA540960E94D4379A878987B5
S11344D089A59AA542960E94D4379C878B8789A583
S11344E09AA544960E94D4379E878D8781E0809355
S11344F03503D2C38A81882F90E08730910509F46F
S113450034C288309105DCF48330910509F4D9C0B4
S1134510843091055CF48130910509F454C08230F3
S113452091050CF0A8C0009739F1B3C3853091050B
S113453009F4F1C1863091050CF010C2ECC08B3047
S1134540910509F4D8C28C3091054CF48930910559
S113455009F453C28A3091050CF06FC227C28D3022
S1134560910509F44EC38D3091050CF4E4C28E30EC
S1134570910509F467C38DC388E091E028E031E038
S1134580F90120812068FC0120831C8E1B8E06C04B
S113459000008B8D9C8D01969C8F8B8F21E08B8DE1
S11345A09C8D823091050CF020E0222389F788E06D
S11345B091E028E031E0F90120812F77FC0120838C
S11345C081E08A8369C384E690E00E94A91843C00D
S11345D082E390E00E94A918000088EC90E0FC01BE
S11345E08081882334F080913503882311F081E0A1
S11345F001C080E0882389F7809132038823C9F1C0
S11346008EEC90E0FC0180818BA78B81882F90E059
S11346109E01245D3F4F820F931F2BA5FC01208335
S11346208B818F5F8B838BA58E3271F48B81882F66
S113463090E09E01245D3F4F820F931FFC01108286
S11346401C8282E08A8307C08B81873220F01B8220
S11346501C8286E08A838C81882331F08091350323
S1134660882311F081E001C080E0882309F0B0CFF5
S113467013C3000011C380914103882319F083E020
S11346808A830AC380913F03882319F089E08A83CF
S113469003C380914203882319F087E08A83FCC214
S11346A080913E03882319F08BE08A83F5C28091C0
S11346B03D03882319F08DE08A83EEC286E08A8365
S11346C0EBC2CE018C9629E432E0B90142E050E01D
S11346D00E947937009719F484E08A83DDC2CE0101
S11346E08C969E01205C3F4FB9010E946937009768
S11346F019F484E08A83D0C2CE018C9622E632E09B
S1134700B9010E946937009719F484E08A83C4C20E
S113471085E08A83C1C28981893008F0F3C0898128
S1134720882F90E09E012A5A3F4F880F991F820FCD
S1134730931FFC0120813181CE01805C9F4FB90120
S11347400E9472378981882F90E09E012A5A3F4F38
S1134750880F991F820F931FFC01808191810E9411
S1134760F6188981882F90E08430910509F462C09D
S1134770853091058CF48130910579F18230910571
S11347801CF40097D1F08DC082309105A9F18330DB
S1134790910509F440C085C08630910509F460C0D4
S11347A0863091050CF451C08730910509F463C03B
S11347B08830910509F46AC074C0CE018E589F4FA9
S11347C0FC018081882F90E09E012E5B3F4FB90150
S11347D04AE050E00E94B03767C08F859889A98964
S11347E0BA89FE01EE5BFF4FBC01CD0145E022E03A
S11347F08F010E94813558C08B899C89AD89BE89FF
S1134800FE01EE5BFF4FBC01CD0145E022E08F01CC
S11348100E94813549C08F89988DA98DBA8DFE017A
S1134820EE5BFF4FBC01CD0146E022E08F010E9408
S113483081353AC08D819E819E012E5B3F4FB90127
S11348404AE050E00E94B0372FC08F8198859E01C6
S11348502E5B3F4FB9014AE050E00E94B03724C0BC
S113486089859A859E012E5B3F4FB9014AE050E04D
S11348700E94B03719C08B859C859E012E5B3F4FEB
S1134880B9014AE050E00E94B0370EC08D859E8584
S11348909E012E5B3F4FB9014AE050E00E94B037C1
S11348A003C086E08A830000CE018E5B9F4F0E9486
S11348B0F6188EE20E94D81889818F5F898381E07F
S11348C08A831E8E1D8E0EC09E01245D3F4F8D8DEA
S11348D09E8D820F931FFC0110828D8D9E8D0196FB
S11348E09E8F8D8F8B81282F30E041E08D8D9E8DA2
S11348F0821793070CF040E0442331F71B8281E0D8
S11349008C83CAC185E08A83109241038FE592E0CB
S11349100E94F618C1C118A21F8E0EC09E01245D0C
S11349203F4F8F8D98A1820F931FFC0110828F8DB2
S113493098A1019698A38F8F8B81282F30E041E0B6
S11349408F8D98A1821793070CF040E0442331F730
S11349501B8281E08C83109235039EC18CE092E02F
S11349600E94F61885E08A8397C1CE018C9629E4CB
S113497032E0B90142E050E00E947937009719F41F
S113498088E08A8389C1CE018C9625E632E0B9019C
S113499043E050E00E947937009729F485E08A8348
S11349A01092420379C186E08A8376C185E692E05B
S11349B00E94F61881E08A831AA219A20EC09E01F1
S11349C0245D3F4F89A19AA1820F931FFC0110829D
S11349D089A19AA101969AA389A38B81282F30E0FB
S11349E041E089A19AA1821793070CF040E0442387
S11349F031F71B8281E08C834FC1CE018C9629E470
S1134A0032E0B90142E050E00E947937009719F48E
S1134A108AE08A8341C1CE018C969E012E5B3F4F72
S1134A20B9010E946937009729F485E08A831092BE
S1134A303F0332C186E08A832FC1CE018E589F4F37
S1134A40FC018081882F90E09E0128593F4FB901D5
S1134A504AE050E00E94B037CE018E5B9F4F24E4C1
S1134A6030E0FC0131832083CE0188599F4F9C01A3
S1134A70F90101900020E9F7CF010197821B930B04
S1134A809E0128593F4F820F931F2EE230E0FC0114
S1134A9031832083CE018E5B9F4F9E0128593F4F67
S1134AA0B9010E945E37CE018E5B9F4F0E94F618BB
S1134AB081E08A831CA21BA20EC09E01245D3F4F8D
S1134AC08BA19CA1820F931FFC0110828BA19CA13E
S1134AD001969CA38BA38B81282F30E041E08BA10E
S1134AE09CA1821793070CF040E0442331F71B820A
S1134AF081E08C83D1C0CE018C9629E432E0B901E7
S1134B0042E050E00E947937009719F48CE08A83E0
S1134B10C3C0CE018C969E012E5B3F4FB9010E940B
S1134B206937009729F485E08A8310923E03B4C064
S1134B3086E08A83B1C0CE018E589F4FFC018081EC
S1134B40882F90E09E0123593F4FB9014AE050E07D
S1134B500E94B037CE018E5B9F4F29E632E043E0DE
S1134B60F90100802F5F3F4FFC0100820196415004
S1134B704423B1F7CE0183599F4F9C01F901019061
S1134B800020E9F7CF010197821B930B9E01235963
S1134B903F4F820F931F2EE230E0FC0131832083CC
S1134BA0CE018E5B9F4F9E0123593F4FB9010E9456
S1134BB05E37CE018E5B9F4F0E94F61881E08A8398
S1134BC01EA21DA20EC09E01245D3F4F8DA19EA179
S1134BD0820F931FFC0110828DA19EA101969EA3BA
S1134BE08DA38B81282F30E041E08DA19EA18217F7
S1134BF093070CF040E0442331F71B8281E08C835F
S1134C004BC0CE018C9629E432E0B90142E050E079
S1134C100E947937009719F48EE08A833DC0CE0153
S1134C208C962CE632E0B90143E050E00E947937DB
S1134C30009729F485E08A8310923E032DC086E014
S1134C408A832AC08CE692E00E94F61881E08A8367
S1134C5018A61FA20EC09E01245D3F4F8FA198A5E8
S1134C60820F931FFC0110828FA198A5019698A72B
S1134C708FA38B81282F30E041E08FA198A5821764
S1134C8093070CF040E0442331F71B8281E08C83CE
S1134C9003C01092350300009091350381E09923FD
S1134CA009F480E0882309F025CCCE58DF4F0FB6F5
S1134CB0F894DEBF0FBECDBFDF91CF911F910F914E
S1134CC00895CF93DF93CDB7DEB7EB970FB6F89483
S1134CD0DEBF0FBECDBF89AF6AAF4BAF89AD8823AE
S1134CE009F444C08AAD8823E9F085E493E00E9486
S1134CF0B9079C01CE010196B9010E9472378091D7
S1134D003403882341F0CE0101960E9440198FE2BA
S1134D100E94221907C0CE0101960E94F6188FE264
S1134D200E94D8188BAD882309F449C085E493E028
S1134D300E9444049C01CE010C96B9010E94723772
S1134D4080913403882349F0CE010C960E944019C7
S1134D508CE992E00E94401932C0CE010C960E9468
S1134D60F6188CE992E00E94F61829C08AAD8823CF
S1134D7089F085E493E00E94B9079C01CE014D9629
S1134D80B9010E947237CE014D960E948A198FE2B2
S1134D900E946C198BAD882391F085E493E00E9406
S1134DA044049C01CE018896B9010E947237CE0159
S1134DB088960E948A198CE992E00E948A19EB96DF
S1134DC00FB6F894DEBF0FBECDBFDF91CF9108952B
S1134DD01F920F920FB60F9200905B000F92112456
S1134DE02F933F938F939F93EF93FF93CF93DF93EF
S1134DF0CDB7DEB7F89480913703882331F0109251
S1134E00370381E08093330302C01092330381ECB3
S1134E1090E021EC30E0F90120812F77FC01208320
S1134E207894DF91CF91FF91EF919F918F913F9172
S1134E302F910F9000925B000F900FBE0F901F9068
S1134E4018951F920F920FB60F9200905B000F926D
S1134E5011242F933F938F939F93EF93FF93CF93BB
S1134E60DF93CDB7DEB7F89480913603882331F011
S1134E701092360381E08093310302C01092310313
S1134E8089EC90E029EC30E0F90120812F77FC01D6
S1134E9020837894DF91CF91FF91EF919F918F912F
S1134EA03F912F910F9000925B000F900FBE0F90D7
S1134EB01F9018951F920F920FB60F9200905B00EF
S1134EC00F9211242F933F938F939F93EF93FF930C
S1134ED0CF93DF93CDB7DEB7F8948091380388235E
S1134EE031F01092380381E08093340302C01092B1
S1134EF0340381ED90E021ED30E0F90120812F773A
S1134F00FC0120837894DF91CF91FF91EF919F91E1
S1134F108F913F912F910F9000925B000F900FBEE5
S1134F200F901F9018951F920F920FB60F9200903A
S1134F305B000F9211242F933F934F935F936F93D2
S1134F407F938F939F93AF93BF93EF93FF93CF93ED
S1134F50DF93CDB7DEB7F8948BE091E02BE031E03E
S1134F60F90120812860FC01208381E080933603CD
S1134F708DE390E02DE330E0F90120812C7DFC01EC
S1134F80208389E492E00E948A1989EC90E029EC5C
S1134F9030E0F90120812068FC0120838BE091E05E
S1134FA02BE031E0F9012081277FFC0120837894F4
S1134FB0DF91CF91FF91EF91BF91AF919F918F912D
S1134FC07F916F915F914F913F912F910F9000923C
S1134FD05B000F900FBE0F901F9018951F920F92B9
S1134FE00FB60F9200905B000F9211242F933F9302
S1134FF04F935F936F937F938F939F93AF93BF93DD
S1135000EF93FF93CF93DF93CDB7DEB7F89481E0AE
S11350108093370381EC90E021EC30E0F9012081AA
S11350202068FC0120838DE390E02DE330E0F9015A
S113503020812C7DFC01208389E492E00E94F618F3
S11350407894DF91CF91FF91EF91BF91AF919F91B0
S11350508F917F916F915F914F913F912F910F901D
S113506000925B000F900FBE0F901F9018951F9237
S11350700F920FB60F9200905B000F9211242F93A2
S11350803F934F935F936F937F938F939F93AF93CC
S1135090BF93EF93FF93CF93DF93CDB7DEB7F8942D
S11350A081E08093380381ED90E021ED30E0F90157
S11350B020812068FC0120838DE390E02DE330E023
S11350C0F90120812C7DFC01208389E492E00E9477
S11350D040197894DF91CF91FF91EF91BF91AF91F7
S11350E09F918F917F916F915F914F913F912F91FC
S11350F00F9000925B000F900FBE0F901F901895B9
S11351001F920F920FB60F9200905B000F92112422
S11351102F933F934F935F936F937F938F939F93BB
S1135120AF93BF93EF93FF93CF93DF930F920F92BD
S1135130CDB7DEB7F89484E890E0FC0180819181DA
S11351409A83898389819A818330910508F449C0BF
S11351508BE091E02BE031E0F90120812064FC0137
S1135160208380911F06882339F010921F068DE654
S113517093E00E94CB0B0DC080911D0690911E06FA
S113518029813A81281B390B8DE693E0B9010E94ED
S11351905A0A10921E0610921D06809131069091B3
S11351A0320621E0893091050CF420E001969093B9
S11351B0320680933106222339F081E08093200661
S11351C0109232061092310682E390E00E94A918F0
S11351D08BE091E02BE031E0F90120812F7BFC0191
S11351E0208384E890E0FC011182108278940F906F
S11351F00F90DF91CF91FF91EF91BF91AF919F916C
S11352008F917F916F915F914F913F912F910F906B
S113521000925B000F900FBE0F901F9018951F9285
S11352200F920FB60F9211248F93CF93DF93CDB7C4
S1135230DEB7F89480912B03882319F010922B0386
S113524003C081E080932B037894DF91CF918F91F9
S11352500F900FBE0F901F9018951F920F920FB6CC
S11352600F9200905B000F9211242F933F934F9362
S11352705F936F937F938F939F93AF93BF93EF93BA
S1135280FF93CF93DF930F920F92CDB7DEB7F894CD
S11352901A8219820E9481319A83898380912F0610
S11352A09091300649815A819C01220F331F2B5360
S11352B03C4FF901518340830196909330068093CB
S11352C02F0680912F069091300621E0F1E08C3278
S11352D09F0708F420E0222369F010923006109210
S11352E02F0687EA93E025EC33E0B9014CE251E064
S11352F00E94180F78940F900F90DF91CF91FF9137
S1135300EF91BF91AF919F918F917F916F915F9139
S11353104F913F912F910F9000925B000F900FBE21
S11353200F901F9018951F920F920FB60F92009036
S11353305B000F9211242F933F934F935F936F93CE
S11353407F938F939F93AF93BF93EF93FF93CF93E9
S1135350DF93CDB7DEB7F89480911D0690911E06B9
S113536021E08530910508F420E0019690931E0613
S113537080931D06222331F080911F06882311F4A7
S113538081E001C080E0882339F081E080931F062A
S11353908DE693E00E94CB0B7894DF91CF91FF913F
S11353A0EF91BF91AF919F918F917F916F915F9199
S11353B04F913F912F910F9000925B000F900FBE81
S11353C00F901F9018951F920F920FB60F92009096
S11353D05B000F9211242F933F934F935F936F932E
S11353E07F938F939F93AF93BF93EF93FF93CF9349
S11353F0DF93CDB7DEB785E290E025E230E0F90136
S1135400308120E22327FC01208385E493E061E0DE
S113541070E00E943407809123069091240689301D
S1135420910554F480913303882321F48091370348
S1135430882311F081E001C080E0882351F080913D
S113544023069091240601969093240680932306C4
S11354503EC080912306909124068930910554F032
S113546080913303882321F480913703882311F03A
S113547081E001C080E0882391F01092240610920C
S1135480230610923303109237038DE390E02DE34B
S113549030E0F90120812362FC01208318C080914F
S11354A03303882369F480913703882349F4809176
S11354B02306909124061816190614F481E001C0FD
S11354C080E0882321F01092240610922306809114
S11354D03503882349F0809125069091260689306A
S11354E0910514F481E001C080E0882351F080919B
S11354F0250690912606019690932606809325060C
S113550034C080913503882349F080912506909119
S113551026068930910514F081E001C080E08823DB
S113552081F01092260610922506109235038DE321
S113553090E02DE330E0F90120812362FC01208317
S113554014C080913503882349F4809125069091F5
S113555026061816190614F481E001C080E0882399
S113556021F010922606109225068091270690912C
S113557028068930910554F480913403882321F45A
S113558080913803882311F081E001C080E08823F2
S113559051F0809127069091280601969093280651
S11355A0809327063EC08091270690912806893073
S11355B0910554F080913403882321F480913803B9
S11355C0882311F081E001C080E0882391F01092DB
S11355D028061092270610923403109238038DE3A4
S11355E090E02DE330E0F90120812362FC01208367
S11355F018C080913403882369F480913803882388
S113560049F480912706909128061816190614F477
S113561081E001C080E0882321F0109228061092D6
S1135620270680913203882349F0809129069091BE
S11356302A068930910514F481E001C080E08823B2
S113564051F08091290690912A06019690932A069A
S11356508093290634C080913203882349F08091D5
S1135660290690912A068930910514F081E001C041
S113567080E0882381F010922A0610922906109265
S113568032038DE390E02DE330E0F90120812362C1
S1135690FC01208314C080913203882349F4809153
S11356A0290690912A061816190614F481E001C0FF
S11356B080E0882321F010922A0610922906809116
S11356C02B0690912C068930910554F48091310376
S11356D0882321F480913603882311F081E001C0EE
S11356E080E0882351F080912B0690912C0601963E
S11356F090932C0680932B063EC080912B069091AC
S11357002C068930910554F080913103882321F4CB
S113571080913603882311F081E001C080E0882362
S113572091F010922C0610922B06109231031092D5
S113573036038DE390E02DE330E0F901208123620C
S1135740FC01208318C080913103882369F480917F
S11357503603882349F480912B0690912C06181661
S1135760190614F481E001C080E0882321F010922E
S11357702C0610922B06DF91CF91FF91EF91BF91F0
S1135780AF919F918F917F916F915F914F913F91D5
S11357902F910F9000925B000F900FBE0F901F90FF
S11357A018950F931F93CF93DF93CDB7DEB7CC57E4
S11357B0D0400FB6F894DEBF0FBECDBF0E949F2F1E
S11357C083E390E00E94F62F0E94EA3081E061E0DA
S11357D00E945D170E9428310E9445178093390367
S11357E082E090E00E94711880913903882329F0A7
S11357F08FE992E00E94401904C084EB92E00E9479
S113580040197894809131038823C9F180912B0346
S11358108823A9F580913303882389F585E290E0F4
S113582025E230E0F90120812064FC0120830E94FC
S1135830BA1982E090E00E947118809133038823A2
S1135840A9F480913703882389F480913403882351
S113585069F480913803882349F48DE390E02DE3C3
S113586030E0F90120812362FC01208385E290E08D
S113587025E230E0F90120812F7BFC012083809117
S113588033038823A9F180912B03882389F585E2CA
S113589090E025E230E0F90120812068FC012083BA
S11358A00E947F2082E090E00E9471188091310371
S11358B08823A9F480913603882389F480913403E2
S11358C0882369F480913803882349F48DE390E0B8
S11358D02DE330E0F90120812362FC01208385E27D
S11358E090E025E230E0F90120812F77FC0120834C
S11358F0809134038823A9F180912B03882389F5AF
S113590080913303882369F580913103882349F515
S11359108BE091E02BE031E0F90120812061FC0172
S113592020830E943A1F82E090E00E9471188091C7
S11359303103882369F480913603882349F08DE389
S113594090E02DE330E0F90120812362FC01208303
S113595085E290E025E230E0F90120812F7EFC0110
S1135960208380912E03882329F480913003882397
S113597009F448C080913603882309F043C080911C
S11359802B03882309F03EC08BE091E02BE031E04B
S1135990F90120812062FC0120838DE390E02DE356
S11359A030E0F90120812C7DFC01208388EC92E019
S11359B00E9440190E940B1D82E090E00E94711821
S11359C0809131038823A9F480913603882389F4D4
S11359D080913303882369F480913703882349F441
S11359E08DE390E02DE330E0F90120812362FC0196
S11359F020838BE091E02BE031E0F90120812F7DC1
S1135A00FC01208380912C03882389F08091360344
S1135A10882369F480912B03882349F481E08093DF
S1135A20300310922C0310922D0310922E038091B8
S1135A302006882309F40FC180913703882309F0D5
S1135A400AC180913603882309F005C1809133038C
S1135A50882309F000C180913103882309F0FBC039
S1135A6080912B03882309F0F6C0F8941092200645
S1135A7085E493E00E94B9079C01CE018B5A9F4FA5
S1135A80B9010E947237CE018B5A9F4F9C01F901D4
S1135A9001900020E9F7CF010197821B930B9E012F
S1135AA02B5A3F4F820F931F2FE230E0FC013183CA
S1135AB0208385E493E00E9444049C01CE018B5A28
S1135AC09F4FB9010E945E37CE018B5A9F4F9C01B4
S1135AD0F90101900020E9F7CF010197821B930B94
S1135AE09E012B5A3F4F820F931F2EE230E0FC01A0
S1135AF0318320838DE693E00E94210DDC01CB01EC
S1135B008F839887A987BA878DE693E00E94370D23
S1135B10DC01CB018B879C87AD87BE878DE693E044
S1135B200E944D0DDC01CB018F87988BA98BBA8B1A
S1135B3087EA93E00E94C80EDC01CB018B8B9C8B1F
S1135B40AD8BBE8B87EA93E00E94DE0EDC01CB01B5
S1135B508F8B988FA98FBA8F8F819885A985BA85E5
S1135B60FE01BB96BC01CD0145E023E08F010E94FC
S1135B7081358B859C85AD85BE85FE01F396BC0180
S1135B80CD0145E023E08F010E9481358F859889FE
S1135B90A989BA89FE01FB96BC01CD0147E024E046
S1135BA08F010E9481358B899C89AD89BE89FE0154
S1135BB0ED5BFF4FBC01CD0144E022E08F010E9468
S1135BC081358F89988DA98DBA8DFE01E55BFF4FD4
S1135BD0BC01CD0144E022E08F010E94813589EDB2
S1135BE092E00E9440198DED92E00E944019CE018E
S1135BF08B5A9F4F0E94401988EE92E00E944019F0
S1135C00CE018B960E9440198EEE92E00E944019BC
S1135C10CE01C3960E94401986EF92E00E9440197B
S1135C20CE01CB960E9440198CEF92E00E9440195D
S1135C30CE018D5B9F4F0E94401982E093E00E9449
S1135C404019CE01855B9F4F0E9440198AE093E082
S1135C500E944019789480913A03882309F419C169
S1135C6081E090E09C8F8B8F82E090E09E8F8D8FFF
S1135C7080913C03882391F080E090E0A0E0B0ECB8
S1135C808F8F98A3A9A3BAA38DE693E02F8D38A193
S1135C9049A15AA1BA01A9010E94060C80913D03B1
S1135CA0882339F00E949A140E947C1580E00E9497
S1135CB0D22180913B03882309F4C4C0809142031C
S1135CC0882319F080E00E94D22180914103882327
S1135CD041F080913F03882321F48B8D0E94D221CF
S1135CE071C080913F03882309F46CC08091410303
