:100000000C9473000C94FF1A0C94611B0C94A600C2
:100010000C94A6000C94A6000C94A6000C94B11BA2
:100020000C94231C0C94A6000C94A6000C94A6001F
:100030000C94A6000C94A6000C94A6000C94F71C3B
:100040000C94A6000C94A6000C94A6000C94A60098
:100050000C94A71C0C94411C0C94A6000C94A600B4
:100060000C94A6000C948D1A0C94A6000C94A60077
:100070000C94A6000C94A6000C94A6000C94A60068
:100080000C94A6000C94A6000C94A6000C94A60058
:100090000C94C61A0C94A6000C94A6000C94A6000E
:1000A0000C94A6000C94A6000C94A6000C94A60038
:1000B0000C94A6000C94A6000C94A6000C94A60028
:1000C0000C94A6000C94A6000C94A6000C94A60018
:1000D0000C94A6000C94A6000C94A6000C94A60008
:1000E0000C94A600902111241FBECFEFD1E2DEBFF9
:1000F000CDBF00E00CBF12E0A0E0B2E0E2E7F8E420
:1001000000E00BBF02C007900D92AC3BB107D9F7DE
:100110001BBE15E0ACEBB2E001C01D92AB39B107DC
:10012000E1F710E0C6EED0E000E006C0229701093A
:10013000FE010BBF0E948223C43ED10780E0080766
:10014000A9F71BBE0E943B1E0C9437240C940000A0
:10015000CF93DF930F920F92CDB7DEB79A83898347
:1001600089819A81FC011182108289819A81FC0126
:100170001382128289819A81FC01158214820F9068
:100180000F90DF91CF910895CF93DF93CDB7DEB776
:1001900028970FB6F894DEBF0FBECDBF9A83898330
:1001A0007C836B835E834D8338872F8389819A811B
:1001B0006B817C814D815E812F8138850E94C701D2
:1001C00028960FB6F894DEBF0FBECDBFDF91CF915A
:1001D0000895CF93DF930F920F92CDB7DEB79A8336
:1001E000898389819A81FC01808191810F900F9090
:1001F000DF91CF910895CF93DF930F920F92CDB7F8
:10020000DEB79A83898389819A81FC0184819581F3
:100210000F900F90DF91CF910895CF93DF930F92BE
:100220000F92CDB7DEB79A83898389819A81FC01C9
:10023000828193810F900F90DF91CF910895CF939A
:10024000DF9300D00F92CDB7DEB79A8389837C838A
:100250006B838B819C810C968931910538F489815F
:100260009A812B813C81FC01318320830F900F9078
:100270000F900F90DF91CF910895CF93DF9300D02F
:100280000F92CDB7DEB79A8389837C836B83898194
:100290009A81FC01808191818930910581F0898169
:1002A0009A81FC01808191818430910541F089819E
:1002B0009A81FC01808191818630910541F48B8186
:1002C0009C814E968D33910510F481E001C080E051
:1002D000882341F089819A812B813C81FC01338301
:1002E000228328C089819A81FC018081918182309A
:1002F000910541F48B819C814C968933910510F4D2
:1003000081E001C080E0882341F089819A812B81BE
:100310003C81FC01338322830DC08B819C814F96ED
:100320008F33910538F489819A812B813C81FC01BE
:10033000338322830F900F900F900F90DF91CF9116
:100340000895CF93DF9300D00F92CDB7DEB79A8395
:1003500089837C836B838B819C8127E0803D92071E
:1003600044F089819A812B813C81FC01358324836F
:1003700007C089819A8122EF33E0FC013583248311
:100380000F900F900F900F90DF91CF910895CF9322
:10039000DF93CDB7DEB728970FB6F894DEBF0FBE58
:1003A000CDBF9A8389837C836B835E834D8338873B
:1003B0002F8389819A812B813C81B9010E941F0181
:1003C00089819A812D813E81B9010E943D018981F7
:1003D0009A812F813885B9010E94A10128960FB614
:1003E000F894DEBF0FBECDBFDF91CF910895CF93BC
:1003F000DF9300D000D0CDB7DEB79C838B837E83A4
:100400006D838B819C81FC01248135818D819E814E
:10041000820F931F9A83898389819A8121E0F7E073
:100420008D3D9F070CF420E0222339F029813A8189
:100430008B819C81FC013583248326960FB6F8942A
:10044000DEBF0FBECDBFDF91CF910895CF93DF9375
:10045000CDB7DEB72A970FB6F894DEBF0FBECDBF7B
:1004600098878F837A8769878F819885FC0120819F
:10047000318189859A85820F931F9E838D838D811B
:100480009E818D3091053CF08D819E818931910551
:1004900014F481E001C080E0882361F081E090E005
:1004A0009A8389838F81988529813A81B9010E9435
:1004B000F70122C08D819E8121E0893191050CF4E4
:1004C00020E0222391F08D819E812CE030E0B90163
:1004D0000E946F239B013C832B838F8198852B8106
:1004E0003C81B9010E94F70107C02D813E818F81B7
:1004F0009885FC01318320832A960FB6F894DEBFDD
:100500000FBECDBFDF91CF910895CF93DF9300D081
:1005100000D0CDB7DEB79C838B837E836D838B81C8
:100520009C81FC01228133818D819E81820F931FEA
:100530009A8389838B819C81FC01808191818930A0
:10054000910581F08B819C81FC01808191818430B7
:10055000910541F08B819C81FC01808191818630E5
:10056000910511F481E001C080E0882331F1898197
:100570009A814E9621E08D33910508F020E02223E8
:1005800041F029813A818B819C81FC013383228354
:1005900071C08B819C8161E070E00E94260289819C
:1005A0009A812FE130E0B9010E946F239C018B8179
:1005B0009C81FC01338322835DC08B819C81FC0183
:1005C0008081918121E08230910509F020E0222391
:1005D00049F18B819C81FC01828193814C9621E0C1
:1005E0008933910508F020E0222341F029813A81E6
:1005F0008B819C81FC01338322833CC08B819C8155
:1006000061E070E00E94260289819A812DE130E04C
:10061000B9010E946F239C018B819C81FC01338373
:10062000228328C08B819C81FC01828193814F961B
:1006300021E08F33910508F020E0222341F0298149
:100640003A818B819C81FC013383228313C08B818F
:100650009C8161E070E00E94260289819A8120E2FB
:1006600030E0B9010E946F239C018B819C81FC01C9
:100670003383228326960FB6F894DEBF0FBECDBF1C
:10068000DF91CF910895CF93DF9300D0CDB7DEB740
:100690009B838A8319828A819B81FC01808191815D
:1006A0000C9621E08931910508F020E0222309F41D
:1006B00066C08A819B81FC0180819181893091058E
:1006C00081F08A819B81FC01808191818430910538
:1006D00041F08A819B81FC01808191818630910566
:1006E00059F48A819B81FC01828193814E968D33DE
:1006F000910510F481E001C080E0882319F081E0C9
:10070000898328C08A819B81FC018081918182300C
:10071000910559F48A819B81FC01828193814C96D9
:100720008933910510F481E001C080E0882319F03D
:1007300081E089830FC08A819B81FC018281938142
:100740004F9621E08F33910508F020E0222311F02D
:1007500081E089838981882359F08A819B81FC010A
:1007600084819581F7E08D3D9F0714F081E001C001
:1007700080E0882311F081E003C080E001C080E0C8
:100780000F900F900F90DF91CF910895CF93DF934B
:10079000CDB7DEB72D970FB6F894DEBF0FBECDBF35
:1007A0009D878C878C859D85FC01808191819E0130
:1007B0002F5F3F4FB9014AE050E00E94CD238C8566
:1007C0009D85FC01828193819E012C5F3F4FB90181
:1007D0004AE050E00E94CD238C859D85FC018481F8
:1007E00095819E01295F3F4FB9014AE050E00E9488
:1007F000CD238C859D8506969E012F5F3F4FB901C5
:100800000E94B8238C859D859C012A5F3F4FC901BA
:10081000AC01FA0101900020E9F7CF010197841B98
:10082000950B820F931F2CE230E0FC013183208373
:100830008C859D8506969E012C5F3F4FB9010E94D5
:10084000A4238C859D859C012A5F3F4FC901AC0183
:10085000FA0101900020E9F7CF010197841B950B65
:10086000820F931F2CE230E0FC01318320838C85C2
:100870009D8506969E01295F3F4FB9010E94A423E2
:100880008C859D85FC01168A8C859D8506962D9606
:100890000FB6F894DEBF0FBECDBFDF91CF910895A4
:1008A000CF93DF930F920F92CDB7DEB79A838983F0
:1008B00089819A810E94A80089819A8160E070E014
:1008C00040E050E020E030E00E9498050F900F904B
:1008D000DF91CF910895CF93DF93CDB7DEB72897FF
:1008E0000FB6F894DEBF0FBECDBF9A8389837C8399
:1008F0006B835E834D8338872F8389819A810E9421
:10090000A80089819A816B817C814D815E812F81D4
:1009100038850E94980528960FB6F894DEBF0FBE62
:10092000CDBFDF91CF910895CF92DF92EF92FF92EA
:100930000F931F93CF93DF93CDB7DEB72E970FB6EC
:10094000F894DEBF0FBECDBF9A8389837C836B830F
:100950005E834D8338872F831A870987FC86EB8651
:10096000DE86CD8689819A8169857A854B855C850D
:100970002D853E850E94C40089819A816B817C818E
:100980004D815E812F8138850E9498052E960FB685
:10099000F894DEBF0FBECDBFDF91CF911F910F91B5
:1009A000FF90EF90DF90CF900895CF93DF930F9259
:1009B0000F92CDB7DEB79A83898389819A81FC0132
:1009C000838D948D0F900F90DF91CF910895CF93E9
:1009D000DF930F920F92CDB7DEB79A838983898117
:1009E0009A81FC01818D928D0F900F90DF91CF91B4
:1009F0000895CF93DF930F920F92CDB7DEB79A830E
:100A0000898389819A81FC018789908D0F900F904D
:100A1000DF91CF910895CF93DF93CDB7DEB7A29743
:100A20000FB6F894DEBF0FBECDBF98A38F8F7AA309
:100A300069A3CE010B9629A13AA1B9010E94B8235E
:100A40001A82198243C01C821B8220C029813A81EC
:100A5000C901880F991F280F391F8B819C81820F34
:100A6000931F9E01255F3F4F820F931FFC01408122
:100A70009E012B5E3F4F8B819C81820F931FFC0157
:100A800040838B819C8101969C838B8321E08B81A9
:100A90009C81823091050CF020E02223B9F6CE0132
:100AA00045960E9486239C0189819A81880F991F0F
:100AB000AE014F5F5F4F840F951F0496FC01318399
:100AC000208389819A8101969A83898321E0898193
:100AD0009A81833091050CF020E0222309F0B3CFF6
:100AE0008D819E8147968F329105C0F48F819885C4
:100AF000CB968737910590F489859A85CB96873771
:100B0000910560F46D817E814F81588529853A85F4
:100B10008F8D98A10E94980581E001C080E0A29687
:100B20000FB6F894DEBF0FBECDBFDF91CF91089511
:100B3000CF93DF93CDB7DEB728970FB6F894DEBF1B
:100B40000FBECDBF9A8389837C836B835E834D8385
:100B500038872F8389819A812B813C81B9010E943A
:100B6000C80589819A812D813E81B9010E94E605DF
:100B700089819A812F813885B9010E9404062896BF
:100B80000FB6F894DEBF0FBECDBFDF91CF910895B1
:100B9000CF93DF9300D00F92CDB7DEB79A838983CE
:100BA0007C836B838B819C8147968F32910538F4CF
:100BB00089819A812B813C81FC01308F278B0F909A
:100BC0000F900F900F90DF91CF910895CF93DF9307
:100BD00000D00F92CDB7DEB79A8389837C836B8375
:100BE0008B819C81CB968737910538F489819A81D6
:100BF0002B813C81FC01328F218F0F900F900F9041
:100C00000F90DF91CF910895CF93DF9300D00F9293
:100C1000CDB7DEB79A8389837C836B838B819C817C
:100C2000CB968737910538F489819A812B813C8155
:100C3000FC01348F238F0F900F900F900F90DF9156
:100C4000CF910895CF93DF93CDB7DEB728970FB636
:100C5000F894DEBF0FBECDBF9E838D8378876F83F0
:100C60008D819E81FC012789308D8F819885820F2F
:100C7000931F9A83898389819A8128E130E0B901A1
:100C80000E946F239C018D819E81FC01308F278BF8
:100C900089819A8121E0883191050CF420E022239A
:100CA00091F089819A8128E130E0B9010E946F2397
:100CB0009B01C9019C838B838D819E812B813C810B
:100CC000B9010E94850228960FB6F894DEBF0FBEC8
:100CD000CDBFDF91CF910895CF93DF93CDB7DEB72E
:100CE00028970FB6F894DEBF0FBECDBF9E838D83CD
:100CF00078876F838D819E81FC01218D328D8F815C
:100D00009885820F931F9A83898389819A812CE326
:100D100030E0B9010E946F239C018D819E81FC010E
:100D2000328F218F89819A8121E08C3391050CF4D7
:100D300020E0222391F089819A812CE330E0B901EF
:100D40000E946F239B01C9019C838B832B813C8173
:100D50008D819E81B9010E94220628960FB6F894D3
:100D6000DEBF0FBECDBFDF91CF910895CF93DF934C
:100D7000CDB7DEB728970FB6F894DEBF0FBECDBF54
:100D80009E838D8378876F838D819E81FC01238D67
:100D9000348D8F819885820F931F9A8389838981EF
:100DA0009A812CE330E0B9010E946F239C018D8170
:100DB0009E81FC01348F238F89819A8121E08C33BD
:100DC00091050CF420E0222391F089819A812CE393
:100DD00030E0B9010E946F239B01C9019C838B8382
:100DE0002B813C818D819E81B9010E946C062896E1
:100DF0000FB6F894DEBF0FBECDBFDF91CF9108953F
:100E0000CF93DF930F920F92CDB7DEB79A8389838A
:100E100089819A81FC01838D948DCB9687379105CA
:100E2000A0F489819A81FC01818D928DCB968737C0
:100E3000910558F489819A81FC018789908D4796A4
:100E40008F32910510F481E001C080E0882369F0C1
:100E500089819A810E944303982F81E0992309F4A4
:100E600080E0882311F081E001C080E00F900F90B6
:100E7000DF91CF910895CF93DF93CDB7DEB72B9756
:100E80000FB6F894DEBF0FBECDBF9B878A878A85D9
:100E90009B85FC018789908D9E012F5F3F4FB90193
:100EA0004AE050E00E94CD238A859B85FC01818D1C
:100EB000928D9E012C5F3F4FB9014AE050E00E94A5
:100EC000CD238A859B85FC01838D948D9E01295FAE
:100ED0003F4FB9014AE050E00E94CD238A859B85AF
:100EE0004D969E012F5F3F4FB9010E94B8238A851E
:100EF0009B859C01235E3F4FC901AC01FA01019023
:100F00000020E9F7CF010197841B950B820F931FF7
:100F10002AE330E0FC01318320838A859B854D964E
:100F20009E012C5F3F4FB9010E94A4238A859B85B7
:100F30009C01235E3F4FC901AC01FA0101900020E2
:100F4000E9F7CF010197841B950B820F931F2AE3CA
:100F500030E0FC01318320838A859B854D969E017C
:100F6000295F3F4FB9010E94A4238A859B85FC011C
:100F700010A68A859B854D962B960FB6F894DEBFFA
:100F80000FBECDBFDF91CF910895CF93DF93CDB743
:100F9000DEB76C970FB6F894DEBF0FBECDBF81E011
:100FA00090E00E94F623898380E090E00E94F6237F
:100FB0008A838981882309F067C08A81882F90E01D
:100FC0009C0121503040C901880F991F820F931F47
:100FD000880F991F880F991F880F991F02969C836D
:100FE0008B838B819C810E94FE239E838D838B81CA
:100FF0009C8102960E94FE2398878F838B819C811F
:1010000004960E94FE239A8789878B819C8106968D
:101010000E94FE239C878B878B819C8108960E946F
:10102000FE239E878D878B819C810A960E94FE23DA
:10103000988B8F878B819C810C960E94FE239A8BC4
:10104000898B8B819C810E960E94FE239C8B8B8BBF
:101050008B819C8140960E94FE239E8B8D8B8B8181
:101060009C8142960E94FE23988F8F8B8B819C815E
:1010700044960E94FE239A8F898F8B819C8146968D
:101080000E94FE239C8F8B8F6C960FB6F894DEBF68
:101090000FBECDBFDF91CF910895CF93DF93CDB732
:1010A000DEB72F970FB6F894DEBF0FBECDBF8E8789
:1010B0006F87F8948E85882309F44BC01A821982B1
:1010C00081E08B832CC082E090E00E94F6238F8326
:1010D00081E090E00E94F623888780E090E00E9403
:1010E000F62389878F818C33A8F488858C3390F41C
:1010F0008985883178F48985682F70E08885482F44
:1011000050E08F81282F30E089EC92E00E94980512
:101110001B8205C089819A8101969A8389838B817C
:10112000882339F089819A818330910514F481E014
:1011300001C080E0882339F68B81882351F089EC47
:1011400092E061E070E041E050E021E030E00E9498
:1011500098058F85882309F44EC01D821C8281E08A
:101160008E832FC084E090E00E94F6238A8783E07C
:1011700090E00E94F6238B8785E090E00E94FE239A
:101180009D878C878A858F31B8F48B858D30A0F44C
:101190008C859D8527E28031920770F48B85682FBE
:1011A00070E08A85482F50E02C853D8589EC92E0DF
:1011B0000E94C7011E8205C08C819D8101969D837E
:1011C0008C838E81882339F08C819D8183309105B9
:1011D00014F481E001C080E0882321F68E81882309
:1011E00051F089EC92E061E070E041E050E021EDE7
:1011F00037E00E94C70178942F960FB6F894DEBFAF
:101200000FBECDBFDF91CF910895CF93DF93CDB7C0
:10121000DEB729970FB6F894DEBF0FBECDBF888723
:101220006987F89488858823F1F089EC92E00E9420
:10123000F904898389EC92E00E94E7048A8389ECAF
:1012400092E00E94D5048B8382E090E06B810E9443
:10125000042481E090E06A810E94042480E090E010
:1012600069810E9404248985882309F189EC92E030
:101270000E94FB009D838C8389EC92E00E94E90030
:101280008E8389EC92E00E940D018F8385E090E0CF
:101290002C813D81B9010E94122483E090E06E818F
:1012A0000E94042484E090E06F810E9404247894DA
:1012B00029960FB6F894DEBF0FBECDBFDF91CF9158
:1012C0000895CF93DF9300D00F92CDB7DEB79C8304
:1012D0008B8317C01A82198206C0000089819A8107
:1012E00001969A83898389819A8121E0883C9105BE
:1012F0000CF020E0222389F78B819C8101979C834D
:101300008B8321E08B819C81009709F420E02223CC
:1013100009F70F900F900F900F90DF91CF910895E4
:10132000CF93DF930F92CDB7DEB78983000080ECB7
:1013300090E0FC018081882F90E08072907021E025
:10134000009709F020E0222391F786EC90E02981B4
:10135000FC0120830F90DF91CF910895CF93DF930D
:1013600000D0CDB7DEB79B838A8319820EC08981F6
:10137000882F90E02A813B81820F931FFC0180819E
:1013800099819F5F99830E9490098981882F90E0BD
:101390002A813B81820F931FFC01908181E0992378
:1013A00009F480E0882319F70F900F900F90DF91D8
:1013B000CF910895CF93DF930F92CDB7DEB7898396
:1013C000000088EC90E0FC018081882F90E0807222
:1013D000907021E0009709F020E0222391F78EEC35
:1013E00090E02981FC0120830F90DF91CF91089537
:1013F000CF93DF9300D0CDB7DEB79B838A8319826A
:1014000012C08EE591E00E9461098981882F90E0E9
:101410002A813B81820F931FFC01808199819F5F0C
:1014200099830E94DA098981882F90E02A813B8183
:10143000820F931FFC01908181E0992309F480E0E1
:101440008823F9F60F900F900F90DF91CF910895B8
:10145000CF93DF93CDB7DEB7C355D0400FB6F89426
:10146000DEBF0FBECDBF78941A8E198E1A821982F4
:1014700081E08B8338C3898D9A8D8230910509F480
:10148000A9C08330910538F4009791F0813091051F
:1014900009F492C022C38430910509F4D0C284308B
:1014A000910508F4E2C08530910509F4EDC215C339
:1014B0001A8219828EEC90E0FC018081888F888DE1
:1014C0008E3249F480E092E00E94F80984E090E0D6
:1014D0009A8F898F08C39E01245D3F4F89819A812D
:1014E000820F931F288DFC01208389819A810196A8
:1014F0009A83898381E090E09A8F898FF4C284E691
:1015000090E00E946109000088EC90E0FC0180817D
:10151000882334F08091C302882311F081E001C058
:1015200080E0882389F78091C302882361F483E0F7
:1015300092E00E94AE09CE018C960E94AE091A8EEE
:10154000198E0000D0C28EEC90E0FC018081888F63
:101550009E01245D3F4F89819A81820F931F288DC0
:10156000FC01208389819A8101969A838983888DE1
:101570008E3219F0888D882379F49E01245D3F4FC7
:1015800089819A81820F931FFC0110821B8282E065
:1015900090E09A8F898F10C089819A818732910556
:1015A0005CF01A8219821B821092C30280E092E0E2
:1015B0000E94F8091A8E198E8B81882331F0809150
:1015C000C302882311F081E001C080E0882309F084
:1015D00096CF89C2CE018C962DE032E0B90143E06E
:1015E00050E00E94BF230097E9F484E090E09A8FD6
:1015F000898F80E192E00E94AE0984E690E00E942B
:1016000061098DE092E00E94F80981E08093BE02BA
:101610008091BF02882309F465C21092BF02109224
:10162000C20260C28EA591E08A3309F090E02FA536
:1016300081E02A3309F080E08927882329F083E0BC
:1016400090E09A8F898F4EC280E092E00E94F80964
:1016500084E090E09A8F898F84E292E00E94AE0944
:10166000CE018C960E94AE093DC21C821D8281E093
:1016700090E09F838E831C8E1B8E1E8E1D8E18A263
:101680001F8E1AA219A21CA21BA21EA21DA219869D
:1016900018861B861A861D861C8673C09E01245DD3
:1016A0003F4F8E819F81820F931FFC0180818A337F
:1016B000E9F08A859B8583309105C4F49E01245D01
:1016C0003F4F8E819F81820F931FFC0140819E01BD
:1016D000295D3F4F8C859D85820F931FFC014083C0
:1016E0008C859D8501969D878C8746C08A859B85C4
:1016F000823091050CF040C09E01245D3F4F8E81E9
:101700009F81820F931FFC0180818A33A9F5CE014E
:1017100087960E9486239C018A859B85880F991F46
:10172000AE014F5F5F4F840F951F4A96FC013183D6
:1017300020838A859B8501969B878A871F861E86C4
:101740000EC09E01295D3F4F8E859F85820F931F9E
:10175000FC0110828E859F8501969F878E8741E0D0
:101760002E853F858C859D85821793070CF440E07C
:10177000442339F71D861C868E819F8101969F83A5
:101780008E839E01245D3F4F8E819F81820F931F28
:10179000FC0180818F3269F09E01245D3F4F8E8174
:1017A0009F81820F931FFC018081882311F081E0CB
:1017B00001C080E0882309F071CF9E01245D3F4F76
:1017C0008E819F81820F931FFC0180818F32A9F44B
:1017D000CE0187960E9486239C018A859B85880F6F
:1017E000991FAE014F5F5F4F840F951F4A96FC0112
:1017F0003183208381E08C8304C085E090E09A8F60
:10180000898F198A188A0EC09E01295D3F4F8889E9
:101810009989820F931FFC0110828889998901960A
:10182000998B888B41E0288939898C859D85821721
:1018300093070CF440E0442339F71D861C868E8103
:101840009F8101969F838E8373C09E01245D3F4FCD
:101850008E819F81820F931FFC0180818C32E9F081
:101860008885998583309105C4F49E01245D3F4F9E
:101870008E819F81820F931FFC0140819E01295D13
:101880003F4F8C859D85820F931FFC0140838C8583
:101890009D8501969D878C8746C088859985823075
:1018A00091050CF040C09E01245D3F4F8E819F81C9
:1018B000820F931FFC0180818C32A9F5CE0187969F
:1018C0000E9486239C0188859985880F991FAE0107
:1018D0004F5F5F4F840F951F8096FC0131832083FB
:1018E000888599850196998788871B8A1A8A0EC0F0
:1018F0009E01295D3F4F8A899B89820F931FFC01BE
:1019000010828A899B8901969B8B8A8B41E02A8968
:101910003B898C859D85821793070CF440E0442316
:1019200039F71D861C868E819F8101969F838E8349
:101930009E01245D3F4F8E819F81820F931FFC018A
:1019400080818E32A1F09E01245D3F4F8E819F8168
:10195000820F931FFC018081882349F02E813F81F3
:1019600089819A812817390711F081E001C080E050
:10197000882309F06ACF9E01245D3F4F8E819F81AD
:10198000820F931FFC0180818E32A9F4CE018796CD
:101990000E9486239C0188859985880F991FAE0136
:1019A0004F5F5F4F840F951F8096FC01318320832A
:1019B00081E08D8304C085E090E09A8F898F8D81CE
:1019C000882379F18C81882361F16B8D7C8D4D8D1D
:1019D0005E8D2F8D38A189EC92E00E94980569A157
:1019E0007AA14BA15CA12DA13EA189EC92E00E94BD
:1019F000C70181E061E00E9405091092BE0281E00A
:101A00008093BF0285E392E00E94AE0981E48CA737
:101A1000CE018C960E94F80984E090E09A8F898F1D
:101A200062C081E08093BE021092BF0283E492E024
:101A30000E94AE0985E090E09A8F898F54C08CE4B3
:101A400092E00E94AE091A8E198E1092C3021D8A6E
:101A50001C8A0EC09E01245D3F4F8C899D89820F98
:101A6000931FFC0110828C899D8901969D8B8C8B24
:101A700041E02C893D8989819A81821793070CF472
:101A800040E0442339F72FC086E990E00E946109C5
:101A900085E592E00E94F8091092C3021F8A1E8A0F
:101AA0000EC09E01245D3F4F8E899F89820F931F38
:101AB000FC0110828E899F8901969F8B8E8B41E05D
:101AC0002E893F8989819A81821793070CF440E01F
:101AD000442339F71A8E198E06C01A8E198E109269
:101AE000C30201C000009091C30281E0992309F470
:101AF00080E0882309F0BFCCCD5ADF4F0FB6F894B1
:101B0000DEBF0FBECDBFDF91CF910895CF93DF939E
:101B1000CDB7DEB7E2970FB6F894DEBF0FBECDBFEC
:101B20001A8219821C821B8281E08D8346C18981C1
:101B30009A818230910509F495C08330910538F47B
:101B4000009771F08130910509F47EC031C1833076
:101B5000910509F4E3C08430910509F408C128C156
:101B60001C821B8286EC90E0FC0180818A878A853A
:101B70008E3229F483E090E09A8389831EC19E010E
:101B8000255F3F4F8B819C81820F931F2A85FC012B
:101B900020838B819C8101969C838B8381E090E0E4
:101BA0009A8389830AC180E590E00E946109000060
:101BB00080EC90E0FC018081882334F08091C502A4
:101BC000882311F081E001C080E0882389F78091AB
:101BD000C502882331F484E090E09A838983000071
:101BE000ECC086EC90E0FC0180818A879E01255F35
:101BF0003F4F8B819C81820F931F2A85FC0120839C
:101C00008B819C8101969C838B838A858E3219F00F
:101C10008A85882379F49E01255F3F4F8B819C81C3
:101C2000820F931FFC0110821D8282E090E09A8354
:101C300089830AC08B819C818732910528F083E0DB
:101C400090E09A8389831D828D81882331F0809171
:101C5000C502882311F081E001C080E0882309F0EB
:101C6000A2CFABC0CE010B9628E532E0B90142E02D
:101C700050E00E94BF23009751F481E060E041E012
:101C80000E94721184E090E09A83898396C0CE010D
:101C90000B962BE532E0B90142E050E00E94BF23F1
:101CA000009751F481E061E040E00E94721184E00D
:101CB00090E09A83898381C0CE010B962EE532E0B5
:101CC000B90142E050E00E94BF23009751F481E047
:101CD00061E041E00E94721184E090E09A83898380
:101CE0006CC0CE010B9621E632E0B90142E050E033
:101CF0000E94BF23009769F481E060E00E9405091B
:101D0000CE010B960E94AE0984E090E09A8389830D
:101D100054C083E090E09A8389834FC084E690E0CA
:101D20000E94610980E092E00E94AE091092C50213
:101D30001F821E820EC09E01255F3F4F8E819F81B4
:101D4000820F931FFC0110828E819F8101969F83D9
:101D50008E832E813F8141E08B819C81281739073A
:101D600008F040E0442339F71A82198226C0109205
:101D7000C502198618860EC09E01255F3F4F8885D3
:101D80009985820F931FFC011082888599850196A1
:101D9000998788872885398541E08B819C81281720
:101DA000390708F040E0442339F71A82198205C048
:101DB0001092C5021A82198200009091C50281E03A
:101DC000992309F480E0882309F0B1CEE2960FB69A
:101DD000F894DEBF0FBECDBFDF91CF910895CF93B2
:101DE000DF93CDB7DEB7CF55D0400FB6F894DEBF46
:101DF0000FBECDBF81E08F871A82198281E0809368
:101E0000C4025DC28091990590919A058330910535
:101E100009F442C18430910548F48130910509F4F8
:101E200045C08230910508F0BAC00DC085309105DB
:101E300009F4F8C18530910508F4E2C186309105B6
:101E400009F413C235C288EE93E00E94610988E06C
:101E500091E028E031E0F90120812068FC01208335
:101E60001C821B8206C000008B819C8101969C8392
:101E70008B8321E08B819C81823091050CF020E0E6
:101E8000222389F788E091E028E031E0F901208100
:101E90002F77FC01208381E090E090939A05809356
:101EA000990588EE93E00E94610909C284E690E0FA
:101EB0000E94610966C084E690E00E94610984E6A0
:101EC00092E00E94AE09000088EC90E0FC01808165
:101ED000882334F08091C402882311F081E001C08E
:101EE00080E0882389F78091C402882371F48EE60C
:101EF00092E00E94AE09CE01C8960E94AE091092EF
:101F00009A05109299050000DAC18EEC90E0FC0170
:101F100080818B878B85882F90E09D878C879E01A1
:101F2000285C3F4F89819A81820F931F2B85FC018A
:101F3000208389819A8101969A8389838C859D85E6
:101F40008E32910581F49E01285C3F4F89819A81F0
:101F5000820F931FFC01108282E090E090939A051B
:101F6000809399050EC089819A818732910548F046
:101F70001A8219821F8685E090E090939A058093DB
:101F800099058F85882331F08091C402882311F050
:101F900081E001C080E0882309F08DCF90C1CE019F
:101FA000C89628E732E0B90142E050E00E94BF2322
:101FB000009759F483E090E090939A0580939905F7
:101FC0008BE792E00E94AE097AC1CE01C89624E860
:101FD00032E0B90142E050E00E94BF23009799F43B
:101FE00087E892E00E94AE0985E090E090939A0520
:101FF0008093990581E08093C70281E08093C002BD
:102000001092C2025CC1CE01C8969E01205F3F4F74
:10201000B9010E94AF23009759F486E090E09093B5
:102020009A05809399051092C2021092C00247C18E
:10203000CE01C8962DE832E0B90143E050E00E949D
:10204000BF23009761F486E090E090939A05809317
:10205000990581E08093C0021092C20230C1CE0186
:10206000C89625E532E0B90142E050E00E94BF2366
:10207000009739F484E090E090939A058093990555
:102080001EC185E090E090939A058093990581E9BF
:1020900092E00E94AE0913C184E690E00E946109BB
:1020A0008091C002882349F08091C202882329F4DC
:1020B00084E892E00E94F8097BC08091C2028823E4
:1020C00009F458C08091C002882309F053C088E900
:1020D00092E00E94AE09CE01409621E430E0FC017E
:1020E0003183208389EC92E00E943B079C01CE0162
:1020F0004096B9010E94A423CE0140969C01F901AB
:1021000001900020E9F7CF010197821B930B9E01FC
:10211000205F3F4F820F931F2FE230E0FC0131839D
:10212000208389EC92E00E94C6039C01CE01409678
:10213000B9010E94A423CE0140969C01F9010190AF
:102140000020E9F7CF010197821B930B9E01205FCE
:102150003F4F820F931F2EE230E0FC01318320833A
:1021600085EA92E00E94F80980E061E041E00E9487
:1021700072111EC08091C202882359F08091C00262
:10218000882339F084E892E00E94F8091092C20294
:102190000FC08091BE02882359F48091C002882329
:1021A00039F484E892E00E94F80981E08093C0024B
:1021B0001E821D820EC09E01285C3F4F8D819E8134
:1021C000820F931FFC0110828D819E8101969E8358
:1021D0008D832D813E8141E089819A818217930709
:1021E00008F440E0442339F71A8219821B8681E003
:1021F0008F8781E090E090939A05809399055FC066
:1022000089EC92E00E9400078E878E85882319F45E
:1022100081E08093C10286E090E090939A058093DC
:1022200099054DC010929A05109299051092C4021A
:1022300018861F820EC09E01285C3F4F8F819885B3
:10224000820F931FFC0110828F81988501969887D9
:102250008F832F81388541E089819A818217930786
:1022600008F440E0442339F72AC010929A051092EE
:1022700099051092C4021A8619860EC09E01285C28
:102280003F4F89859A85820F931FFC0110828985B3
:102290009A8501969A87898729853A8541E08981BF
:1022A0009A818217930708F440E0442339F707C066
:1022B00010929A05109299051092C4020000909114
:1022C000C40281E0992309F480E0882309F09ACDC3
:1022D000C15ADF4F0FB6F894DEBF0FBECDBFDF91FE
:1022E000CF910895CF93DF93CDB7DEB7EB970FB6BD
:1022F000F894DEBF0FBECDBF89AF6AAF4BAF89ADDB
:10230000882351F18AAD882389F089EC92E00E94FC
:102310003B079C01CE010196B9010E94B823CE0172
:1023200001960E94AE098FE20E9490098BAD88232E
:10233000E1F189EC92E00E94C6039C01CE010C966B
:10234000B9010E94B823CE010C960E94AE0987EA1B
:1023500092E00E94AE0929C08AAD882389F089ECF9
:1023600092E00E943B079C01CE014D96B9010E946C
:10237000B823CE014D960E94F8098FE20E94DA0937
:102380008BAD882391F089EC92E00E94C6039C01FA
:10239000CE018896B9010E94B823CE0188960E948A
:1023A000F80987EA92E00E94F809EB960FB6F894D4
:1023B000DEBF0FBECDBFDF91CF910895CF93DF93E6
:1023C0000F920F92CDB7DEB79A83898329813A8124
:1023D00082E396EFA5EBBAE3F90184879587A68798
:1023E000B78789819A810E94FA110F900F90DF912F
:1023F000CF910895CF93DF9300D00F92CDB7DEB782
:102400009C838B838B819C8121E0FC0120AB8B81A1
:102410009C81FC0111AA2B813C8180E090E0DC01D1
:10242000F90180839183A283B3832B813C8180E077
:1024300090E0DC01F90184839583A683B7832B8127
:102440003C8180E090E0DC01F90180879187A287E0
:10245000B3872B813C8180E090E0DC01F901808B27
:10246000918BA28BB38B8B819C81FC0117A616A646
:102470008B819C81FC01158A148A8B819C81FC01D3
:10248000178A168A8B819C81FC01118E108E1A820C
:10249000198211C089819A812B813C810D96880F08
:1024A000991F820F931FFC011182108289819A81EA
:1024B00001969A83898389819A8121E08A309105E6
:1024C0000CF020E0222331F70F900F900F900F9027
:1024D000DF91CF910895CF93DF9300D000D0CDB797
:1024E000DEB79A8389834B835C836D837E832981E6
:1024F0003A818B819C81AD81BE81F901848795876A
:10250000A687B78789819A810E94FA1126960FB60D
:10251000F894DEBF0FBECDBFDF91CF9108950F932A
:102520001F93CF93DF93CDB7DEB72A970FB6F894FA
:10253000DEBF0FBECDBF9A8389834B835C836D83DF
:102540007E8338872F831A87098729813A818B8177
:102550009C81AD81BE81F90184879587A687B78765
:1025600089819A812F813885FC01358B248B898163
:102570009A8129853A85FC01378B268B89819A813E
:102580000E94FA112A960FB6F894DEBF0FBECDBF97
:10259000DF91CF911F910F9108958F929F92AF92EB
:1025A000BF92CF92DF92EF92FF920F931F93CF9340
:1025B000DF93CDB7DEB762970FB6F894DEBF0FBEDC
:1025C000CDBF9A8389834B835C836D837E830F8326
:1025D000188729873A87CB86DC86ED86FE868F862C
:1025E000988AA98ABA8A29813A818B819C81AD8196
:1025F000BE81F90180839183A283B38329813A81CB
:102600008F819885A985BA85F90184839583A683EE
:10261000B78329813A818B859C85AD85BE85F9017B
:1026200080879187A287B38729813A818F8598898E
:10263000A989BA89F90184879587A687B78789818F
:102640009A812AA13BA1FC0137A726A789819A81FB
:102650002CA13DA1FC01318F208F89819A812EA16F
:102660003FA1FC01358B248B89819A8128A539A54E
:10267000FC01378B268B89819A8121E0FC0120ABFC
:1026800062960FB6F894DEBF0FBECDBFDF91CF913B
:102690001F910F91FF90EF90DF90CF90BF90AF9080
:1026A0009F908F900895CF93DF93CDB7DEB7289793
:1026B0000FB6F894DEBF0FBECDBF9E838D837887A3
:1026C0006F838D819E81FC0180A9882331F48D81E7
:1026D0009E81FC0181A9882341F11A82198213C0CD
:1026E00089819A812D813E810D96880F991F820FD5
:1026F000931F2F813885FC013183208389819A8142
:1027000001969A83898389819A8121E08A30910593
:102710000CF020E0222321F78D819E81FC0110AA7C
:102720008D819E81FC0111AA33C01C821B8220C0B6
:102730008B819C812B813C812F5F3F4F4D815E813E
:10274000235F3F4F220F331F240F351FF9012081D4
:1027500031814D815E810D96880F991F840F951FE1
:10276000FC01318320838B819C8101969C838B8328
:102770008B819C8121E0893091050CF020E022239F
:10278000B9F68D819E812F813885FC0135A724A75C
:102790008D819E81FC0186A597A59C012F5F3F4FEF
:1027A0008D819E81FC0137A726A78D819E81FC012A
:1027B00084819581A681B7812D813E81F90124858F
:1027C000358546855785BC01CD010E949E21DC01DF
:1027D000CB012D813E81F90184839583A683B78344
:1027E0008D819E810E945D1428960FB6F894DEBFFD
:1027F0000FBECDBFDF91CF910895CF93DF9300D06F
:102800000F92CDB7DEB79C838B838B819C8121E0B7
:10281000FC0121AB2B813C8180E090E0DC01F901DF
:1028200080879187A287B3871A82198211C0898114
:102830009A812B813C810D96880F991F820F931FDF
:10284000FC011182108289819A8101969A83898381
:1028500089819A8121E08A3091050CF020E02223C1
:1028600031F70F900F900F900F90DF91CF91089557
:10287000CF93DF9300D000D0CDB7DEB79A838983A2
:102880004B835C836D837E8389819A8121E0FC0187
:1028900020AB29813A818B819C81AD81BE81F90178
:1028A00084879587A687B78726960FB6F894DEBFEC
:1028B0000FBECDBFDF91CF910895AF92BF92CF925F
:1028C000DF92EF92FF920F931F93CF93DF9300D08D
:1028D00000D0CDB7DEB79E838D831C821B8217C0CC
:1028E0008B819C812D813E810D96880F991F820FCF
:1028F000931FFC018081918129813A81820F931F6E
:102900009A8389838B819C8101969C838B838B81A5
:102910009C8121E08A3091050CF020E0222301F710
:102920008D819E81FC0184859585A685B785BC0136
:10293000CD0120E030EA4CE057E40E94F822DC01AF
:10294000CB017C018D0189819A81CC01A0E0B0E0AE
:10295000BC01CD010E946A22DC01CB01BC01CD018A
:102960002DEB37E346E058E30E94F822DC01CB016F
:102970009C01AD01C801B7010E940222DC01CB011C
:102980002D813E81F90180879187A287B3878D8150
:102990009E81FC0126A537A58D819E81FC0146A55F
:1029A00057A581E090E0BA010E945B23AB01CA0108
:1029B000A901481B590BCA01CC01A0E0B0E0BC0141
:1029C000CD010E946A22DC01CB012D813E81F901FB
:1029D000808B918BA28BB38B8D819E81FC0180813A
:1029E0009181A281B3812D813E81F90120893189B4
:1029F00042895389BC01CD010E94F822DC01CB0140
:102A00007C018D018D819E81FC01A084B184C284F2
:102A1000D3848D819E81FC0186A597A5CC01A0E081
:102A2000B0E0BC01CD010E946A229B01AC01C6014D
:102A3000B5010E940222DC01CB019C01AD01C8015D
:102A4000B7010E949E21DC01CB012D813E81F9015D
:102A500080839183A283B38326960FB6F894DEBF5A
:102A60000FBECDBFDF91CF911F910F91FF90EF90DF
:102A7000DF90CF90BF90AF900895CF93DF930F92E8
:102A80000F92CDB7DEB79A83898389819A81FC0141
:102A900080859185A285B385BC01CD010F900F90F3
:102AA000DF91CF910895CF93DF930F920F92CDB71F
:102AB000DEB79A83898389819A81FC018081918123
:102AC000A281B381BC01CD010F900F90DF91CF9116
:102AD0000895CF93DF930F920F92CDB7DEB79A830D
:102AE000898389819A81FC0184819581A681B7813E
:102AF000BC01CD010F900F90DF91CF910895CF933E
:102B0000DF930F920F92CDB7DEB79A8389838981C5
:102B10009A81FC0184859585A685B785BC01CD0188
:102B20000F900F90DF91CF910895CF93DF930F9285
:102B30000F92CDB7DEB79A83898389819A81FC0190
:102B400086A597A50F900F90DF91CF910895CF9311
:102B5000DF9300D000D0CDB7DEB79A8389837C8322
:102B60006B835E834D8389819A81FC01808D918D79
:102B700026960FB6F894DEBF0FBECDBFDF91CF9182
:102B80000895CF93DF930F920F92CDB7DEB79A835C
:102B9000898389819A810E94D2150F900F90DF91CD
:102BA000CF910895CF93DF930F920F92CDB7DEB7F9
:102BB0009A83898329813A8180E090E0DC01F901E0
:102BC00084839583A683B78389819A81FC011586C6
:102BD000148629813A8180E090E0DC01F90180834C
:102BE0009183A283B38389819A81FC018485958531
:102BF000019729813A81F90124853585B9010E941F
:102C00005B239B01C901CC01A0E0B0E0BC01CD0178
:102C10000E946A22DC01CB0129813A81F901808777
:102C20009187A287B3870F900F90DF91CF9108957E
:102C3000CF93DF930F920F92CDB7DEB79A8389833C
:102C400029813A8180E090E0DC01F9018483958359
:102C5000A683B78389819A81FC0184859585019734
:102C600029813A81F90124853585B9010E945B23C8
:102C70009B01C901CC01A0E0B0E0BC01CD010E94E4
:102C80006A22DC01CB0129813A81F9018087918791
:102C9000A287B3870F900F90DF91CF910895CF93C4
:102CA000DF93CDB7DEB728970FB6F894DEBF0FBE1F
:102CB000CDBF9A8389834B835C836D837E83388702
:102CC0002F8329813A818B819C81AD81BE81F9015D
:102CD00080839183A283B38389819A812F813885F0
:102CE000FC013587248789819A810E9418162896CD
:102CF0000FB6F894DEBF0FBECDBFDF91CF91089520
:102D0000CF93DF9300D000D0CDB7DEB79A8389830D
:102D10004B835C836D837E8329813A818B819C8187
:102D2000AD81BE81F90180839183A283B38326960E
:102D30000FB6F894DEBF0FBECDBFDF91CF910895DF
:102D4000CF93DF9300D00F92CDB7DEB79A838983FC
:102D50007C836B8389819A812B813C81FC0135873F
:102D600024870F900F900F900F90DF91CF910895CF
:102D7000CF93DF930F920F92CDB7DEB79A838983FB
:102D800089819A81FC0184819581A681B781BC01EA
:102D9000CD010F900F90DF91CF910895CF93DF93E6
:102DA0000F920F92CDB7DEB79A83898389819A817A
:102DB000FC0180819181A281B381BC01CD010F9082
:102DC0000F90DF91CF910895CF93DF930F920F92E1
:102DD000CDB7DEB79A83898389819A81FC01848586
:102DE00095850F900F90DF91CF910895CF93DF934A
:102DF000CDB7DEB7A9970FB6F894DEBF0FBECDBF33
:102E00009DA38CA37FA36EA359A748A71A8A198AEA
:102E10001C8A1B8A1D8A1E8A1A82198268C08981AF
:102E20009A81880F991F2EA13FA1820F931FFC0149
:102E30002081318189899A8941E08217930708F0BE
:102E400040E0442379F089819A81880F991F2EA14F
:102E50003FA1820F931FFC01808191819A8B898B06
:102E600089818D8B88A599A599230CF40196959558
:102E700087959C0189819A81820F931F880F991FE2
:102E80002EA13FA1820F931FFC01208131818B89EC
:102E90009C8941E08217930708F040E0442311F138
:102EA00088A599A599230CF40196959587959C0181
:102EB00089819A81820F931F880F991F2EA13FA1AC
:102EC000820F931FFC01808191819C8B8B8B88A545
:102ED00099A599230CF4019695958795982F89814A
:102EE000890F8E8B89819A8101969A83898388A51F
:102EF00099A599230CF40196959587959C0141E03D
:102F000089819A81821793070CF040E0442309F0ED
:102F100086CF29893A898B899C892817390718F027
:102F200089899A8902C08B899C89988B8F87298986
:102F30003A898B899C892817390710F08D8901C03F
:102F40008E898D8B188E1F8A1A8E198E1B8E1C8E61
:102F50001D8E1F8E1E8E8D89282F30E088A599A585
:102F600099230CF401969595879541E02817390728
:102F70000CF040E0442309F4E3C08D89882F90E0F1
:102F80000F969F8F8E8F8E8D9F8D9C838B83CBC052
:102F90008B819C81880F991F2EA13FA1820F931FC7
:102FA000FC0180819181988F8F8B8B819C819E8386
:102FB0008D832AC08D819E81880F991F2EA13FA1EC
:102FC000820F931FFC01208131818F89988D41E010
:102FD0002817390708F440E0442389F08D819E8149
:102FE000880F991F2EA13FA1820F931F2F89388D23
:102FF000FC01318320838D819E819A8F898F8D8101
:103000009E8101969E838D838B819C819C01225E93
:103010003F4F41E08D819E81821793070CF040E085
:10302000442341F6898D9A8D0F9798878F8355C0D9
:10303000898D9A8D2F81388528173907DCF4898D81
:103040009A8D880F991F2EA13FA1820F931FFC011B
:10305000208131818F819885880F991F4EA15FA1B2
:10306000840F951FFC01808191812817390710F486
:1030700081E001C080E0882319F08C8D8F5F8C8FF8
:10308000898D9A8D2F81388528173907DCF0898D35
:103090009A8D880F991F2EA13FA1820F931FFC01CB
:1030A000208131818F819885880F991F4EA15FA162
:1030B000840F951FFC01808191812817390710F03A
:1030C00081E001C080E0882319F08B8D8F5F8B8FAA
:1030D0008F819885019698878F83898D9A8D9C0121
:1030E000215F3F4F41E08F819885281739070CF405
:1030F00040E0442309F09CCF8B8D8B3028F08C8DE1
:103100008B3010F081E001C080E0882321F081E065
:103110008D8F00000CC11C8E1B8E1D8E8B819C819F
:1031200005969C838B8341E02B813C8188A599A5E2
:10313000281739070CF040E0442309F029CFF7C0E5
:103140008D89282F30E088A599A599230CF4019644
:1031500095958795281739072CF08D8D882311F4C4
:1031600081E001C080E0882309F4E1C08D89882FC7
:1031700090E00F979F8F8E8F1C8E1B8E8E8D9F8D54
:103180009A878987CAC089859A85880F991F2EA139
:103190003FA1820F931FFC0180819181988F8F8BBB
:1031A00089859A859C878B872AC08B859C85880F0B
:1031B000991F2EA13FA1820F931FFC012081318115
:1031C0008F89988D41E02817390708F440E044239F
:1031D00089F08B859C85880F991F2EA13FA1820FB6
:1031E000931FFC0180819181988F8F8B8B859C85AB
:1031F0009A8F898F8B859C8501979C878B87898582
:103200009A859C012E51304041E08B859C85281782
:1032100039070CF040E0442341F6898D9A8D0F96D2
:103220009E878D8755C0898D9A8D2D853E8528175F
:103230003907DCF0898D9A8D880F991F2EA13FA147
:10324000820F931FFC01208131818D859E85880F1F
:10325000991F4EA15FA1840F951FFC018081918170
:103260002817390710F081E001C080E0882319F0A9
:103270008C8D8F5F8C8F898D9A8D2D853E8528173B
:103280003907DCF4898D9A8D880F991F2EA13FA1F3
:10329000820F931FFC01208131818D859E85880FCF
:1032A000991F4EA15FA1840F951FFC018081918120
:1032B0008217930710F081E001C080E0882319F0A5
:1032C0008B8D8F5F8B8F8D859E8501979E878D87D8
:1032D000898D9A8D9C012F50304041E08D859E85CF
:1032E000281739070CF040E0442309F09CCF8B8D60
:1032F0008B3028F08C8D8B3010F081E001C080E0A5
:10330000882319F081E08D8F12C01C8E1B8E1D8EBC
:1033100089859A8505979A87898721E089859A8585
:10332000181619060CF020E0222309F02CCF9D8DF1
:1033300081E0992309F480E0882309F447C08D894E
:10334000282F30E0898D9A8DA901481B590BCA019D
:1033500099231CF4909581959F4FAA2797FDA095DE
:10336000BA2FBC01CD010E946C22DC01CB01BC0153
:10337000CD012FE632E143E05CE30E94F822DC015C
:10338000CB0188A399A3AAA3BBA328A139A14AA1D1
:103390005BA160E070E080E792E40E940222DC0121
:1033A000CB012CA13DA1F90184839583A683B7832A
:1033B0008CA19DA1FC01848595859C012F5F3F4FC9
:1033C0008CA19DA1FC013587248722C0809197059F
:1033D0009091980501969093980580939705809118
:1033E00097059091980521E08430910508F420E03C
:1033F000222371F02CA13DA180E090E0DC01F901D5
:1034000084839583A683B7831092980510929705BD
:10341000A9960FB6F894DEBF0FBECDBFDF91CF9156
:103420000895CF93DF930F920F92CDB7DEB79A83B3
:10343000898389819A810E94DE1189819A81C2964D
:103440000E94C1150F900F90DF91CF910895CF93F7
:10345000DF930F920F92CDB7DEB79A83898389816C
:103460009A810E94FA1189819A81C2960E94D2158E
:103470000F900F90DF91CF910895CF93DF9300D0FD
:1034800000D0CDB7DEB79A8389834B835C836D838D
:103490007E8389819A812B813C814D815E81BA0135
:1034A000A9010E946B1226960FB6F894DEBF0FBEDC
:1034B000CDBFDF91CF9108950F931F93CF93DF93EB
:1034C000CDB7DEB72A970FB6F894DEBF0FBECDBFDB
:1034D0009A8389834B835C836D837E8338872F83B4
:1034E0001A87098789819A812B813C814D815E8170
:1034F000AF81B885E985FA85BA01A9019D018F01DF
:103500000E948F122A960FB6F894DEBF0FBECDBF71
:10351000DF91CF911F910F9108951F920F920FB6D7
:103520000F9200905B000F9211242F933F938F9383
:103530009F93EF93FF93CF93DF93CDB7DEB7F894CC
:103540008091C802882331F01092C80281E08093F4
:10355000C50202C01092C50281EC90E021EC30E07F
:10356000F90120812F77FC0120837894DF91CF919E
:10357000FF91EF919F918F913F912F910F9000922A
:103580005B000F900FBE0F901F9018951F920F9227
:103590000FB60F9200905B000F9211242F933F9370
:1035A0008F939F93EF93FF93CF93DF93CDB7DEB7C6
:1035B000F8948091C702882331F01092C70281E00D
:1035C0008093C30202C01092C30289EC90E029EC00
:1035D00030E0F90120812F77FC0120837894DF917E
:1035E000CF91FF91EF919F918F913F912F910F90EC
:1035F00000925B000F900FBE0F901F9018951F92C6
:103600000F920FB60F9200905B000F9211242F9330
:103610003F934F935F936F937F938F939F93AF935A
:10362000BF93EF93FF93CF93DF930F92CDB7DEB7A6
:10363000F8948BE091E02BE031E0F90120812860E3
:10364000FC01208381E08093C70289EC90E029ECA3
:1036500030E0F90120812068FC0120838DE390E0B7
:103660002DE330E0F90120812C7FFC0120838EECDA
:1036700090E0FC018081898388E792E00E94F8094C
:103680008BE091E02BE031E0F9012081277FFC0104
:10369000208378940F90DF91CF91FF91EF91BF91AC
:1036A000AF919F918F917F916F915F914F913F91DA
:1036B0002F910F9000925B000F900FBE0F901F9004
:1036C00018951F920F920FB60F9200905B000F9209
:1036D00011242F933F934F935F936F937F938F9317
:1036E0009F93AF93BF93EF93FF93CF93DF930F928B
:1036F000CDB7DEB7F89481E08093C80281EC90E00A
:1037000021EC30E0F90120812068FC0120838DE369
:1037100090E02DE330E0F90120812C7FFC01208333
:1037200086EC90E0FC018081898388E792E00E942A
:10373000AE0978940F90DF91CF91FF91EF91BF91F7
:10374000AF919F918F917F916F915F914F913F9139
:103750002F910F9000925B000F900FBE0F901F9063
:1037600018951F920F920FB60F9200905B000F9268
:1037700011242F933F934F935F936F937F938F9376
:103780009F93AF93BF93EF93FF93CF93DF930F92EA
:103790000F92CDB7DEB7F89484E890E0FC01808109
:1037A00091819A8389838BE091E02BE031E0F901EC
:1037B00020812064FC01208388EC90E00E94610954
:1037C00080913303882339F01092330381EF92E024
:1037D0000E94FD130DC08091310390913203298125
:1037E0003A81281B390B81EF92E0B9010E945313F3
:1037F00010923203109231038BE091E02BE031E024
:10380000F90120812F7BFC01208384E890E0FC01FA
:103810001182108278940F900F90DF91CF91FF91D9
:10382000EF91BF91AF919F918F917F916F915F9138
:103830004F913F912F910F9000925B000F900FBE20
:103840000F901F9018951F920F920FB60F92112490
:103850008F93CF93DF93CDB7DEB7F8948091BD02FD
:10386000882319F01092BD0203C081E08093BD024D
:103870007894DF91CF918F910F900FBE0F901F9092
:1038800018951F920F920FB60F9200905B000F9247
:1038900011242F933F934F935F936F937F938F9355
:1038A0009F93AF93BF93EF93FF93CF93DF930F92C9
:1038B0000F92CDB7DEB7F8941A8219820E941C21AC
:1038C0009A838983809195059091960549815A81C3
:1038D0009C01220F331F2B5C3C4FF9015183408325
:1038E000019690939605809395058091950590910A
:1038F000960521E0F1E08C329F0708F420E02223B6
:1039000069F0109296051092950583E293E025E305
:1039100033E0B9014CE251E00E94F61678940F9022
:103920000F90DF91CF91FF91EF91BF91AF919F9158
:103930008F917F916F915F914F913F912F910F9058
:1039400000925B000F900FBE0F901F9018951F9272
:103950000F920FB60F9200905B000F9211242F93DD
:103960003F934F935F936F937F938F939F93AF9307
:10397000BF93EF93FF93CF93DF93CDB7DEB7F89468
:10398000809131039091320321E08530910508F454
:1039900020E001969093320380933103222331F08B
:1039A00080913303882311F481E001C080E08823F3
:1039B00039F081E08093330381EF92E00E94FD13A0
:1039C0007894DF91CF91FF91EF91BF91AF919F914B
:1039D0008F917F916F915F914F913F912F910F90B8
:1039E00000925B000F900FBE0F901F9018951F92D2
:1039F0000F920FB60F9200905B000F9211242F933D
:103A00003F934F935F936F937F938F939F93AF9366
:103A1000BF93EF93FF93CF93DF93CDB7DEB785E2EC
:103A200090E025E230E0F901308120E22327FC011B
:103A3000208389EC92E061E070E00E94B6068091FC
:103A40008D0590918E058930910554F48091C302C3
:103A5000882321F48091C702882311F081E001C0FE
:103A600080E0882351F080918D0590918E0501961C
:103A700090938E0580938D053EC080918D05909129
:103A80008E058930910554F08091C302882321F47A
:103A90008091C702882311F081E001C080E0882373
:103AA00091F010928E0510928D051092C302109223
:103AB000C7028DE390E02DE330E0F901208123601F
:103AC000FC01208318C08091C302882369F480918F
:103AD000C702882349F480918D0590918E051816B0
:103AE000190614F481E001C080E0882321F01092CF
:103AF0008E0510928D0580918F05909190058930EB
:103B0000910554F48091C502882321F48091C80264
:103B1000882311F081E001C080E0882351F080917A
:103B20008F059091900501969093900580938F0555
:103B30003EC080918F05909190058930910554F099
:103B40008091C502882321F48091C802882311F056
:103B500081E001C080E0882391F0109290051092DE
:103B60008F051092C5021092C8028DE390E02DE3FC
:103B700030E0F90120812360FC01208318C080918E
:103B8000C502882369F48091C802882349F4809192
:103B90008F05909190051816190614F481E001C064
:103BA00080E0882321F01092900510928F0580917B
:103BB000C402882349F08091910590919205893043
:103BC000910514F481E001C080E0882351F08091D8
:103BD000910590919205019690939205809391059D
:103BE00034C08091C402882349F08091910590915E
:103BF00092058930910514F081E001C080E08823AE
:103C000081F010929205109291051092C4028DE3FA
:103C100090E02DE330E0F90120812360FC01208356
:103C200014C08091C402882349F480919105909139
:103C300092051816190614F481E001C080E088236B
:103C400021F01092920510929105DF91CF91FF9192
:103C5000EF91BF91AF919F918F917F916F915F9104
:103C60004F913F912F910F9000925B000F900FBEEC
:103C70000F901F901895CF93DF93CDB7DEB70E94BA
:103C80004E1F83E390E00E94A51F0E944D2081E01B
:103C900061E00E944D08789401C000008091C30249
:103CA000882309F18091BD028823E9F485E290E040
:103CB00025E230E0F90120812064FC0120830E948C
:103CC000280A8DE390E02DE330E0F90120812360A4
:103CD000FC01208385E290E025E230E0F9012081BB
:103CE0002F7BFC0120838091C502882339F18091CC
:103CF000BD02882319F585E290E025E230E0F90164
:103D000020812068FC0120830E94860D1092C5024C
:103D100085E290E025E230E0F90120812F77FC0177
:103D2000208382E090E00E948B208DE390E02DE3E1
:103D300030E0F90120812360FC0120838091C002E2
:103D4000882321F48091C2028823D1F18091C70297
:103D50008823B1F58091BD02882391F58BE091E035
:103D60002BE031E0F90120812062FC0120838DE30A
:103D700090E02DE330E0F90120812C7FFC012083CD
:103D800084EF91E00E9461098AEA92E00E94AE0904
:103D90000E94EF0E8BE091E02BE031E0F9012081F1
:103DA0002F7DFC01208382E090E00E948B208DE338
:103DB00090E02DE330E0F90120812360FC012083B5
:103DC0008091BE02882349F18091C702882329F59A
:103DD0008091BD02882309F58BE091E02BE031E072
:103DE000F90120812160FC01208381E090E00E94A4
:103DF0008B208BE091E02BE031E0F90120812E7FD8
:103E0000FC0120831092C70281E08093C2021092CD
:103E1000BE021092BF021092C0028091BD028823A0
:103E2000A1F1F8948BE091E02BE031E0F9012081E1
:103E30002068FC01208384EF91E00E9461098BE0FF
:103E400091E0FC01108285E290E025E230E0F9018A
:103E500020812F71FC01208388E091E028E031E08F
:103E6000F90120812E7FFC01208383E590E024E08E
:103E7000FC01208383E590E023E530E0F901208117
:103E80002160FC012083789488958091C102882369
:103E900009F403CF81E08093C002FFCECF93DF937C
:103EA000CDB7DEB784E290E0FC01108287E290E0BB
:103EB000FC0110828AE290E0FC0110828DE290E029
:103EC000FC01108280E390E0FC01108283E390E02B
:103ED000FC01108281E091E0FC01108284E091E01D
:103EE000FC01108287E091E0FC0110828AE091E001
:103EF000FC01108285E290E0FC01108288E290E0F3
:103F0000FC0110828BE290E0FC0110828EE290E0D6
:103F1000FC01108281E390E0FC01108284E390E0D8
:103F2000FC01108282E091E0FC01108285E091E0CA
:103F3000FC01108288E091E0FC0110828BE091E0AE
:103F4000FC011082DF91CF910895CF93DF930F9200
:103F50000F92CDB7DEB79A83898384EC90E02981F4
:103F6000FC01208385EC90E029813A81232F3327BF
:103F7000FC0120838CEC90E02981FC0120838DECF6
:103F800090E029813A81232F3327FC01208381ECA3
:103F900090E028E1FC01208382EC90E026E0FC0127
:103FA000208389EC90E028E1FC0120838AEC90E0FA
:103FB00026E0FC0120838AE091E02FEFFC012083C2
:103FC0008BE091E0FC01108284E290E024E230E09A
:103FD000F9012081206EFC01208385E290E025E23A
:103FE00030E0F90120812F71FC01208384E690E00C
:103FF00024E630E0F90120812D6AFC01208389E666
:1040000090E02FE0FC0120838AE690E020EFFC01A5
:1040100020838DE390E02DE330E0F90120812C7FB7
:10402000FC0120838DE390E02DE330E0F901208155
:104030002F7BFC0120838DE390E02DE330E0F9013C
:1040400020812068FC01208381E08093BC021092D3
:10405000BD021092BE021092BF021092C0021092D6
:10406000C1021092C2021092C3021092C5021092B5
:10407000C7021092C8021092C4021092C6028DE3C9
:1040800090E02DE330E0F90120812360FC012083E2
:104090000F900F90DF91CF910895CF93DF93CDB71D
:1040A000DEB784E690E024E630E0F90120812F7B42
:1040B000FC01208382E090E00E94610986EB90E0A1
:1040C00026EB30E0F90120812062FC01208381EBA6
:1040D00090E021EB30E0F90120812560FC01208394
:1040E00086EB90E0FC018081882F90E081719070D8
:1040F00021E0009709F420E0222391F787E390E084
:1041000021E0FC01208380E790E021E0FC01208396
:10411000DF91CF910895CF93DF9300D000D0CDB73A
:10412000DEB79E838D8389EC92E00E94D504882FB0
:1041300090E09A83898389819A819C018D819E81F7
:10414000820F931F2CE330E0B9010E945B239C8314
:104150008B8301C0000089EC92E00E94D504282FD7
:1041600030E08B819C8141E02817390709F440E059
:10417000442381F726960FB6F894DEBF0FBECDBF5D
:10418000DF91CF910895CF93DF93CDB7DEB784E66B
:1041900090E024E630E0F9012081277FFC012083B4
:1041A00081E890E021E830E0F90120812460FC0101
:1041B000208386E390E021E0FC01208384E890E006
:1041C000FC01118210828FE690E021E0FC01208347
:1041D0008DE390E02DE330E0F90120812064FC01C3
:1041E0002083DF91CF910895CF93DF93CDB7DEB7D2
:1041F00084E690E024E630E0F90120812F7DFC0187
:10420000208384E490E022E0FC01208385E490E0B8
:1042100024E0FC01208387E490E020E8FC01208377
:1042200086E490E0FC0110828EE690E022E0FC0142
:104230002083DF91CF910895CF93DF9300D00F9229
:10424000CDB7DEB71C821B821A8219821CC08AE796
:1042500090E02AE730E0F90120812064FC0120830E
:104260008AE790E0FC018081882F90E08074907054
:1042700021E0009709F420E0222391F789819A81B7
:1042800001969A83898321E089819A818230910500
:104290000CF020E02223D9F688E790E0FC01808131
:1042A000882F90E09C838B8389E790E0FC018081DC
:1042B000882F90E0982F88279C018B819C81822BEE
:1042C000932B9C838B838B819C810F900F900F90FD
:1042D0000F90DF91CF910895CF93DF9300D00F928D
:1042E000CDB7DEB79A8389837C836B8389819A817A
:1042F0008130910571F48B819C812FEF8F3F920764
:1043000041F489EC92E00E94500481EF92E00E9417
:10431000111A0F900F900F900F90DF91CF91089589
:10432000CF93DF93CDB7DEB781E090E06FEF7FEF03
:104330000E946C21DF91CF9108955058BB27AA2786
:104340000ED01CC10DD130F012D120F031F49F3FBE
:1043500011F41EF402C10EF4E095E7FBF8C0E92F5A
:104360001ED180F3BA17620773078407950718F008
:1043700071F49EF536C10EF4E0950B2EBA2FA02DE8
:104380000B01B90190010C01CA01A0011124FF2702
:10439000591B99F0593F50F4503E68F11A16F040FD
:1043A000A22F232F342F4427585FF3CF46953795FC
:1043B0002795A795F0405395C9F77EF41F16BA0BC1
:1043C000620B730B840BBAF09150A1F0FF0FBB1F6F
:1043D000661F771F881FC2F70EC0BA0F621F731FB8
:1043E000841F48F4879577956795B795F7959E3F15
:1043F00008F0B3CF9395880F08F09927EE0F9795A3
:10440000879508950CD0BAC0B2D040F0A9D030F052
:1044100021F45F3F19F09BC05111E4C09EC0BFD092
:1044200098F39923C9F35523B1F3951B550BBB277B
:10443000AA2762177307840738F09F5F5F4F220F28
:10444000331F441FAA1FA9F333D00E2E3AF0E0E821
:1044500030D091505040E695001CCAF729D0FE2F6D
:1044600027D0660F771F881FBB1F261737074807FF
:10447000AB07B0E809F0BB0B802DBF01FF279358B5
:104480005F4F2AF09E3F510568F061C0ABC05F3FAF
:10449000ECF3983EDCF3869577956795B795F7959D
:1044A0009F5FC9F7880F911D9695879597F9089595
:1044B000E1E0660F771F881FBB1F62177307840731
:1044C000BA0720F0621B730B840BBA0BEE1F88F740
:1044D000E0950895E89409C097FB3EF49095809587
:1044E000709561957F4F8F4F9F4F9923A9F0F92FBA
:1044F00096E9BB279395F695879577956795B79538
:10450000F111F8CFFAF4BB0F11F460FF1BC06F5F1D
:104510007F4F8F4F9F4F16C0882311F096E911C02F
:10452000772321F09EE8872F762F05C0662371F050
:1045300096E8862F70E060E02AF09A95660F771F64
:10454000881FDAF7880F9695879597F9089597F958
:104550009F6780E870E060E008959FEF80EC089529
:1045600000240A9416161706180609060895002452
:104570000A9412161306140605060895092E0394CC
:10458000000C11F4882352F0BB0F40F4BF2B11F440
:1045900060FF04C06F5F7F4F8F4F9F4F089557FD9F
:1045A0009058440F551F59F05F3F71F04795880FA1
:1045B00097FB991F61F09F3F79F087950895121638
:1045C00013061406551FF2CF4695F1DF08C01616E4
:1045D00017061806991FF1CF869571056105089495
:1045E0000895E894BB2766277727CB0197F90895AC
:1045F0000BD0C4CFB5DF28F0BADF18F0952309F04F
:10460000A6CFABCF1124EECFCADFA0F3959FD1F395
:10461000950F50E0551F629FF001729FBB27F00D70
:10462000B11D639FAA27F00DB11DAA1F649F6627C5
:10463000B00DA11D661F829F2227B00DA11D621F14
:10464000739FB00DA11D621F839FA00D611D221FCE
:10465000749F3327A00D611D231F849F600D211DB2
:10466000822F762F6A2F11249F5750408AF0E1F055
:1046700088234AF0EE0FFF1FBB1F661F771F881F9E
:1046800091505040A9F79E3F510570F060CFAACFDE
:104690005F3FECF3983EDCF3869577956795B79589
:1046A000F795E7959F5FC1F7FE2B880F911D9695B3
:1046B000879597F90895AA1BBB1B51E107C0AA1F54
:1046C000BB1FA617B70710F0A61BB70B881F991FB3
:1046D0005A95A9F780959095BC01CD01089597FB57
:1046E000092E07260AD077FD04D0E5DF06D000208A
:1046F0001AF4709561957F4F0895F6F7909581951E
:104700009F4F08950790F691E02D1994FC0188279A
:104710009927E89421912032E9F3293010F02E30C6
:10472000C8F32B3241F02D3239F4689404C00E9452
:10473000EE23820F911D219120532A30C0F31EF4E5
:10474000909581959F4F0895FB01DC010D9000200D
:10475000E9F7119701900D920020E1F70895FB0110
:10476000DC018D91019080190110D9F3990B089506
:10477000FB01DC0101900D920020E1F70895FB019F
:10478000DC014150504030F08D910190801919F4B6
:104790000020B9F7881B990B0895FB019F01E8944D
:1047A0004230C4F04532B4F44A3029F497FB1EF489
:1047B000909581959F4F642F77270E945B23805DA2
:1047C0008A330CF0895D8193CB010097A1F716F431
:1047D0005DE251931082C9010C9417247AE0979FEF
:1047E000902D879F802D910D11240895F999FECF6A
:1047F00092BD81BDF89A992780B50895A8E1B0E0EF
:1048000042E050E00C942924262FF999FECF1FBADC
:1048100092BD81BD20BD0FB6F894FA9AF99A0FBEE9
:10482000019608950E940424272F0C940524DC018E
:10483000FC01672F71917723E1F7329704C07C91D7
:104840006D9370836291AE17BF07C8F30895DC01C2
:10485000CB01FC01F999FECF06C0F2BDE1BDF89A8B
:10486000319600B40D9241505040B8F70895F89435
:02487000FFCF78
:10487200452E0054696D656F7574472D00472E00F3
:104882005761732061736B656420666F7220646187
:1048920074652E004572726F722072656365697667
:1048A200696E672D00536574207468652074696DA4
:1048B200652E004261642074696D650045786974F3
:1048C200696E672E00422E00642E00742E00622E46
:1048D20000732E0057616974696E67472E00546930
:1048E2006D656F7574472E00412E00476F7420412D
:1048F200434B2E004E2E004E6565642E004E4F2E09
:10490200004572726F722E00476976696E67207475
:10491200696D652E0053002E000053656E64696E4A
:0C4922006720746F20574156522E000091
:00000001FF
