:100000000C94F1000C9475270C94D0270C942401C7
:100010000C9424010C9424010C9419280C9462284B
:100020000C94F1280C9424010C9424010C942401C8
:100030000C9424010C9424010C9424010C94C529E3
:100040000C9424010C9424010C9424010C9424019C
:100050000C9475290C940F290C9424010C94240100
:100060000C9424010C94CA260C9424010C942401B1
:100070000C9424010C9424010C9424010C9424016C
:100080000C9424010C9424010C9424010C9424015C
:100090000C9403270C9424010C9424010C94240147
:1000A0000C9424010C9424010C9424010C9424013C
:1000B0000C9424010C9424010C9424010C9424012C
:1000C0000C9424010C9424010C9424010C943C27DE
:1000D0000C9424010C9424010C9424010C9424010C
:1000E0000C94240100407A10F35A00A0724E1809B3
:1000F0000010A5D4E80000E87648170000E40B548F
:10010000020000CA9A3B000000E1F505000080965D
:100110009800000040420F000000A086010000008F
:10012000102700000000E803000000006400000049
:1001300000000A00000000000100000000002C7612
:10014000D888DC674F0823DFC1DFAE59E1B1B7962D
:10015000E5E3E453C63AE651997696E8E6C284268A
:10016000EB898C9B62ED407C6FFCEFBC9C9F40F266
:10017000BAA56FA5F490055A2AF75C936B6CF967E2
:100180006DC11BFCE0E40D47FEF520E6B500D0EDA7
:10019000902E0300943577050080841E080000200F
:1001A0004E0A000000C80C333333330F986E1283AD
:1001B0001141EF8D2114893BE65516CFFEE6DB1881
:1001C000D1844B381BF77C1D901DA4BBE424203246
:1001D00084725E228100C9F124ECA1E53D27AD3295
:1001E000BA3211241FBECFEFD1E2DEBFCDBF00E097
:1001F0000CBF13E0A0E0B2E0EEEDF4E700E00BBFCF
:1002000002C007900D92AA31B107D9F71BBE16E0C4
:10021000AAE1B3E001C01D92A832B107E1F711E0F5
:10022000C0EED1E000E006C022970109FE010BBF3D
:100230000E940035CE3DD10780E00807A9F71BBE1C
:100240000E94022C0C945C3A0C940000CF93DF9334
:100250000F920F92CDB7DEB79A83898389819A81F5
:10026000FC011182108289819A81FC011382128221
:1002700089819A81FC01158214820F900F90DF9181
:10028000CF910895CF93DF93CDB7DEB728970FB600
:10029000F894DEBF0FBECDBF9A8389837C836B83C6
:1002A0005E834D8338872F8389819A816B817C811E
:1002B0004D815E812F8138850E94450228960FB6B8
:1002C000F894DEBF0FBECDBFDF91CF910895CF93DD
:1002D000DF930F920F92CDB7DEB79A83898389811E
:1002E0009A81FC01808191810F900F90DF91CF91D5
:1002F0000895CF93DF930F920F92CDB7DEB79A8315
:10030000898389819A81FC01848195810F900F9066
:10031000DF91CF910895CF93DF930F920F92CDB7D6
:10032000DEB79A83898389819A81FC0182819381D6
:100330000F900F90DF91CF910895CF93DF9300D06E
:100340000F92CDB7DEB79A8389837C836B838B81D1
:100350009C810C968931910538F489819A812B8191
:100360003C81FC01318320830F900F900F900F9000
:10037000DF91CF910895CF93DF9300D00F92CDB747
:10038000DEB79A8389837C836B8389819A81FC01A0
:10039000808191818930910581F089819A81FC0168
:1003A000808191818430910541F089819A81FC019D
:1003B000808191818630910541F48B819C814E969C
:1003C0008D33910510F481E001C080E0882341F075
:1003D00089819A812B813C81FC013383228328C04F
:1003E00089819A81FC01808191818230910541F45B
:1003F0008B819C814C968933910510F481E001C07A
:1004000080E0882341F089819A812B813C81FC0125
:10041000338322830DC08B819C814F968F3391054E
:1004200038F489819A812B813C81FC0133832283BA
:100430000F900F900F900F90DF91CF910895CF9371
:10044000DF9300D00F92CDB7DEB79A8389837C8388
:100450006B838B819C8127E0803D920744F08981EA
:100460009A812B813C81FC013583248307C08981DB
:100470009A8122EF33E0FC01358324830F900F90A3
:100480000F900F90DF91CF910895CF93DF93CDB769
:10049000DEB728970FB6F894DEBF0FBECDBF9A83A4
:1004A00089837C836B835E834D8338872F83898127
:1004B0009A812B813C81B9010E949D0189819A8199
:1004C0002D813E81B9010E94BB0189819A812F81D2
:1004D0003885B9010E941F0228960FB6F894DEBF36
:1004E0000FBECDBFDF91CF910895CF93DF9300D0A2
:1004F00000D0CDB7DEB79C838B837E836D838B81E9
:100500009C81FC01248135818D819E81820F931F06
:100510009A83898389819A8121E0F7E08D3D9F0745
:100520000CF420E0222339F029813A818B819C81CF
:10053000FC013583248326960FB6F894DEBF0FBEE8
:10054000CDBFDF91CF910895CF93DF93CDB7DEB7C5
:100550002A970FB6F894DEBF0FBECDBF98878F8362
:100560007A8769878F819885FC012081318189850F
:100570009A85820F931F9E838D838D819E818D30FE
:1005800091053CF08D819E818931910514F481E0C3
:1005900001C080E0882361F081E090E09A83898344
:1005A0008F81988529813A81B9010E94750222C004
:1005B0008D819E8121E0893191050CF420E0222378
:1005C00091F08D819E812CE030E0B9010E94ED34E4
:1005D0009B013C832B838F8198852B813C81B901C2
:1005E0000E94750207C02D813E818F819885FC0194
:1005F000318320832A960FB6F894DEBF0FBECDBF9D
:10060000DF91CF910895CF93DF9300D000D0CDB785
:10061000DEB79C838B837E836D838B819C81FC0101
:10062000228133818D819E81820F931F9A838983DA
:100630008B819C81FC01808191818930910581F0C1
:100640008B819C81FC01808191818430910541F0F6
:100650008B819C81FC01808191818630910511F410
:1006600081E001C080E0882331F189819A814E9632
:1006700021E08D33910508F020E0222341F029810B
:100680003A818B819C81FC013383228371C08B81F1
:100690009C8161E070E00E94A40289819A812FE12F
:1006A00030E0B9010E94ED349C018B819C81FC01FA
:1006B000338322835DC08B819C81FC018081918189
:1006C00021E08230910509F020E0222349F18B815D
:1006D0009C81FC01828193814C9621E089339105B4
:1006E00008F020E0222341F029813A818B819C810E
:1006F000FC01338322833CC08B819C8161E070E0EC
:100700000E94A40289819A812DE130E0B9010E9402
:10071000ED349C018B819C81FC013383228328C0B2
:100720008B819C81FC01828193814F9621E08F33E4
:10073000910508F020E0222341F029813A818B8144
:100740009C81FC013383228313C08B819C8161E0F7
:1007500070E00E94A40289819A8120E230E0B90110
:100760000E94ED349C018B819C81FC0133832283A8
:1007700026960FB6F894DEBF0FBECDBFDF91CF91A6
:100780000895CF93DF9300D0CDB7DEB79B838A83E4
:1007900019828A819B81FC01808191810C9621E0E4
:1007A0008931910508F020E0222309F466C08A818E
:1007B0009B81FC01808191818930910581F08A8142
:1007C0009B81FC01808191818430910541F08A8177
:1007D0009B81FC01808191818630910559F48A8149
:1007E0009B81FC01828193814E968D33910510F49B
:1007F00081E001C080E0882319F081E0898328C06E
:100800008A819B81FC01808191818230910559F41C
:100810008A819B81FC01828193814C968933910569
:1008200010F481E001C080E0882319F081E0898321
:100830000FC08A819B81FC01828193814F9621E0C8
:100840008F33910508F020E0222311F081E08983A5
:100850008981882359F08A819B81FC01848195815B
:10086000F7E08D3D9F0714F081E001C080E0882310
:1008700011F081E003C080E001C080E00F900F9094
:100880000F90DF91CF910895CF93DF93CDB7DEB76F
:100890002D970FB6F894DEBF0FBECDBF9D878C8716
:1008A0008C859D85FC01808191819E012F5F3F4F4A
:1008B000B9014AE050E00E940A378C859D85FC0111
:1008C000828193819E012C5F3F4FB9014AE050E045
:1008D0000E940A378C859D85FC01848195819E014B
:1008E000295F3F4FB9014AE050E00E940A378C85EA
:1008F0009D8506969E012F5F3F4FB9010E94F536F8
:100900008C859D859C012A5F3F4FC901AC01FA018E
:1009100001900020E9F7CF010197841B950B820F0E
:10092000931F2CE230E0FC01318320838C859D8570
:1009300006969E012C5F3F4FB9010E94E1368C85DF
:100940009D859C012A5F3F4FC901AC01FA010190CE
:100950000020E9F7CF010197841B950B820F931FAD
:100960002CE230E0FC01318320838C859D85069646
:100970009E01295F3F4FB9010E94E1368C859D851C
:10098000FC01168A8C859D8506962D960FB6F894E7
:10099000DEBF0FBECDBFDF91CF910895CF93DF9320
:1009A0000F920F92CDB7DEB79A83898389819A819E
:1009B0000E94260189819A8160E070E040E050E069
:1009C00020E030E00E9416060F900F90DF91CF914B
:1009D0000895CF93DF93CDB7DEB728970FB6F8947D
:1009E000DEBF0FBECDBF9A8389837C836B835E831A
:1009F0004D8338872F8389819A810E9426018981BE
:100A00009A816B817C814D815E812F8138850E9426
:100A1000160628960FB6F894DEBF0FBECDBFDF9145
:100A2000CF910895CF92DF92EF92FF920F931F9391
:100A3000CF93DF93CDB7DEB72E970FB6F894DEBF16
:100A40000FBECDBF9A8389837C836B835E834D8386
:100A500038872F831A870987FC86EB86DE86CD864A
:100A600089819A8169857A854B855C852D853E854E
:100A70000E94420189819A816B817C814D815E81D6
:100A80002F8138850E9416062E960FB6F894DEBF89
:100A90000FBECDBFDF91CF911F910F91FF90EF90CF
:100AA000DF90CF900895CF93DF930F920F92CDB741
:100AB000DEB79A83898389819A81FC01838D948D25
:100AC0000F900F90DF91CF910895CF93DF930F9206
:100AD0000F92CDB7DEB79A83898389819A81FC0111
:100AE000818D928D0F900F90DF91CF910895CF93CC
:100AF000DF930F920F92CDB7DEB79A8389838981F6
:100B00009A81FC018789908D0F900F90DF91CF9192
:100B10000895CF93DF93CDB7DEB7A2970FB6F894C1
:100B2000DEBF0FBECDBF98A38F8F7AA369A3CE017E
:100B30000B9629A13AA1B9010E94F5361A821982B1
:100B400043C01C821B8220C029813A81C901880FC1
:100B5000991F280F391F8B819C81820F931F9E0143
:100B6000255F3F4F820F931FFC0140819E012B5E4A
:100B70003F4F8B819C81820F931FFC0140838B81AF
:100B80009C8101969C838B8321E08B819C818230A8
:100B900091050CF020E02223B9F6CE0145960E9483
:100BA000BA369C0189819A81880F991FAE014F5FE7
:100BB0005F4F840F951F0496FC0131832083898148
:100BC0009A8101969A83898321E089819A81833071
:100BD00091050CF020E0222309F0B3CF8D819E8196
:100BE00047968F329105C0F48F819885CB968737D1
:100BF000910590F489859A85CB968737910560F4A5
:100C00006D817E814F81588529853A858F8D98A188
:100C10000E94160681E001C080E0A2960FB6F8940B
:100C2000DEBF0FBECDBFDF91CF910895CF93DF938D
:100C3000CDB7DEB728970FB6F894DEBF0FBECDBF95
:100C40009A8389837C836B835E834D8338872F836C
:100C500089819A812B813C81B9010E944606898154
:100C60009A812D813E81B9010E94640689819A8111
:100C70002F813885B9010E94820628960FB6F89414
:100C8000DEBF0FBECDBFDF91CF910895CF93DF932D
:100C900000D00F92CDB7DEB79A8389837C836B83B4
:100CA0008B819C8147968F32910538F489819A8196
:100CB0002B813C81FC01308F278B0F900F900F9080
:100CC0000F90DF91CF910895CF93DF9300D00F92D3
:100CD000CDB7DEB79A8389837C836B838B819C81BC
:100CE000CB968737910538F489819A812B813C8195
:100CF000FC01328F218F0F900F900F900F90DF919A
:100D0000CF910895CF93DF9300D00F92CDB7DEB788
:100D10009A8389837C836B838B819C81CB96873775
:100D2000910538F489819A812B813C81FC01348FB3
:100D3000238F0F900F900F900F90DF91CF91089518
:100D4000CF93DF93CDB7DEB728970FB6F894DEBF09
:100D50000FBECDBF9E838D8378876F838D819E81EB
:100D6000FC012789308D8F819885820F931F9A838C
:100D7000898389819A8128E130E0B9010E94ED34AC
:100D80009C018D819E81FC01308F278B89819A8106
:100D900021E0883191050CF420E0222391F0898133
:100DA0009A8128E130E0B9010E94ED349B01C9012C
:100DB0009C838B838D819E812B813C81B9010E9414
:100DC000030328960FB6F894DEBF0FBECDBFDF91A8
:100DD000CF910895CF93DF93CDB7DEB728970FB6A5
:100DE000F894DEBF0FBECDBF9E838D8378876F835F
:100DF0008D819E81FC01218D328D8F819885820F9E
:100E0000931F9A83898389819A812CE330E0B90109
:100E10000E94ED349C018D819E81FC01328F218FD7
:100E200089819A8121E08C3391050CF420E0222302
:100E300091F089819A812CE330E0B9010E94ED3470
:100E40009B01C9019C838B832B813C818D819E8179
:100E5000B9010E94A00628960FB6F894DEBF0FBE17
:100E6000CDBFDF91CF910895CF93DF93CDB7DEB79C
:100E700028970FB6F894DEBF0FBECDBF9E838D833B
:100E800078876F838D819E81FC01238D348D8F81C6
:100E90009885820F931F9A83898389819A812CE395
:100EA00030E0B9010E94ED349C018D819E81FC01EE
:100EB000348F238F89819A8121E08C3391050CF442
:100EC00020E0222391F089819A812CE330E0B9015E
:100ED0000E94ED349B01C9019C838B832B813C8153
:100EE0008D819E81B9010E94EA0628960FB6F8947A
:100EF000DEBF0FBECDBFDF91CF910895CF93DF93BB
:100F00000F920F92CDB7DEB79A83898389819A8138
:100F1000FC01838D948DCB9687379105A0F4898150
:100F20009A81FC01818D928DCB968737910558F47B
:100F300089819A81FC018789908D47968F3291052E
:100F400010F481E001C080E0882369F089819A81F2
:100F50000E94C103982F81E0992309F480E088233F
:100F600011F081E001C080E00F900F90DF91CF91F0
:100F70000895CF93DF93CDB7DEB72B970FB6F894D4
:100F8000DEBF0FBECDBF9B878A878A859B85FC010C
:100F90008789908D9E012F5F3F4FB9014AE050E055
:100FA0000E940A378A859B85FC01818D928D9E0166
:100FB0002C5F3F4FB9014AE050E00E940A378A8512
:100FC0009B85FC01838D948D9E01295F3F4FB90164
:100FD0004AE050E00E940A378A859B854D969E0123
:100FE0002F5F3F4FB9010E94F5368A859B859C0192
:100FF000235E3F4FC901AC01FA0101900020E9F7DF
:10100000CF010197841B950B820F931F2AE330E0D9
:10101000FC01318320838A859B854D969E012C5F40
:101020003F4FB9010E94E1368A859B859C01235E72
:101030003F4FC901AC01FA0101900020E9F7CF014F
:101040000197841B950B820F931F2AE330E0FC016C
:10105000318320838A859B854D969E01295F3F4F72
:10106000B9010E94E1368A859B85FC0110A68A851C
:101070009B854D962B960FB6F894DEBF0FBECDBF65
:10108000DF91CF910895CF93DF930F920F92CDB759
:10109000DEB79A83898329813A8182E396EFA5EBB3
:1010A000BAE3F90184879587A687B78789819A81F2
:1010B0000E945F080F900F90DF91CF910895CF931A
:1010C000DF9300D00F92CDB7DEB79C838B838B81EB
:1010D0009C8121E0FC0120AF8B819C81FC0111AE41
:1010E0002B813C8180E090E0DC01F90180839183D9
:1010F000A283B3832B813C8180E090E0DC01F90185
:1011000084839583A683B7832B813C8180E090E024
:10111000DC01F90180879187A287B3872B813C810D
:1011200080E090E0DC01F901808B918BA28BB38B86
:101130008B819C81FC0115AA14AA8B819C81FC01E6
:1011400017AA16AA8B819C81FC01158A148A8B81AF
:101150009C812DED37E0FC01378B268B8B819C81A8
:10116000FC01138E128E8B819C81FC01158E148ED6
:101170008B819C81FC01178E168E1A82198211C0F8
:101180002B813C8189819A814096880F991F820F1B
:10119000931FFC011182108289819A8101969A83A2
:1011A000898321E089819A818A3091050CF020E0C1
:1011B000222331F70F900F900F900F90DF91CF9176
:1011C0000895CF93DF9300D000D0CDB7DEB79A83D8
:1011D00089834B835C836D837E8329813A818B81F4
:1011E0009C81AD81BE81F90184879587A687B787E9
:1011F00089819A810E945F0826960FB6F894DEBF17
:101200000FBECDBFDF91CF9108950F931F93CF9362
:10121000DF93CDB7DEB72A970FB6F894DEBF0FBEC7
:10122000CDBF9A8389834B835C836D837E833887AC
:101230002F831A87098789819A810E945F0811E0AC
:101240006B817C818D819E8120E030E040E85FE30E
:101250000E942C3388230CF010E0112361F02981C7
:101260003A8182E396EFA5EBBAE3F901848795878B
:10127000A687B7870BC029813A818B819C81AD817C
:10128000BE81F90184879587A687B78789819A816E
:101290002F813885FC01358B248B89819A812985A2
:1012A0003A85FC01378B268B2A960FB6F894DEBF61
:1012B0000FBECDBFDF91CF911F910F910895CF93B6
:1012C000DF93CDB7DEB768970FB6F894DEBF0FBED9
:1012D000CDBF9A8B898B7C8B6B8B5E8B4D8B388FC4
:1012E0002F8B89899A892F89388DFC01378B268B22
:1012F0008B899C899A838983CE01059620E032E010
:101300004CE0F90100802F5F3F4FFC010082019605
:1013100041504423B1F71C821B8216C09E012B5FF3
:101320003F4F8B819C81820F931FFC018081882F0E
:1013300090E029813A81820F931F9A8389838B8160
:101340009C8101969C838B832B813C818D899E8916
:10135000019741E02817390708F040E04423F1F6EF
:1013600089899A8929813A81FC01358B248B689679
:101370000FB6F894DEBF0FBECDBFDF91CF910895B9
:101380008F929F92AF92BF92CF92DF92EF92FF9295
:101390000F931F93CF93DF93CDB7DEB762970FB64E
:1013A000F894DEBF0FBECDBF9A8389834B835C83E5
:1013B0006D837E830F83188729873A87CB86DC86E7
:1013C000ED86FE86B88AAF869A8A898A29813A8113
:1013D0008B819C81AD81BE81F90180839183A28341
:1013E000B38329813A818F819885A985BA85F901CE
:1013F00084839583A683B78329813A8180E090E036
:10140000DC01F90180879187A287B38729813A811E
:101410008B859C85AD85BE85F90184879587A687D8
:10142000B78789819A812F853889FC0135AB24AB38
:1014300089819A8129893A89FC0137AB26AB898158
:101440009A812AA13BA1FC01338F228F89819A8145
:101450002CA13DA1FC01358F248F89819A812EA179
:101460003FA1FC01378F268F89819A8128A539A554
:10147000FC01358B248B89819A812AA53BA5FC012F
:10148000378B268B89819A8121E0FC0120AF6296FF
:101490000FB6F894DEBF0FBECDBFDF91CF911F9185
:1014A0000F91FF90EF90DF90CF90BF90AF909F9003
:1014B0008F900895EF92FF920F931F93CF93DF9336
:1014C000CDB7DEB728970FB6F894DEBF0FBECDBFFD
:1014D0009E838D8378876F838D819E81FC0180AD93
:1014E000882331F48D819E81FC0181AD882341F1F7
:1014F0001A82198213C02D813E8189819A8140967A
:10150000880F991F820F931F2F813885FC0131832B
:10151000208389819A8101969A83898321E0898138
:101520009A818A3091050CF020E0222321F78D81E9
:101530009E81FC0110AE8D819E81FC0111AE31C0F7
:101540001C821B821EC08B819C8101962D813E8155
:101550004096880F991F820F931FFC0120813181D3
:101560004D815E818B819C814096880F991F840FED
:10157000951FFC01318320838B819C8101969C8384
:101580008B8321E08B819C81893091050CF020E0D8
:101590002223C9F68D819E812F813885FC0133ABD2
:1015A00022AB8D819E81FC0184A995A99C012F5FAE
:1015B0003F4F8D819E81FC0135AB24AB8D819E8197
:1015C000FC0184819581A681B7812D813E81F9013D
:1015D0002485358546855785BC01CD010E94C832DA
:1015E000DC01CB012D813E81F90184839583A683A3
:1015F000B7838D819E81FC01808D918DCC01A0E00F
:10160000B0E0BC01CD010E94C4337B018C018F810D
:101610009885CC01A0E0B0E0BC01CD010E94C433AC
:10162000DC01CB01BC01CD012DEB37E346E058E3F3
:101630000E947634DC01CB019C01AD01C801B701E9
:101640000E94C832DC01CB01BC01CD010E9498335D
:10165000DC01CB019C018D819E81FC01318F208FAB
:101660008D819E81FC01808D918D8C33910508F4D4
:1016700044C08D819E81FC01228D338D8D819E81A0
:10168000FC01808D918D4CE350E0BA010E94D93469
:10169000AB01CA01280F391F8D819E81FC01338F58
:1016A000228F8D819E81FC01828D938DF5E0803AA1
:1016B0009F0718F18D819E81FC01848D958D9C0181
:1016C0002F5F3F4F8D819E81FC01358F248F8D814F
:1016D0009E81FC01848D958DF1E08D369F0768F029
:1016E0008D819E81FC01868D978D9C012F5F3F4FE0
:1016F0008D819E81FC01378F268F8D819E81FC011B
:10170000808D918D2CE330E0B9010E94D9349C0189
:101710008D819E81FC01318F208F8D819E81FC0106
:10172000828D938D20EA35E0B9010E94D9349C0165
:101730008D819E81FC01338F228F8D819E81FC01E2
:10174000848D958D2DE631E0B9010E94D9349C013C
:101750008D819E81FC01358F248F9091230681E03D
:10176000933008F480E09F5F90932306882331F044
:101770008D819E810E94440C1092230628960FB6FC
:10178000F894DEBF0FBECDBFDF91CF911F910F91B7
:10179000FF90EF900895CF93DF9300D00F92CDB7D5
:1017A000DEB79C838B838B819C8121E0FC0121AF80
:1017B0002B813C8180E090E0DC01F90180879187FA
:1017C000A287B3871A82198211C089819A812B81DD
:1017D0003C814096880F991F820F931FFC01118254
:1017E000108289819A8101969A83898389819A815D
:1017F00021E08A3091050CF020E0222331F70F9090
:101800000F900F900F90DF91CF9108951F93CF937A
:10181000DF9300D000D0CDB7DEB79A8389834B83A6
:101820005C836D837E8311E06B817C818D819E81E1
:1018300020E030E0A9010E942C3388230CF010E056
:10184000112341F082E396EFA5EBBAE38B839C83EF
:10185000AD83BE8389819A8121E0FC0120AF29817B
:101860003A818B819C81AD81BE81F9018487958706
:10187000A687B78726960FB6F894DEBF0FBECDBFFA
:10188000DF91CF911F910895AF92BF92CF92DF92D7
:10189000EF92FF920F931F93CF93DF9300D000D06E
:1018A000CDB7DEB79E838D831A8219821C821B827C
:1018B00017C08B819C812D813E814096880F991F96
:1018C000820F931FFC018081918129813A81820FCF
:1018D000931F9A8389838B819C8101969C838B8340
:1018E0008B819C8121E08A3091050CF020E022233D
:1018F00001F78D819E81FC0184859585A685B7853C
:10190000BC01CD0120E030EA4CE057E40E9476347F
:10191000DC01CB017C018D0189819A81CC01A0E0A1
:10192000B0E0BC01CD010E94C433DC01CB01BC019D
:10193000CD012DEB37E346E058E30E947634DC011D
:10194000CB019C01AD01C801B7010E943033DC011D
:10195000CB012D813E81F90180879187A287B387D2
:101960008D819E81FC0184A995A901972D813E81DD
:10197000F90124A935A9B9010E94D9349B01C901F3
:10198000CC01A0E0B0E0BC01CD010E94C433DC0179
:10199000CB012D813E81F901808B918BA28BB38B82
:1019A0008D819E81FC0180819181A281B3812D81F5
:1019B0003E81F9012089318942895389BC01CD01D9
:1019C0000E947634DC01CB017C018D018D819E81EA
:1019D000FC01A084B184C284D3848D819E81FC01EA
:1019E00084A995A9CC01A0E0B0E0BC01CD010E9482
:1019F000C4339B01AC01C601B5010E943033DC0148
:101A0000CB019C01AD01C801B7010E94C832DC01C5
:101A1000CB012D813E81F90180839183A283B38321
:101A200026960FB6F894DEBF0FBECDBFDF91CF91E3
:101A30001F910F91FF90EF90DF90CF90BF90AF90EC
:101A40000895CF93DF930F920F92CDB7DEB79A83AD
:101A5000898389819A81FC0180859185A285B385DE
:101A6000BC01CD010F900F90DF91CF910895CF93DE
:101A7000DF930F920F92CDB7DEB79A838983898166
:101A80009A81FC0180819181A281B381BC01CD0149
:101A90000F900F90DF91CF910895CF93DF930F9226
:101AA0000F92CDB7DEB79A83898389819A81FC0131
:101AB00084819581A681B781BC01CD010F900F90E3
:101AC000DF91CF910895CF93DF930F920F92CDB70F
:101AD000DEB79A83898389819A81FC018485958503
:101AE000A685B785BC01CD010F900F90DF91CF91F6
:101AF0000895CF93DF930F920F92CDB7DEB79A83FD
:101B0000898389819A81FC0184A995A90F900F90FE
:101B1000DF91CF910895CF93DF930F920F92CDB7BE
:101B2000DEB79A83898389819A81FC0186A997A966
:101B30000F900F90DF91CF910895CF93DF930F9285
:101B40000F92CDB7DEB79A83898389819A81FC0190
:101B5000848995890F900F90DF91CF910895CF934D
:101B6000DF930F920F92CDB7DEB79A838983898175
:101B70009A81FC01868997890F900F90DF91CF9110
:101B80000895CF93DF930F920F92CDB7DEB79A836C
:101B9000898389819A81FC01828D938D0F900F90AA
:101BA000DF91CF910895CF93DF930F920F92CDB72E
:101BB000DEB79A83898389819A81FC01848D958D12
:101BC0000F900F90DF91CF910895CF93DF930F92F5
:101BD0000F92CDB7DEB79A83898389819A81FC0100
:101BE000868D978D0F900F90DF91CF910895CF93B1
:101BF000DF930F920F92CDB7DEB79A8389838981E5
:101C00009A810E94080E0F900F90DF91CF91089556
:101C1000CF93DF930F920F92CDB7DEB79A8389836C
:101C200029813A8180E090E0DC01F9018483958389
:101C3000A683B78389819A81FC01158614868981E0
:101C40009A81FC011786168629813A8180E090E00E
:101C5000DC01F90180839183A283B38389819A8116
:101C6000FC0184859585019729813A81F9012485B4
:101C70003585B9010E94D9349B01C901CC01A0E08E
:101C8000B0E0BC01CD010E94C433DC01CB0129814D
:101C90003A81F90180879187A287B3870F900F90CF
:101CA000DF91CF910895CF93DF930F920F92CDB72D
:101CB000DEB79A83898329813A8180E090E0DC0154
:101CC000F90184839583A683B78389819A81FC0176
:101CD00084859585019729813A81F9012485358587
:101CE000B9010E94D9349B01C901CC01A0E0B0E048
:101CF000BC01CD010E94C433DC01CB0129813A81B2
:101D0000F90180879187A287B3870F900F90DF91A9
:101D1000CF9108950F931F93CF93DF93CDB7DEB785
:101D20002A970FB6F894DEBF0FBECDBF9A83898382
:101D30004B835C836D837E8338872F831A87098763
:101D400029813A818B819C81AD81BE81F90180839B
:101D50009183A283B38389819A812F813885FC0185
:101D60003587248789819A8129853A85FC013787BF
:101D7000268789819A810E94530E2A960FB6F8947D
:101D8000DEBF0FBECDBFDF91CF911F910F910895A0
:101D9000CF93DF930F920F92CDB7DEB79A838983EB
:101DA00089819A81FC0184819581A681B781BC01DA
:101DB000CD010F900F90DF91CF910895CF93DF93D6
:101DC0000F920F92CDB7DEB79A83898389819A816A
:101DD000FC0180819181A281B381BC01CD010F9072
:101DE0000F90DF91CF910895CF93DF930F920F92D1
:101DF000CDB7DEB79A83898389819A81FC01848576
:101E000095850F900F90DF91CF910895CF93DF9339
:101E10000F920F92CDB7DEB79A83898389819A8119
:101E2000FC01868597850F900F90DF91CF910895E3
:101E3000AF92BF92CF92DF92EF92FF920F931F93D8
:101E4000CF93DF93CDB7DEB7A9970FB6F894DEBF77
:101E50000FBECDBF9DA38CA37FA36EA359A748A798
:101E60001E8A1D8A188E1F8A198E1A8E1A8219824E
:101E700068C089819A81880F991F2EA13FA1820F86
:101E8000931FFC01208131818D899E8941E0821759
:101E9000930708F040E0442379F089819A81880F04
:101EA000991F2EA13FA1820F931FFC018081918178
:101EB0009E8B8D8B8981898F88A599A599230CF498
:101EC0000196959587959C0189819A81820F931F30
:101ED000880F991F2EA13FA1820F931FFC01208123
:101EE00031818F89988D41E08217930708F040E097
:101EF000442311F188A599A599230CF40196959591
:101F000087959C0189819A81820F931F880F991F61
:101F10002EA13FA1820F931FFC0180819181988F98
:101F20008F8B88A599A599230CF401969595879593
:101F3000982F8981890F8A8F89819A8101969A8346
:101F4000898388A599A599230CF401969595879581
:101F50009C0141E089819A81821793070CF040E04F
:101F6000442309F086CF2D893E898F89988D2817C3
:101F7000390718F08D899E8902C08F89988D988BBA
:101F80008F872D893E898F89988D2817390710F002
:101F9000898D01C08A8D898F1C8E1B8E1E8E1D8E91
:101FA0001F8E18A219A21BA21AA2898D282F30E019
:101FB00088A599A599230CF401969595879541E0FC
:101FC000281739070CF040E0442309F4E3C0898D59
:101FD000882F90E00F969BA38AA38AA19BA19C8344
:101FE0008B83CBC08B819C81880F991F2EA13FA131
:101FF000820F931FFC01808191819C8F8B8F8B813D
:102000009C819E838D832AC08D819E81880F991F1C
:102010002EA13FA1820F931FFC01208131818B8D66
:102020009C8D41E02817390708F440E0442389F0EB
:102030008D819E81880F991F2EA13FA1820F931F32
:102040002B8D3C8DFC01318320838D819E819E8F61
:102050008D8F8D819E8101969E838D838B819C8146
:102060009C01225E3F4F41E08D819E818217930744
:102070000CF040E0442341F68D8D9E8D0F9798879C
:102080008F8355C08D8D9E8D2F81388528173907F8
:10209000DCF48D8D9E8D880F991F2EA13FA1820F9C
:1020A000931FFC01208131818F819885880F991FB2
:1020B0004EA15FA1840F951FFC018081918128179B
:1020C000390710F481E001C080E0882319F088A16D
:1020D0008F5F88A38D8D9E8D2F81388528173907B6
:1020E000DCF08D8D9E8D880F991F2EA13FA1820F50
:1020F000931FFC01208131818F819885880F991F62
:102100004EA15FA1840F951FFC018081918128174A
:10211000390710F081E001C080E0882319F08F8D2D
:102120008F5F8F8F8F819885019698878F838D8D94
:102130009E8D9C01215F3F4F41E08F81988528173C
:1021400039070CF440E0442309F09CCF8F8D8B308D
:1021500028F088A18B3010F081E001C080E0882356
:1021600021F081E089A300000CC118A21F8E19A2E2
:102170008B819C8105969C838B8341E02B813C81E4
:1021800088A599A5281739070CF040E0442309F0E9
:1021900029CFF7C0898D282F30E088A599A59923EC
:1021A0000CF4019695958795281739072CF089A18D
:1021B000882311F481E001C080E0882309F4E1C0A4
:1021C000898D882F90E00F979BA38AA318A21F8E5A
:1021D0008AA19BA19A878987CAC089859A85880F19
:1021E000991F2EA13FA1820F931FFC018081918135
:1021F0009C8F8B8F89859A859C878B872AC08B853E
:102200009C85880F991F2EA13FA1820F931FFC016F
:10221000208131818B8D9C8D41E02817390708F48E
:1022200040E0442389F08B859C85880F991F2EA15F
:102230003FA1820F931FFC01808191819C8F8B8F26
:102240008B859C859E8F8D8F8B859C8501979C8728
:102250008B8789859A859C012E51304041E08B8582
:102260009C85281739070CF040E0442341F68D8DFA
:102270009E8D0F969E878D8755C08D8D9E8D2D8549
:102280003E8528173907DCF08D8D9E8D880F991FAC
:102290002EA13FA1820F931FFC01208131818D85EA
:1022A0009E85880F991F4EA15FA1840F951FFC0189
:1022B000808191812817390710F081E001C080E00A
:1022C000882319F088A18F5F88A38D8D9E8D2D8521
:1022D0003E8528173907DCF48D8D9E8D880F991F58
:1022E0002EA13FA1820F931FFC01208131818D859A
:1022F0009E85880F991F4EA15FA1840F951FFC0139
:10230000808191818217930710F081E001C080E005
:10231000882319F08F8D8F5F8F8F8D859E85019714
:102320009E878D878D8D9E8D9C012F50304041E082
:102330008D859E85281739070CF040E0442309F06D
:102340009CCF8F8D8B3028F088A18B3010F081E0EE
:1023500001C080E0882319F081E089A312C018A28F
:102360001F8E19A289859A8505979A87898721E00A
:1023700089859A85181619060CF020E0222309F0A9
:102380002CCF99A181E0992309F480E0882309F4F6
:10239000B5C0898D282F30E08D8D9E8DA901481BF9
:1023A000590BCA0199231CF4909581959F4FAA2738
:1023B00097FDA095BA2FBC01CD010E94C633DC0168
:1023C000CB01BC01CD012FE632E143E05CE30E948A
:1023D0007634DC01CB01898B9A8BAB8BBC8B60E0B4
:1023E00070E080E792E429893A894B895C890E94F0
:1023F0003033DC01CB012CA13DA1F901848395830D
:10240000A683B7838CA19DA1FC01848595859C0141
:102410002F5F3F4F8CA19DA1FC01358724878CA1A4
:102420009DA1FC0184859585FFEF8E3F9F0729F4D0
:102430008CA19DA1FC01158614868CA19DA1FC0197
:102440008485958501972CA13DA1F90124853585C9
:10245000B9010E94D9349B01C901CC01A0E0B0E0D0
:10246000BC01CD010E94C433DC01CB012CA13DA1F4
:10247000F90180879187A287B3878CA19DA1FC0178
:1024800080819181A281B3812CA13DA1F901208598
:10249000318542855385BC01CD010E947634DC0133
:1024A000CB017C018D018CA19DA1FC01A480B58094
:1024B000C680D7808CA19DA1FC0184859585CC0127
:1024C000A0E0B0E0BC01CD010E94C4339B01AC018F
:1024D000C601B5010E943033DC01CB019C01AD0186
:1024E000C801B7010E94C832DC01CB012CA13DA17B
:1024F000F90180839183A283B38322C08091210656
:102500009091220601969093220680932106809155
:1025100021069091220621E08430910508F420E004
:10252000222371F02CA13DA180E090E0DC01F901B3
:1025300084839583A683B783109222061092210686
:10254000A9960FB6F894DEBF0FBECDBFDF91CF9135
:102550001F910F91FF90EF90DF90CF90BF90AF90C1
:102560000895CF93DF930F920F92CDB7DEB79A8382
:10257000898389819A810E94430889819A81CA96B8
:102580000E94F70D0E94AA3624E630E0B9010E94AD
:10259000ED3401969C0189819A81865B9F4FFC01F5
:1025A000318320830F900F90DF91CF910895CF93C7
:1025B000DF930F920F92CDB7DEB79A83898389811B
:1025C0009A810E945F0889819A81CA960E94080EAA
:1025D0000F900F90DF91CF910895CF93DF9300D0AC
:1025E00000D0CDB7DEB79A8389834B835C836D833C
:1025F0007E8389819A812B813C814D815E81BA01E4
:10260000A9010E94E10889819A81CA960E94080E58
:1026100026960FB6F894DEBF0FBECDBFDF91CF91E7
:1026200008950F931F93CF93DF93CDB7DEB72A970B
:102630000FB6F894DEBF0FBECDBF9A8389834B835C
:102640005C836D837E8338872F831A87098789810E
:102650009A812B813C814D815E81AF81B885E9856E
:10266000FA85BA01A9019D018F010E94050989819E
:102670009A81CA960E94080E2A960FB6F894DEBF79
:102680000FBECDBFDF91CF911F910F910895CF93D2
:10269000DF93CDB7DEB7A4970FB6F894DEBF0FBEB9
:1026A000CDBF8CA38CA1882F90E00197982F82E258
:1026B000989F802D11248C5E89838981882F90E0DA
:1026C0000E945137DC01CB018A839B83AC83BD839D
:1026D0008981882F90E004960E945137DC01CB015C
:1026E0008E839F83A887B9878981882F90E0089679
:1026F0000E945137DC01CB018A879B87AC87BD875D
:102700008981882F90E00C960E9457379F878E878B
:102710008981882F90E00E960E945737998B888B7D
:102720008981882F90E040960E9457379B8B8A8B37
:102730008981882F90E042960E9457379D8B8C8B21
:102740008981882F90E044960E9457379F8B8E8B0B
:102750008981882F90E046960E945737998F888FFD
:102760008981882F90E048960E9457379B8F8A8FE7
:102770008981882F90E04A960E9457379D8F8C8FD1
:102780008981882F90E04C960E9457379F8F8E8FBB
:102790008981882F90E04E960E945137DC01CB0151
:1027A00088A399A3AAA3BBA39CA182E2989F802D92
:1027B0001124805389838981882F90E02A813B816D
:1027C0004C815D81BA01A9010E946F378981882FF0
:1027D00090E004962E813F8148855985BA01A90170
:1027E0000E946F378981882F90E008962A853B8563
:1027F0004C855D85BA01A9010E946F378981882FB8
:1028000090E00C962E853F85B9010E947B37898127
:10281000882F90E00E9628893989B9010E947B376C
:102820008981882F90E040962A893B89B9010E94CE
:102830007B378981882F90E042962C893D89B901A8
:102840000E947B378981882F90E044962E893F89AA
:10285000B9010E947B378981882F90E04696288DA8
:10286000398DB9010E947B378981882F90E0489685
:102870002A8D3B8DB9010E947B378981882F90E09A
:102880004A962C8D3D8DB9010E947B378981882F16
:1028900090E04C962E8D3F8DB9010E947B37898147
:1028A000882F90E04E9628A139A14AA15BA1BA01D8
:1028B000A9010E946F37A4960FB6F894DEBF0FBE31
:1028C000CDBFDF91CF910895CF93DF9300D00F92CA
:1028D000CDB7DEB78C8388E090E00E9449378B83C8
:1028E0008C81882F90E001969A83898308C0898122
:1028F0000E94471389819A8101969A8389838B81EB
:10290000282F30E041E089819A81281739070CF49B
:1029100040E0442361F78B8181508B8388E090E015
:102920006B810E9481370F900F900F900F90DF9175
:10293000CF9108950F931F93CF93DF9300D0CDB71E
:10294000DEB788E090E00E944937898389818F5FF4
:1029500089838981882F90E00197880F991F9C01B6
:1029600022953295307F3227207F3227820F931FA6
:1029700044969B838A8388E090E069810E945D375A
:1029800087E090E061E00E945D370A811B818DE560
:1029900093E00E94370D9B01AC01C801BA01A90167
:1029A0000E946F378A819B8104968C0187E993E0AE
:1029B0000E94DE0E9B01AC01C801BA01A9010E9470
:1029C0006F378A819B8108968C018DE593E00E9488
:1029D0004D0D9B01AC01C801BA01A9010E946F37DE
:1029E0008A819B810C968C018DE593E00E949D0D60
:1029F0009C01C801B9010E947B378A819B810E9698
:102A00008C018DE593E00E94AF0D9C01C801B901D6
:102A10000E947B378A819B8140968C018DE593E0F3
:102A20000E94C10D9C01C801B9010E947B378A81B7
:102A30009B8142968C018DE593E00E94D30D9C0111
:102A4000C801B9010E947B378A819B8144968C0121
:102A50008DE593E00E94E50D9C01C801B9010E943B
:102A60007B378A819B8146968C018DE593E00E949D
:102A7000790D9C01C801B9010E947B378A819B8135
:102A800048968C018DE593E00E948B0D9C01C80156
:102A9000B9010E947B378A819B814A968C0187E924
:102AA00093E00E94F40E9C01C801B9010E947B379B
:102AB0008A819B814C968C0187E993E00E94060FE6
:102AC0009C01C801B9010E947B378A819B814E9687
:102AD0008C018DE593E00E94630D9B01AC01C80160
:102AE000BA01A9010E946F370F900F900F90DF91EC
:102AF000CF911F910F9108950F931F93CF93DF9361
:102B0000CDB7DEB769970FB6F894DEBF0FBECDBF65
:102B100088E090E00E94493789878985882F90E076
:102B20000197880F991F9C0122953295307F32279B
:102B3000207F3227820F931F44969B878A87CE017E
:102B40000E9620E032E04CE0F90100802F5F3F4F0D
:102B5000FC010082019641504423B1F71A82198288
:102B60001D861C8685E393E00E948B01882F90E0F0
:102B70009A83898385E393E00E946701882F90E020
:102B80009D878C871C821B8216C09E01225F3F4F4F
:102B90008B819C81820F931FFC018081882F90E0A4
:102BA00029813A81820F931F9A8389838B819C812B
:102BB00001969C838B832B813C818C859D8501971D
:102BC00041E02817390708F040E04423F1F68985F1
:102BD000823060F08A859B854E960E945137DC01D9
:102BE000CB018D839E83AF83B88707C080E090E0E0
:102BF000DC018D839E83AF83B88785E393E00E94D9
:102C00007901FC018DE593E02D813E814F8158854E
:102C1000A981BA81BA01A9019D018F010E941113F6
:102C200087E090E060E00E945D3769960FB6F89407
:102C3000DEBF0FBECDBFDF91CF911F910F910895E1
:102C4000CF93DF93CDB7DEB70E949A1487E090E070
:102C500060E00E945D37DF91CF9108958F929F923F
:102C6000AF92BF92CF92DF92EF92FF920F931F939A
:102C7000CF93DF93CDB7DEB7A7970FB6F894DEBF3B
:102C80000FBECDBF88E090E00E94493789838981DB
:102C9000882F90E00197880F991F9C01229532950B
:102CA000307F3227207F3227820F931F44969B83E9
:102CB0008A838A819B810E945137DC01CB018C83FE
:102CC0009D83AE83BF838A819B8104960E94513786
:102CD000DC01CB0188879987AA87BB878A819B8182
:102CE00008960E945137DC01CB018C879D87AE8707
:102CF000BF878A819B810C960E945737998B888B5E
:102D00008A819B810E960E9457379B8B8A8B8A8182
:102D10009B8140960E9457379D8B8C8B8A819B812B
:102D200042960E9457379F8B8E8B8A819B81449657
:102D30000E945737998F888F8A819B8146960E947F
:102D400057379B8F8A8F8A819B8148960E9457377D
:102D50009D8F8C8F8A819B814A960E9457379F8FC7
:102D60008E8F8A819B814C960E94573799A388A3A6
:102D70008A819B814E960E945137DC01CB018AA348
:102D80009BA3ACA3BDA38DB79EB70A970FB6F894CB
:102D90009EBF0FBE8DBF8DB79EB701960F2EFDE56E
:102DA000AF2EF3E0BF2EF02D4C815D816E817F81CF
:102DB0000C851D852E853F85CAA0DBA0ECA0FDA05B
:102DC000AA8DBB8DEC8DFD8DFFA3EEA38C889D8815
:102DD000FC01918280828E889F88FC01938282828E
:102DE000888C998CFC019582848288889988FC0162
:102DF000978286828A889B88FC0191868086C5019D
:102E00005D018EA09FA00E94C0098DB79EB70A9653
:102E10000FB6F8949EBF0FBE8DBF87E993E028855B
:102E200039854A855B85AE8DBF8DE8A1F9A1BA01D0
:102E3000A9019D018F010E948A0EA7960FB6F894F2
:102E4000DEBF0FBECDBFDF91CF911F910F91FF90DD
:102E5000EF90DF90CF90BF90AF909F908F900895AC
:102E6000CF93DF930F92CDB7DEB787E090E00E945B
:102E7000493789838981882321F00E947C1581E06C
:102E800003C00E942E1680E00F90DF91CF9108952D
:102E9000CF93DF93CDB7DEB72F970FB6F894DEBF91
:102EA0000FBECDBF8E876F87F8948E85882309F477
:102EB0004BC01A82198281E08B832CC082E090E0A3
:102EC0000E9449378F8381E090E00E9449378887CC
:102ED00080E090E00E94493789878F818C33A8F485
:102EE00088858C3390F48985883178F48985682FBA
:102EF00070E08885482F50E08F81282F30E085E3EF
:102F000093E00E9416061B8205C089819A81019672
:102F10009A8389838B81882339F089819A818330D0
:102F2000910514F481E001C080E0882339F68B819B
:102F3000882351F085E393E061E070E041E050E0E8
:102F400021E030E00E9416068F85882309F44EC0E8
:102F50001D821C8281E08E832FC084E090E00E945D
:102F600049378A8783E090E00E9449378B8785E064
:102F700090E00E9457379D878C878A858F31B8F4FF
:102F80008B858D30A0F48C859D8527E2803192075A
:102F900070F48B85682F70E08A85482F50E02C856F
:102FA0003D8585E393E00E9445021E8205C08C8129
:102FB0009D8101969D838C838E81882339F08C813D
:102FC0009D818330910514F481E001C080E0882365
:102FD00021F68E81882351F085E393E061E070E073
:102FE00041E050E021ED37E00E94450278942F96B1
:102FF0000FB6F894DEBF0FBECDBFDF91CF9108951D
:10300000CF93DF93CDB7DEB729970FB6F894DEBF25
:103010000FBECDBF88876987F89488858823F1F033
:1030200085E393E00E947705898385E393E00E941E
:1030300065058A8385E393E00E9453058B8382E0D4
:1030400090E06B810E945D3781E090E06A810E9490
:103050005D3780E090E069810E945D378985882333
:1030600009F185E393E00E9479019D838C8385E3D8
:1030700093E00E9467018E8385E393E00E948B01B9
:103080008F8385E090E02C813D81B9010E947B37E0
:1030900083E090E06E810E945D3784E090E06F8174
:1030A0000E945D37789429960FB6F894DEBF0FBE64
:1030B000CDBFDF91CF910895CF93DF9300D000D0A3
:1030C000CDB7DEB79E838D8385E393E00E945305E1
:1030D000882F90E09A83898389819A819C018D81D0
:1030E0009E81820F931F2CE330E0B9010E94D934F6
:1030F0009C838B8301C0000085E393E00E9453050D
:10310000282F30E08B819C8141E02817390709F492
:1031100040E0442381F726960FB6F894DEBF0FBE39
:10312000CDBFDF91CF910895CF93DF9300D00F9261
:10313000CDB7DEB79C838B8317C01A82198206C075
:10314000000089819A8101969A83898389819A8175
:1031500021E0883C91050CF020E0222389F78B8147
:103160009C8101979C838B8321E08B819C810097BC
:1031700009F420E0222309F70F900F900F900F9091
:10318000DF91CF910895CF93DF930F92CDB7DEB744
:103190008983000080EC90E0FC018081882F90E022
:1031A0008072907021E0009709F020E0222391F7CF
:1031B00086EC90E02981FC0120830F90DF91CF9174
:1031C0000895CF93DF9300D0CDB7DEB79B838A837A
:1031D00019820EC08981882F90E02A813B81820F5D
:1031E000931FFC01808199819F5F99830E94C3187E
:1031F0008981882F90E02A813B81820F931FFC01F7
:10320000908181E0992309F480E0882319F70F90D9
:103210000F900F90DF91CF910895CF93DF930F928E
:10322000CDB7DEB78983000080ED90E0FC0180819E
:10323000882F90E08072907021E0009709F020E0E4
:10324000222391F786EC90E02981FC0120830F90E6
:10325000DF91CF910895CF93DF9300D0CDB7DEB744
:103260009B838A8319820EC08981882F90E02A81EE
:103270003B81820F931FFC01808199819F5F99831D
:103280000E940D198981882F90E02A813B81820F4D
:10329000931FFC01908181E0992309F480E0882349
:1032A00019F70F900F900F90DF91CF910895CF9362
:1032B000DF930F92CDB7DEB78983000088EC90E0F2
:1032C000FC018081882F90E08072907021E000974F
:1032D00009F020E0222391F78EEC90E02981FC0197
:1032E00020830F90DF91CF910895CF93DF9300D08B
:1032F000CDB7DEB79B838A83198212C08EE591E039
:103300000E9494188981882F90E02A813B81820F46
:10331000931FFC01808199819F5F99830E945719B7
:103320008981882F90E02A813B81820F931FFC01C5
:10333000908181E0992309F480E08823F9F60F90C9
:103340000F900F90DF91CF910895CF93DF93CDB77A
:10335000DEB7C155D0400FB6F894DEBF0FBECDBF6B
:10336000789419821A8281E08B832DC38981882FFA
:1033700090E08230910509F49CC0833091053CF4C3
:10338000009791F08130910509F485C017C384300E
:10339000910509F4CDC2843091050CF4D8C0853074
:1033A000910509F4E6C20AC31A828EEC90E0FC0192
:1033B0008081888F888D8E3239F48CE092E00E9473
:1033C000751984E08983FFC28A81882F90E09E016D
:1033D000265D3F4F820F931F288DFC0120838A8139
:1033E0008F5F8A8381E08983EEC2000088EC90E0E1
:1033F000FC018081882334F080912103882311F01F
:1034000081E001C080E0882389F782E390E00E9498
:10341000941880912103882359F48FE092E00E9450
:10342000E118CE018A960E94E11819820000CBC2F1
:103430008EEC90E0FC018081888F8A81882F90E05B
:103440009E01265D3F4F820F931F288DFC01208334
:103450008A818F5F8A83888D8E3219F0888D8823C8
:1034600071F48A81882F90E09E01265D3F4F820F84
:10347000931FFC0110821B8282E089830CC08A8129
:10348000873248F01A821B82109221038CE092E06E
:103490000E94751919828B81882331F08091210354
:1034A000882311F081E001C080E0882309F09DCFDE
:1034B0008AC2CE018A962AE132E0B90143E050E0A7
:1034C0000E94FC36009799F484E089838AE192E0B7
:1034D0000E94751981E080931C0380911D0388234D
:1034E00009F470C210921D03109220036BC28CA5C8
:1034F00091E08A3309F090E02DA581E02A3309F0AC
:1035000080E08927882319F083E089835BC2CE019C
:103510008A962DE132E0B90142E050E00E94FC368B
:10352000009771F481E080931C03CE018A960E947B
:10353000751980E292E00E94E11884E0898342C21A
:103540008CE092E00E94751984E089833BC21C8262
:103550001D8281E090E09F838E831A8E198E1C8ECF
:103560001B8E1E8E1D8E18A21F8E1AA219A21CA2BF
:103570001BA2198618861B861A861D861C8673C098
:103580009E01265D3F4F8E819F81820F931FFC011C
:1035900080818A33E9F08A859B8583309105C4F464
:1035A0009E01265D3F4F8E819F81820F931FFC01FC
:1035B00040819E012B5D3F4F8C859D85820F931F1F
:1035C000FC0140838C859D8501969D878C8746C034
:1035D0008A859B85823091050CF040C09E01265D56
:1035E0003F4F8E819F81820F931FFC0180818A3320
:1035F000A9F5CE0185960E94BA369C018A859B85E5
:10360000880F991FAE014F5F5F4F840F951F48963B
:10361000FC01318320838A859B8501969B878A875D
:103620001F861E860EC09E012B5D3F4F8E859F8597
:10363000820F931FFC0110828E859F8501969F87C4
:103640008E8741E02E853F858C859D858217930767
:103650000CF440E0442339F71D861C868E819F813F
:1036600001969F838E839E01265D3F4F8E819F81B1
:10367000820F931FFC0180818F3269F09E01265DCD
:103680003F4F8E819F81820F931FFC018081882391
:1036900011F081E001C080E0882309F071CF9E0124
:1036A000265D3F4F8E819F81820F931FFC01808199
:1036B0008F32A9F4CE0185960E94BA369C018A8584
:1036C0009B85880F991FAE014F5F5F4F840F951F39
:1036D0004896FC013183208381E08C8302C085E021
:1036E0008983198A188A0EC09E012B5D3F4F8889F5
:1036F0009989820F931FFC0110828889998901960C
:10370000998B888B41E0288939898C859D85821722
:1037100093070CF440E0442339F71D861C868E8104
:103720009F8101969F838E8373C09E01265D3F4FCC
:103730008E819F81820F931FFC0180818C32E9F082
:103740008885998583309105C4F49E01265D3F4F9D
:103750008E819F81820F931FFC0140819E012B5D12
:103760003F4F8C859D85820F931FFC0140838C8584
:103770009D8501969D878C8746C088859985823076
:1037800091050CF040C09E01265D3F4F8E819F81C8
:10379000820F931FFC0180818C32A9F5CE018596A2
:1037A0000E94BA369C0188859985880F991FAE01C1
:1037B0004F5F5F4F840F951F4E96FC01318320832E
:1037C000888599850196998788871B8A1A8A0EC0F1
:1037D0009E012B5D3F4F8A899B89820F931FFC01BD
:1037E00010828A899B8901969B8B8A8B41E02A896A
:1037F0003B898C859D85821793070CF440E0442318
:1038000039F71D861C868E819F8101969F838E834A
:103810009E01265D3F4F8E819F81820F931FFC0189
:1038200080818E32A9F09E01265D3F4F8E819F815F
:10383000820F931FFC018081882351F08A81282FF9
:1038400030E08E819F812817390711F081E001C097
:1038500080E0882309F069CF9E01265D3F4F8E816D
:103860009F81820F931FFC0180818E32A9F4CE01CB
:1038700085960E94BA369C0188859985880F991F84
:10388000AE014F5F5F4F840F951F4E96FC01318351
:10389000208381E08D8302C085E089838D81882328
:1038A00009F43EC08C818823D9F1698D7A8D4B8DC6
:1038B0005C8D2D8D3E8D85E393E00E9416066F8D05
:1038C00078A149A15AA12BA13CA185E393E00E94D4
:1038D000450281E061E00E94001810921C0381E023
:1038E00080931D0310921E0380912903882379F091
:1038F000109229038F8D98A1BC0189A19AA1AC01D6
:103900008BA19CA19C018DE593E00E945F0981E45D
:103910008AA7CE018A960E94751984E0898353C0D4
:1039200081E080931C0310921D0385E089834BC0C6
:103930001982109221031D8A1C8A0EC09E01265DE9
:103940003F4F8C899D89820F931FFC0110828C89C7
:103950009D8901969D8B8C8B8A81282F30E041E0D8
:103960008C899D89281739070CF440E0442331F7EE
:103970002AC086E492E00E947519109221031F8AE2
:103980001E8A0EC09E01265D3F4F8E899F89820F41
:10399000931FFC0110828E899F8901969F8B8E8BCD
:1039A0008A81282F30E041E08E899F8928173907C6
:1039B0000CF440E0442331F7198205C019821092BB
:1039C000210301C000009091210381E0992309F4B3
:1039D00080E0882309F0CACCCF5ADF4F0FB6F894A5
:1039E000DEBF0FBECDBFDF91CF910895CF93DF93A0
:1039F000CDB7DEB7CD55D0400FB6F894DEBF0FBEC1
:103A0000CDBF19821A8281E08B8381E080932203EB
:103A100009C28981882F90E08330910509F403C1A0
:103A2000843091055CF48130910509F484C08230C2
:103A300091050CF08EC0009771F0F0C185309105B2
:103A400009F4AAC1853091050CF498C1863091051E
:103A500009F4C3C1E3C188E091E028E031E0F90155
:103A600020812068FC0120831D821C8206C000008A
:103A70008C819D8101969D838C8321E08C819D8129
:103A8000823091050CF020E0222389F788E091E054
:103A900028E031E0F90120812F77FC01208381E0CB
:103AA0008983C0C182E390E00E949418000088ECF2
:103AB00090E0FC018081882334F0809122038823E8
:103AC00011F081E001C080E0882389F78091220312
:103AD000882319F419820000A5C18EEC90E0FC0146
:103AE00080818C878A81882F90E09E012A5C3F4FDD
:103AF000820F931F2C85FC0120838A818F5F8A832C
:103B00008C858E3219F08C85882371F48A81882FF8
:103B100090E09E012A5C3F4F820F931FFC011082B0
:103B20001B8282E0898307C08A81873220F01A8253
:103B30001B8285E089838B81882331F08091220369
:103B4000882311F081E001C080E0882309F0AACF2A
:103B500069C1CE01C69629E432E0B90142E050E0E5
:103B60000E94FC36009719F483E089835BC1CE0183
:103B7000C6962CE432E0B90142E050E00E94FC36E7
:103B8000009751F486E0898381E0809326031092A8
:103B90001E031092200346C1CE01C6969E01225FED
:103BA0003F4FB9010E94EC36009739F486E08983D3
:103BB0001092200310921E0335C1CE01C6962FE449
:103BC00032E0B90143E050E00E94FC36009739F43E
:103BD00086E0898310921E031092200323C1CE0138
:103BE000C69626E432E0B90142E050E00E94FC367D
:103BF000009719F484E0898315C1CE01C6962DE1A2
:103C000032E0B90142E050E00E94FC36009741F4F6
:103C100086E089831092200381E080931E0302C115
:103C200085E08983FFC084E690E00E94941880912B
:103C30001E03882349F080912003882329F48CE413
:103C400092E00E94751976C080912003882309F4C0
:103C500053C080911E03882309F04EC0CE010E96FA
:103C600021E430E0FC013183208385E393E00E946E
:103C7000B9079C01CE010E96B9010E94E136CE0132
:103C80000E969C01F90101900020E9F7CF01019700
:103C9000821B930B9E01225F3F4F820F931F2FE2E7
:103CA00030E0FC013183208385E393E00E944404EB
:103CB0009C01CE010E96B9010E94E136CE010E960E
:103CC0009C01F90101900020E9F7CF010197821BC7
:103CD000930B9E01225F3F4F820F931F2EE230E035
:103CE000FC013183208383E50E94C31880E061E0FA
:103CF00041E00E9443261EC080912003882359F092
:103D000080911E03882339F08CE092E00E9475199F
:103D1000109220030FC080912003882359F48091D2
:103D20001E03882339F48CE492E00E94751981E027
:103D300080931E031F821E820EC09E012A5C3F4F8D
:103D40008E819F81820F931FFC0110828E819F8143
:103D500001969F838E838A81282F30E041E08E81F7
:103D60009F81281739070CF440E0442331F71A8269
:103D70001C8681E08B8381E0898354C085E393E0D6
:103D80000E947E078D878D85882319F481E08093BA
:103D90001F0386E0898346C0198210922203198688
:103DA00018860EC09E012A5C3F4F88859985820F38
:103DB000931FFC01108288859985019699878887D1
:103DC0008A81282F30E041E08885998528173907B6
:103DD0000CF440E0442331F725C0198210922203ED
:103DE0001B861A860EC09E012A5C3F4F8A859B85E2
:103DF000820F931FFC0110828A859B8501969B8709
:103E00008A878A81282F30E041E08A859B852817A0
:103E100039070CF440E0442331F704C019821092B2
:103E2000220300009091220381E0992309F480E0AD
:103E3000882309F0EECDC35ADF4F0FB6F894DEBFEA
:103E40000FBECDBFDF91CF910895CF93DF93CDB754
:103E5000DEB7E0970FB6F894DEBF0FBECDBF198274
:103E60001A8281E08B8324C18A81882F90E082307E
:103E7000910509F481C0833091053CF4009771F0FD
:103E80008130910509F468C00FC18330910509F4B0
:103E9000C5C08430910509F4E6C006C1198286ECDC
:103EA00090E0FC018081888788858E3219F483E058
:103EB0008A83FEC08981882F90E09E01275F3F4F53
:103EC000820F931F2885FC01208389818F5F89835E
:103ED00081E08A83EDC0000080EC90E0FC018081ED
:103EE000882334F080912403882311F081E001C0FD
:103EF00080E0882389F7809123038823D9F186EC19
:103F000090E0FC01808188878981882F90E09E0164
:103F1000275F3F4F820F931F2885FC0120838981F3
:103F20008F5F898388858E3219F08885882371F4A4
:103F30008981882F90E09E01275F3F4F820F931F5A
:103F4000FC0110821B8282E08A8306C0898187324D
:103F500018F083E08A831B828B81882331F0809163
:103F60002403882311F081E001C080E0882309F058
:103F7000B2CF9EC000009CC0CE01099623E532E07E
:103F8000B90142E050E00E94FC36009741F481E024
:103F900060E041E00E94432684E08A8389C0CE012C
:103FA000099626E532E0B90142E050E00E94FC3675
:103FB000009741F481E061E040E00E94432684E004
:103FC0008A8376C0CE01099629E532E0B90142E044
:103FD00050E00E94FC36009741F481E061E041E04E
:103FE0000E94432684E08A8363C0CE0109962CE5B3
:103FF00032E0B90142E050E00E94FC36009759F4EB
:1040000081E060E00E940018CE0109960E94E1184C
:1040100084E08A834DC083E08A834AC084E690E0CE
:104020000E949418109224031D821C820EC09E01CF
:10403000275F3F4F8C819D81820F931FFC0110826F
:104040008C819D8101969D838C838981282F30E00E
:1040500041E08C819D81821793070CF040E044235E
:1040600031F71A8225C0109224031F821E820EC0CF
:104070009E01275F3F4F8E819F81820F931FFC011E
:1040800010828E819F8101969F838E838981282F44
:1040900030E041E08E819F81821793070CF040E071
:1040A000442331F71A8204C0109224031A820000BC
:1040B0009091240381E0992309F480E0882309F09A
:1040C000D3CEE0960FB6F894DEBF0FBECDBFDF9122
:1040D000CF9108950F931F93CF93DF93CDB7DEB7A2
:1040E000E7970FB6F894DEBF0FBECDBF19821A82D4
:1040F00081E08B831A8636C18981882F90E08330D6
:10410000910509F4ACC0843091055CF481309105CF
:1041100009F472C0823091050CF07EC0009771F0F6
:104120001EC18530910509F4F3C0853091050CF46A
:10413000CFC08630910509F4F2C011C11A8286EC15
:1041400090E0FC0180818B878B858E3219F486E0AC
:10415000898308C18A81882F90E09E01205F3F4FAC
:10416000820F931F2B85FC0120838A818F5F8A83B6
:1041700081E08983F7C0000080EC90E0FC01808141
:10418000882334F080912303882311F081E001C05B
:1041900080E0882389F7809123038823D9F186EC76
:1041A00090E0FC0180818B878A81882F90E09E01BE
:1041B000205F3F4F820F931F2B85FC0120838A8154
:1041C0008F5F8A838B858E3219F08B85882371F4FB
:1041D0008A81882F90E09E01205F3F4F820F931FBE
:1041E000FC0110821B8282E0898306C08A818732AB
:1041F00018F085E089831B828B81882331F08091C0
:104200002303882311F081E001C080E0882309F0B6
:10421000B2CFA8C00000A6C0CE014096FC0120810C
:104220008FE592E0FC018081281729F481E08A87DC
:1042300083E0898397C0CE01409621E632E0B90140
:1042400042E050E00E94FC36009731F481E0809318
:10425000300384E0898386C085E0898383C08091B0
:104260003003882399F4CE0140969F878E8789EA90
:1042700093E09E01225F3F4FB9010E94703182E0BE
:10428000898389E492E00E94E11802C086E0898374
:104290001D821C820EC09E01205F3F4F8C819D813C
:1042A000820F931FFC0110828C819D8101969D835A
:1042B0008C838A81282F30E041E08C819D81821798
:1042C00093070CF040E0442331F71A821B824AC066
:1042D0001F821E820EC09E01205F3F4F8E819F81F4
:1042E000820F931FFC0110828E819F8101969F8314
:1042F0008E838A81282F30E041E08E819F81821752
:1043000093070CF040E0442331F7109223032AC0B6
:104310008CE092E00E94E11885E0898323C0198631
:1043200018860BC089EA93E00E94C3319D878C8771
:10433000888599850196998788870885198589EAEE
:1043400093E00E94B13121E00817190708F020E03E
:10435000222341F71092300383E0898303C0109237
:10436000230300009091230381E0992309F480E066
:10437000882309F0C1CEE7960FB6F894DEBF0FBED2
:10438000CDBFDF91CF911F910F9108950F931F9390
:10439000CF93DF93CDB7DEB7C257D0400FB6F894B6
:1043A000DEBF0FBECDBF9E012E583F4FF901808367
:1043B000CE018A5A9F4F2AE832E042E1F90100809B
:1043C0002F5F3F4FFC010082019641504423B1F71B
:1043D00019821A821B8281E08C831AA619A680E0BA
:1043E00090E0DC018F87988BA98BBA8B80E090E0FE
:1043F000DC018B8B9C8BAD8BBE8B80E090E0DC0175
:104400008F8B988FA98FBA8FCE018E589F4FFC014A
:104410008081882309F45EC080913103882309F4E8
:1044200059C0CE018E589F4FFC018081882F90E0AB
:104430000197880F991F9C0122953295307F322772
:10444000207F3227820F931F44969AA789A789A5B8
:104450009AA50E945137DC01CB018F87988BA98BDD
:10446000BA8B89A59AA504960E945137DC01CB012D
:104470008B8B9C8BAD8BBE8B89A59AA508960E94D1
:104480005137DC01CB018F8B988FA98FBA8F89A50B
:104490009AA50C960E9457379E838D8389A59AA56D
:1044A0000E960E94573798878F8389A59AA54096C4
:1044B0000E9457379A87898789A59AA542960E94B4
:1044C00057379C878B8789A59AA544960E945737B2
:1044D0009E878D8781E080932503C0C38A81882FC2
:1044E00090E08730910509F426C288309105DCF40C
:1044F0008330910509F4D9C0843091055CF4813092
:10450000910509F454C0823091050CF0A8C00097C1
:1045100039F1A1C38530910509F4E4C186309105D4
:104520000CF002C2ECC08B30910509F4C8C28C308B
:1045300091054CF48930910509F444C28A30910503
:104540000CF060C219C28D30910509F43DC38D3065
:1045500091050CF4D4C28E30910509F456C37BC387
:1045600088E091E028E031E0F90120812068FC0139
:1045700020831C8E1B8E06C000008B8D9C8D0196A7
:104580009C8F8B8F21E08B8D9C8D823091050CF060
:1045900020E0222389F788E091E028E031E0F9016A
:1045A00020812F77FC01208381E08A8357C384E632
:1045B00090E00E94941843C082E390E00E94941817
:1045C000000088EC90E0FC018081882334F0809129
:1045D0002503882311F081E001C080E0882389F75A
:1045E000809122038823C9F18EEC90E0FC01808148
:1045F0008BA78B81882F90E09E01245D3F4F820F17
:10460000931F2BA5FC0120838B818F5F8B838BA550
:104610008E3271F48B81882F90E09E01245D3F4F94
:10462000820F931FFC0110821C8282E08A8307C0E4
:104630008B81873220F01B821C8286E08A838C81EA
:10464000882331F080912503882311F081E001C097
:1046500080E0882309F0B0CF01C30000FFC2809141
:104660003103882319F083E08A83F8C280912F03F5
:10467000882319F089E08A83F1C28091320388236C
:1046800019F087E08A83EAC280912E03882319F00B
:104690008BE08A83E3C280912D03882319F08DE09B
:1046A0008A83DCC286E08A83D9C2CE018C9629E453
:1046B00032E0B90142E050E00E94FC36009719F464
:1046C00084E08A83CBC2CE018C969E01205C3F4F52
:1046D000B9010E94EC36009719F484E08A83BEC2C7
:1046E000CE018C9624E632E0B9010E94EC360097A8
:1046F00019F484E08A83B2C285E08A83AFC28981DB
:10470000893008F0E6C08981882F90E09E012A5AFE
:104710003F4F880F991F820F931FFC012081318129
:10472000CE01805C9F4FB9010E94F5368981882FA8
:1047300090E09E012A5A3F4F880F991F820F931FC6
:10474000FC01808191810E94E1188981882F90E08D
:104750008430910509F452C0853091058CF4813084
:104760009105F9F08230910524F4009709F480C096
:104770007CC08230910521F18330910581F175C0B3
:104780008630910509F450C0863091050CF441C083
:104790008730910509F453C08830910509F45AC057
:1047A00064C08F859889A989BA89FE01EE5BFF4FA5
:1047B000BC01CD0145E022E08F010E94043559C0C3
:1047C0008B899C89AD89BE89FE01EE5BFF4FBC01E0
:1047D000CD0145E022E08F010E9404354AC08F8957
:1047E000988DA98DBA8DFE01EE5BFF4FBC01CD0106
:1047F00046E022E08F010E9404353BC08D819E81FE
:104800009E012E5B3F4FB9014AE050E00E943337D2
:1048100030C08F8198859E012E5B3F4FB9014AE0E1
:1048200050E00E94333725C089859A859E012E5B12
:104830003F4FB9014AE050E00E9433371AC08B85E0
:104840009C859E012E5B3F4FB9014AE050E00E94DB
:1048500033370FC08D859E859E012E5B3F4FB9017A
:104860004AE050E00E94333704C086E08A8301C0EA
:1048700000008981882341F0CE018E5B9F4F0E940A
:10488000E1188EE20E94C31889818F5F898381E0DD
:104890008A831E8E1D8E0EC09E01245D3F4F8D8D1E
:1048A0009E8D820F931FFC0110828D8D9E8D01962F
:1048B0009E8F8D8F8B81282F30E041E08D8D9E8DD6
:1048C000821793070CF040E0442331F71B821C82CF
:1048D000C5C185E08A831092310381E692E00E948F
:1048E000E118BCC118A21F8E0EC09E01245D3F4F6F
:1048F0008F8D98A1820F931FFC0110828F8D98A13C
:10490000019698A38F8F8B81282F30E041E08F8D07
:1049100098A1821793070CF040E0442331F71B82E3
:104920001C82109225039AC18CE092E00E94E1184B
:1049300085E08A8393C1CE018C9629E432E0B901E7
:1049400042E050E00E94FC36009719F488E08A8328
:1049500085C1CE018C9627E632E0B90143E050E0F4
:104960000E94FC36009729F485E08A831092320376
:1049700075C186E08A8372C187E692E00E94E118E1
:1049800081E08A831AA219A20EC09E01245D3F4FC6
:1049900089A19AA1820F931FFC01108289A19AA17B
:1049A00001969AA389A38B81282F30E041E089A149
:1049B0009AA1821793070CF040E0442331F71B8241
:1049C0001C824CC1CE018C9629E432E0B90142E050
:1049D00050E00E94FC36009719F48AE08A833EC1B9
:1049E000CE018C969E012E5B3F4FB9010E94EC36A2
:1049F000009729F485E08A8310922F032FC186E067
:104A00008A832CC1CE018E589F4FFC018081882F54
:104A100090E09E0128593F4FB9014AE050E00E94C2
:104A20003337CE018E5B9F4F24E430E0FC013183AD
:104A30002083CE0188599F4F9C01F90101900020ED
:104A4000E9F7CF010197821B930B9E0128593F4F35
:104A5000820F931F2EE230E0FC0131832083CE01D0
:104A60008E5B9F4F9E0128593F4FB9010E94E1364E
:104A7000CE018E5B9F4F0E94E11881E08A831CA2C9
:104A80001BA20EC09E01245D3F4F8BA19CA1820FF3
:104A9000931FFC0110828BA19CA101969CA38BA368
:104AA0008B81282F30E041E08BA19CA182179307D6
:104AB0000CF040E0442331F71B821C82CFC0CE01B2
:104AC0008C9629E432E0B90142E050E00E94FC36C5
:104AD000009719F48CE08A83C1C0CE018C969E01A8
:104AE0002E5B3F4FB9010E94EC36009729F485E018
:104AF0008A8310922E03B2C086E08A83AFC0CE01B3
:104B00008E589F4FFC018081882F90E09E01235991
:104B10003F4FB9014AE050E00E943337CE018E5B2F
:104B20009F4F2BE632E043E0F90100802F5F3F4FBB
:104B3000FC010082019641504423B1F7CE01835914
:104B40009F4F9C01F90101900020E9F7CF010197E7
:104B5000821B930B9E0123593F4F820F931F2EE21E
:104B600030E0FC0131832083CE018E5B9F4F9E019C
:104B700023593F4FB9010E94E136CE018E5B9F4F12
:104B80000E94E11881E08A831EA21DA20EC09E0130
:104B9000245D3F4F8DA19EA1820F931FFC011082C7
:104BA0008DA19EA101969EA38DA38B81282F30E01D
:104BB00041E08DA19EA1821793070CF040E04423B1
:104BC00031F71B821C824AC0CE018C9629E432E068
:104BD000B90142E050E00E94FC36009719F48EE0E3
:104BE0008A833CC0CE018C962EE632E0B90143E0C8
:104BF00050E00E94FC36009729F485E08A831092E9
:104C00002E032CC086E08A8329C08EE692E00E94A3
:104C1000E11881E08A8318A61FA20EC09E01245DC0
:104C20003F4F8FA198A5820F931FFC0110828FA187
:104C300098A5019698A78FA38B81282F30E041E09B
:104C40008FA198A5821793070CF040E0442331F719
:104C50001B821C8203C01092250300009091250343
:104C600081E0992309F480E0882309F037CCCE58FD
:104C7000DF4F0FB6F894DEBF0FBECDBFDF91CF91EF
:104C80001F910F910895CF93DF93CDB7DEB7EB97C8
:104C90000FB6F894DEBF0FBECDBF89AF6AAF4BAF82
:104CA00089AD882309F444C08AAD8823E9F085E3FF
:104CB00093E00E94B9079C01CE010196B9010E94C0
:104CC000F53680912403882341F0CE0101960E949D
:104CD0002B198FE20E940D1907C0CE0101960E9488
:104CE000E1188FE20E94C3188BAD882309F449C0F4
:104CF00085E393E00E9444049C01CE010C96B90127
:104D00000E94F53680912403882349F0CE010C9649
:104D10000E942B198CE992E00E942B1932C0CE011F
:104D20000C960E94E1188CE992E00E94E11829C0DB
:104D30008AAD882389F085E393E00E94B9079C013E
:104D4000CE014D96B9010E94F536CE014D960E94D6
:104D500075198FE20E9457198BAD882391F085E376
:104D600093E00E9444049C01CE018896B9010E9400
:104D7000F536CE0188960E9475198CE992E00E9462
:104D80007519EB960FB6F894DEBF0FBECDBFDF915D
:104D9000CF9108951F920F920FB60F9200905B0073
:104DA0000F9211242F933F938F939F93EF93FF9331
:104DB000CF93DF93CDB7DEB7F89480912703882394
:104DC00031F01092270381E08093230302C01092F8
:104DD000230381EC90E021EC30E0F90120812F7772
:104DE000FC0120837894DF91CF91FF91EF919F9107
:104DF0008F913F912F910F9000925B000F900FBE0B
:104E00000F901F9018951F920F920FB60F9200905F
:104E10005B000F9211242F933F938F939F93EF93F7
:104E2000FF93CF93DF93CDB7DEB7F894809126033D
:104E3000882331F01092260381E08093210302C081
:104E40001092210389EC90E029EC30E0F9012081F7
:104E50002F77FC0120837894DF91CF91FF91EF9120
:104E60009F918F913F912F910F9000925B000F9037
:104E70000FBE0F901F9018951F920F920FB60F92B2
:104E800000905B000F9211242F933F938F939F9379
:104E9000EF93FF93CF93DF93CDB7DEB7F894809174
:104EA0002803882331F01092280381E080932403A3
:104EB00002C01092240381ED90E021ED30E0F90171
:104EC00020812F77FC0120837894DF91CF91FF918F
:104ED000EF919F918F913F912F910F9000925B00E6
:104EE0000F900FBE0F901F9018951F920F920FB644
:104EF0000F9200905B000F9211242F933F934F93DA
:104F00005F936F937F938F939F93AF93BF93EF9331
:104F1000FF93CF93DF93CDB7DEB7F8948BE091E0AA
:104F20002BE031E0F90120812860FC01208381E041
:104F3000809326038DE390E02DE330E0F90120819A
:104F40002C7DFC01208389E492E00E94751989EC94
:104F500090E029EC30E0F90120812068FC012083F9
:104F60008BE091E02BE031E0F9012081277FFC010B
:104F700020837894DF91CF91FF91EF91BF91AF9112
:104F80009F918F917F916F915F914F913F912F9161
:104F90000F9000925B000F900FBE0F901F9018951E
:104FA0001F920F920FB60F9200905B000F92112488
:104FB0002F933F934F935F936F937F938F939F9321
:104FC000AF93BF93EF93FF93CF93DF93CDB7DEB74C
:104FD000F89481E08093270381EC90E021EC30E0AD
:104FE000F90120812068FC0120838DE390E02DE30E
:104FF00030E0F90120812C7DFC01208389E492E0DE
:105000000E94E1187894DF91CF91FF91EF91BF91C9
:10501000AF919F918F917F916F915F914F913F9150
:105020002F910F9000925B000F900FBE0F901F907A
:1050300018951F920F920FB60F9200905B000F927F
:1050400011242F933F934F935F936F937F938F938D
:105050009F93AF93BF93EF93FF93CF93DF93CDB71E
:10506000DEB7F89481E08093280381ED90E021ED94
:1050700030E0F90120812068FC0120838DE390E07D
:105080002DE330E0F90120812C7DFC01208389E4AF
:1050900092E00E942B197894DF91CF91FF91EF91CC
:1050A000BF91AF919F918F917F916F915F914F9140
:1050B0003F912F910F9000925B000F900FBE0F90C9
:1050C0001F9018951F920F920FB60F9200905B00E1
:1050D0000F9211242F933F934F935F936F937F937E
:1050E0008F939F93AF93BF93EF93FF93CF93DF93F0
:1050F0000F920F92CDB7DEB7F89484E890E0FC01F0
:10510000808191819A83898389819A8183309105F5
:1051100008F449C08BE091E02BE031E0F9012081F7
:105120002064FC01208380910F06882339F01092BF
:105130000F068DE593E00E94CB0B0DC080910D060C
:1051400090910E0629813A81281B390B8DE593E059
:10515000B9010E945A0A10920E0610920D06809113
:105160001F069091200621E0893091050CF420E083
:1051700001969093200680931F06222339F081E048
:10518000809310061092200610921F0682E390E092
:105190000E9494188BE091E02BE031E0F90120812E
:1051A0002F7BFC01208384E890E0FC0111821082B7
:1051B00078940F900F90DF91CF91FF91EF91BF9175
:1051C000AF919F918F917F916F915F914F913F919F
:1051D0002F910F9000925B000F900FBE0F901F90C9
:1051E00018951F920F920FB60F9211248F93CF93A1
:1051F000DF93CDB7DEB7F89480911B03882319F0B5
:1052000010921B0303C081E080931B037894DF910D
:10521000CF918F910F900FBE0F901F9018951F92F6
:105220000F920FB60F9200905B000F9211242F93F4
:105230003F934F935F936F937F938F939F93AF931E
:10524000BF93EF93FF93CF93DF930F920F92CDB75E
:10525000DEB7F8941A8219820E9420319A838983DA
:1052600080911D0690911E0649815A819C01220F52
:10527000331F2B543C4FF901518340830196909387
:105280001E0680931D0680911D0690911E0621E04A
:10529000F1E08C329F0708F420E0222369F010929D
:1052A0001E0610921D0687E993E025EB33E0B90155
:1052B0004CE251E00E94180F78940F900F90DF910C
:1052C000CF91FF91EF91BF91AF919F918F917F917E
:1052D0006F915F914F913F912F910F9000925B00E2
:1052E0000F900FBE0F901F9018951F920F920FB640
:1052F0000F9200905B000F9211242F933F934F93D6
:105300005F936F937F938F939F93AF93BF93EF932D
:10531000FF93CF93DF93CDB7DEB7F89480910D065E
:1053200090910E0621E08530910508F420E0019669
:1053300090930E0680930D06222331F080910F0684
:10534000882311F481E001C080E0882339F081E0F6
:1053500080930F068DE593E00E94CB0B7894DF914C
:10536000CF91FF91EF91BF91AF919F918F917F91DD
:105370006F915F914F913F912F910F9000925B0041
:105380000F900FBE0F901F9018951F920F920FB69F
:105390000F9200905B000F9211242F933F934F9335
:1053A0005F936F937F938F939F93AF93BF93EF938D
:1053B000FF93CF93DF93CDB7DEB785E290E025E290
:1053C00030E0F901308120E22327FC01208385E3CE
:1053D00093E061E070E00E943407809111069091A3
:1053E00012068930910554F480912303882321F417
:1053F00080912703882311F081E001C080E0882399
:1054000051F0809111069091120601969093120628
:10541000809311063EC0809111069091120689304A
:10542000910554F080912303882321F48091270370
:10543000882311F081E001C080E0882391F0109270
:1054400012061092110610922303109227038DE387
:1054500090E02DE330E0F90120812362FC012083FC
:1054600018C080912303882369F48091270388233F
:1054700049F480911106909112061816190614F439
:1054800081E001C080E0882321F010921206109282
:10549000110680912503882349F08091130690918D
:1054A00014068930910514F481E001C080E088235E
:1054B00051F0809113069091140601969093140672
:1054C0008093130634C080912503882349F080918E
:1054D0001306909114068930910514F081E001C003
:1054E00080E0882381F01092140610921306109227
:1054F00025038DE390E02DE330E0F9012081236264
:10550000FC01208314C080912503882349F48091F5
:105510001306909114061816190614F481E001C0C0
:1055200080E0882321F010921406109213068091D7
:105530001506909116068930910554F48091240344
:10554000882321F480912803882311F081E001C091
:1055500080E0882351F080911506909116060196FF
:1055600090931606809315063EC080911506909183
:1055700016068930910554F080912403882321F484
:1055800080912803882311F081E001C080E0882306
:1055900091F01092160610921506109224031092A4
:1055A00028038DE390E02DE330E0F90120812362B0
:1055B000FC01208318C080912403882369F4809122
:1055C0002803882349F48091150690911606181631
:1055D000190614F481E001C080E0882321F01092C4
:1055E00016061092150680912203882349F08091B7
:1055F0001706909118068930910514F481E001C0D6
:1056000080E0882351F0809117069091180601964A
:10561000909318068093170634C080912203882344
:1056200049F080911706909118068930910514F081
:1056300081E001C080E0882381F01092180610926A
:105640001706109222038DE390E02DE330E0F9017C
:1056500020812362FC01208314C0809122038823CF
:1056600049F480911706909118061816190614F43B
:1056700081E001C080E0882321F01092180610928A
:1056800017068091190690911A068930910554F4F5
:1056900080912103882321F480912603882311F02F
:1056A00081E001C080E0882351F08091190690913B
:1056B0001A06019690931A06809319063EC08091AF
:1056C000190690911A068930910554F080912103B2
:1056D000882321F480912603882311F081E001C002
:1056E00080E0882391F010921A0610921906109209
:1056F0002103109226038DE390E02DE330E0F901C1
:1057000020812362FC01208318C08091210388231B
:1057100069F480912603882349F4809119069091B9
:105720001A061816190614F481E001C080E08823D7
:1057300021F010921A061092190680911A038823FC
:1057400049F080911B0690911C068937910514F44D
:1057500081E001C080E0882351F080911B06909188
:105760001C06019690931C0680931B0635C0809101
:105770001A03882349F080911B0690911C068937F3
:10578000910514F081E001C080E0882389F0109237
:105790001C0610921B0610921A0380911D03882389
:1057A00021F481E080931E0317C010921E0314C0E1
:1057B00080911A03882349F480911B0690911C065E
:1057C0001816190614F481E001C080E0882321F046
:1057D00010921C0610921B06DF91CF91FF91EF9162
:1057E000BF91AF919F918F917F916F915F914F91F9
:1057F0003F912F910F9000925B000F900FBE0F9082
:105800001F9018950F931F93CF93DF93CDB7DEB7FB
:10581000CE54D0400FB6F894DEBF0FBECDBF0E946D
:10582000592F83E390E00E94B02F0E94893081E0DD
:1058300061E00E9448170E94C7300E943017809391
:10584000290382E090E00E945C188091290388235C
:1058500029F08FE992E00E94E11804C084EB92E005
:105860000E94E1187894809121038823C9F18091E6
:105870001B038823A9F580912303882389F585E2FA
:1058800090E025E230E0F90120812064FC012083D2
:105890000E94A51982E090E00E945C188091230389
:1058A0008823A9F480912703882389F48091240315
:1058B000882369F480912803882349F48DE390E0DC
:1058C0002DE330E0F90120812362FC01208385E291
:1058D00090E025E230E0F90120812F7BFC0120835C
:1058E000809123038823A9F180911B03882389F5E4
:1058F00085E290E025E230E0F90120812068FC019A
:1059000020830E946A2082E090E00E945C188091CF
:1059100021038823A9F480912603882389F48091A8
:105920002403882369F480912803882349F48DE3B4
:1059300090E02DE330E0F90120812362FC01208317
:1059400085E290E025E230E0F90120812F77FC012B
:105950002083809124038823A9F180911B0388234D
:1059600089F580912303882369F580912103882399
:1059700049F58BE091E02BE031E0F90120812061D5
:10598000FC0120830E94251F82E090E00E945C18A9
:1059900080912103882369F480912603882349F0AC
:1059A0008DE390E02DE330E0F90120812362FC01DA
:1059B000208385E290E025E230E0F90120812F7E0E
:1059C000FC01208380911E03882329F48091200309
:1059D000882309F448C080912603882309F043C036
:1059E00080911B03882309F03EC08BE091E02BE0FF
:1059F00031E0F90120812062FC0120838DE390E0F9
:105A00002DE330E0F90120812C7DFC01208388EC1E
:105A100092E00E94E1180E94F61C82E090E00E9451
:105A20005C18809121038823A9F4809126038823A0
:105A300089F480912303882369F4809127038823C4
:105A400049F48DE390E02DE330E0F90120812362F9
:105A5000FC0120838BE091E02BE031E0F901208113
:105A60002F7DFC01208380911C03882389F0809185
:105A70002603882369F480911B03882349F481E07D
:105A80008093200310921C0310921D0310921E039A
:105A900080911006882309F4CBC0809127038823C6
:105AA00009F0C6C080912603882309F0C1C0809107
:105AB0002303882309F0BCC080912103882309F0C7
:105AC000B7C080911B03882309F0B2C0F8941092EC
:105AD00010068DE593E00E94210DDC01CB018D8342
