:100000000C9473000C94CB0A0C94140B0C94A60063
:100010000C94A6000C94A6000C94A6000C945D0B06
:100020000C94720B0C94A6000C94A6000C94A600E1
:100030000C94A6000C94A6000C94A6000C94820BC1
:100040000C94A6000C94A6000C94A6000C94A60098
:100050000C94A6000C94A6000C94A6000C94A60088
:100060000C94A6000C94BD0C0C94A6000C94A60055
:100070000C94A6000C94A6000C94A6000C94A60068
:100080000C94A6000C94A6000C94A6000C94A60058
:100090000C94EF0C0C94A6000C94A6000C94A600F3
:1000A0000C94A6000C94A6000C94A6000C94A60038
:1000B0000C94A6000C94A6000C94A6000C94A60028
:1000C0000C94A6000C94A6000C94A6000C94A60018
:1000D0000C94A6000C94A6000C94A6000C94A60008
:1000E0000C94A600620F11241FBECFEFD1E2DEBF39
:1000F000CDBF00E00CBF12E0A0E0B2E0EEE7F0E21E
:1001000000E00BBF02C007900D92A235B107D9F7EE
:100110001BBE12E0A2E5B2E001C01D92AA38B107F1
:10012000E1F710E0C6EED0E000E006C0229701093A
:10013000FE010BBF0E94960FC43ED10780E0080766
:10014000A9F71BBE0E94210D0C943D100C940000D9
:10015000CF93DF930F920F92CDB7DEB79A83898347
:1001600089819A81FC011182108289819A81FC0126
:100170001382128289819A81FC01158214820F9068
:100180000F90DF91CF910895CF93DF93CDB7DEB776
:1001900028970FB6F894DEBF0FBECDBF9A83898330
:1001A0007C836B835E834D8338872F8389819A811B
:1001B0006B817C814D815E812F8138850E94C701D2
:1001C00028960FB6F894DEBF0FBECDBFDF91CF915A
:1001D0000895CF93DF930F920F92CDB7DEB79A8336
:1001E000898389819A81FC01808191810F900F9090
:1001F000DF91CF910895CF93DF930F920F92CDB7F8
:10020000DEB79A83898389819A81FC0184819581F3
:100210000F900F90DF91CF910895CF93DF930F92BE
:100220000F92CDB7DEB79A83898389819A81FC01C9
:10023000828193810F900F90DF91CF910895CF939A
:10024000DF9300D00F92CDB7DEB79A8389837C838A
:100250006B838B819C810C968931910538F489815F
:100260009A812B813C81FC01318320830F900F9078
:100270000F900F90DF91CF910895CF93DF9300D02F
:100280000F92CDB7DEB79A8389837C836B83898194
:100290009A81FC01808191818930910581F0898169
:1002A0009A81FC01808191818430910541F089819E
:1002B0009A81FC01808191818630910541F48B8186
:1002C0009C814E968D33910510F481E001C080E051
:1002D000882341F089819A812B813C81FC01338301
:1002E000228328C089819A81FC018081918182309A
:1002F000910541F48B819C814C968933910510F4D2
:1003000081E001C080E0882341F089819A812B81BE
:100310003C81FC01338322830DC08B819C814F96ED
:100320008F33910538F489819A812B813C81FC01BE
:10033000338322830F900F900F900F90DF91CF9116
:100340000895CF93DF9300D00F92CDB7DEB79A8395
:1003500089837C836B838B819C8127E0803D92071E
:1003600044F089819A812B813C81FC01358324836F
:1003700007C089819A8122EF33E0FC013583248311
:100380000F900F900F900F90DF91CF910895CF9322
:10039000DF93CDB7DEB728970FB6F894DEBF0FBE58
:1003A000CDBF9A8389837C836B835E834D8338873B
:1003B0002F8389819A812B813C81B9010E941F0181
:1003C00089819A812D813E81B9010E943D018981F7
:1003D0009A812F813885B9010E94A10128960FB614
:1003E000F894DEBF0FBECDBFDF91CF910895CF93BC
:1003F000DF9300D000D0CDB7DEB79C838B837E83A4
:100400006D838B819C81FC01248135818D819E814E
:10041000820F931F9A83898389819A8121E0F7E073
:100420008D3D9F070CF420E0222339F029813A8189
:100430008B819C81FC013583248326960FB6F8942A
:10044000DEBF0FBECDBFDF91CF910895CF93DF9375
:10045000CDB7DEB72A970FB6F894DEBF0FBECDBF7B
:1004600098878F837A8769878F819885FC0120819F
:10047000318189859A85820F931F9E838D838D811B
:100480009E818D3091053CF08D819E818931910551
:1004900014F481E001C080E0882361F081E090E005
:1004A0009A8389838F81988529813A81B9010E9435
:1004B000F70122C08D819E8121E0893191050CF4E4
:1004C00020E0222391F08D819E812CE030E0B90163
:1004D0000E946F0F9B013C832B838F8198852B811A
:1004E0003C81B9010E94F70107C02D813E818F81B7
:1004F0009885FC01318320832A960FB6F894DEBFDD
:100500000FBECDBFDF91CF910895CF93DF9300D081
:1005100000D0CDB7DEB79C838B837E836D838B81C8
:100520009C81FC01228133818D819E81820F931FEA
:100530009A8389838B819C81FC01808191818930A0
:10054000910581F08B819C81FC01808191818430B7
:10055000910541F08B819C81FC01808191818630E5
:10056000910511F481E001C080E0882331F1898197
:100570009A814E9621E08D33910508F020E02223E8
:1005800041F029813A818B819C81FC013383228354
:1005900071C08B819C8161E070E00E94260289819C
:1005A0009A812FE130E0B9010E946F0F9C018B818D
:1005B0009C81FC01338322835DC08B819C81FC0183
:1005C0008081918121E08230910509F020E0222391
:1005D00049F18B819C81FC01828193814C9621E0C1
:1005E0008933910508F020E0222341F029813A81E6
:1005F0008B819C81FC01338322833CC08B819C8155
:1006000061E070E00E94260289819A812DE130E04C
:10061000B9010E946F0F9C018B819C81FC01338387
:10062000228328C08B819C81FC01828193814F961B
:1006300021E08F33910508F020E0222341F0298149
:100640003A818B819C81FC013383228313C08B818F
:100650009C8161E070E00E94260289819A8120E2FB
:1006600030E0B9010E946F0F9C018B819C81FC01DD
:100670003383228326960FB6F894DEBF0FBECDBF1C
:10068000DF91CF910895CF93DF93CDB7DEB72D974C
:100690000FB6F894DEBF0FBECDBF9D878C878C85CB
:1006A0009D85FC01808191819E012F5F3F4FB901A3
:1006B0004AE050E00E94D30F8C859D85FC01828129
:1006C00093819E012C5F3F4FB9014AE050E00E94A8
:1006D000D30F8C859D85FC01848195819E01295FC6
:1006E0003F4FB9014AE050E00E94D30F8C859D85B1
:1006F00006969E012F5F3F4FB9010E94CC0F8C855B
:100700009D859C012A5F3F4FC901AC01FA01019010
:100710000020E9F7CF010197841B950B820F931FEF
:100720002CE230E0FC01318320838C859D85069688
:100730009E012C5F3F4FB9010E94B80F8C859D85AB
:100740009C012A5F3F4FC901AC01FA0101900020D2
:10075000E9F7CF010197841B950B820F931F2CE2C1
:1007600030E0FC01318320838C859D8506969E01B7
:10077000295F3F4FB9010E94B80F8C859D8520E20B
:10078000FC01258B8C859D85FC01168A8C859D85B9
:1007900006962D960FB6F894DEBF0FBECDBFDF9143
:1007A000CF910895CF93DF930F920F92CDB7DEB71D
:1007B0009A83898389819A810E94A80089819A817C
:1007C00060E070E040E050E020E030E00E948D0406
:1007D0000F900F90DF91CF910895CF93DF93CDB716
:1007E000DEB728970FB6F894DEBF0FBECDBF9A8351
:1007F00089837C836B835E834D8338872F838981D4
:100800009A810E94A80089819A816B817C814D81A7
:100810005E812F8138850E948D0428960FB6F8944A
:10082000DEBF0FBECDBFDF91CF910895CF92DF9293
:10083000EF92FF920F931F93CF93DF93CDB7DEB765
:100840002E970FB6F894DEBF0FBECDBF9A83898373
:100850007C836B835E834D8338872F831A87098758
:10086000FC86EB86DE86CD8689819A8169857A85CC
:100870004B855C852D853E850E94C40089819A81C7
:100880006B817C814D815E812F8138850E948D0432
:100890002E960FB6F894DEBF0FBECDBFDF91CF917D
:1008A0001F910F91FF90EF90DF90CF900895CF931D
:1008B000DF930F920F92CDB7DEB79A838983898138
:1008C0009A81FC01838D948D0F900F90DF91CF91D1
:1008D0000895CF93DF930F920F92CDB7DEB79A832F
:1008E000898389819A81FC01818D928D0F900F906F
:1008F000DF91CF910895CF93DF930F920F92CDB7F1
:10090000DEB79A83898389819A81FC018789908DDA
:100910000F900F90DF91CF910895CF93DF93CDB7D4
:10092000DEB728970FB6F894DEBF0FBECDBF9A830F
:1009300089837C836B835E834D8338872F83898192
:100940009A812B813C81B9010E94BD0489819A81E1
:100950002D813E81B9010E94DB0489819A812F811A
:100960003885B9010E94F90428960FB6F894DEBFC5
:100970000FBECDBFDF91CF910895CF93DF9300D00D
:100980000F92CDB7DEB79A8389837C836B838B818B
:100990009C8147968F32910538F489819A812B8109
:1009A0003C81FC01308F278B0F900F900F900F90A0
:1009B000DF91CF910895CF93DF9300D00F92CDB701
:1009C000DEB79A8389837C836B838B819C81CB96F2
:1009D0008737910538F489819A812B813C81FC010C
:1009E000328F218F0F900F900F900F90DF91CF914A
:1009F0000895CF93DF9300D00F92CDB7DEB79A83DF
:100A000089837C836B838B819C81CB96873791050F
:100A100038F489819A812B813C81FC01348F238FAA
:100A20000F900F900F900F90DF91CF910895CF937B
:100A3000DF93CDB7DEB728970FB6F894DEBF0FBEB1
:100A4000CDBF9E838D8378876F838D819E81FC01CE
:100A50002789308D8F819885820F931F9A83898390
:100A600089819A8128E130E0B9010E946F0F9C01D1
:100A70008D819E81FC01308F278B89819A8121E0B5
:100A8000883191050CF420E0222391F089819A812C
:100A900028E130E0B9010E946F0F9B01C9019C83DE
:100AA0008B838D819E812B813C81B9010E948502BF
:100AB00028960FB6F894DEBF0FBECDBFDF91CF9161
:100AC0000895CF93DF93CDB7DEB728970FB6F8948C
:100AD000DEBF0FBECDBF9E838D8378876F838D81F0
:100AE0009E81FC01218D328D8F819885820F931F0D
:100AF0009A83898389819A812CE330E0B9010E942D
:100B00006F0F9C018D819E81FC01328F218F898125
:100B10009A8121E08C3391050CF420E0222391F09E
:100B200089819A812CE330E0B9010E946F0F9B010B
:100B3000C9019C838B832B813C818D819E81B9016E
:100B40000E94170528960FB6F894DEBF0FBECDBFE2
:100B5000DF91CF910895CF93DF93CDB7DEB728977C
:100B60000FB6F894DEBF0FBECDBF9E838D8378870E
:100B70006F838D819E81FC01238D348D8F819885BB
:100B8000820F931F9A83898389819A812CE330E0B5
:100B9000B9010E946F0F9C018D819E81FC01348FF1
:100BA000238F89819A8121E08C3391050CF420E018
:100BB000222391F089819A812CE330E0B9010E94CF
:100BC0006F0F9B01C9019C838B832B813C818D819D
:100BD0009E81B9010E94610528960FB6F894DEBF88
:100BE0000FBECDBFDF91CF910895CF93DF93CDB7E7
:100BF000DEB72B970FB6F894DEBF0FBECDBF9B8735
:100C00008A878A859B85FC018789908D9E012F5F4D
:100C10003F4FB9014AE050E00E94D30F8A859B857F
:100C2000FC01818D928D9E012C5F3F4FB9014AE0FE
:100C300050E00E94D30F8A859B85FC01838D948DA3
:100C40009E01295F3F4FB9014AE050E00E94D30F57
:100C50008A859B854D969E012F5F3F4FB9010E946B
:100C6000CC0F8A859B859C01235E3F4FC901AC0157
:100C7000FA0101900020E9F7CF010197841B950B41
:100C8000820F931F2AE330E0FC01318320838A85A1
:100C90009B854D969E012C5F3F4FB9010E94B80F76
:100CA0008A859B859C01235E3F4FC901AC01FA01F7
:100CB00001900020E9F7CF010197841B950B820F6B
:100CC000931F2AE330E0FC01318320838A859B85D2
:100CD0004D969E01295F3F4FB9010E94B80F8A854A
:100CE0009B8520E2FC0127A38A859B85FC0110A639
:100CF0008A859B854D962B960FB6F894DEBF0FBE66
:100D0000CDBFDF91CF910895CF93DF93CDB7DEB7FD
:100D10002F970FB6F894DEBF0FBECDBF8E876F87BB
:100D2000F8948E85882309F44BC01A82198281E0D9
:100D30008B832CC082E090E00E94FC0F8F8381E0C7
:100D400090E00E94FC0F888780E090E00E94FC0FFA
:100D500089878F818C33A8F488858C3390F48985BA
:100D6000883178F48985682F70E08885482F50E0B5
:100D70008F81282F30E08CE592E00E948D041B8249
:100D800005C089819A8101969A8389838B81882302
:100D900039F089819A818330910514F481E001C092
:100DA00080E0882339F68B81882351F08CE592E02E
:100DB00061E070E041E050E021E030E00E948D040D
:100DC0008F85882309F44EC01D821C8281E08E83AA
:100DD0002FC084E090E00E94FC0F8A8783E090E0BF
:100DE0000E94FC0F8B8785E090E00E9404109D8795
:100DF0008C878A858F31B8F48B858D30A0F48C85F3
:100E00009D8527E28031920770F48B85682F70E012
:100E10008A85482F50E02C853D858CE592E00E9424
:100E2000C7011E8205C08C819D8101969D838C83A4
:100E30008E81882339F08C819D818330910514F453
:100E400081E001C080E0882321F68E81882351F063
:100E50008CE592E061E070E041E050E021ED37E0A8
:100E60000E94C70178942F960FB6F894DEBF0FBE8C
:100E7000CDBFDF91CF910895CF93DF93CDB7DEB78C
:100E800029970FB6F894DEBF0FBECDBF888769875C
:100E9000F89488858823F1F08CE592E00E947B0429
:100EA00089838CE592E00E9469048A838CE592E054
:100EB0000E9457048B8382E090E06B810E940A10AD
:100EC00081E090E06A810E940A1080E090E06981F0
:100ED0000E940A108985882309F18CE592E00E941E
:100EE000FB009D838C838CE592E00E94E9008E8359
:100EF0008CE592E00E940D018F8385E090E02C81CB
:100F00003D81B9010E94181083E090E06E810E943B
:100F10000A1084E090E06F810E940A10789429966C
:100F20000FB6F894DEBF0FBECDBFDF91CF9108950D
:100F3000CF93DF930F92CDB7DEB78983000080ECAB
:100F400090E0FC018081882F90E08072907021E019
:100F5000009709F020E0222391F786EC90E02981A8
:100F6000FC0120830F90DF91CF910895CF93DF9301
:100F700000D0CDB7DEB79B838A8319820EC08981EA
:100F8000882F90E02A813B81820F931FFC01808192
:100F900099819F5F99830E9498078981882F90E0AB
:100FA0002A813B81820F931FFC01908181E099236C
:100FB00009F480E0882319F70F900F900F90DF91CC
:100FC000CF910895CF93DF930F92CDB7DEB789838A
:100FD000000088EC90E0FC018081882F90E0807216
:100FE000907021E0009709F020E0222391F78EEC29
:100FF00090E02981FC0120830F90DF91CF9108952B
:10100000CF93DF9300D0CDB7DEB79B838A8319825D
:101010000EC08981882F90E02A813B81820F931F27
:10102000FC01808199819F5F99830E94E2078981F9
:10103000882F90E02A813B81820F931FFC019081D1
:1010400081E0992309F480E0882319F70F900F902D
:101050000F90DF91CF910895CF93DF93CDB7DEB797
:10106000AB970FB6F894DEBF0FBECDBF78941E8647
:101070001D861A82198281E08B838D859E85823040
:10108000910509F48EC08330910538F4009771F012
:101090008130910509F477C0EAC18330910509F4E4
:1010A000E8C08430910509F4DEC1E1C11A821982D9
:1010B0008EEC90E0FC0180818C878C858E3249F427
:1010C00080E092E00E94000884E090E09E878D8797
:1010D000D3C19E01215F3F4F89819A81820F931F67
:1010E0002C85FC01208389819A8101969A838983CA
:1010F00081E090E09E878D87BFC1000088EC90E082
:10110000FC018081882334F080915602882311F0FD
:1011100081E001C080E0882389F78EEC90E0FC013B
:1011200080818C879E01215F3F4F89819A81820F48
:10113000931F2C85FC01208389819A8101969A83D3
:1011400089838C858E3279F49E01215F3F4F89819E
:101150009A81820F931FFC0110821B8282E090E033
:101160009E878D8710C089819A81833191055CF0BB
:101170001A8219821B821092560280E092E00E942D
:1011800000081E861D868B81882331F080915602CF
:10119000882311F081E001C080E0882309F0ADCF01
:1011A0006BC1CE010F962AE032E0B9010E94C30F55
:1011B000009729F484E090E09E878D875DC1CE0181
:1011C0000F9623E132E0B9010E94C30F009761F44A
:1011D00081E0809354028AE192E00E94000884E05A
:1011E00090E09E878D8748C1CE010F9621E232E0C4
:1011F000B9010E94C30F009761F481E0809354020B
:1012000088E292E00E94000884E090E09E878D874B
:1012100033C1CE010F962FE232E0B9010E94C30F15
:10122000009761F481E08093540286E392E00E948B
:10123000000884E090E09E878D871EC18B8991E035
:101240008A3309F090E02C8981E02A3309F080E0AC
:101250008927882329F083E090E09E878D870CC141
:1012600080E092E00E94000884E090E09E878D87F5
:1012700003C11CA21BA21EA21DA218A61FA21D8292
:101280001C821F821E8219861886ADC09E01215FB6
:101290003F4F88859985820F931FFC0180818A3397
:1012A00041F18C819D81833091051CF59E01215F68
:1012B0003F4F88859985820F931FFC018081882389
:1012C000C1F09E01215F3F4F88859985820F931F52
:1012D000FC0140819E01275D3F4F8E819F81820FDF
:1012E000931FFC0140838E819F8101969F838E8393
:1012F00075C08C819D81823091050CF041C09E01AA
:10130000215F3F4F88859985820F931FFC01808163
:101310008A33B1F5CE0189960E949A0F9C018C8187
:101320009D81880F991FAE014F5F5F4F840F951FFE
:101330008296FC01318320838C819D8101969D835F
:101340008C831B861A860EC09E01275D3F4F8A85BF
:101350009B85820F931FFC0110828A859B850196D5
:101360009B878A8741E02A853B858E819F818217F2
:1013700093070CF440E0442339F71F821E822EC0ED
:101380008C819D81833091054CF59E01215F3F4FFB
:1013900088859985820F931FFC018081882339F00D
:1013A0002885398589819A8128173907B9F4CE01B2
:1013B00089960E949A0F9C018C819D81880F991FAC
:1013C000AE014F5F5F4F840F951F8296FC01318302
:1013D00020838C819D8101969D838C83888599854E
:1013E00001969987888741E02885398589819A8186
:1013F000821793070CF440E0442309F047CF8BA1F8
:101400009CA147968F32910528F58DA19EA1CB9680
:1014100087379105F8F48FA198A5CB96873791056A
:10142000C8F46BA17CA14DA15EA12FA138A58CE5CC
:1014300092E00E948D0481E060E00E943C07CE01B2
:101440000F960E94000880915202882339F0109272
:10145000520204C08DE392E00E94000884E090E014
:101460009E878D8709C01E861D86109256021E8695
:101470001D861092560200009091560281E0992339
:1014800009F480E0882309F0F8CDAB960FB6F89404
:10149000DEBF0FBECDBFDF91CF910895CF93DF9315
:1014A000CDB7DEB7DF91CF910895CF93DF930F9241
:1014B000CDB7DEB789830F90DF91CF910895CF9399
:1014C000DF93CDB7DEB7EB970FB6F894DEBF0FBE54
:1014D000CDBF89AF6AAF4BAF89AD882351F18AADDB
:1014E000882389F08CE592E00E94F5059C01CE01ED
:1014F0000196B9010E94CC0FCE0101960E94B60759
:101500008FE20E9498078BAD8823E1F18CE592E091
:101510000E9443039C01CE010C96B9010E94CC0F9E
:10152000CE010C960E94B60785E492E00E94B607B1
:1015300029C08AAD882389F08CE592E00E94F505E8
:101540009C01CE014D96B9010E94CC0FCE014D9663
:101550000E9400088FE20E94E2078BAD882391F081
:101560008CE592E00E9443039C01CE018896B9016C
:101570000E94CC0FCE0188960E94000885E492E07C
:101580000E940008EB960FB6F894DEBF0FBECDBFE9
:10159000DF91CF9108951F920F920FB60F92009096
:1015A0005B000F9211242F933F934F935F936F93A0
:1015B0007F938F939F93AF93BF93EF93FF93CF93BB
:1015C000DF93CDB7DEB7F89481E080935A0289ECBF
:1015D00090E029EC30E0F90120812068FC012083B3
:1015E0008DE390E02DE330E0F90120812C7FFC01B8
:1015F000208388E492E00E94B6077894DF91CF912F
:10160000FF91EF91BF91AF919F918F917F916F91DA
:101610005F914F913F912F910F9000925B000F903F
:101620000FBE0F901F9018951F920F920FB60F923A
:1016300000905B000F9211242F933F934F935F9381
:101640006F937F938F939F93AF93BF93EF93FF938A
:10165000CF93DF93CDB7DEB7F89481E080935B0240
:1016600081EC90E021EC30E0F90120812068FC0160
:1016700020838DE390E02DE330E0F90120812C7F81
:10168000FC0120838DE492E00E9400087894DF91B1
:10169000CF91FF91EF91BF91AF919F918F917F91EA
:1016A0006F915F914F913F912F910F9000925B004E
:1016B0000F900FBE0F901F9018951F920F920FB6AC
:1016C0000F9211248F93CF93DF93CDB7DEB781E0D4
:1016D00080935302DF91CF918F910F900FBE0F90A7
:1016E0001F9018951F920F920FB60F921124CF934F
:1016F000DF93CDB7DEB7DF91CF910F900FBE0F9084
:101700001F9018951F920F920FB60F9200905B00DA
:101710000F9211242F933F934F935F936F937F9377
:101720008F939F93AF93BF93EF93FF93CF93DF93E9
:10173000CDB7DEB78CE592E061E070E00E94AB05CA
:1017400080918402909185028430910554F48091B7
:101750005602882321F480915A02882311F081E0F7
:1017600001C080E0882351F080918402909185022D
:10177000019690938502809384023EC080918402FA
:10178000909185028430910554F08091560288230F
:1017900021F480915A02882311F081E001C080E099
:1017A000882391F0109285021092840210925602C2
:1017B00010925A028DE390E02DE330E0F901208190
:1017C0002360FC01208318C080915602882369F4AD
:1017D00080915A02882349F4809184029091850275
:1017E0001816190614F481E001C080E0882321F066
:1017F0001092850210928402809186029091870255
:101800008430910554F480915802882321F480910A
:101810005B02882311F081E001C080E0882351F051
:10182000809186029091870201969093870280931F
:1018300086023EC080918602909187028430910595
:1018400054F080915802882321F480915B02882310
:1018500011F081E001C080E0882391F010928702AE
:10186000109286021092580210925B028DE390E073
:101870002DE330E0F90120812360FC01208318C0B2
:1018800080915802882369F480915B02882349F48F
:1018900080918602909187021816190614F481E04F
:1018A00001C080E0882321F0109287021092860206
:1018B00080915202882349F0809188029091890298
:1018C0008932910514F481E001C080E0882351F051
:1018D0008091880290918902019690938902809369
:1018E000880235C080915202882349F08091880295
:1018F000909189028932910514F081E001C080E065
:10190000882389F010928902109288021092520264
:1019100080915502882321F481E08093540217C0FE
:101920001092540214C080915202882349F480918D
:101930008802909189021816190614F481E001C0FA
:1019400080E0882321F01092890210928802DF91B2
:10195000CF91FF91EF91BF91AF919F918F917F9127
:101960006F915F914F913F912F910F9000925B008B
:101970000F900FBE0F901F9018951F920F920FB6E9
:101980000F9200905B000F9211242F933F938F933F
:101990009F93EF93FF93CF93DF93CDB7DEB7F89488
:1019A00010925B0281EC90E021EC30E0F9012081A3
:1019B0002F77FC01208381E0809358027894DF9197
:1019C000CF91FF91EF919F918F913F912F910F9028
:1019D00000925B000F900FBE0F901F9018951F9202
:1019E0000F920FB60F9200905B000F9211242F936D
:1019F0003F938F939F93EF93FF93CF93DF93CDB755
:101A0000DEB7F89410925A0289EC90E029EC30E0AD
:101A1000F90120812F77FC01208381E08093560219
:101A20007894DF91CF91FF91EF919F918F913F91AA
:101A30002F910F9000925B000F900FBE0F901F90A0
:101A40001895CF93DF930F92CDB7DEB70E94A80D04
:101A500087E690E00E94FF0D0E949C0E81E061E00D
:101A60000E948406789401C0000080915602882369
:101A700079F080915302882359F40E942C088DE359
:101A800090E02DE330E0F90120812360FC01208308
:101A900080915802882389F080915302882369F449
:101AA0000E944E0A8DE390E02DE330E0F9012081A1
:101AB0002360FC01208310925802809157028823F2
:101AC000D1F0809153028823B1F48DE390E02DE3AF
:101AD00030E0F90120812C7FFC01208380915402A9
:101AE0000E94550A8DE390E02DE330E0F90120815A
:101AF0002360FC012083809154028823A1F080910F
:101B00005A02882381F480915302882361F4198258
:101B10008981882331F081E0809357021092550229
:101B200002C01092570280915302882309F49CCF7F
:101B300083E590E024E0FC01208383E590E023E549
:101B400030E0F90120812160FC01208388958CCF51
:101B5000CF93DF93CDB7DEB784E290E0FC01108233
:101B600087E290E0FC0110828AE290E0FC011082A2
:101B70008DE290E0FC01108280E390E0FC01108295
:101B800083E390E0FC01108281E091E0FC0110828F
:101B900084E091E0FC01108287E091E0FC0110827A
:101BA0008AE091E0FC01108285E290E0FC01108265
:101BB00088E290E0FC0110828BE290E0FC01108250
:101BC0008EE290E0FC01108281E390E0FC01108243
:101BD00084E390E0FC01108282E091E0FC0110823D
:101BE00085E091E0FC01108288E091E0FC01108228
:101BF0008BE091E0FC011082DF91CF910895CF93AB
:101C0000DF930F920F92CDB7DEB79A83898384EC6E
:101C100090E02981FC01208385EC90E029813A81C4
:101C2000232F3327FC0120838CEC90E02981FC01D9
:101C300020838DEC90E029813A81232F3327FC010A
:101C4000208381EC90E028E1FC01208382EC90E08D
:101C500026E0FC01208389EC90E028E1FC01208350
:101C60008AEC90E026E0FC0120838AE091E02FEFEF
:101C7000FC0120838BE091E0FC01108284E290E083
:101C800024E230E0F9012081206EFC01208385E20E
:101C900090E025E230E0F90120812F71FC012083E2
:101CA00084E690E024E630E0F90120812D6EFC010D
:101CB000208389E690E029E630E0F90120812F6059
:101CC000FC0120838AE690E020EFFC0120838DE375
:101CD00090E02DE330E0F90120812C7FFC0120838E
:101CE0008DE390E02DE330E0F90120812F7BFC01B2
:101CF00020838DE390E02DE330E0F901208120681E
:101D0000FC01208381E080935202109256021092CF
:101D1000580210925A0210925B02109254021092D2
:101D200057021092590210925502109253020F90CE
:101D30000F90DF91CF910895CF93DF93CDB7DEB7AA
:101D400084E690E024E630E0F90120812F7BFC015D
:101D5000208381E090E00E94DA0E86EB90E026EB93
:101D600030E0F90120812062FC01208381EB90E0CA
:101D700021EB30E0F90120812560FC01208386EB16
:101D800090E0FC018081882F90E08171907021E0CB
:101D9000009709F420E0222391F787E390E021E007
:101DA000FC01208380E790E021E0FC012083DF91AB
:101DB000CF910895CF93DF9300D00F92CDB7DEB7C8
:101DC0009C838B8318C01A82198206C00000898107
:101DD0009A8101969A83898389819A8121E033E0EF
:101DE000803293070CF020E0222381F78B819C81C5
:101DF00001979C838B838B819C8121E018161906A7
:101E00000CF020E02223F9F60F900F900F900F9026
:101E1000DF91CF910895CF93DF9300D000D0CDB75D
:101E2000DEB79E838D838CE592E00E945704882F55
:101E300090E09A83898329813A818D819E81820FE6
:101E4000931F2CE330E0B9010E946F0F9C838B83BA
:101E500001C000008CE592E00E945704282F30E07A
:101E60008B819C8141E02817390709F440E0442325
:101E700081F726960FB6F894DEBF0FBECDBFDF9177
:101E8000CF910895CF93DF9300D00F92CDB7DEB7F7
:101E90009A8389837C836B8389819A8181309105C0
:101EA00051F48B819C812FEF8F3F920721F48CE5B9
:101EB00092E00E94D2030F900F900F900F90DF914D
:101EC000CF910895CF93DF93CDB7DEB781E090E057
:101ED0006FEF7FEF0E94420FDF91CF91089597FB44
:101EE000092E07260AD077FD04D00CD006D000209A
:101EF0001AF4709561957F4F0895F6F79095819546
:101F00009F4F0895AA1BBB1B51E107C0AA1FBB1F0F
:101F1000A617B70710F0A61BB70B881F991F5A9575
:101F2000A9F780959095BC01CD0108950790F69191
:101F3000E02D1994FC0188279927E89421912032FB
:101F4000E9F3293010F02E30C8F32B3241F02D3256
:101F500039F4689404C00E94F40F820F911D2191FE
:101F600020532A30C0F31EF4909581959F4F089519
:101F7000FB01DC010D900020E9F7119701900D9213
:101F80000020E1F70895FB01DC018D91019080199B
:101F90000110D9F3990B0895FB01DC0101900D921A
:101FA0000020E1F70895FB019F01E8944230C4F05E
:101FB0004532B4F44A3029F497FB1EF4909581958C
:101FC0009F4F642F77270E94820F805D8A330CF029
:101FD000895D8193CB010097A1F716F45DE25193DF
:101FE0001082C9010C941D107AE0979F902D879F55
:101FF000802D910D11240895F999FECF92BD81BDD8
:10200000F89A992780B50895A8E1B0E042E050E041
:102010000C942F10262FF999FECF1FBA92BD81BDC7
:1020200020BD0FB6F894FA9AF99A0FBE019608955A
:102030000E940A10272F0C940B10DC01FC01672F63
:1020400071917723E1F7329704C07C916D9370838F
:102050006291AE17BF07C8F30895DC01CB01FC0104
:10206000F999FECF06C0F2BDE1BDF89A319600B4F1
:0E2070000D9241505040B8F70895F894FFCFFC
:10207E0041434B4552524F522E0053594E444F4EF0
:10208E00452E0053594E47442E0041434B47442E94
:10209E000053594E47542E0041434B47542E005384
:1020AE00594E47422E0041434B47422E0041434B6F
:1020BE004241442E002E000041434B570041434BFA
:0220CE004200CE
:00000001FF
