S0140000474156525F72654379636C652E73726563BA
S11300000C94F1000C946E250C94C9250C942401D5
S11300100C9424010C9424010C9424010C941226B5
S11300200C94A1260C9424010C9424010C94240116
S11300300C9424010C9424010C9424010C94752731
S11300400C9424010C9424010C9424010C94240198
S11300500C9425270C94BF260C9424010C942401A1
S11300600C9424010C94FC240C9424010C9424017D
S11300700C9424010C9424010C9424010C94240168
S11300800C9424010C9424010C9424010C94240158
S11300900C9435250C9424010C9424010C94240113
S11300A00C9424010C9424010C9424010C94240138
S11300B00C9424010C9424010C9424010C94240128
S11300C00C9424010C9424010C9424010C94240118
S11300D00C9424010C9424010C9424010C94240108
S11300E00C94240100407A10F35A00A0724E1809AF
S11300F00010A5D4E80000E87648170000E40B548B
S1130100020000CA9A3B000000E1F5050000809659
S11301109800000040420F000000A086010000008B
S1130120102700000000E803000000006400000045
S113013000000A00000000000100000000002C760E
S1130140D888DC674F0823DFC1DFAE59E1B1B79629
S1130150E5E3E453C63AE651997696E8E6C2842686
S1130160EB898C9B62ED407C6FFCEFBC9C9F40F262
S1130170BAA56FA5F490055A2AF75C936B6CF967DE
S11301806DC11BFCE0E40D47FEF520E6B500D0EDA3
S1130190902E0300943577050080841E080000200B
S11301A04E0A000000C80C333333330F986E1283A9
S11301B01141EF8D2114893BE65516CFFEE6DB187D
S11301C0D1844B381BF77C1D901DA4BBE424203242
S11301D084725E228100C9F124ECA1E53D27FF2E43
S11301E00C2F11241FBECFEFD1E2DEBFCDBF00E044
S11301F00CBF12E0A0E0B2E0E2E8FDE600E00BBFD5
S113020002C007900D92AE3EB107D9F71BBE15E0B0
S1130210AEEEB2E001C01D92A43FB107E1F711E0D8
S1130220C0EED1E000E006C022970109FE010BBF39
S11302300E945231CE3DD10780E00807A9F71BBECA
S11302400E9408290C94AE360C940000CF93DF93DF
S11302500F920F92CDB7DEB79A83898389819A81F1
S1130260FC011182108289819A81FC01138212821D
S113027089819A81FC01158214820F900F90DF917D
S1130280CF910895CF93DF93CDB7DEB728970FB6FC
S1130290F894DEBF0FBECDBF9A8389837C836B83C2
S11302A05E834D8338872F8389819A816B817C811A
S11302B04D815E812F8138850E94450228960FB6B4
S11302C0F894DEBF0FBECDBFDF91CF910895CF93D9
S11302D0DF930F920F92CDB7DEB79A83898389811A
S11302E09A81FC01808191810F900F90DF91CF91D1
S11302F00895CF93DF930F920F92CDB7DEB79A8311
S1130300898389819A81FC01848195810F900F9062
S1130310DF91CF910895CF93DF930F920F92CDB7D2
S1130320DEB79A83898389819A81FC0182819381D2
S11303300F900F90DF91CF910895CF93DF9300D06A
S11303400F92CDB7DEB79A8389837C836B838B81CD
S11303509C810C968931910538F489819A812B818D
S11303603C81FC01318320830F900F900F900F90FC
S1130370DF91CF910895CF93DF9300D00F92CDB743
S1130380DEB79A8389837C836B8389819A81FC019C
S1130390808191818930910581F089819A81FC0164
S11303A0808191818430910541F089819A81FC0199
S11303B0808191818630910541F48B819C814E9698
S11303C08D33910510F481E001C080E0882341F071
S11303D089819A812B813C81FC013383228328C04B
S11303E089819A81FC01808191818230910541F457
S11303F08B819C814C968933910510F481E001C076
S113040080E0882341F089819A812B813C81FC0121
S1130410338322830DC08B819C814F968F3391054A
S113042038F489819A812B813C81FC0133832283B6
S11304300F900F900F900F90DF91CF910895CF936D
S1130440DF9300D00F92CDB7DEB79A8389837C8384
S11304506B838B819C8127E0803D920744F08981E6
S11304609A812B813C81FC013583248307C08981D7
S11304709A8122EF33E0FC01358324830F900F909F
S11304800F900F90DF91CF910895CF93DF93CDB765
S1130490DEB728970FB6F894DEBF0FBECDBF9A83A0
S11304A089837C836B835E834D8338872F83898123
S11304B09A812B813C81B9010E949D0189819A8195
S11304C02D813E81B9010E94BB0189819A812F81CE
S11304D03885B9010E941F0228960FB6F894DEBF32
S11304E00FBECDBFDF91CF910895CF93DF9300D09E
S11304F000D0CDB7DEB79C838B837E836D838B81E5
S11305009C81FC01248135818D819E81820F931F02
S11305109A83898389819A8121E0F7E08D3D9F0741
S11305200CF420E0222339F029813A818B819C81CB
S1130530FC013583248326960FB6F894DEBF0FBEE4
S1130540CDBFDF91CF910895CF93DF93CDB7DEB7C1
S11305502A970FB6F894DEBF0FBECDBF98878F835E
S11305607A8769878F819885FC012081318189850B
S11305709A85820F931F9E838D838D819E818D30FA
S113058091053CF08D819E818931910514F481E0BF
S113059001C080E0882361F081E090E09A83898340
S11305A08F81988529813A81B9010E94750222C000
S11305B08D819E8121E0893191050CF420E0222374
S11305C091F08D819E812CE030E0B9010E943F3191
S11305D09B013C832B838F8198852B813C81B901BE
S11305E00E94750207C02D813E818F819885FC0190
S11305F0318320832A960FB6F894DEBF0FBECDBF99
S1130600DF91CF910895CF93DF9300D000D0CDB781
S1130610DEB79C838B837E836D838B819C81FC01FD
S1130620228133818D819E81820F931F9A838983D6
S11306308B819C81FC01808191818930910581F0BD
S11306408B819C81FC01808191818430910541F0F2
S11306508B819C81FC01808191818630910511F40C
S113066081E001C080E0882331F189819A814E962E
S113067021E08D33910508F020E0222341F0298107
S11306803A818B819C81FC013383228371C08B81ED
S11306909C8161E070E00E94A40289819A812FE12B
S11306A030E0B9010E943F319C018B819C81FC01A7
S11306B0338322835DC08B819C81FC018081918185
S11306C021E08230910509F020E0222349F18B8159
S11306D09C81FC01828193814C9621E089339105B0
S11306E008F020E0222341F029813A818B819C810A
S11306F0FC01338322833CC08B819C8161E070E0E8
S11307000E94A40289819A812DE130E0B9010E94FE
S11307103F319C018B819C81FC013383228328C05F
S11307208B819C81FC01828193814F9621E08F33E0
S1130730910508F020E0222341F029813A818B8140
S11307409C81FC013383228313C08B819C8161E0F3
S113075070E00E94A40289819A8120E230E0B9010C
S11307600E943F319C018B819C81FC013383228355
S113077026960FB6F894DEBF0FBECDBFDF91CF91A2
S11307800895CF93DF9300D0CDB7DEB79B838A83E0
S113079019828A819B81FC01808191810C9621E0E0
S11307A08931910508F020E0222309F466C08A818A
S11307B09B81FC01808191818930910581F08A813E
S11307C09B81FC01808191818430910541F08A8173
S11307D09B81FC01808191818630910559F48A8145
S11307E09B81FC01828193814E968D33910510F497
S11307F081E001C080E0882319F081E0898328C06A
S11308008A819B81FC01808191818230910559F418
S11308108A819B81FC01828193814C968933910565
S113082010F481E001C080E0882319F081E089831D
S11308300FC08A819B81FC01828193814F9621E0C4
S11308408F33910508F020E0222311F081E08983A1
S11308508981882359F08A819B81FC018481958157
S1130860F7E08D3D9F0714F081E001C080E088230C
S113087011F081E003C080E001C080E00F900F9090
S11308800F90DF91CF910895CF93DF93CDB7DEB76B
S11308902D970FB6F894DEBF0FBECDBF9D878C8712
S11308A08C859D85FC01808191819E012F5F3F4F46
S11308B0B9014AE050E00E945C338C859D85FC01BF
S11308C0828193819E012C5F3F4FB9014AE050E041
S11308D00E945C338C859D85FC01848195819E01F9
S11308E0295F3F4FB9014AE050E00E945C338C8598
S11308F09D8506969E012F5F3F4FB9010E944733A5
S11309008C859D859C012A5F3F4FC901AC01FA018A
S113091001900020E9F7CF010197841B950B820F0A
S1130920931F2CE230E0FC01318320838C859D856C
S113093006969E012C5F3F4FB9010E9433338C858C
S11309409D859C012A5F3F4FC901AC01FA010190CA
S11309500020E9F7CF010197841B950B820F931FA9
S11309602CE230E0FC01318320838C859D85069642
S11309709E01295F3F4FB9010E9433338C859D85C9
S1130980FC01168A8C859D8506962D960FB6F894E3
S1130990DEBF0FBECDBFDF91CF910895CF93DF931C
S11309A00F920F92CDB7DEB79A83898389819A819A
S11309B00E94260189819A8160E070E040E050E065
S11309C020E030E00E9416060F900F90DF91CF9147
S11309D00895CF93DF93CDB7DEB728970FB6F89479
S11309E0DEBF0FBECDBF9A8389837C836B835E8316
S11309F04D8338872F8389819A810E9426018981BA
S1130A009A816B817C814D815E812F8138850E9422
S1130A10160628960FB6F894DEBF0FBECDBFDF9141
S1130A20CF910895CF92DF92EF92FF920F931F938D
S1130A30CF93DF93CDB7DEB72E970FB6F894DEBF12
S1130A400FBECDBF9A8389837C836B835E834D8382
S1130A5038872F831A870987FC86EB86DE86CD8646
S1130A6089819A8169857A854B855C852D853E854A
S1130A700E94420189819A816B817C814D815E81D2
S1130A802F8138850E9416062E960FB6F894DEBF85
S1130A900FBECDBFDF91CF911F910F91FF90EF90CB
S1130AA0DF90CF900895CF93DF930F920F92CDB73D
S1130AB0DEB79A83898389819A81FC01838D948D21
S1130AC00F900F90DF91CF910895CF93DF930F9202
S1130AD00F92CDB7DEB79A83898389819A81FC010D
S1130AE0818D928D0F900F90DF91CF910895CF93C8
S1130AF0DF930F920F92CDB7DEB79A8389838981F2
S1130B009A81FC018789908D0F900F90DF91CF918E
S1130B100895CF93DF93CDB7DEB7A2970FB6F894BD
S1130B20DEBF0FBECDBF98A38F8F7AA369A3CE017A
S1130B300B9629A13AA1B9010E9447331A8219825E
S1130B4043C01C821B8220C029813A81C901880FBD
S1130B50991F280F391F8B819C81820F931F9E013F
S1130B60255F3F4F820F931FFC0140819E012B5E46
S1130B703F4F8B819C81820F931FFC0140838B81AB
S1130B809C8101969C838B8321E08B819C818230A4
S1130B9091050CF020E02223B9F6CE0145960E947F
S1130BA00C339C0189819A81880F991FAE014F5F94
S1130BB05F4F840F951F0496FC0131832083898144
S1130BC09A8101969A83898321E089819A8183306D
S1130BD091050CF020E0222309F0B3CF8D819E8192
S1130BE047968F329105C0F48F819885CB968737CD
S1130BF0910590F489859A85CB968737910560F4A1
S1130C006D817E814F81588529853A858F8D98A184
S1130C100E94160681E001C080E0A2960FB6F89407
S1130C20DEBF0FBECDBFDF91CF910895CF93DF9389
S1130C30CDB7DEB728970FB6F894DEBF0FBECDBF91
S1130C409A8389837C836B835E834D8338872F8368
S1130C5089819A812B813C81B9010E944606898150
S1130C609A812D813E81B9010E94640689819A810D
S1130C702F813885B9010E94820628960FB6F89410
S1130C80DEBF0FBECDBFDF91CF910895CF93DF9329
S1130C9000D00F92CDB7DEB79A8389837C836B83B0
S1130CA08B819C8147968F32910538F489819A8192
S1130CB02B813C81FC01308F278B0F900F900F907C
S1130CC00F90DF91CF910895CF93DF9300D00F92CF
S1130CD0CDB7DEB79A8389837C836B838B819C81B8
S1130CE0CB968737910538F489819A812B813C8191
S1130CF0FC01328F218F0F900F900F900F90DF9196
S1130D00CF910895CF93DF9300D00F92CDB7DEB784
S1130D109A8389837C836B838B819C81CB96873771
S1130D20910538F489819A812B813C81FC01348FAF
S1130D30238F0F900F900F900F90DF91CF91089514
S1130D40CF93DF93CDB7DEB728970FB6F894DEBF05
S1130D500FBECDBF9E838D8378876F838D819E81E7
S1130D60FC012789308D8F819885820F931F9A8388
S1130D70898389819A8128E130E0B9010E943F3159
S1130D809C018D819E81FC01308F278B89819A8102
S1130D9021E0883191050CF420E0222391F089812F
S1130DA09A8128E130E0B9010E943F319B01C901D9
S1130DB09C838B838D819E812B813C81B9010E9410
S1130DC0030328960FB6F894DEBF0FBECDBFDF91A4
S1130DD0CF910895CF93DF93CDB7DEB728970FB6A1
S1130DE0F894DEBF0FBECDBF9E838D8378876F835B
S1130DF08D819E81FC01218D328D8F819885820F9A
S1130E00931F9A83898389819A812CE330E0B90105
S1130E100E943F319C018D819E81FC01328F218F84
S1130E2089819A8121E08C3391050CF420E02223FE
S1130E3091F089819A812CE330E0B9010E943F311D
S1130E409B01C9019C838B832B813C818D819E8175
S1130E50B9010E94A00628960FB6F894DEBF0FBE13
S1130E60CDBFDF91CF910895CF93DF93CDB7DEB798
S1130E7028970FB6F894DEBF0FBECDBF9E838D8337
S1130E8078876F838D819E81FC01238D348D8F81C2
S1130E909885820F931F9A83898389819A812CE391
S1130EA030E0B9010E943F319C018D819E81FC019B
S1130EB0348F238F89819A8121E08C3391050CF43E
S1130EC020E0222391F089819A812CE330E0B9015A
S1130ED00E943F319B01C9019C838B832B813C8100
S1130EE08D819E81B9010E94EA0628960FB6F89476
S1130EF0DEBF0FBECDBFDF91CF910895CF93DF93B7
S1130F000F920F92CDB7DEB79A83898389819A8134
S1130F10FC01838D948DCB9687379105A0F489814C
S1130F209A81FC01818D928DCB968737910558F477
S1130F3089819A81FC018789908D47968F3291052A
S1130F4010F481E001C080E0882369F089819A81EE
S1130F500E94C103982F81E0992309F480E088233B
S1130F6011F081E001C080E00F900F90DF91CF91EC
S1130F700895CF93DF93CDB7DEB72B970FB6F894D0
S1130F80DEBF0FBECDBF9B878A878A859B85FC0108
S1130F908789908D9E012F5F3F4FB9014AE050E051
S1130FA00E945C338A859B85FC01818D928D9E0114
S1130FB02C5F3F4FB9014AE050E00E945C338A85C0
S1130FC09B85FC01838D948D9E01295F3F4FB90160
S1130FD04AE050E00E945C338A859B854D969E01D1
S1130FE02F5F3F4FB9010E9447338A859B859C013F
S1130FF0235E3F4FC901AC01FA0101900020E9F7DB
S1131000CF010197841B950B820F931F2AE330E0D5
S1131010FC01318320838A859B854D969E012C5F3C
S11310203F4FB9010E9433338A859B859C01235E1F
S11310303F4FC901AC01FA0101900020E9F7CF014B
S11310400197841B950B820F931F2AE330E0FC0168
S1131050318320838A859B854D969E01295F3F4F6E
S1131060B9010E9433338A859B85FC0110A68A85C9
S11310709B854D962B960FB6F894DEBF0FBECDBF61
S1131080DF91CF910895CF93DF930F920F92CDB755
S1131090DEB79A83898329813A8182E396EFA5EBAF
S11310A0BAE3F90184879587A687B78789819A81EE
S11310B00E945F080F900F90DF91CF910895CF9316
S11310C0DF9300D00F92CDB7DEB79C838B838B81E7
S11310D09C8121E0FC0120AF8B819C81FC0111AE3D
S11310E02B813C8180E090E0DC01F90180839183D5
S11310F0A283B3832B813C8180E090E0DC01F90181
S113110084839583A683B7832B813C8180E090E020
S1131110DC01F90180879187A287B3872B813C8109
S113112080E090E0DC01F901808B918BA28BB38B82
S11311308B819C81FC0115AA14AA8B819C81FC01E2
S113114017AA16AA8B819C81FC01158A148A8B81AB
S11311509C812DED37E0FC01378B268B8B819C81A4
S1131160FC01138E128E8B819C81FC01158E148ED2
S11311708B819C81FC01178E168E1A82198211C0F4
S11311802B813C8189819A814096880F991F820F17
S1131190931FFC011182108289819A8101969A839E
S11311A0898321E089819A818A3091050CF020E0BD
S11311B0222331F70F900F900F900F90DF91CF9172
S11311C00895CF93DF9300D000D0CDB7DEB79A83D4
S11311D089834B835C836D837E8329813A818B81F0
S11311E09C81AD81BE81F90184879587A687B787E5
S11311F089819A810E945F0826960FB6F894DEBF13
S11312000FBECDBFDF91CF9108950F931F93CF935E
S1131210DF93CDB7DEB72A970FB6F894DEBF0FBEC3
S1131220CDBF9A8389834B835C836D837E833887A8
S11312302F831A87098789819A810E945F0811E0A8
S11312406B817C818D819E8120E030E040E85FE30A
S11312500E947E2F88230CF010E0112361F0298175
S11312603A8182E396EFA5EBBAE3F9018487958787
S1131270A687B7870BC029813A818B819C81AD8178
S1131280BE81F90184879587A687B78789819A816A
S11312902F813885FC01358B248B89819A8129859E
S11312A03A85FC01378B268B2A960FB6F894DEBF5D
S11312B00FBECDBFDF91CF911F910F910895CF93B2
S11312C0DF93CDB7DEB768970FB6F894DEBF0FBED5
S11312D0CDBF9A8B898B7C8B6B8B5E8B4D8B388FC0
S11312E02F8B89899A892F89388DFC01378B268B1E
S11312F08B899C899A838983CE01059620E032E00C
S11313004CE0F90100802F5F3F4FFC010082019601
S113131041504423B1F71C821B8216C09E012B5FEF
S11313203F4F8B819C81820F931FFC018081882F0A
S113133090E029813A81820F931F9A8389838B815C
S11313409C8101969C838B832B813C818D899E8912
S1131350019741E02817390708F040E04423F1F6EB
S113136089899A8929813A81FC01358B248B689675
S11313700FB6F894DEBF0FBECDBFDF91CF910895B5
S11313808F929F92AF92BF92CF92DF92EF92FF9291
S11313900F931F93CF93DF93CDB7DEB762970FB64A
S11313A0F894DEBF0FBECDBF9A8389834B835C83E1
S11313B06D837E830F83188729873A87CB86DC86E3
S11313C0ED86FE86B88AAF869A8A898A29813A810F
S11313D08B819C81AD81BE81F90180839183A2833D
S11313E0B38329813A818F819885A985BA85F901CA
S11313F084839583A683B78329813A8180E090E032
S1131400DC01F90180879187A287B38729813A811A
S11314108B859C85AD85BE85F90184879587A687D4
S1131420B78789819A812F853889FC0135AB24AB34
S113143089819A8129893A89FC0137AB26AB898154
S11314409A812AA13BA1FC01338F228F89819A8141
S11314502CA13DA1FC01358F248F89819A812EA175
S11314603FA1FC01378F268F89819A8128A539A550
S1131470FC01358B248B89819A812AA53BA5FC012B
S1131480378B268B89819A8121E0FC0120AF6296FB
S11314900FB6F894DEBF0FBECDBFDF91CF911F9181
S11314A00F91FF90EF90DF90CF90BF90AF909F90FF
S11314B08F900895EF92FF920F931F93CF93DF9332
S11314C0CDB7DEB728970FB6F894DEBF0FBECDBFF9
S11314D09E838D8378876F838D819E81FC0180AD8F
S11314E0882331F48D819E81FC0181AD882341F1F3
S11314F01A82198213C02D813E8189819A81409676
S1131500880F991F820F931F2F813885FC01318327
S1131510208389819A8101969A83898321E0898134
S11315209A818A3091050CF020E0222321F78D81E5
S11315309E81FC0110AE8D819E81FC0111AE31C0F3
S11315401C821B821EC08B819C8101962D813E8151
S11315504096880F991F820F931FFC0120813181CF
S11315604D815E818B819C814096880F991F840FE9
S1131570951FFC01318320838B819C8101969C8380
S11315808B8321E08B819C81893091050CF020E0D4
S11315902223C9F68D819E812F813885FC0133ABCE
S11315A022AB8D819E81FC0184A995A99C012F5FAA
S11315B03F4F8D819E81FC0135AB24AB8D819E8193
S11315C0FC0184819581A681B7812D813E81F90139
S11315D02485358546855785BC01CD010E941A2F87
S11315E0DC01CB012D813E81F90184839583A6839F
S11315F0B7838D819E81FC01808D918DCC01A0E00B
S1131600B0E0BC01CD010E9416307B018C018F81BA
S11316109885CC01A0E0B0E0BC01CD010E94163059
S1131620DC01CB01BC01CD012DEB37E346E058E3EF
S11316300E94C830DC01CB019C01AD01C801B70197
S11316400E941A2FDC01CB01BC01CD010E94EA2FBC
S1131650DC01CB019C018D819E81FC01318F208FA7
S11316608D819E81FC01808D918D8C33910508F4D0
S113167044C08D819E81FC01228D338D8D819E819C
S1131680FC01808D918D4CE350E0BA010E942B3116
S1131690AB01CA01280F391F8D819E81FC01338F54
S11316A0228F8D819E81FC01828D938DF5E0803A9D
S11316B09F0718F18D819E81FC01848D958D9C017D
S11316C02F5F3F4F8D819E81FC01358F248F8D814B
S11316D09E81FC01848D958DF1E08D369F0768F025
S11316E08D819E81FC01868D978D9C012F5F3F4FDC
S11316F08D819E81FC01378F268F8D819E81FC0117
S1131700808D918D2CE330E0B9010E942B319C0136
S11317108D819E81FC01318F208F8D819E81FC0102
S1131720828D938D20EA35E0B9010E942B319C0112
S11317308D819E81FC01338F228F8D819E81FC01DE
S1131740848D958D2DE631E0B9010E942B319C01E9
S11317508D819E81FC01358F248F9091EF0581E06E
S1131760933008F480E09F5F9093EF05882331F075
S11317708D819E810E942B0C1092EF0528960FB646
S1131780F894DEBF0FBECDBFDF91CF911F910F91B3
S1131790FF90EF900895CF93DF9300D00F92CDB7D1
S11317A0DEB79C838B838B819C8121E0FC0121AF7C
S11317B02B813C8180E090E0DC01F90180879187F6
S11317C0A287B3871A82198211C089819A812B81D9
S11317D03C814096880F991F820F931FFC01118250
S11317E0108289819A8101969A83898389819A8159
S11317F021E08A3091050CF020E0222331F70F908C
S11318000F900F900F90DF91CF910895CF93DF93B6
S113181000D000D0CDB7DEB79A8389834B835C8335
S11318206D837E8389819A8121E0FC0120AF298127
S11318303A818B819C81AD81BE81F9018487958732
S1131840A687B78726960FB6F894DEBF0FBECDBF26
S1131850DF91CF910895AF92BF92CF92DF92EF9232
S1131860FF920F931F93CF93DF9300D000D0CDB797
S1131870DEB79E838D831A8219821C821B8217C055
S11318808B819C812D813E814096880F991F820F08
S1131890931FFC018081918129813A81820F931FDA
S11318A09A8389838B819C8101969C838B838B8112
S11318B09C8121E08A3091050CF020E0222301F77D
S11318C08D819E81FC0184859585A685B785BC01A3
S11318D0CD0120E030EA4CE057E40E94C830DC013E
S11318E0CB017C018D0189819A81CC01A0E0B0E01B
S11318F0BC01CD010E941630DC01CB01BC01CD013D
S11319002DEB37E346E058E30E94C830DC01CB01FD
S11319109C01AD01C801B7010E94822FDC01CB01FB
S11319202D813E81F90180879187A287B3878D81BC
S11319309E81FC0184A995A901972D813E81F9011D
S113194024A935A9B9010E942B319B01C901CC01FD
S1131950A0E0B0E0BC01CD010E941630DC01CB0157
S11319602D813E81F901808B918BA28BB38B8D816C
S11319709E81FC0180819181A281B3812D813E8170
S1131980F9012089318942895389BC01CD010E9422
S1131990C830DC01CB017C018D018D819E81FC016D
S11319A0A084B184C284D3848D819E81FC0184A9E6
S11319B095A9CC01A0E0B0E0BC01CD010E94163095
S11319C09B01AC01C601B5010E94822FDC01CB0151
S11319D09C01AD01C801B7010E941A2FDC01CB01A3
S11319E02D813E81F90180839183A283B38326965E
S11319F00FB6F894DEBF0FBECDBFDF91CF911F911C
S1131A000F91FF90EF90DF90CF90BF90AF9008952B
S1131A10CF93DF930F920F92CDB7DEB79A8389836A
S1131A2089819A81FC0180859185A285B385BC0159
S1131A30CD010F900F90DF91CF910895CF93DF9355
S1131A400F920F92CDB7DEB79A83898389819A81E9
S1131A50FC0180819181A281B381BC01CD010F90F1
S1131A600F90DF91CF910895CF93DF930F920F9250
S1131A70CDB7DEB79A83898389819A81FC018481F9
S1131A809581A681B781BC01CD010F900F90DF91A4
S1131A90CF910895CF93DF930F920F92CDB7DEB716
S1131AA09A83898389819A81FC0184859585A68599
S1131AB0B785BC01CD010F900F90DF91CF910895B0
S1131AC0CF93DF930F920F92CDB7DEB79A838983BA
S1131AD089819A81FC0184A995A90F900F90DF91C7
S1131AE0CF910895CF93DF930F920F92CDB7DEB7C6
S1131AF09A83898389819A81FC0186A997A90F9089
S1131B000F90DF91CF910895CF93DF930F920F92AF
S1131B10CDB7DEB79A83898389819A81FC01848950
S1131B2095890F900F90DF91CF910895CF93DF9314
S1131B300F920F92CDB7DEB79A83898389819A81F8
S1131B40FC01868997890F900F90DF91CF910895BA
S1131B50CF93DF930F920F92CDB7DEB79A83898329
S1131B6089819A81FC01828D938D0F900F90DF9172
S1131B70CF910895CF93DF930F920F92CDB7DEB735
S1131B809A83898389819A81FC01848D958D0F9034
S1131B900F90DF91CF910895CF93DF930F920F921F
S1131BA0CDB7DEB79A83898389819A81FC01868DBA
S1131BB0978D0F900F90DF91CF910895CF93DF937E
S1131BC00F920F92CDB7DEB79A83898389819A8168
S1131BD00E94EF0D0F900F90DF91CF910895CF9356
S1131BE0DF930F920F92CDB7DEB79A838983298151
S1131BF03A8180E090E0DC01F90184839583A68337
S1131C00B78389819A81FC011586148689819A811A
S1131C10FC011786168629813A8180E090E0DC0178
S1131C20F90180839183A283B38389819A81FC0122
S1131C3084859585019729813A81F9012485358523
S1131C40B9010E942B319B01C901CC01A0E0B0E095
S1131C50BC01CD010E941630DC01CB0129813A81FF
S1131C60F90180879187A287B3870F900F90DF9146
S1131C70CF910895CF93DF930F920F92CDB7DEB734
S1131C809A83898329813A8180E090E0DC01F9011B
S1131C9084839583A683B78389819A81FC01848593
S1131CA09585019729813A81F90124853585B90102
S1131CB00E942B319B01C901CC01A0E0B0E0BC0122
S1131CC0CD010E941630DC01CB0129813A81F90152
S1131CD080879187A287B3870F900F90DF91CF9170
S1131CE008950F931F93CF93DF93CDB7DEB72A9751
S1131CF00FB6F894DEBF0FBECDBF9A8389834B83A2
S1131D005C836D837E8338872F831A8709872981B3
S1131D103A818B819C81AD81BE81F901808391835D
S1131D20A283B38389819A812F813885FC01358709
S1131D30248789819A8129853A85FC0137872687FA
S1131D4089819A810E943A0E2A960FB6F894DEBFD2
S1131D500FBECDBFDF91CF911F910F910895CF9307
S1131D60DF930F920F92CDB7DEB79A83898389816F
S1131D709A81FC0184819581A681B781BC01CD0142
S1131D800F900F90DF91CF910895CF93DF930F922F
S1131D900F92CDB7DEB79A83898389819A81FC013A
S1131DA080819181A281B381BC01CD010F900F90FC
S1131DB0DF91CF910895CF93DF930F920F92CDB718
S1131DC0DEB79A83898389819A81FC01848595850C
S1131DD00F900F90DF91CF910895CF93DF930F92DF
S1131DE00F92CDB7DEB79A83898389819A81FC01EA
S1131DF0868597850F900F90DF91CF910895AF92CC
S1131E00BF92CF92DF92EF92FF920F931F93CF93E3
S1131E10DF93CDB7DEB7A9970FB6F894DEBF0FBE38
S1131E20CDBF9DA38CA37FA36EA359A748A71E8AE9
S1131E301D8A188E1F8A198E1A8E1A82198268C0FA
S1131E4089819A81880F991F2EA13FA1820F931F28
S1131E50FC01208131818D899E8941E0821793079D
S1131E6008F040E0442379F089819A81880F991F12
S1131E702EA13FA1820F931FFC01808191819E8B33
S1131E808D8B8981898F88A599A599230CF4019656
S1131E90959587959C0189819A81820F931F880F5C
S1131EA0991F2EA13FA1820F931FFC012081318134
S1131EB08F89988D41E08217930708F040E044230E
S1131EC011F188A599A599230CF401969595879508
S1131ED09C0189819A81820F931F880F991F2EA1DB
S1131EE03FA1820F931FFC0180819181988F8F8B7A
S1131EF088A599A599230CF4019695958795982F13
S1131F008981890F8A8F89819A8101969A8389832D
S1131F1088A599A599230CF40196959587959C011C
S1131F2041E089819A81821793070CF040E04423B1
S1131F3009F086CF2D893E898F89988D2817390716
S1131F4018F08D899E8902C08F89988D988B8F8710
S1131F502D893E898F89988D2817390710F0898D2E
S1131F6001C08A8D898F1C8E1B8E1E8E1D8E1F8E26
S1131F7018A219A21BA21AA2898D282F30E088A5C5
S1131F8099A599230CF401969595879541E0281716
S1131F9039070CF040E0442309F4E3C0898D882F0D
S1131FA090E00F969BA38AA38AA19BA19C838B8319
S1131FB0CBC08B819C81880F991F2EA13FA1820FDA
S1131FC0931FFC01808191819C8F8B8F8B819C81DD
S1131FD09E838D832AC08D819E81880F991F2EA197
S1131FE03FA1820F931FFC01208131818B8D9C8D39
S1131FF041E02817390708F440E0442389F08D8133
S11320009E81880F991F2EA13FA1820F931F2B8DB4
S11320103C8DFC01318320838D819E819E8F8D8F29
S11320208D819E8101969E838D838B819C819C01F1
S1132030225E3F4F41E08D819E81821793070CF011
S113204040E0442341F68D8D9E8D0F9798878F83B2
S113205055C08D8D9E8D2F81388528173907DCF466
S11320608D8D9E8D880F991F2EA13FA1820F931FE6
S1132070FC01208131818F819885880F991F4EA1A1
S11320805FA1840F951FFC01808191812817390776
S113209010F481E001C080E0882319F088A18F5FEB
S11320A088A38D8D9E8D2F81388528173907DCF004
S11320B08D8D9E8D880F991F2EA13FA1820F931F96
S11320C0FC01208131818F819885880F991F4EA151
S11320D05FA1840F951FFC01808191812817390726
S11320E010F081E001C080E0882319F08F8D8F5FAC
S11320F08F8F8F819885019698878F838D8D9E8D84
S11321009C01215F3F4F41E08F8198852817390753
S11321100CF440E0442309F09CCF8F8D8B3028F0E1
S113212088A18B3010F081E001C080E0882321F089
S113213081E089A300000CC118A21F8E19A28B8113
S11321409C8105969C838B8341E02B813C8188A5EF
S113215099A5281739070CF040E0442309F029CF4A
S1132160F7C0898D282F30E088A599A599230CF410
S1132170019695958795281739072CF089A188230E
S113218011F481E001C080E0882309F4E1C0898D65
S1132190882F90E00F979BA38AA318A21F8E8AA171
S11321A09BA19A878987CAC089859A85880F991FB8
S11321B02EA13FA1820F931FFC01808191819C8FEE
S11321C08B8F89859A859C878B872AC08B859C8574
S11321D0880F991F2EA13FA1820F931FFC0120811C
S11321E031818B8D9C8D41E02817390708F440E03C
S11321F0442389F08B859C85880F991F2EA13FA1CC
S1132200820F931FFC01808191819C8F8B8F8B8522
S11322109C859E8F8D8F8B859C8501979C878B8752
S113222089859A859C012E51304041E08B859C859F
S1132230281739070CF040E0442341F68D8D9E8D1C
S11322400F969E878D8755C08D8D9E8D2D853E85DD
S113225028173907DCF08D8D9E8D880F991F2EA1CC
S11322603FA1820F931FFC01208131818D859E85C2
S1132270880F991F4EA15FA1840F951FFC018081D7
S113228091812817390710F081E001C080E088238C
S113229019F088A18F5F88A38D8D9E8D2D853E8535
S11322A028173907DCF48D8D9E8D880F991F2EA178
S11322B03FA1820F931FFC01208131818D859E8572
S11322C0880F991F4EA15FA1840F951FFC01808187
S11322D091818217930710F081E001C080E0882388
S11322E019F08F8D8F5F8F8F8D859E8501979E87C7
S11322F08D878D8D9E8D9C012F50304041E08D85C2
S11323009E85281739070CF040E0442309F09CCF40
S11323108F8D8B3028F088A18B3010F081E001C0C4
S113232080E0882319F081E089A312C018A21F8ECF
S113233019A289859A8505979A87898721E08985D5
S11323409A85181619060CF020E0222309F02CCFE8
S113235099A181E0992309F480E0882309F4B5C0A8
S1132360898D282F30E08D8D9E8DA901481B590B36
S1132370CA0199231CF4909581959F4FAA2797FD34
S1132380A095BA2FBC01CD010E941830DC01CB010D
S1132390BC01CD012FE632E143E05CE30E94C8308A
S11323A0DC01CB01898B9A8BAB8BBC8B60E070E03A
S11323B080E792E429893A894B895C890E94822FBB
S11323C0DC01CB012CA13DA1F90184839583A68373
S11323D0B7838CA19DA1FC01848595859C012F5F09
S11323E03F4F8CA19DA1FC01358724878CA19DA121
S11323F0FC0184859585FFEF8E3F9F0729F48CA10E
S11324009DA1FC01158614868CA19DA1FC018485E7
S1132410958501972CA13DA1F90124853585B90144
S11324200E942B319B01C901CC01A0E0B0E0BC01AA
S1132430CD010E941630DC01CB012CA13DA1F90194
S113244080879187A287B3878CA19DA1FC0180819D
S11324509181A281B3812CA13DA1F901208531850F
S113246042855385BC01CD010E94C830DC01CB01FB
S11324707C018D018CA19DA1FC01A480B580C68046
S1132480D7808CA19DA1FC0184859585CC01A0E019
S1132490B0E0BC01CD010E9416309B01AC01C60125
S11324A0B5010E94822FDC01CB019C01AD01C80162
S11324B0B7010E941A2FDC01CB012CA13DA1F90127
S11324C080839183A283B38322C08091ED05909190
S11324D0EE0501969093EE058093ED058091ED0550
S11324E09091EE0521E08430910508F420E0222348
S11324F071F02CA13DA180E090E0DC01F90184831E
S11325009583A683B7831092EE051092ED05A996E4
S11325100FB6F894DEBF0FBECDBFDF91CF911F91F0
S11325200F91FF90EF90DF90CF90BF90AF90089500
S1132530CF93DF930F920F92CDB7DEB79A8389833F
S113254089819A810E94430889819A81CA960E944E
S1132550DE0D0E94FC3224E630E0B9010E943F31D6
S113256001969C0189819A81865B9F4FFC0131838E
S113257020830F900F90DF91CF910895CF93DF9335
S11325800F920F92CDB7DEB79A83898389819A819E
S11325900E945F0889819A81CA960E94EF0D0F906C
S11325A00F90DF91CF910895CF93DF9300D000D0A7
S11325B0CDB7DEB79A8389834B835C836D837E8337
S11325C089819A812B813C814D815E81BA01A90167
S11325D00E94E10889819A81CA960E94EF0D26968D
S11325E00FB6F894DEBF0FBECDBFDF91CF91089533
S11325F00F931F93CF93DF93CDB7DEB72A970FB610
S1132600F894DEBF0FBECDBF9A8389834B835C836E
S11326106D837E8338872F831A87098789819A81FE
S11326202B813C814D815E81AF81B885E985FA8536
S1132630BA01A9019D018F010E94050989819A812E
S1132640CA960E94EF0D2A960FB6F894DEBF0FBE0D
S1132650CDBFDF91CF911F910F910895CF93DF9359
S1132660CDB7DEB7A4970FB6F894DEBF0FBECDBFCB
S11326708CA38CA1882F90E00197982F82E2989FD9
S1132680802D11248C5E89838981882F90E00E949B
S1132690A333DC01CB018A839B83AC83BD83898113
S11326A0882F90E004960E94A333DC01CB018E8333
S11326B09F83A887B9878981882F90E008960E9414
S11326C0A333DC01CB018A879B87AC87BD878981D3
S11326D0882F90E00C960E94A9339F878E8789816A
S11326E0882F90E00E960E94A933998B888B89815C
S11326F0882F90E040960E94A9339B8B8A8B898116
S1132700882F90E042960E94A9339D8B8C8B8981FF
S1132710882F90E044960E94A9339F8B8E8B8981E9
S1132720882F90E046960E94A933998F888F8981DB
S1132730882F90E048960E94A9339B8F8A8F8981C5
S1132740882F90E04A960E94A9339D8F8C8F8981AF
S1132750882F90E04C960E94A9339F8F8E8F898199
S1132760882F90E04E960E94A333DC01CB0188A30E
S113277099A3AAA3BBA39CA182E2989F802D1124B4
S1132780805389838981882F90E02A813B814C8101
S11327905D81BA01A9010E94C1338981882F90E02B
S11327A004962E813F8148855985BA01A9010E946A
S11327B0C1338981882F90E008962A853B854C8512
S11327C05D85BA01A9010E94C1338981882F90E0F7
S11327D00C962E853F85B9010E94CD338981882FBF
S11327E090E00E9628893989B9010E94CD338981F8
S11327F0882F90E040962A893B89B9010E94CD3305
S11328008981882F90E042962C893D89B9010E94E4
S1132810CD338981882F90E044962E893F89B90170
S11328200E94CD338981882F90E04696288D398D7A
S1132830B9010E94CD338981882F90E048962A8D72
S11328403B8DB9010E94CD338981882F90E04A964F
S11328502C8D3D8DB9010E94CD338981882F90E064
S11328604C962E8D3F8DB9010E94CD338981882FDE
S113287090E04E9628A139A14AA15BA1BA01A90111
S11328800E94C133A4960FB6F894DEBF0FBECDBF2D
S1132890DF91CF910895CF93DF9300D00F92CDB7FE
S11328A0DEB78C8388E090E00E949B338B838C811D
S11328B0882F90E001969A83898308C089810E94B9
S11328C02E1389819A8101969A8389838B81282F7B
S11328D030E041E089819A81281739070CF440E0FF
S11328E0442361F78B8181508B8388E090E06B8176
S11328F00E94D3330F900F900F900F90DF91CF91E0
S113290008950F931F93CF93DF9300D0CDB7DEB715
S113291088E090E00E949B3389838981882F90E02E
S11329200197880F991F9C0122953295307F322799
S1132930207F3227820F931F44969B838A83898149
S11329408F5F898388E090E069810E94AF3387E0DC
S113295090E061E00E94AF330A811B818DE293E035
S11329600E941E0D9B01AC01C801BA01A9010E947D
S1132970C1338A819B8104968C0187E693E00E948F
S1132980C50E9B01AC01C801BA01A9010E94C13363
S11329908A819B8108968C018DE293E00E94340D1C
S11329A09B01AC01C801BA01A9010E94C1338A810B
S11329B09B810C968C018DE293E00E94840D9C0116
S11329C0C801B9010E94CD338A819B810E968C0186
S11329D08DE293E00E94960D9C01C801B9010E940A
S11329E0CD338A819B8140968C018DE293E00E94D5
S11329F0A80D9C01C801B9010E94CD338A819B8135
S1132A0042968C018DE293E00E94BA0D9C01C801AC
S1132A10B9010E94CD338A819B8144968C018DE259
S1132A2093E00E94CC0D9C01C801B9010E94CD33F2
S1132A308A819B8146968C018DE293E00E94600D11
S1132A409C01C801B9010E94CD338A819B814896BB
S1132A508C018DE293E00E94720D9C01C801B901C2
S1132A600E94CD338A819B814A968C0187E693E04C
S1132A700E94DB0E9C01C801B9010E94CD338A81FA
S1132A809B814C968C0187E693E00E94ED0E9C019D
S1132A90C801B9010E94CD338A819B814E968C0175
S1132AA08DE293E00E944A0D9B01AC01C801BA017A
S1132AB0A9010E94C1330F900F900F90DF91CF9125
S1132AC01F910F9108950F931F93CF93DF93CDB769
S1132AD0DEB769970FB6F894DEBF0FBECDBF88E0AE
S1132AE090E00E949B3389878985882F90E0019725
S1132AF0880F991F9C0122953295307F3227207FC1
S1132B003227820F931F44969B878A87CE010E96A5
S1132B1020E032E04CE0F90100802F5F3F4FFC01E0
S1132B200082019641504423B1F71A8219821D860E
S1132B301C8685E093E00E948B01882F90E09A83A5
S1132B40898385E093E00E946701882F90E09D8748
S1132B508C871C821B8216C09E01225F3F4F8B8193
S1132B609C81820F931FFC018081882F90E0298132
S1132B703A81820F931F9A8389838B819C8101966A
S1132B809C838B832B813C818C859D85019741E0BF
S1132B902817390708F040E04423F1F6898582308C
S1132BA060F08A859B854E960E94A333DC01CB019D
S1132BB08D839E83AF83B88707C080E090E0DC01FB
S1132BC08D839E83AF83B88785E093E00E9479016B
S1132BD0FC018DE293E02D813E814F815885A981CE
S1132BE0BA81BA01A9019D018F010E94F81287E000
S1132BF090E060E00E94AF3369960FB6F894DEBFB0
S1132C000FBECDBFDF91CF911F910F910895CF9348
S1132C10DF93CDB7DEB70E94811487E090E060E0D7
S1132C200E94AF33DF91CF9108958F929F92AF921C
S1132C30BF92CF92DF92EF92FF920F931F93CF93A5
S1132C40DF93CDB7DEB7A7970FB6F894DEBF0FBEFC
S1132C50CDBF88E090E00E949B3389838981882FCF
S1132C6090E00197880F991F9C0122953295307F3F
S1132C703227207F3227820F931F44969B838A83B7
S1132C808A819B810E94A333DC01CB018C839D83C9
S1132C90AE83BF838A819B8104960E94A333DC01A7
S1132CA0CB0188879987AA87BB878A819B810896ED
S1132CB00E94A333DC01CB018C879D87AE87BF873D
S1132CC08A819B810C960E94A933998B888B8A8177
S1132CD09B810E960E94A9339B8B8A8B8A819B8150
S1132CE040960E94A9339D8B8C8B8A819B8142964E
S1132CF00E94A9339F8B8E8B8A819B8144960E946C
S1132D00A933998F888F8A819B8146960E94A93323
S1132D109B8F8A8F8A819B8148960E94A9339D8FBD
S1132D208C8F8A819B814A960E94A9339F8F8E8FB4
S1132D308A819B814C960E94A93399A388A38A8196
S1132D409B814E960E94A333DC01CB018AA39BA3F3
S1132D50ACA3BDA38DB79EB70A970FB6F8949EBFD8
S1132D600FBE8DBF8DB79EB701960F2EFDE2AF2E1D
S1132D70F3E0BF2EF02D4C815D816E817F810C8547
S1132D801D852E853F85CAA0DBA0ECA0FDA0AA8DE1
S1132D90BB8DEC8DFD8DFFA3EEA38C889D88FC017B
S1132DA0918280828E889F88FC0193828282888CA3
S1132DB0998CFC019582848288889988FC01978289
S1132DC086828A889B88FC0191868086C5015D0184
S1132DD08EA09FA00E94C0098DB79EB70A960FB619
S1132DE0F8949EBF0FBE8DBF87E693E02885398592
S1132DF04A855B85AE8DBF8DE8A1F9A1BA01A90111
S1132E009D018F010E94710EA7960FB6F894DEBF44
S1132E100FBECDBFDF91CF911F910F91FF90EF9027
S1132E20DF90CF90BF90AF909F908F900895CF93F5
S1132E30DF930F92CDB7DEB787E090E00E949B331B
S1132E4089838981882321F00E94631581E003C06E
S1132E500E94151680E00F90DF91CF910895CF93D3
S1132E60DF93CDB7DEB72F970FB6F894DEBF0FBE52
S1132E70CDBF8E876F87F8948E85882309F44BC065
S1132E801A82198281E08B832CC082E090E00E9438
S1132E909B338F8381E090E00E949B33888780E09E
S1132EA090E00E949B3389878F818C33A8F48885B6
S1132EB08C3390F48985883178F48985682F70E0A3
S1132EC08885482F50E08F81282F30E085E093E0FB
S1132ED00E9416061B8205C089819A8101969A83F5
S1132EE089838B81882339F089819A818330910584
S1132EF014F481E001C080E0882339F68B818823B3
S1132F0051F085E093E061E070E041E050E021E0C1
S1132F1030E00E9416068F85882309F44EC01D8276
S1132F201C8281E08E832FC084E090E00E949B335A
S1132F308A8783E090E00E949B338B8785E090E052
S1132F400E94A9339D878C878A858F31B8F48B853D
S1132F508D30A0F48C859D8527E28031920770F432
S1132F608B85682F70E08A85482F50E02C853D853D
S1132F7085E093E00E9445021E8205C08C819D81FC
S1132F8001969D838C838E81882339F08C819D8169
S1132F908330910514F481E001C080E0882321F698
S1132FA08E81882351F085E093E061E070E041E098
S1132FB050E021ED37E00E94450278942F960FB639
S1132FC0F894DEBF0FBECDBFDF91CF910895CF93AC
S1132FD0DF93CDB7DEB729970FB6F894DEBF0FBEE7
S1132FE0CDBF88876987F89488858823F1F085E0C8
S1132FF093E00E947705898385E093E00E9465054C
S11330008A8385E093E00E9453058B8382E090E0FD
S11330106B810E94AF3381E090E06A810E94AF33FC
S113302080E090E069810E94AF338985882309F1AB
S113303085E093E00E9479019D838C8385E093E091
S11330400E9467018E8385E093E00E948B018F8349
S113305085E090E02C813D81B9010E94CD3383E06D
S113306090E06E810E94AF3384E090E06F810E9413
S1133070AF33789429960FB6F894DEBF0FBECDBF58
S1133080DF91CF910895CF93DF9300D000D0CDB7D7
S1133090DEB79E838D8385E093E00E945305882FDD
S11330A090E09A83898389819A819C018D819E8194
S11330B0820F931F2CE330E0B9010E942B319C83D3
S11330C08B8301C0000085E093E00E945305282F04
S11330D030E08B819C8141E02817390709F440E0F6
S11330E0442381F726960FB6F894DEBF0FBECDBFFA
S11330F0DF91CF910895CF93DF9300D00F92CDB796
S1133100DEB79C838B8317C01A82198206C0000025
S113311089819A8101969A83898389819A8121E0A0
S1133120883C91050CF020E0222389F78B819C8157
S113313001979C838B8321E08B819C81009709F408
S113314020E0222309F70F900F900F900F90DF914A
S1133150CF910895CF93DF930F92CDB7DEB78983D4
S1133160000080EC90E0FC018081882F90E0807268
S1133170907021E0009709F020E0222391F786EC7B
S113318090E02981FC0120830F90DF91CF91089575
S1133190CF93DF9300D0CDB7DEB79B838A831982A8
S11331A00EC08981882F90E02A813B81820F931F72
S11331B0FC01808199819F5F99830E94AA1889816B
S11331C0882F90E02A813B81820F931FFC0190811C
S11331D081E0992309F480E0882319F70F900F9078
S11331E00F90DF91CF910895CF93DF930F92CDB7D6
S11331F0DEB78983000088EC90E0FC018081882F91
S113320090E08072907021E0009709F020E0222382
S113321091F78EEC90E02981FC0120830F90DF91DF
S1133220CF910895CF93DF9300D0CDB7DEB79B83C2
S11332308A83198212C08EE591E00E947B188981ED
S1133240882F90E02A813B81820F931FFC018081AB
S113325099819F5F99830E94F4188981882F90E057
S11332602A813B81820F931FFC01908181E0992385
S113327009F480E08823F9F60F900F900F90DF9106
S1133280CF910895CF93DF93CDB7DEB7C155D0402A
S11332900FB6F894DEBF0FBECDBF789419821A82A0
S11332A081E08B8314C38981882F90E0823091055B
S11332B009F49CC0833091053CF4009791F081306F
S11332C0910509F485C0FEC28430910509F4B4C2A5
S11332D0843091050CF4BFC08530910509F4CDC24A
S11332E0F1C21A828EEC90E0FC018081888F888D77
S11332F08E3239F48CE092E00E94121984E08983C2
S1133300E6C28A81882F90E09E01265D3F4F820F9E
S1133310931F288DFC0120838A818F5F8A8381E03B
S11333208983D5C2000088EC90E0FC018081882369
S113333034F08091F502882311F081E001C080E02F
S1133340882389F782E390E00E947B188091F5023C
S1133350882359F48FE092E00E94C818CE018A961F
S11333600E94C81819820000B2C28EEC90E0FC01E1
S11333708081888F8A81882F90E09E01265D3F4F4F
S1133380820F931F288DFC0120838A818F5F8A839B
S1133390888D8E3219F0888D882371F48A81882F64
S11333A090E09E01265D3F4F820F931FFC01108227
S11333B01B8282E089830CC08A81873248F01A829A
S11333C01B821092F5028CE092E00E94121919827D
S11333D08B81882331F08091F502882311F081E0FC
S11333E001C080E0882309F09DCF71C2CE018A9686
S11333F02AE132E0B90143E050E00E944E330097E5
S113340099F484E089838AE192E00E94121981E0B0
S11334108093F0028091F102882309F457C210923C
S1133420F1021092F40252C28CA591E08A3309F0A1
S113343090E02DA581E02A3309F080E089278823D4
S113344019F083E0898342C28CE092E00E94121951
S113345084E089833BC21C821D8281E090E09F83CB
S11334608E831A8E198E1C8E1B8E1E8E1D8E18A294
S11334701F8E1AA219A21CA21BA2198618861B86CB
S11334801A861D861C8673C09E01265D3F4F8E8161
S11334909F81820F931FFC0180818A33E9F08A8522
S11334A09B8583309105C4F49E01265D3F4F8E8138
S11334B09F81820F931FFC0140819E012B5D3F4F32
S11334C08C859D85820F931FFC0140838C859D858F
S11334D001969D878C8746C08A859B85823091059D
S11334E00CF040C09E01265D3F4F8E819F81820F6C
S11334F0931FFC0180818A33A9F5CE0185960E9431
S11335000C339C018A859B85880F991FAE014F5F00
S11335105F4F840F951F4896FC01318320838A8571
S11335209B8501969B878A871F861E860EC09E01F7
S11335302B5D3F4F8E859F85820F931FFC01108268
S11335408E859F8501969F878E8741E02E853F85D6
S11335508C859D85821793070CF440E0442339F74A
S11335601D861C868E819F8101969F838E839E017A
S1133570265D3F4F8E819F81820F931FFC018081C6
S11335808F3269F09E01265D3F4F8E819F81820FAD
S1133590931FFC018081882311F081E001C080E049
S11335A0882309F071CF9E01265D3F4F8E819F8154
S11335B0820F931FFC0180818F32A9F4CE0185967E
S11335C00E940C339C018A859B85880F991FAE014C
S11335D04F5F5F4F840F951F4896FC013183208312
S11335E081E08C8302C085E08983198A188A0EC021
S11335F09E012B5D3F4F88899989820F931FFC019F
S11336001082888999890196998B888B41E0288951
S113361039898C859D85821793070CF440E04423F7
S113362039F71D861C868E819F8101969F838E8328
S113363073C09E01265D3F4F8E819F81820F931F31
S1133640FC0180818C32E9F088859985833091056D
S1133650C4F49E01265D3F4F8E819F81820F931F8C
S1133660FC0140819E012B5D3F4F8C859D85820F1F
S1133670931FFC0140838C859D8501969D878C87D3
S113368046C088859985823091050CF040C09E0122
S1133690265D3F4F8E819F81820F931FFC018081A5
S11336A08C32A9F5CE0185960E940C339C01888545
S11336B09985880F991FAE014F5F5F4F840F951F47
S11336C04E96FC01318320838885998501969987DC
S11336D088871B8A1A8A0EC09E012B5D3F4F8A89F8
S11336E09B89820F931FFC0110828A899B89019612
S11336F09B8B8A8B41E02A893B898C859D85821727
S113370093070CF440E0442339F71D861C868E8110
S11337109F8101969F838E839E01265D3F4F8E81FC
S11337209F81820F931FFC0180818E32A9F09E013C
S1133730265D3F4F8E819F81820F931FFC01808104
S1133740882351F08A81282F30E08E819F812817A9
S1133750390711F081E001C080E0882309F069CFC6
S11337609E01265D3F4F8E819F81820F931FFC0136
S113377080818E32A9F4CE0185960E940C339C017F
S113378088859985880F991FAE014F5F5F4F840F1D
S1133790951F4E96FC013183208381E08D8302C006
S11337A085E089838D81882309F43EC08C81882338
S11337B0D9F1698D7A8D4B8D5C8D2D8D3E8D85E093
S11337C093E00E9416066F8D78A149A15AA12BA1FE
S11337D03CA185E093E00E94450281E061E00E9403
S11337E0E7171092F00281E08093F1021092F20246
S11337F08091FB02882379F01092FB028F8D98A1AF
S1133800BC0189A19AA1AC018BA19CA19C018DE270
S113381093E00E945F0981E48AA7CE018A960E9400
S1133820121984E0898353C081E08093F0021092DE
S1133830F10285E089834BC019821092F5021D8A3A
S11338401C8A0EC09E01265D3F4F8C899D89820F84
S1133850931FFC0110828C899D8901969D8B8C8B12
S11338608A81282F30E041E08C899D892817390707
S11338700CF440E0442331F72AC08DE192E00E9429
S113388012191092F5021F8A1E8A0EC09E01265D2F
S11338903F4F8E899F89820F931FFC0110828E896E
S11338A09F8901969F8B8E8B8A81282F30E041E07F
S11338B08E899F89281739070CF440E0442331F797
S11338C0198205C019821092F50201C0000090917E
S11338D0F50281E0992309F480E0882309F0E3CC20
S11338E0CF5ADF4F0FB6F894DEBF0FBECDBFDF91C6
S11338F0CF910895CF93DF93CDB7DEB7CD55D040A8
S11339000FB6F894DEBF0FBECDBF19821A8281E0D4
S11339108B8381E08093F602F6C18981882F90E041
S11339208330910509F4F0C0843091055CF4813052
S1133930910509F484C0823091050CF08EC0009783
S113394071F0DDC18530910509F497C18530910589
S11339500CF485C18630910509F4B0C1D0C188E06A
S113396091E028E031E0F90120812068FC01208306
S11339701D821C8206C000008C819D8101969D835E
S11339808C8321E08C819D81823091050CF020E0B4
S1133990222389F788E091E028E031E0F9012081D1
S11339A02F77FC01208381E08983ADC182E390E01D
S11339B00E947B18000088EC90E0FC018081882341
S11339C034F08091F602882311F081E001C080E098
S11339D0882389F78091F602882319F4198200005C
S11339E092C18EEC90E0FC0180818C878A81882FC3
S11339F090E09E012A5C3F4F820F931F2C85FC01AF
S1133A0020838A818F5F8A838C858E3219F08C851E
S1133A10882371F48A81882F90E09E012A5C3F4FAD
S1133A20820F931FFC0110821B8282E0898307C0EE
S1133A308A81873220F01A821B8285E089838B81F8
S1133A40882331F08091F602882311F081E001C0CF
S1133A5080E0882309F0AACF56C1CE01C69620E2A1
S1133A6032E0B90142E050E00E944E33009719F46D
S1133A7083E0898348C1CE01C69623E232E0B901CE
S1133A8042E050E00E944E33009751F486E089836F
S1133A9081E08093F9021092F2021092F40233C191
S1133AA0CE01C6969E01225F3F4FB9010E943E336C
S1133AB0009739F486E089831092F4021092F2029E
S1133AC022C1CE01C69626E232E0B90143E050E0BD
S1133AD00E944E33009739F486E089831092F202F3
S1133AE01092F40210C1CE01C6962DE132E0B90164
S1133AF042E050E00E944E33009719F484E0898339
S1133B0002C185E08983FFC084E690E00E947B18AF
S1133B108091F202882349F08091F402882329F4E9
S1133B2083E292E00E94121976C08091F402882305
S1133B3009F453C08091F202882309F04EC0CE01EB
S1133B400E9621E430E0FC013183208385E093E08C
S1133B500E94B9079C01CE010E96B9010E9433332D
S1133B60CE010E969C01F90101900020E9F7CF01E6
S1133B700197821B930B9E01225F3F4F820F931F7D
S1133B802FE230E0FC013183208385E093E00E9442
S1133B9044049C01CE010E96B9010E943333CE0138
S1133BA00E969C01F90101900020E9F7CF010197DD
S1133BB0821B930B9E01225F3F4F820F931F2EE2C5
S1133BC030E0FC013183208383E50E94AA1880E061
S1133BD061E041E00E9490241EC08091F402882399
S1133BE059F08091F202882339F08CE092E00E942F
S1133BF012191092F4020FC08091F402882359F430
S1133C008091F202882339F483E292E00E9412192F
S1133C1081E08093F2021F821E820EC09E012A5C04
S1133C203F4F8E819F81820F931FFC0110828E81F2
S1133C309F8101969F838E838A81282F30E041E003
S1133C408E819F81281739070CF440E0442331F713
S1133C501A821C8681E08B8381E0898354C085E0CD
S1133C6093E00E947E078D878D85882319F481E077
S1133C708093F30286E0898346C019821092F6028B
S1133C80198618860EC09E012A5C3F4F8885998547
S1133C90820F931FFC01108288859985019699876C
S1133CA088878A81282F30E041E088859985281704
S1133CB039070CF440E0442331F725C019821092EF
S1133CC0F6021B861A860EC09E012A5C3F4F8A8527
S1133CD09B85820F931FFC0110828A859B85019628
S1133CE09B878A878A81282F30E041E08A859B85DB
S1133CF0281739070CF440E0442331F704C0198233
S1133D001092F60200009091F60281E0992309F4E2
S1133D1080E0882309F001CEC35ADF4F0FB6F89430
S1133D20DEBF0FBECDBFDF91CF910895CF93DF9358
S1133D30CDB7DEB7E0970FB6F894DEBF0FBECDBFA8
S1133D4019821A8281E08B8324C18A81882F90E0B2
S1133D508230910509F481C0833091053CF40097C9
S1133D6071F08130910509F468C00FC18330910569
S1133D7009F4C5C08430910509F4E6C006C119826E
S1133D8086EC90E0FC018081888788858E3219F466
S1133D9083E08A83FEC08981882F90E09E01275F9B
S1133DA03F4F820F931F2885FC01208389818F5FF9
S1133DB0898381E08A83EDC0000080EC90E0FC01FF
S1133DC08081882334F08091F702882311F081E008
S1133DD001C080E0882389F78091F7028823D9F114
S1133DE086EC90E0FC01808188878981882F90E0AF
S1133DF09E01275F3F4F820F931F2885FC0120837C
S1133E0089818F5F898388858E3219F0888588231C
S1133E1071F48981882F90E09E01275F3F4F820FC4
S1133E20931FFC0110821B8282E08A8306C0898171
S1133E30873218F083E08A831B828B81882331F0D8
S1133E408091F702882311F081E001C080E088238B
S1133E5009F0B2CF9EC000009CC0CE0109962AE2B0
S1133E6032E0B90142E050E00E944E33009741F441
S1133E7081E060E041E00E94902484E08A8389C06C
S1133E80CE0109962DE232E0B90142E050E00E94F1
S1133E904E33009741F481E061E040E00E949024B9
S1133EA084E08A8376C0CE01099620E332E0B9012A
S1133EB042E050E00E944E33009741F481E061E01B
S1133EC041E00E94902484E08A8363C0CE01099675
S1133ED023E332E0B90142E050E00E944E33009700
S1133EE059F481E060E00E94E717CE0109960E9430
S1133EF0C81884E08A834DC083E08A834AC084E67C
S1133F0090E00E947B181092F7021D821C820EC062
S1133F109E01275F3F4F8C819D81820F931FFC017F
S1133F2010828C819D8101969D838C838981282FA9
S1133F3030E041E08C819D81821793070CF040E0D2
S1133F40442331F71A8225C01092F7021F821E8281
S1133F500EC09E01275F3F4F8E819F81820F931F6A
S1133F60FC0110828E819F8101969F838E838981BB
S1133F70282F30E041E08E819F81821793070CF057
S1133F8040E0442331F71A8204C01092F7021A82E7
S1133F9000009091F70281E0992309F480E08823DE
S1133FA009F0D3CEE0960FB6F894DEBF0FBECDBFB6
S1133FB0DF91CF910895CF93DF93CDB7DEB7E2972A
S1133FC00FB6F894DEBF0FBECDBF19821A8281E00E
S1133FD08B8322C18981882F90E08330910509F475
S1133FE0B5C0843091055CF48130910509F472C048
S1133FF0823091050CF07EC0009771F009C18530C4
S1134000910509F4DEC0853091050CF4D4C08630E6
S1134010910509F4F6C0FCC01A8286EC90E0FC011C
S11340208081888788858E3219F483E08983F4C07F
S11340308A81882F90E09E01255F3F4F820F931F56
S11340402885FC0120838A818F5F8A8381E08983AC
S1134050E3C0000080EC90E0FC018081882334F010
S11340608091F702882311F081E001C080E0882369
S113407089F78091F7028823D9F186EC90E0FC015E
S1134080808188878A81882F90E09E01255F3F4F39
S1134090820F931F2885FC0120838A818F5F8A8386
S11340A088858E3219F08885882371F48A81882F57
S11340B090E09E01255F3F4F820F931FFC01108209
S11340C01B8282E0898306C08A81873218F083E0EC
S11340D089831B828B81882331F08091F7028823A6
S11340E011F081E001C080E0882309F0B2CF94C0D0
S11340F0000092C0CE010B96FC01208186E392E081
S1134100FC018081281719F483E0898385C0CE01DE
S11341100B9628E332E0B90142E050E00E944E33AE
S1134120009719F485E0898377C0CE010B962BE3C1
S113413032E0B90144E050E00E944E33009719F494
S113414084E0898369C086E0898366C0CE010B96CA
S11341509A87898789E793E09E01275F3F4FB901DA
S11341600E94C22D82E089831D821C820EC09E01A2
S1134170255F3F4F8C819D81820F931FFC0110822C
S11341808C819D8101969D838C838A81282F30E0C8
S113419041E08C819D81821793070CF040E0442319
S11341A031F71A821B82809102038823A1F181E0F6
S11341B08093020330C081E08093FD0285E089830F
S11341C02BC01F821E820EC09E01255F3F4F8E8131
S11341D09F81820F931FFC0110828E819F81019623
S11341E09F838E838A81282F30E041E08E819F81D6
S11341F0821793070CF040E0442331F71092F70242
S11342000BC08CE092E00E94C81885E0898304C04A
S11342101092F70201C000009091F70281E0992307
S113422009F480E0882309F0D5CEE2960FB6F8941D
S1134230DEBF0FBECDBFDF91CF9108950F931F93C3
S1134240CF93DF93CDB7DEB7C756D0400FB6F894FF
S1134250DEBF0FBECDBF9E0129593F4FF9018083B8
S1134260CE01805B9F4F2FE532E042E1F9010080EF
S11342702F5F3F4FFC010082019641504423B1F768
S113428019821A821B8281E08C831CA21BA280E00B
S113429090E0DC018F87988BA98BBA8B80E090E04B
S11342A0DC018B8B9C8BAD8BBE8B80E090E0DC01C2
S11342B08F8B988FA98FBA8FCE0189599F4FFC019C
S11342C08081882309F459C0CE0189599F4FFC018C
S11342D08081882F90E00197880F991F9C01229577
S11342E03295307F3227207F3227820F931F4496E6
S11342F09CA38BA38BA19CA10E94A333DC01CB01C3
S11343008F87988BA98BBA8B8BA19CA104960E9452
S1134310A333DC01CB018B8B9C8BAD8BBE8B8BA130
S11343209CA108960E94A333DC01CB018F8B988F4C
S1134330A98FBA8F8BA19CA10C960E94A9339E834E
S11343408D838BA19CA10E960E94A93398878F839D
S11343508BA19CA140960E94A9339A8789878BA13F
S11343609CA142960E94A9339C878B878BA19CA118
S113437044960E94A9339E878D8781E08093F8023A
S1134380BAC28A81882F90E08530910509F4E1C191
S113439086309105BCF48230910509F4ABC08330BA
S11343A091053CF4009739F18130910509F44AC034
S11343B09FC28330910509F4B5C08430910509F496
S11343C0DBC096C28830910509F4F2C189309105A9
S11343D04CF48630910509F4C3C18730910509F482
S11343E0C6C186C28930910509F408C28A30910594
S11343F009F424C27DC288E091E028E031E0F901AB
S113440020812068FC0120831C8E1B8E06C00000C6
S11344108B8D9C8D01969C8F8B8F21E08B8D9C8D39
S1134420823091050CF020E0222389F788E091E0A6
S113443028E031E0F90120812F77FC01208381E01D
S11344408A8359C28CE291E00E947B1843C084E6BF
S113445090E00E947B18000088EC90E0FC018081D1
S1134460882334F08091F802882311F081E001C0A0
S113447080E0882389F78091F6028823C9F18EECC5
S113448090E0FC0180818DA38B81882F90E09E01B8
S11344902A5D3F4F820F931F2DA1FC0120838B8146
S11344A08F5F8B838DA18E3271F48B81882F90E086
S11344B09E012A5D3F4F820F931FFC0110821C82D4
S11344C082E08A8307C08B81873220F01B821C82A2
S11344D086E08A838C81882331F08091F8028823D6
S11344E011F081E001C080E0882309F0B0CF03C25D
S11344F0000001C280910303882319F083E08A83BA
S1134500FAC180910103882319F089E08A83F3C1F9
S113451080910403882319F087E08A83ECC186E044
S11345208A83E9C1CE01869620E232E0B90142E0F5
S113453050E00E944E33009719F484E08A83DBC173
S1134540CE0186969E01265C3F4FB9010E943E3300
S1134550009719F484E08A83CEC1CE01869620E4C4
S113456032E0B9010E943E33009719F484E08A8353
S1134570C2C185E08A83BFC18981893008F0E3C064
S11345808981882F90E001979E01205B3F4F880F1F
S1134590991F820F931FFC0120813181CE01CA969D
S11345A0B9010E9447338981882F90E001979E01C9
S11345B0205B3F4F880F991F820F931FFC0180815E
S11345C091810E94C8188981882F90E084309105D8
S11345D009F44FC0853091058CF481309105F9F0D0
S11345E08230910524F4009709F47DC079C08230AB
S11345F0910519F18330910571F172C086309105EE
S113460009F44DC0863091050CF43EC08730910505
S113461009F450C08830910509F457C061C08F85F2
S11346209889A989BA89FE01FC96BC01CD0145E0AF
S113463022E08F010E94563157C08B899C89AD8935
S1134640BE89FE01FC96BC01CD0145E022E08F014C
S11346500E94563149C08F89988DA98DBA8DFE016B
S1134660FC96BC01CD0146E022E08F010E94563148
S11346703BC08D819E819E01245C3F4FB9014AE07D
S113468050E00E94853330C08F8198859E01245C60
S11346903F4FB9014AE050E00E94853325C0898527
S11346A09A859E01245C3F4FB9014AE050E00E9484
S11346B085331AC08B859C859E01245C3F4FB901CC
S11346C04AE050E00E9485330FC08D859E859E018F
S11346D0245C3F4FB9014AE050E00E94853304C096
S11346E086E08A8301C000008981882339F0CE01E5
S11346F0CC960E94C8188EE20E94AA1889818F5F06
S1134700898381E08A831E8E1D8E0EC09E012A5DE0
S11347103F4F8D8D9E8D820F931FFC0110828D8DD6
S11347209E8D01969E8F8D8F8B81282F30E041E0E6
S11347308D8D9E8D821793070CF040E0442331F752
S11347401B821C82D8C085E08A8381E080930303A6
S1134750D2C088E392E00E94C8181092F802CBC03D
S11347608CE092E00E94C81885E08A83C4C0CE0120
S1134770869620E232E0B90142E050E00E944E33D6
S1134780009719F488E08A83B6C0CE01869623E4A4
S113479032E0B90143E050E00E944E33009729F41F
S11347A085E08A8310920403A6C086E08A83A3C0AE
S11347B083E492E00E94C81881E08A8318A21F8EC5
S11347C00EC09E012A5D3F4F8F8D98A1820F931FCB
S11347D0FC0110828F8D98A1019698A38F8F8B81F5
S11347E0282F30E041E08F8D98A1821793070CF0B9
S11347F040E0442331F71B821C827DC0CE018696A3
S113480020E232E0B90142E050E00E944E330097CA
S113481019F48AE08A836FC0CE0186969E01245CD7
S11348203F4FB9010E943E33009729F485E08A8303
S11348301092010360C086E08A835DC0CE0189596D
S11348409F4FFC018081882F90E09E012E593F4F9D
S1134850B9014AE050E00E948533CE01CC9624E4AD
S113486030E0FC0131832083CE018E599F4F9C019F
S1134870F90101900020E9F7CF010197821B930B06
S11348809E012E593F4F820F931F2EE230E0FC0110
S113489031832083CE01CC969E012E593F4FB9011E
S11348A00E943333CE01CC960E94C81881E08A83DB
S11348B01AA219A20EC09E012A5D3F4F89A19AA196
S11348C0820F931FFC01108289A19AA101969AA3D9
S11348D089A38B81282F30E041E089A19AA1821716
S11348E093070CF040E0442331F71B821C8203C081
S11348F01092F80200009091F80281E0992309F4E3
S113490080E0882309F03DCDC959DF4F0FB6F894F4
S1134910DEBF0FBECDBFDF91CF911F910F910895E0
S1134920CF93DF93CDB7DEB7EB970FB6F894DEBF26
S11349300FBECDBF89AF6AAF4BAF89AD882351F1AC
S11349408AAD882389F085E093E00E94B9079C0131
S1134950CE010196B9010E944733CE0101960E940F
S1134960C8188FE20E94AA188BAD8823E1F185E074
S113497093E00E9444049C01CE010C96B9010E946C
S11349804733CE010C960E94C81881E792E00E943A
S1134990C81829C08AAD882389F085E093E00E9475
S11349A0B9079C01CE014D96B9010E944733CE014F
S11349B04D960E9412198FE20E94F4188BAD882341
S11349C091F085E093E00E9444049C01CE01889616
S11349D0B9010E944733CE0188960E94121981E7DB
S11349E092E00E941219EB960FB6F894DEBF0FBE48
S11349F0CDBFDF91CF9108951F920F920FB60F9202
S1134A0000905B000F9211242F933F938F939F93F9
S1134A10EF93FF93CF93DF93CDB7DEB7F8948091F4
S1134A20FA02882331F01092FA0281E08093F702AF
S1134A3002C01092F70281EC90E021EC30E0F90121
S1134A4020812F77FC0120837894DF91CF91FF910F
S1134A50EF919F918F913F912F910F9000925B0066
S1134A600F900FBE0F901F9018951F920F920FB6C4
S1134A700F9200905B000F9211242F933F938F931A
S1134A809F93EF93FF93CF93DF93CDB7DEB7F89463
S1134A908091F902882331F01092F90281E0809329
S1134AA0F50202C01092F50289EC90E029EC30E0A6
S1134AB0F90120812F77FC0120837894DF91CF9135
S1134AC0FF91EF919F918F913F912F910F900092C1
S1134AD05B000F900FBE0F901F9018951F920F92BE
S1134AE00FB60F9200905B000F9211242F933F9307
S1134AF04F935F936F937F938F939F93AF93BF93E2
S1134B00EF93FF93CF93DF93CDB7DEB7F8948BE0A9
S1134B1091E02BE031E0F90120812860FC01208341
S1134B2081E08093F9028DE390E02DE330E0F90118
S1134B3020812C7FFC01208380E292E00E941219E4
S1134B4089EC90E029EC30E0F90120812068FC0137
S1134B5020838BE091E02BE031E0F9012081277F75
S1134B60FC0120837894DF91CF91FF91EF91BF9165
S1134B70AF919F918F917F916F915F914F913F91F1
S1134B802F910F9000925B000F900FBE0F901F901B
S1134B9018951F920F920FB60F9200905B000F9220
S1134BA011242F933F934F935F936F937F938F932E
S1134BB09F93AF93BF93EF93FF93CF93DF93CDB7BF
S1134BC0DEB7F89481E08093FA0281EC90E021EC66
S1134BD030E0F90120812068FC0120838DE390E01E
S1134BE02DE330E0F90120812C7FFC01208380E259
S1134BF092E00E94C8187894DF91CF91FF91EF91D1
S1134C00BF91AF919F918F917F916F915F914F91E0
S1134C103F912F910F9000925B000F900FBE0F9069
S1134C201F9018951F920F920FB60F9200905B0081
S1134C300F9211242F933F934F935F936F937F931E
S1134C408F939F93AF93BF93EF93FF93CF93DF9390
S1134C500F920F92CDB7DEB7F89484E890E0FC0190
S1134C60808191819A83898389819A818330910596
S1134C7008F449C08BE091E02BE031E0F901208198
S1134C802064FC01208380918703882339F01092EB
S1134C9087038DE293E00E94CB0B0DC080918503C6
S1134CA09091860329813A81281B390B8DE293E088
S1134CB0B9010E945A0A10928603109285038091CA
S1134CC0EB059091EC0521E0893091050CF420E08E
S1134CD001969093EC058093EB05222339F081E053
S1134CE0809388031092EC051092EB0582E390E028
S1134CF00E947B188BE091E02BE031E0F9012081E8
S1134D002F7BFC01208384E890E0FC011182108257
S1134D1078940F900F90DF91CF91FF91EF91BF9115
S1134D20AF919F918F917F916F915F914F913F913F
S1134D302F910F9000925B000F900FBE0F901F9069
S1134D4018951F920F920FB60F9211248F93CF9341
S1134D50DF93CDB7DEB7F8948091EF02882319F082
S1134D601092EF0203C081E08093EF027894DF9108
S1134D70CF918F910F900FBE0F901F9018951F9297
S1134D800F920FB60F9200905B000F9211242F9395
S1134D903F934F935F936F937F938F939F93AF93BF
S1134DA0BF93EF93FF93CF93DF930F920F92CDB7FF
S1134DB0DEB7F8941A8219820E94722D9A8389832D
S1134DC08091E9059091EA0549815A819C01220F5D
S1134DD0331F27573C4FF901518340830196909329
S1134DE0EA058093E9058091E9059091EA0521E0BF
S1134DF0F1E08C329F0708F420E0222369F010923E
S1134E00EA051092E90587E693E029E833E0B90161
S1134E104CE251E00E94FF0E78940F900F90DF91C6
S1134E20CF91FF91EF91BF91AF919F918F917F911E
S1134E306F915F914F913F912F910F9000925B0082
S1134E400F900FBE0F901F9018951F920F920FB6E0
S1134E500F9200905B000F9211242F933F934F9376
S1134E605F936F937F938F939F93AF93BF93EF93CE
S1134E70FF93CF93DF93CDB7DEB7F894809185038A
S1134E809091860321E08530910508F420E0019695
S1134E909093860380938503222331F080918703C6
S1134EA0882311F481E001C080E0882339F081E097
S1134EB0809387038DE293E00E94CB0B7894DF917B
S1134EC0CF91FF91EF91BF91AF919F918F917F917E
S1134ED06F915F914F913F912F910F9000925B00E2
S1134EE00F900FBE0F901F9018951F920F920FB640
S1134EF00F9200905B000F9211242F933F934F93D6
S1134F005F936F937F938F939F93AF93BF93EF932D
S1134F10FF93CF93DF93CDB7DEB785E290E025E230
S1134F2030E0F901308120E22327FC01208385E071
S1134F3093E061E070E00E9434078091E105909174
S1134F40E2058930910554F48091F502882321F417
S1134F508091F902882311F081E001C080E0882368
S1134F6051F08091E1059091E20501969093E2055C
S1134F708093E1053EC08091E1059091E20589307E
S1134F80910554F08091F502882321F48091F9026F
S1134F90882311F081E001C080E0882391F0109211
S1134FA0E2051092E1051092F5021092F9028DE3E8
S1134FB090E02DE330E0F90120812360FC0120839F
S1134FC018C08091F502882369F48091F90288233E
S1134FD049F48091E1059091E2051816190614F43C
S1134FE081E001C080E0882321F01092E205109254
S1134FF0E1058091E3059091E4058930910554F42D
S11350008091F702882321F48091FA02882311F019
S113501081E001C080E0882351F08091E305909104
S1135020E40501969093E4058093E3053EC08091E6
S1135030E3059091E4058930910554F08091F702DD
S1135040882321F48091FA02882311F081E001C0C1
S113505080E0882391F01092E4051092E305109209
S1135060F7021092FA028DE390E02DE330E0F901AB
S113507020812360FC01208318C08091F7028823DB
S113508069F48091FA02882349F48091E3059091B0
S1135090E4051816190614F481E001C080E08823A1
S11350A021F01092E4051092E3058091F602882322
S11350B049F08091E5059091E6058930910514F455
S11350C081E001C080E0882351F08091E505909152
S11350D0E60501969093E6058093E50534C080913A
S11350E0F602882349F08091E5059091E605893020
S11350F0910514F081E001C080E0882381F01092D2
S1135100E6051092E5051092F6028DE390E02DE39A
S113511030E0F90120812360FC01208314C08091D8
S1135120F602882349F48091E5059091E605181666
S1135130190614F481E001C080E0882321F0109264
S1135140E6051092E5058091EE02882349F08091EE
S1135150E7059091E8058937910514F481E001C0D1
S113516080E0882351F08091E7059091E80501964D
S11351709093E8058093E70535C08091EE0288237B
S113518049F08091E7059091E8058937910514F07D
S113519081E001C080E0882389F01092E805109234
S11351A0E7051092EE028091F102882321F481E058
S11351B08093F20217C01092F20214C08091EE02A2
S11351C0882349F48091E7059091E805181619069B
S11351D014F481E001C080E0882321F01092E805F6
S11351E01092E705DF91CF91FF91EF91BF91AF91BD
S11351F09F918F917F916F915F914F913F912F91EB
S11352000F9000925B000F900FBE0F901F901895A7
S11352100F931F93CF93DF93CDB7DEB7CC54D04019
S11352200FB6F894DEBF0FBECDBF0E94DC2B83E324
S113523090E00E94332C0E94DB2C81E061E00E940C
S11352402F170E94192D0E9417178093FB0282E0EA
S113525090E00E9443188091FB02882329F084E7A0
S113526092E00E94C81804C089E892E00E94C8181D
S1135270789401C000008091F502882389F180911F
S1135280EF02882369F58091F702882349F585E2C6
S113529090E025E230E0F90120812064FC012083C4
S11352A00E94421982E090E00E9443188091F70224
S11352B0882369F48091FA02882349F48DE390E00D
S11352C02DE330E0F90120812360FC01208385E295
S11352D090E025E230E0F90120812F7BFC0120835E
S11352E08091F702882369F18091EF02882349F5C0
S11352F085E290E025E230E0F90120812068FC019C
S113530020830E94961E82E090E00E9443188091C0
S1135310F502882369F48091F902882349F48DE326
S113532090E02DE330E0F90120812360FC0120832B
S113533085E290E025E230E0F90120812F77FC013D
S113534020838091F202882329F48091F402882337
S113535009F448C08091F902882309F043C0809180
S1135360EF02882309F03EC08BE091E02BE031E0AE
S1135370F90120812062FC0120838DE390E02DE37C
S113538030E0F90120812C7FFC0120838DE992E03B
S11353900E94C8180E947A1C82E090E00E94431880
S11353A08091F5028823A9F48091F902882389F475
S11353B08091F702882369F48091FA02882349F4E2
S11353C08DE390E02DE330E0F90120812360FC01BE
S11353D020838BE091E02BE031E0F90120812F7DE7
S11353E0FC0120838091F002882389F08091F902E6
S11353F0882369F48091EF02882349F481E0809343
S1135400F4021092F0021092F1021092F2028091D2
S11354108803882309F4CBC08091FA02882309F019
S1135420C6C08091F902882309F0C1C08091F702B7
S1135430882309F0BCC08091F502882309F0B7C025
S11354408091EF02882309F0B2C0F8941092880387
S11354508DE293E00E94080DDC01CB018D839E83D5
S1135460AF83B8878DE293E00E941E0DDC01CB016F
S113547089879A87AB87BC878DE293E00E94340DBD
S1135480DC01CB018D879E87AF87B88B87E693E0DD
S11354900E94AF0EDC01CB01898B9A8BAB8BBC8B4A
S11354A087E693E00E94C50EDC01CB018D8B9E8BB9
S11354B0AF8BB88F8EEA92E00E94C81882EB92E01C
S11354C00E94C81881E061E041E00E9490248D812F
S11354D09E81AF81B885FE01B396BC01CD0145E044
S11354E023E08F010E94563189859A85AB85BC855E
S11354F0FE01BB96BC01CD0145E023E08F010E9473
S113550056318D859E85AF85B889FE01F396BC0121
S1135510CD0147E024E08F010E94563189899A89A0
S1135520AB89BC89FE01FB96BC01CD0144E022E0BD
S11355308F010E9456318D899E89AF89B88DFE01F5
S1135540ED5BFF4FBC01CD0144E022E08F010E94DE
S113555056318DEB92E00E94C818CE0183960E94CA
S1135560C81883EC92E00E94C818CE018B960E9462
S1135570C8188BEC92E00E94C818CE01C3960E9412
S1135580C81881ED92E00E94C818CE01CB960E9403
S1135590C81887ED92E00E94C818CE018D5B9F4F1A
S11355A00E94C8188FED92E00E94C81878948091E8
S11355B0FC02882309F4BDC08091FE02882351F0C7
S11355C08DE293E0298D3A8D4B8D5C8DBA01A90152
S11355D00E94060C8091FF02882321F00E9481140E
S11355E00E9463158091FD02882309F4A2C0809172
S11355F00103882349F480910403882329F48091CA
S11356000303882309F495C081E090E09E8F8D8F79
S113561082E090E098A38F8F80910403882319F08F
S113562080E00E941E2180910303882341F0809131
S11356300103882321F48D8D0E941E2171C0809165
S11356400103882309F46CC080910303882309F0C3
S113565067C08F8D0E941E2189E793E00E941F2E50
S113566089A38F8D99A1F92FF81B8F2F8AA31A82F2
S1135670198218C089E793E00E94312E9C01CE0163
S1135680855B9F4FFC01318320838FE793E09E016C
S1135690255B3F4FB9010E94C22D89819A810196F1
S11356A09A8389838AA1282F30E041E089819A81F5
S11356B0821793070CF040E04423E1F689E793E076
S11356C00E94312E9C01CE01855B9F4FFC013183EA
S11356D020831C821B8218C08FE793E00E94312E26
S11356E09C01CE01855B9F4FFC013183208389E7B8
S11356F093E09E01255B3F4FB9010E94C22D8B812F
S11357009C8101969C838B838AA1282F30E041E001
S11357108B819C81821793070CF040E04423E1F6CF
S113572080910003882329F08D8D0E944B141092E0
S113573000038091EF028823B1F1F8940E940716C8
S11357408BE091E02BE031E0F90120812068FC013D
S1135750208384EF91E00E947B188BE091E0FC01B0
S1135760108285E290E025E230E0F90120812F717A
S1135770FC01208388E091E028E031E0F9012081F8
S11357802E7FFC01208383E590E024E0FC0120834C
S113579083E590E023E530E0F90120812160FC01FC
S11357A02083789488958091F302882309F462CD4C
S11357B081E08093F2025ECDCF93DF93CDB7DEB765
S11357C084E290E0FC01108287E290E0FC01108208
S11357D08AE290E0FC0110828DE290E0FC011082EC
S11357E080E390E0FC01108283E390E0FC011082EE
S11357F081E091E0FC01108284E091E0FC011082E0
S113580087E091E0FC0110828AE091E0FC011082C3
S113581085E290E0FC01108288E290E0FC011082B5
S11358208BE290E0FC0110828EE290E0FC01108299
S113583081E390E0FC01108284E390E0FC0110829B
S113584082E091E0FC01108285E091E0FC0110828D
S113585088E091E0FC0110828BE091E0FC01108271
S1135860DF91CF910895CF93DF930F920F92CDB72D
S1135870DEB79A83898384EC90E02981FC0120833C
S113588085EC90E029813A81232F3327FC01208382
S11358908CEC90E02981FC0120838DEC90E029813F
S11358A03A81232F3327FC01208381EC90E028E107
S11358B0FC01208382EC90E026E0FC01208389EC4B
S11358C090E028E1FC0120838AEC90E026E0FC01D2
S11358D020838AE091E02FEFFC0120838BE091E0AC
S11358E0FC01108284E290E024E230E0F90120819E
S11358F0206EFC01208385E290E025E230E0F9018E
S113590020812F71FC01208384E690E024E630E0BE
S1135910F90120812D6AFC01208389E690E02FE0C3
S1135920FC0120838AE690E020EFFC0120838DE3D4
S113593090E02DE330E0F90120812C7FFC012083ED
S11359408DE390E02DE330E0F90120812F7BFC0111
S113595020838DE390E02DE330E0F901208120687D
S1135960FC01208381E08093EE021092EF021092FA
S1135970F0021092F1021092F2021092F3021092CD
S1135980F4021092F5021092F7021092F9021092AA
S1135990FA021092F6021092F8028DE390E02DE3E1
S11359A030E0F90120812360FC0120830F900F90E7
S11359B0DF91CF910895CF93DF93CDB7DEB784E61F
S11359C090E024E630E0F90120812F7BFC01208364
S11359D082E090E00E947B1886EB90E026EB30E0BA
S11359E0F90120812062FC01208381EB90E021EB0E
S11359F030E0F90120812560FC01208386EB90E0F2
S1135A00FC018081882F90E08171907021E00097E3
S1135A1009F420E0222391F787E390E021E0FC01E0
S1135A20208380E790E021E0FC012083DF91CF9187
S1135A300895CF93DF93CDB7DEB784E690E024E6F4
S1135A4030E0F9012081277FFC01208381E890E088
S1135A5021E830E0F90120812460FC01208386E301
S1135A6090E021E0FC01208384E890E0FC011182B5
S1135A7010828FE690E021E0FC0120838DE390E02A
S1135A802DE330E0F90120812064FC012083DF91C3
S1135A90CF910895CF93DF93CDB7DEB784E690E03E
S1135AA024E630E0F90120812F7DFC01208384E489
S1135AB090E022E0FC01208385E490E024E0FC01F6
S1135AC0208387E490E020E8FC01208386E490E0D2
S1135AD0FC0110828EE690E022E0FC012083DF913D
S1135AE0CF910895CF93DF9300D00F92CDB7DEB757
S1135AF01C821B821A8219821CC08AE790E02AE762
S1135B0030E0F90120812064FC0120838AE790E0E1
S1135B10FC018081882F90E08074907021E00097D0
S1135B2009F420E0222391F789819A8101969A83CE
S1135B30898321E089819A81823091050CF020E0EB
S1135B402223D9F688E790E0FC018081882F90E039
S1135B509C838B8389E790E0FC018081882F90E00F
S1135B60982F88279C018B819C81822B932B9C836B
S1135B708B838B819C810F900F900F900F90DF91FE
S1135B80CF910895CF93DF9300D00F92CDB7DEB7B6
S1135B909A8389837C836B8389819A81FC01228126
S1135BA0338189819A81FC01808191812817390789
S1135BB021F489819A810E945C2E89819A81FC0159
S1135BC04481558189819A81FC01808191819C0164
S1135BD0220F331F240F351F4B815C81FA01408152
S1135BE05181F901518340839C012F5F3F4F89818B
S1135BF09A81FC01318320830F900F900F900F90B6
S1135C00DF91CF910895CF93DF930F920F92CDB789
S1135C10DEB79A83898389819A81FC01118210827B
S1135C2089819A81FC011382128289819A81FC0103
S1135C30158214820F900F90DF91CF910895CF9326
S1135C40DF930F920F92CDB7DEB79A838983898150
S1135C509A81FC01808191810F900F90DF91CF9107
S1135C600895CF93DF930F920F92CDB7DEB79A8347
S1135C70898389819A81FC012481358189819A8172
S1135C80FC0180819181AC014150504089819A810D
S1135C90FC015183408389819A81FC018081918137
S1135CA0880F991F820F931FFC01808191810F90AF
S1135CB00F90DF91CF910895CF93DF9300D00F928F
S1135CC0CDB7DEB79C838B838B819C81FC01828161
S1135CD09381009741F08B819C81FC0182819381A7
S1135CE0880F991F02C081E090E02B813C81F9016B
