:100000000C9473000C944F1B0C94381C0C94A60099
:100010000C94A6000C94A6000C94A6000C94811CD1
:100020000C94791D0C94A6000C94A6000C94A600C8
:100030000C94A6000C94A6000C94A6000C944D1EE3
:100040000C94A6000C94A6000C94A6000C94A60098
:100050000C94FD1D0C94971D0C94A6000C94A60006
:100060000C94A6000C94DD1A0C94A6000C94A60027
:100070000C94A6000C94A6000C94A6000C94A60068
:100080000C94A6000C94A6000C94A6000C94A60058
:100090000C94161B0C94A6000C94A6000C94A600BD
:1000A0000C94A6000C94A6000C94A6000C94A60038
:1000B0000C94A6000C94A6000C94A6000C94A60028
:1000C0000C94A6000C94A6000C94A6000C94A60018
:1000D0000C94A6000C94A6000C94A6000C94A60008
:1000E0000C94A600652511241FBECFEFD1E2DEBF20
:1000F000CDBF00E00CBF12E0A0E0B2E0ECECF0E518
:1001000000E00BBF02C007900D92AC35B107D9F7E4
:100110001BBE15E0ACE5B2E001C01D92AB33B107E8
:10012000E1F710E0C6EED0E000E006C0229701093A
:10013000FE010BBF0E94AF27C43ED10780E0080735
:10014000A9F71BBE0E948D1F0C9464280C9400001C
:10015000CF93DF930F920F92CDB7DEB79A83898347
:1001600089819A81FC011182108289819A81FC0126
:100170001382128289819A81FC01158214820F9068
:100180000F90DF91CF910895CF93DF93CDB7DEB776
:1001900028970FB6F894DEBF0FBECDBF9A83898330
:1001A0007C836B835E834D8338872F8389819A811B
:1001B0006B817C814D815E812F8138850E94C701D2
:1001C00028960FB6F894DEBF0FBECDBFDF91CF915A
:1001D0000895CF93DF930F920F92CDB7DEB79A8336
:1001E000898389819A81FC01808191810F900F9090
:1001F000DF91CF910895CF93DF930F920F92CDB7F8
:10020000DEB79A83898389819A81FC0184819581F3
:100210000F900F90DF91CF910895CF93DF930F92BE
:100220000F92CDB7DEB79A83898389819A81FC01C9
:10023000828193810F900F90DF91CF910895CF939A
:10024000DF9300D00F92CDB7DEB79A8389837C838A
:100250006B838B819C810C968931910538F489815F
:100260009A812B813C81FC01318320830F900F9078
:100270000F900F90DF91CF910895CF93DF9300D02F
:100280000F92CDB7DEB79A8389837C836B83898194
:100290009A81FC01808191818930910581F0898169
:1002A0009A81FC01808191818430910541F089819E
:1002B0009A81FC01808191818630910541F48B8186
:1002C0009C814E968D33910510F481E001C080E051
:1002D000882341F089819A812B813C81FC01338301
:1002E000228328C089819A81FC018081918182309A
:1002F000910541F48B819C814C968933910510F4D2
:1003000081E001C080E0882341F089819A812B81BE
:100310003C81FC01338322830DC08B819C814F96ED
:100320008F33910538F489819A812B813C81FC01BE
:10033000338322830F900F900F900F90DF91CF9116
:100340000895CF93DF9300D00F92CDB7DEB79A8395
:1003500089837C836B838B819C8127E0803D92071E
:1003600044F089819A812B813C81FC01358324836F
:1003700007C089819A8122EF33E0FC013583248311
:100380000F900F900F900F90DF91CF910895CF9322
:10039000DF93CDB7DEB728970FB6F894DEBF0FBE58
:1003A000CDBF9A8389837C836B835E834D8338873B
:1003B0002F8389819A812B813C81B9010E941F0181
:1003C00089819A812D813E81B9010E943D018981F7
:1003D0009A812F813885B9010E94A10128960FB614
:1003E000F894DEBF0FBECDBFDF91CF910895CF93BC
:1003F000DF9300D000D0CDB7DEB79C838B837E83A4
:100400006D838B819C81FC01248135818D819E814E
:10041000820F931F9A83898389819A8121E0F7E073
:100420008D3D9F070CF420E0222339F029813A8189
:100430008B819C81FC013583248326960FB6F8942A
:10044000DEBF0FBECDBFDF91CF910895CF93DF9375
:10045000CDB7DEB72A970FB6F894DEBF0FBECDBF7B
:1004600098878F837A8769878F819885FC0120819F
:10047000318189859A85820F931F9E838D838D811B
:100480009E818D3091053CF08D819E818931910551
:1004900014F481E001C080E0882361F081E090E005
:1004A0009A8389838F81988529813A81B9010E9435
:1004B000F70122C08D819E8121E0893191050CF4E4
:1004C00020E0222391F08D819E812CE030E0B90163
:1004D0000E949C279B013C832B838F8198852B81D5
:1004E0003C81B9010E94F70107C02D813E818F81B7
:1004F0009885FC01318320832A960FB6F894DEBFDD
:100500000FBECDBFDF91CF910895CF93DF9300D081
:1005100000D0CDB7DEB79C838B837E836D838B81C8
:100520009C81FC01228133818D819E81820F931FEA
:100530009A8389838B819C81FC01808191818930A0
:10054000910581F08B819C81FC01808191818430B7
:10055000910541F08B819C81FC01808191818630E5
:10056000910511F481E001C080E0882331F1898197
:100570009A814E9621E08D33910508F020E02223E8
:1005800041F029813A818B819C81FC013383228354
:1005900071C08B819C8161E070E00E94260289819C
:1005A0009A812FE130E0B9010E949C279C018B8148
:1005B0009C81FC01338322835DC08B819C81FC0183
:1005C0008081918121E08230910509F020E0222391
:1005D00049F18B819C81FC01828193814C9621E0C1
:1005E0008933910508F020E0222341F029813A81E6
:1005F0008B819C81FC01338322833CC08B819C8155
:1006000061E070E00E94260289819A812DE130E04C
:10061000B9010E949C279C018B819C81FC01338342
:10062000228328C08B819C81FC01828193814F961B
:1006300021E08F33910508F020E0222341F0298149
:100640003A818B819C81FC013383228313C08B818F
:100650009C8161E070E00E94260289819A8120E2FB
:1006600030E0B9010E949C279C018B819C81FC0198
:100670003383228326960FB6F894DEBF0FBECDBF1C
:10068000DF91CF910895CF93DF9300D0CDB7DEB740
:100690009B838A8319828A819B81FC01808191815D
:1006A0000C9621E08931910508F020E0222309F41D
:1006B00066C08A819B81FC0180819181893091058E
:1006C00081F08A819B81FC01808191818430910538
:1006D00041F08A819B81FC01808191818630910566
:1006E00059F48A819B81FC01828193814E968D33DE
:1006F000910510F481E001C080E0882319F081E0C9
:10070000898328C08A819B81FC018081918182300C
:10071000910559F48A819B81FC01828193814C96D9
:100720008933910510F481E001C080E0882319F03D
:1007300081E089830FC08A819B81FC018281938142
:100740004F9621E08F33910508F020E0222311F02D
:1007500081E089838981882359F08A819B81FC010A
:1007600084819581F7E08D3D9F0714F081E001C001
:1007700080E0882311F081E003C080E001C080E0C8
:100780000F900F900F90DF91CF910895CF93DF934B
:10079000CDB7DEB72D970FB6F894DEBF0FBECDBF35
:1007A0009D878C878C859D85FC01808191819E0130
:1007B0002F5F3F4FB9014AE050E00E94FA278C8535
:1007C0009D85FC01828193819E012C5F3F4FB90181
:1007D0004AE050E00E94FA278C859D85FC018481C7
:1007E00095819E01295F3F4FB9014AE050E00E9488
:1007F000FA278C859D8506969E012F5F3F4FB90194
:100800000E94E5278C859D859C012A5F3F4FC90189
:10081000AC01FA0101900020E9F7CF010197841B98
:10082000950B820F931F2CE230E0FC013183208373
:100830008C859D8506969E012C5F3F4FB9010E94D5
:10084000D1278C859D859C012A5F3F4FC901AC0152
:10085000FA0101900020E9F7CF010197841B950B65
:10086000820F931F2CE230E0FC01318320838C85C2
:100870009D8506969E01295F3F4FB9010E94D127B1
:100880008C859D85FC01168A8C859D8506962D9606
:100890000FB6F894DEBF0FBECDBFDF91CF910895A4
:1008A000CF93DF930F920F92CDB7DEB79A838983F0
:1008B00089819A810E94A80089819A8160E070E014
:1008C00040E050E020E030E00E9498050F900F904B
:1008D000DF91CF910895CF93DF93CDB7DEB72897FF
:1008E0000FB6F894DEBF0FBECDBF9A8389837C8399
:1008F0006B835E834D8338872F8389819A810E9421
:10090000A80089819A816B817C814D815E812F81D4
:1009100038850E94980528960FB6F894DEBF0FBE62
:10092000CDBFDF91CF910895CF92DF92EF92FF92EA
:100930000F931F93CF93DF93CDB7DEB72E970FB6EC
:10094000F894DEBF0FBECDBF9A8389837C836B830F
:100950005E834D8338872F831A870987FC86EB8651
:10096000DE86CD8689819A8169857A854B855C850D
:100970002D853E850E94C40089819A816B817C818E
:100980004D815E812F8138850E9498052E960FB685
:10099000F894DEBF0FBECDBFDF91CF911F910F91B5
:1009A000FF90EF90DF90CF900895CF93DF930F9259
:1009B0000F92CDB7DEB79A83898389819A81FC0132
:1009C000838D948D0F900F90DF91CF910895CF93E9
:1009D000DF930F920F92CDB7DEB79A838983898117
:1009E0009A81FC01818D928D0F900F90DF91CF91B4
:1009F0000895CF93DF930F920F92CDB7DEB79A830E
:100A0000898389819A81FC018789908D0F900F904D
:100A1000DF91CF910895CF93DF93CDB7DEB7A29743
:100A20000FB6F894DEBF0FBECDBF98A38F8F7AA309
:100A300069A3CE010B9629A13AA1B9010E94E5272D
:100A40001A82198243C01C821B8220C029813A81EC
:100A5000C901880F991F280F391F8B819C81820F34
:100A6000931F9E01255F3F4F820F931FFC01408122
:100A70009E012B5E3F4F8B819C81820F931FFC0157
:100A800040838B819C8101969C838B8321E08B81A9
:100A90009C81823091050CF020E02223B9F6CE0132
:100AA00045960E94B3279C0189819A81880F991FDE
:100AB000AE014F5F5F4F840F951F0496FC01318399
:100AC000208389819A8101969A83898321E0898193
:100AD0009A81833091050CF020E0222309F0B3CFF6
:100AE0008D819E8147968F329105C0F48F819885C4
:100AF000CB968737910590F489859A85CB96873771
:100B0000910560F46D817E814F81588529853A85F4
:100B10008F8D98A10E94980581E001C080E0A29687
:100B20000FB6F894DEBF0FBECDBFDF91CF91089511
:100B3000CF93DF93CDB7DEB728970FB6F894DEBF1B
:100B40000FBECDBF9A8389837C836B835E834D8385
:100B500038872F8389819A812B813C81B9010E943A
:100B6000C80589819A812D813E81B9010E94E605DF
:100B700089819A812F813885B9010E9404062896BF
:100B80000FB6F894DEBF0FBECDBFDF91CF910895B1
:100B9000CF93DF9300D00F92CDB7DEB79A838983CE
:100BA0007C836B838B819C8147968F32910538F4CF
:100BB00089819A812B813C81FC01308F278B0F909A
:100BC0000F900F900F90DF91CF910895CF93DF9307
:100BD00000D00F92CDB7DEB79A8389837C836B8375
:100BE0008B819C81CB968737910538F489819A81D6
:100BF0002B813C81FC01328F218F0F900F900F9041
:100C00000F90DF91CF910895CF93DF9300D00F9293
:100C1000CDB7DEB79A8389837C836B838B819C817C
:100C2000CB968737910538F489819A812B813C8155
:100C3000FC01348F238F0F900F900F900F90DF9156
:100C4000CF910895CF93DF93CDB7DEB728970FB636
:100C5000F894DEBF0FBECDBF9E838D8378876F83F0
:100C60008D819E81FC012789308D8F819885820F2F
:100C7000931F9A83898389819A8128E130E0B901A1
:100C80000E949C279C018D819E81FC01308F278BC7
:100C900089819A8121E0883191050CF420E022239A
:100CA00091F089819A8128E130E0B9010E949C2766
:100CB0009B01C9019C838B838D819E812B813C810B
:100CC000B9010E94850228960FB6F894DEBF0FBEC8
:100CD000CDBFDF91CF910895CF93DF93CDB7DEB72E
:100CE00028970FB6F894DEBF0FBECDBF9E838D83CD
:100CF00078876F838D819E81FC01218D328D8F815C
:100D00009885820F931F9A83898389819A812CE326
:100D100030E0B9010E949C279C018D819E81FC01DD
:100D2000328F218F89819A8121E08C3391050CF4D7
:100D300020E0222391F089819A812CE330E0B901EF
:100D40000E949C279B01C9019C838B832B813C8142
:100D50008D819E81B9010E94220628960FB6F894D3
:100D6000DEBF0FBECDBFDF91CF910895CF93DF934C
:100D7000CDB7DEB728970FB6F894DEBF0FBECDBF54
:100D80009E838D8378876F838D819E81FC01238D67
:100D9000348D8F819885820F931F9A8389838981EF
:100DA0009A812CE330E0B9010E949C279C018D813F
:100DB0009E81FC01348F238F89819A8121E08C33BD
:100DC00091050CF420E0222391F089819A812CE393
:100DD00030E0B9010E949C279B01C9019C838B8351
:100DE0002B813C818D819E81B9010E946C062896E1
:100DF0000FB6F894DEBF0FBECDBFDF91CF9108953F
:100E0000CF93DF930F920F92CDB7DEB79A8389838A
:100E100089819A81FC01838D948DCB9687379105CA
:100E2000A0F489819A81FC01818D928DCB968737C0
:100E3000910558F489819A81FC018789908D4796A4
:100E40008F32910510F481E001C080E0882369F0C1
:100E500089819A810E944303982F81E0992309F4A4
:100E600080E0882311F081E001C080E00F900F90B6
:100E7000DF91CF910895CF93DF93CDB7DEB72B9756
:100E80000FB6F894DEBF0FBECDBF9B878A878A85D9
:100E90009B85FC018789908D9E012F5F3F4FB90193
:100EA0004AE050E00E94FA278A859B85FC01818DEB
:100EB000928D9E012C5F3F4FB9014AE050E00E94A5
:100EC000FA278A859B85FC01838D948D9E01295F7D
:100ED0003F4FB9014AE050E00E94FA278A859B857E
:100EE0004D969E012F5F3F4FB9010E94E5278A85ED
:100EF0009B859C01235E3F4FC901AC01FA01019023
:100F00000020E9F7CF010197841B950B820F931FF7
:100F10002AE330E0FC01318320838A859B854D964E
:100F20009E012C5F3F4FB9010E94D1278A859B8586
:100F30009C01235E3F4FC901AC01FA0101900020E2
:100F4000E9F7CF010197841B950B820F931F2AE3CA
:100F500030E0FC01318320838A859B854D969E017C
:100F6000295F3F4FB9010E94D1278A859B85FC01EB
:100F700010A68A859B854D962B960FB6F894DEBFFA
:100F80000FBECDBFDF91CF910895CF93DF93CDB743
:100F9000DEB76C970FB6F894DEBF0FBECDBF81E011
:100FA00090E00E942328898380E090E00E9423281B
:100FB0008A838981882309F067C08A81882F90E01D
:100FC0009C0121503040C901880F991F820F931F47
:100FD000880F991F880F991F880F991F02969C836D
:100FE0008B838B819C810E942B289E838D838B8198
:100FF0009C8102960E942B2898878F838B819C81ED
:1010000004960E942B289A8789878B819C8106965B
:101010000E942B289C878B878B819C8108960E943D
:101020002B289E878D878B819C810A960E942B2876
:10103000988B8F878B819C810C960E942B289A8B92
:10104000898B8B819C810E960E942B289C8B8B8B8D
:101050008B819C8140960E942B289E8B8D8B8B814F
:101060009C8142960E942B28988F8F8B8B819C812C
:1010700044960E942B289A8F898F8B819C8146965B
:101080000E942B289C8F8B8F6C960FB6F894DEBF36
:101090000FBECDBFDF91CF910895CF93DF93CDB732
:1010A000DEB72F970FB6F894DEBF0FBECDBF8E8789
:1010B0006F87F8948E85882309F44BC01A821982B1
:1010C00081E08B832CC082E090E00E9423288F83F4
:1010D00081E090E00E942328888780E090E00E94D1
:1010E000232889878F818C33A8F488858C3390F4EA
:1010F0008985883178F48985682F70E08885482F44
:1011000050E08F81282F30E089E692E00E94980518
:101110001B8205C089819A8101969A8389838B817C
:10112000882339F089819A818330910514F481E014
:1011300001C080E0882339F68B81882351F089E64D
:1011400092E061E070E041E050E021E030E00E9498
:1011500098058F85882309F44EC01D821C8281E08A
:101160008E832FC084E090E00E9423288A8783E04A
:1011700090E00E9423288B8785E090E00E942B2836
:101180009D878C878A858F31B8F48B858D30A0F44C
:101190008C859D8527E28031920770F48B85682FBE
:1011A00070E08A85482F50E02C853D8589E692E0E5
:1011B0000E94C7011E8205C08C819D8101969D837E
:1011C0008C838E81882339F08C819D8183309105B9
:1011D00014F481E001C080E0882321F68E81882309
:1011E00051F089E692E061E070E041E050E021EDED
:1011F00037E00E94C70178942F960FB6F894DEBFAF
:101200000FBECDBFDF91CF910895CF93DF93CDB7C0
:10121000DEB729970FB6F894DEBF0FBECDBF888723
:101220006987F89488858823F1F089E692E00E9426
:10123000F904898389E692E00E94E7048A8389E6BB
:1012400092E00E94D5048B8382E090E06B810E9443
:10125000312881E090E06A810E94312880E090E0AE
:1012600069810E9431288985882309F189E692E005
:101270000E94FB009D838C8389E692E00E94E90036
:101280008E8389E692E00E940D018F8385E090E0D5
:101290002C813D81B9010E943F2883E090E06E815E
:1012A0000E94312884E090E06F810E943128789478
:1012B00029960FB6F894DEBF0FBECDBFDF91CF9158
:1012C0000895CF93DF930F92CDB7DEB789830000E7
:1012D00080EC90E0FC018081882F90E0807290701B
:1012E00021E0009709F020E0222391F786EC90E0BE
:1012F0002981FC0120830F90DF91CF9108950F93F6
:101300001F93CF93DF93CDB7DEB761970FB6F894F5
:10131000DEBF0FBECDBF998B888B198292C08981A9
:10132000882F90E028893989820F931FFC018081E2
:1013300099819F5F99830E94610980E090E0A8EC09
:10134000B3E48A839B83AC83BD836A817B818C8178
:101350009D8120E030E04AE753E40E942527DC012C
:10136000CB018E839F83A887B98711E06E817F812F
:101370008885998520E030E040E85FE30E94D7252A
:1013800088230CF010E0112329F081E090E09B8786
:101390008A874AC011E06E817F818885998520E027
:1013A0003FEF4FE757E40E94212718160CF010E09A
:1013B000112381F16A817B818C819D8120E030E065
:1013C00040E251E40E942527DC01CB01BC01CD01A4
:1013D0000E944326DC01CB019B878A8712C089E1EA
:1013E00090E09D878C878C859D858C01C801019735
:1013F000F1F78C011D870C878A859B8501979B8758
:101400008A8721E08A859B85009709F420E02223C2
:1014100031F717C06E817F81888599850E944326A8
:10142000DC01CB019B878A878A859B859F878E8776
:101430008E859F858C01F8013197F1F78F011F8709
:101440000E878981882F90E028893989820F931F20
:10145000FC01908181E0992309F480E0882309F060
:101460005ECF61960FB6F894DEBF0FBECDBFDF91A1
:10147000CF911F910F910895CF93DF930F92CDB726
:10148000DEB78983000088EC90E0FC018081882F22
:1014900090E08072907021E0009709F020E0222314
:1014A00091F78EEC90E02981FC0120830F90DF9171
:1014B000CF9108950F931F93CF93DF93CDB7DEB7EE
:1014C00061970FB6F894DEBF0FBECDBF998B888BA6
:1014D000198292C08981882F90E028893989820FEA
:1014E000931FFC01808199819F5F99830E943C0A30
:1014F00080E090E0A8ECB3E48A839B83AC83BD8357
:101500006A817B818C819D8120E030E04AE753E451
:101510000E942527DC01CB018E839F83A887B98792
:1015200011E06E817F818885998520E030E040E878
:101530005FE30E94D72588230CF010E0112329F0E7
:1015400081E090E09B878A874AC011E06E817F81AD
:101550008885998520E03FEF4FE757E40E942127D7
:1015600018160CF010E0112381F16A817B818C81C7
:101570009D8120E030E040E251E40E942527DC011B
:10158000CB01BC01CD010E944326DC01CB019B872E
:101590008A8712C089E190E09D878C878C859D8524
:1015A0008C01C8010197F1F78C011D870C878A8592
:1015B0009B8501979B878A8721E08A859B85009779
:1015C00009F420E0222331F717C06E817F818885DE
:1015D00099850E944326DC01CB019B878A878A85F7
:1015E0009B859F878E878E859F858C01F80131971B
:1015F000F1F78F011F870E878981882F90E0288956
:101600003989820F931FFC01908181E0992309F4AD
:1016100080E0882309F05ECF61960FB6F894DEBFB4
:101620000FBECDBFDF91CF911F910F9108950F9302
:101630001F93CF93DF93CDB7DEB7C156D0400FB61F
:10164000F894DEBF0FBECDBF789418A61FA21A82F1
:10165000198281E08B838FA198A58230910509F4CE
:101660001FC18330910530F4009789F081309105D6
:10167000A9F185C38430910509F43DC384309105F7
:1016800008F459C18530910509F455C378C31A820D
:1016900019828EEC90E0FC018081888F888D8E32DB
:1016A00049F480E092E00E945A0A84E090E098A712
:1016B0008FA36BC39E01265C3F4F89819A81820F65
:1016C000931F288DFC01208389819A8101969A833A
:1016D000898381E090E098A78FA357C380E090E0D2
:1016E000A8ECB2E4898F9A8FAB8FBC8F698D7A8D0D
:1016F0008B8D9C8D20E030E04AE753E40E94252743
:10170000DC01CB018D8F9E8FAF8FB8A311E06D8D63
:101710007E8D8F8D98A120E030E040E85FE30E944D
:10172000D72588230CF010E0112329F081E090E008
:101730009AA389A34AC011E06D8D7E8D8F8D98A1EB
:1017400020E03FEF4FE757E40E94212718160CF0E6
:1017500010E0112381F1698D7A8D8B8D9C8D20E0B5
:1017600030E040E251E40E942527DC01CB01BC01BE
:10177000CD010E944326DC01CB019AA389A312C0AC
:1017800089E190E09CA38BA38BA19CA18C01C80153
:101790000197F1F78C011CA30BA389A19AA10197D2
:1017A0009AA389A321E089A19AA1009709F420E0D6
:1017B000222331F718C06D8D7E8D8F8D98A10E94E8
:1017C0004326DC01CB019AA389A389A19AA19EA3F8
:1017D0008DA38DA19EA18C01F8013197F1F78F01A6
:1017E0001EA30DA34FC04EC0000088EC90E0FC018A
:1017F0008081882334F080916302882311F081E096
:1018000001C080E0882389F780916302882321F456
:1018100018A61FA20000B9C28EEC90E0FC018081E6
:10182000888F9E01265C3F4F89819A81820F931F8A
:10183000288DFC01208389819A8101969A8389836E
:10184000888D8E3279F49E01265C3F4F89819A8182
:10185000820F931FFC0110821B8282E090E098A708
:101860008FA310C089819A81873291055CF01A821A
:1018700019821B821092630280E092E00E945A0A51
:1018800018A61FA28B81882331F0809163028823E0
:1018900011F081E001C080E0882309F0A5CF75C276
:1018A000CE01CA962AE032E0B90148E050E00E9439
:1018B000EC27009729F484E090E098A78FA364C2F6
:1018C000CE01CA9623E132E0B90146E050E00E9421
:1018D000EC270097A9F484E090E098A78FA38AE111
:1018E00092E00E945A0A81E080935E0280915F023A
:1018F000882309F449C210925F021092620244C226
:101900008EAD91E08A3309F090E02FAD81E02A336B
:1019100009F080E08927882329F083E090E098A7E8
:101920008FA332C280E092E00E945A0A84E090E0E5
:1019300098A78FA329C21C821D821F821E821AA60D
:1019400019A61CA61BA61EA61DA618AA1FA61AAA83
:1019500019AA1CAA1BAA198618861B861A861D8618
:101960001C8673C09E01265C3F4F8E819F81820F33
:10197000931FFC0180818A33E9F08A859B8583303F
:101980009105C4F49E01265C3F4F8E819F81820F9A
:10199000931FFC0140819E012B5C3F4F8C859D85F0
:1019A000820F931FFC0140838C859D8501969D8746
:1019B0008C8746C08A859B85823091050CF040C09B
:1019C0009E01265C3F4F8E819F81820F931FFC01F9
:1019D00080818A33A9F5CE01C5960E94B3279C0168
:1019E0008A859B85880F991FAE014F5F5F4F840FDB
:1019F000951F8896FC01318320838A859B850196FB
:101A00009B878A871F861E860EC09E012B5C3F4FD8
:101A10008E859F85820F931FFC0110828E859F8586
:101A200001969F878E8741E02E853F858C859D8519
:101A3000821793070CF440E0442339F71D861C8677
:101A40008E819F8101969F838E839E01265C3F4FEE
:101A50008E819F81820F931FFC0180818F3269F0FC
:101A60009E01265C3F4F8E819F81820F931FFC0158
:101A70008081882311F081E001C080E0882309F093
:101A800071CF9E01265C3F4F8E819F81820F931FF5
:101A9000FC0180818F32A9F4CE01C5960E94B32744
:101AA0009C018A859B85880F991FAE014F5F5F4F10
:101AB000840F951F8896FC013183208381E08C83FD
:101AC00004C085E090E098A78FA3198A188A0EC0F9
:101AD0009E012B5C3F4F88899989820F931FFC01DF
:101AE0001082888999890196998B888B41E0288991
:101AF00039898C859D85821793070CF440E0442337
:101B000039F71D861C868E819F8101969F838E8367
:101B100073C09E01265C3F4F8E819F81820F931F71
:101B2000FC0180818C32E9F08885998583309105AC
:101B3000C4F49E01265C3F4F8E819F81820F931FCC
:101B4000FC0140819E012B5C3F4F8C859D85820F5F
:101B5000931FFC0140838C859D8501969D878C8712
:101B600046C088859985823091050CF040C09E0161
:101B7000265C3F4F8E819F81820F931FFC018081E5
:101B80008C32A9F5CE01C5960E94B3279C018885A9
:101B90009985880F991FAE014F5F5F4F840F951F86
:101BA0008E96FC01318320838885998501969987DB
:101BB00088871B8A1A8A0EC09E012B5C3F4F8A8938
:101BC0009B89820F931FFC0110828A899B89019651
:101BD0009B8B8A8B41E02A893B898C859D85821766
:101BE00093070CF440E0442339F71D861C868E8150
:101BF0009F8101969F838E839E01265C3F4F8E813D
:101C00009F81820F931FFC0180818E32A1F09E0183
:101C1000265C3F4F8E819F81820F931FFC01808144
:101C2000882349F02E813F8189819A8128173907BD
:101C300011F081E001C080E0882309F06ACF9E01A5
:101C4000265C3F4F8E819F81820F931FFC01808114
:101C50008E32A9F4CE01C5960E94B3279C018885D7
:101C60009985880F991FAE014F5F5F4F840F951FB5
:101C70008E96FC013183208381E08D8304C085E052
:101C800090E098A78FA38D81882379F18C81882398
:101C900061F169A57AA54BA55CA52DA53EA589E6B0
:101CA00092E00E9498056FA578A949A95AA92BA985
:101CB0003CA989E692E00E94C70181E061E00E94B0
:101CC000050910925E0281E080935F0281E48AAF91
:101CD00083E48BAF8BE48CAFCE01CA960E945A0A84
:101CE00084E090E098A78FA350C081E080935E02CB
:101CF00010925F024AC018A61FA2109263021D8AAA
:101D00001C8A0EC09E01265C3F4F8C899D89820FE4
:101D1000931FFC0110828C899D8901969D8B8C8B71
:101D200041E02C893D8989819A81821793070CF4BF
:101D300040E0442339F781E292E00E945A0A10926F
:101D400063021F8A1E8A0EC09E01265C3F4F8E8949
:101D50009F89820F931FFC0110828E899F890196B3
:101D60009F8B8E8B41E02E893F8989819A818217D2
:101D700093070CF440E0442339F718A61FA218A6D5
:101D80001FA21092630201C000009091630281E0E3
:101D9000992309F480E0882309F05DCCCF59DF4F07
:101DA0000FB6F894DEBF0FBECDBFDF91CF911F916C
:101DB0000F910895CF93DF93CDB7DEB7DF91CF9129
:101DC00008950F931F93CF93DF93CDB7DEB7CB5614
:101DD000D0400FB6F894DEBF0FBECDBF81E08B8F31
:101DE0001A82198281E08093640280913905909172
:101DF0003A058330910509F49DC18430910548F47A
:101E00008130910509F412C18230910508F01CC19E
:101E10000DC08530910509F453C28530910508F451
:101E20003DC28630910509F46EC290C288E091E00F
:101E300028E031E0F90120812068FC0120831C8228
:101E40001B8206C000008B819C8101969C838B8342
:101E500021E08B819C81843091050CF020E02223CD
:101E600089F788E091E028E031E0F90120812F77BF
:101E7000FC01208380E090E0A8E4B3E48D879E8796
:101E8000AF87B88B6D857E858F85988920E030E09F
:101E90004AE753E40E942527DC01CB01898B9A8B0A
:101EA000AB8BBC8B11E069897A898B899C8920E096
:101EB00030E040E85FE30E94D72588230CF010E073
:101EC000112329F081E090E09E8B8D8B4AC011E0B8
:101ED00069897A898B899C8920E03FEF4FE757E435
:101EE0000E94212718160CF010E0112381F16D8556
:101EF0007E858F85988920E030E040E251E40E94A1
:101F00002527DC01CB01BC01CD010E944326DC0169
:101F1000CB019E8B8D8B12C089E190E0988F8F8BC7
:101F20008F89988D8C01C8010197F1F78C01188F6A
:101F30000F8B8D899E8901979E8B8D8B21E08D89DA
:101F40009E89009709F420E0222331F717C06989A0
:101F50007A898B899C890E944326DC01CB019E8B68
:101F60008D8B8D899E899A8F898F898D9A8D8C0111
:101F7000F8013197F1F78F011A8F098F81E090E016
:101F800090933A0580933905E8C1000088EC90E011
:101F9000FC018081882334F080916402882311F051
:101FA00081E001C080E0882389F780916402882362
:101FB00041F485E090E090933A0580933905000064
:101FC000CCC18EEC90E0FC0180818B879E012C5B64
:101FD0003F4F89819A81820F931F2B85FC012083BB
:101FE00089819A8101969A8389838B858E3281F4C7
:101FF0009E012C5B3F4F89819A81820F931FFC01C8
:10200000108282E090E090933A05809339050EC0EB
:1020100089819A818732910548F01A8219821B8E34
:1020200085E090E090933A05809339058B8D882365
:1020300031F080916402882311F081E001C080E0DA
:10204000882309F0A2CF89C1CE018C5B9F4F29E282
:1020500032E0B90145E050E00E94EC27009739F4E6
:1020600083E090E090933A058093390576C1CE01E4
:102070008C5B9F4F2FE232E0B90148E050E00E94B4
:10208000EC27009779F485E090E090933A058093EF
:10209000390581E08093670281E0809360021092AD
:1020A00062025BC1CE018C5B9F4F9E01245E3F4F5D
:1020B000B9010E94DC27009759F486E090E09093E4
:1020C0003A0580933905109262021092600245C170
:1020D000CE018C5B9F4F28E332E0B90146E050E02F
:1020E0000E94EC27009761F486E090E090933A0517
:1020F0008093390581E080936002109262022DC1C5
:10210000CE018C5B9F4F21E232E0B90147E050E005
:102110000E94EC27009739F484E090E090933A0510
:10212000809339051AC185E090E090933A05809339
:10213000390513C180916002882349F080916202C1
:10214000882329F48FE392E00E945A0A7FC080918D
:102150006202882309F45CC080916002882309F040
:1021600057C09E01245E3F4F81E493E4ABE4B0E0AE
:10217000F90180839183A283B38389E692E00E9470
:102180003B079C01CE014C96B9010E94E527CE0188
:102190004C969C01F90101900020E9F7CF010197CD
:1021A000821B930B9E01245E3F4F820F931F2FE2F1
:1021B00030E0FC013183208389E692E00E94C6036F
:1021C0009C01CE014C96B9010E94D127CE014C96BC
:1021D0009C01F90101900020E9F7CF010197821BD2
:1021E000930B9E01245E3F4F820F931F2EE230E03F
:1021F000FC013183208388E492E00E945A0A80E047
:1022000061E041E00E94C21180E00E943C0A1EC0D1
:1022100080916202882359F080916002882339F00E
:102220008FE392E00E945A0A109262020FC08091DE
:102230005E02882359F480916002882339F48FE389
:1022400092E00E945A0A81E0809360021E821D8201
:102250000EC09E012C5B3F4F8D819E81820F931F8C
:10226000FC0110828D819E8101969E838D832D813C
:102270003E8141E089819A818217930708F440E00A
:10228000442339F71A8219821B8681E08B8F81E003
:1022900090E090933A05809339055FC089E692E01B
:1022A0000E9400078C878C85882319F481E0809335
:1022B000610286E090E090933A05809339054DC025
:1022C00010923A05109239051092640218861F8206
:1022D0000EC09E012C5B3F4F8F819885820F931F0C
:1022E000FC0110828F819885019698878F832F81BA
:1022F000388541E089819A818217930708F440E08C
:10230000442339F72AC010923A05109239051092E9
:1023100064021A8619860EC09E012C5B3F4F898588
:102320009A85820F931FFC01108289859A850196F8
:102330009A87898729853A8541E089819A81821720
:10234000930708F440E0442339F707C010923A0598
:10235000109239051092640200009091640281E0AD
:10236000992309F480E0882309F03FCDC559DF4F58
:102370000FB6F894DEBF0FBECDBFDF91CF911F9196
:102380000F910895CF93DF93CDB7DEB7EB970FB6DC
:10239000F894DEBF0FBECDBF89AF6AAF4BAF89AD3A
:1023A000882351F18AAD882389F089E692E00E9462
:1023B0003B079C01CE010196B9010E94E527CE01A1
:1023C00001960E947F098FE20E9461098BAD8823EC
:1023D000E1F189E692E00E94C6039C01CE010C96D1
:1023E000B9010E94E527CE010C960E947F098CE47A
:1023F00092E00E947F0929C08AAD882389F089E68E
:1024000092E00E943B079C01CE014D96B9010E94CB
:10241000E527CE014D960E945A0A8FE20E943C0A9F
:102420008BAD882391F089E692E00E94C6039C015F
:10243000CE018896B9010E94E527CE0188960E94B8
:102440005A0A8CE492E00E945A0AEB960FB6F8946E
:10245000DEBF0FBECDBFDF91CF910895CF93DF9345
:102460000F920F92CDB7DEB79A83898329813A8183
:1024700082E396EFA5EBBAE3F90184879587A687F7
:10248000B78789819A810E944A120F900F90DF913D
:10249000CF910895CF93DF9300D00F92CDB7DEB7E1
:1024A0009C838B838B819C8121E0FC0120AB8B8101
:1024B0009C81FC0111AA2B813C8180E090E0DC0131
:1024C000F90180839183A283B3832B813C8180E0D7
:1024D00090E0DC01F90184839583A683B7832B8187
:1024E0003C8180E090E0DC01F90180879187A28740
:1024F000B3872B813C8180E090E0DC01F901808B87
:10250000918BA28BB38B8B819C81FC0117A616A6A5
:102510008B819C81FC01158A148A8B819C81FC0132
:10252000178A168A8B819C81FC01118E108E1A826B
:10253000198211C089819A812B813C810D96880F67
:10254000991F820F931FFC011182108289819A8149
:1025500001969A83898389819A8121E08A30910545
:102560000CF020E0222331F70F900F900F900F9086
:10257000DF91CF910895CF93DF9300D000D0CDB7F6
:10258000DEB79A8389834B835C836D837E83298145
:102590003A818B819C81AD81BE81F90184879587C9
:1025A000A687B78789819A810E944A1226960FB61C
:1025B000F894DEBF0FBECDBFDF91CF9108950F938A
:1025C0001F93CF93DF93CDB7DEB72A970FB6F8945A
:1025D000DEBF0FBECDBF9A8389834B835C836D833F
:1025E0007E8338872F831A87098729813A818B81D7
:1025F0009C81AD81BE81F90184879587A687B787C5
:1026000089819A812F813885FC01358B248B8981C2
:102610009A8129853A85FC01378B268B89819A819D
:102620000E944A122A960FB6F894DEBF0FBECDBFA5
:10263000DF91CF911F910F9108958F929F92AF924A
:10264000BF92CF92DF92EF92FF920F931F93CF939F
:10265000DF93CDB7DEB762970FB6F894DEBF0FBE3B
:10266000CDBF9A8389834B835C836D837E830F8385
:10267000188729873A87CB86DC86ED86FE868F868B
:10268000988AA98ABA8A29813A818B819C81AD81F5
:10269000BE81F90180839183A283B38329813A812A
:1026A0008F819885A985BA85F90184839583A6834E
:1026B000B78329813A818B859C85AD85BE85F901DB
:1026C00080879187A287B38729813A818F859889EE
:1026D000A989BA89F90184879587A687B7878981EF
:1026E0009A812AA13BA1FC0137A726A789819A815B
:1026F0002CA13DA1FC01318F208F89819A812EA1CF
:102700003FA1FC01358B248B89819A8128A539A5AD
:10271000FC01378B268B89819A8121E0FC0120AB5B
:1027200062960FB6F894DEBF0FBECDBFDF91CF919A
:102730001F910F91FF90EF90DF90CF90BF90AF90DF
:102740009F908F900895CF93DF93CDB7DEB72897F2
:102750000FB6F894DEBF0FBECDBF9E838D83788702
:102760006F838D819E81FC0180A9882331F48D8146
:102770009E81FC0181A9882341F11A82198213C02C
:1027800089819A812D813E810D96880F991F820F34
:10279000931F2F813885FC013183208389819A81A1
:1027A00001969A83898389819A8121E08A309105F3
:1027B0000CF020E0222321F78D819E81FC0110AADC
:1027C0008D819E81FC0111AA33C01C821B8220C016
:1027D0008B819C812B813C812F5F3F4F4D815E819E
:1027E000235F3F4F220F331F240F351FF901208134
:1027F00031814D815E810D96880F991F840F951F41
:10280000FC01318320838B819C8101969C838B8387
:102810008B819C8121E0893091050CF020E02223FE
:10282000B9F68D819E812F813885FC0135A724A7BB
:102830008D819E81FC0186A597A59C012F5F3F4F4E
:102840008D819E81FC0137A726A78D819E81FC0189
:1028500084819581A681B7812D813E81F9012485EE
:10286000358546855785BC01CD010E947325DC0165
:10287000CB012D813E81F90184839583A683B783A3
:102880008D819E810E94AD1428960FB6F894DEBF0C
:102890000FBECDBFDF91CF910895CF93DF9300D0CE
:1028A0000F92CDB7DEB79C838B838B819C8121E017
:1028B000FC0121AB2B813C8180E090E0DC01F9013F
:1028C00080879187A287B3871A82198211C0898174
:1028D0009A812B813C810D96880F991F820F931F3F
:1028E000FC011182108289819A8101969A838983E1
:1028F00089819A8121E08A3091050CF020E0222321
:1029000031F70F900F900F900F90DF91CF910895B6
:10291000CF93DF9300D000D0CDB7DEB79A83898301
:102920004B835C836D837E8389819A8121E0FC01E6
:1029300020AB29813A818B819C81AD81BE81F901D7
:1029400084879587A687B78726960FB6F894DEBF4B
:102950000FBECDBFDF91CF910895AF92BF92CF92BE
:10296000DF92EF92FF920F931F93CF93DF9300D0EC
:1029700000D0CDB7DEB79E838D831C821B8217C02B
:102980008B819C812D813E810D96880F991F820F2E
:10299000931FFC018081918129813A81820F931FCD
:1029A0009A8389838B819C8101969C838B838B8105
:1029B0009C8121E08A3091050CF020E0222301F770
:1029C0008D819E81FC0184859585A685B785BC0196
:1029D000CD0120E030EA4CE057E40E942527DC01DD
:1029E000CB017C018D0189819A81CC01A0E0B0E00E
:1029F000BC01CD010E946F26DC01CB01BC01CD01E1
:102A00002DEB37E346E058E30E942527DC01CB019C
:102A10009C01AD01C801B7010E94DB25DC01CB019F
:102A20002D813E81F90180879187A287B3878D81AF
:102A30009E81FC0126A537A58D819E81FC0146A5BE
:102A400057A581E090E0BA010E948827AB01CA0136
:102A5000A901481B590BCA01CC01A0E0B0E0BC01A0
:102A6000CD010E946F26DC01CB012D813E81F90151
:102A7000808B918BA28BB38B8D819E81FC01808199
:102A80009181A281B3812D813E81F9012089318913
:102A900042895389BC01CD010E942527DC01CB016D
:102AA0007C018D018D819E81FC01A084B184C28452
:102AB000D3848D819E81FC0186A597A5CC01A0E0E1
:102AC000B0E0BC01CD010E946F269B01AC01C601A4
:102AD000B5010E94DB25DC01CB019C01AD01C801E1
:102AE000B7010E947325DC01CB012D813E81F901E4
:102AF00080839183A283B38326960FB6F894DEBFBA
:102B00000FBECDBFDF91CF911F910F91FF90EF903E
:102B1000DF90CF90BF90AF900895CF93DF930F9247
:102B20000F92CDB7DEB79A83898389819A81FC01A0
:102B300080859185A285B385BC01CD010F900F9052
:102B4000DF91CF910895CF93DF930F920F92CDB77E
:102B5000DEB79A83898389819A81FC018081918182
:102B6000A281B381BC01CD010F900F90DF91CF9175
:102B70000895CF93DF930F920F92CDB7DEB79A836C
:102B8000898389819A81FC0184819581A681B7819D
:102B9000BC01CD010F900F90DF91CF910895CF939D
:102BA000DF930F920F92CDB7DEB79A838983898125
:102BB0009A81FC0184859585A685B785BC01CD01E8
:102BC0000F900F90DF91CF910895CF93DF930F92E5
:102BD0000F92CDB7DEB79A83898389819A81FC01F0
:102BE00086A597A50F900F90DF91CF910895CF9371
:102BF000DF9300D000D0CDB7DEB79A8389837C8382
:102C00006B835E834D8389819A81FC01808D918DD8
:102C100026960FB6F894DEBF0FBECDBFDF91CF91E1
:102C20000895CF93DF930F920F92CDB7DEB79A83BB
:102C3000898389819A810E9422160F900F90DF91DB
:102C4000CF910895CF93DF930F920F92CDB7DEB758
:102C50009A83898329813A8180E090E0DC01F9013F
:102C600084839583A683B78389819A81FC01158625
:102C7000148629813A8180E090E0DC01F9018083AB
:102C80009183A283B38389819A81FC018485958590
:102C9000019729813A81F90124853585B9010E947E
:102CA00088279B01C901CC01A0E0B0E0BC01CD01A7
:102CB0000E946F26DC01CB0129813A81F9018087CE
:102CC0009187A287B3870F900F90DF91CF910895DE
:102CD000CF93DF930F920F92CDB7DEB79A8389839C
:102CE00029813A8180E090E0DC01F90184839583B9
:102CF000A683B78389819A81FC0184859585019794
:102D000029813A81F90124853585B9010E948827F6
:102D10009B01C901CC01A0E0B0E0BC01CD010E9443
:102D20006F26DC01CB0129813A81F90180879187E7
:102D3000A287B3870F900F90DF91CF910895CF9323
:102D4000DF93CDB7DEB728970FB6F894DEBF0FBE7E
:102D5000CDBF9A8389834B835C836D837E83388761
:102D60002F8329813A818B819C81AD81BE81F901BC
:102D700080839183A283B38389819A812F8138854F
:102D8000FC013587248789819A810E9468162896DC
:102D90000FB6F894DEBF0FBECDBFDF91CF9108957F
:102DA000CF93DF9300D000D0CDB7DEB79A8389836D
:102DB0004B835C836D837E8329813A818B819C81E7
:102DC000AD81BE81F90180839183A283B38326966E
:102DD0000FB6F894DEBF0FBECDBFDF91CF9108953F
:102DE000CF93DF9300D00F92CDB7DEB79A8389835C
:102DF0007C836B8389819A812B813C81FC0135879F
:102E000024870F900F900F900F90DF91CF9108952E
:102E1000CF93DF930F920F92CDB7DEB79A8389835A
:102E200089819A81FC0184819581A681B781BC0149
:102E3000CD010F900F90DF91CF910895CF93DF9345
:102E40000F920F92CDB7DEB79A83898389819A81D9
:102E5000FC0180819181A281B381BC01CD010F90E1
:102E60000F90DF91CF910895CF93DF930F920F9240
:102E7000CDB7DEB79A83898389819A81FC018485E5
:102E800095850F900F90DF91CF910895CF93DF93A9
:102E9000CDB7DEB7A9970FB6F894DEBF0FBECDBF92
:102EA0009DA38CA37FA36EA359A748A71A8A198A4A
:102EB0001C8A1B8A1D8A1E8A1A82198268C089810F
:102EC0009A81880F991F2EA13FA1820F931FFC01A9
:102ED0002081318189899A8941E08217930708F01E
:102EE00040E0442379F089819A81880F991F2EA1AF
:102EF0003FA1820F931FFC01808191819A8B898B66
:102F000089818D8B88A599A599230CF401969595B7
:102F100087959C0189819A81820F931F880F991F41
:102F20002EA13FA1820F931FFC01208131818B894B
:102F30009C8941E08217930708F040E0442311F197
:102F400088A599A599230CF40196959587959C01E0
:102F500089819A81820F931F880F991F2EA13FA10B
:102F6000820F931FFC01808191819C8B8B8B88A5A4
:102F700099A599230CF4019695958795982F8981A9
:102F8000890F8E8B89819A8101969A83898388A57E
:102F900099A599230CF40196959587959C0141E09C
:102FA00089819A81821793070CF040E0442309F04D
:102FB00086CF29893A898B899C892817390718F087
:102FC00089899A8902C08B899C89988B8F872989E6
:102FD0003A898B899C892817390710F08D8901C09F
:102FE0008E898D8B188E1F8A1A8E198E1B8E1C8EC1
:102FF0001D8E1F8E1E8E8D89282F30E088A599A5E5
:1030000099230CF401969595879541E02817390787
:103010000CF040E0442309F4E3C08D89882F90E050
:103020000F969F8F8E8F8E8D9F8D9C838B83CBC0B1
:103030008B819C81880F991F2EA13FA1820F931F26
:10304000FC0180819181988F8F8B8B819C819E83E5
:103050008D832AC08D819E81880F991F2EA13FA14B
:10306000820F931FFC01208131818F89988D41E06F
:103070002817390708F440E0442389F08D819E81A8
:10308000880F991F2EA13FA1820F931F2F89388D82
:10309000FC01318320838D819E819A8F898F8D8160
:1030A0009E8101969E838D838B819C819C01225EF3
:1030B0003F4F41E08D819E81821793070CF040E0E5
:1030C000442341F6898D9A8D0F9798878F8355C039
:1030D000898D9A8D2F81388528173907DCF4898DE1
:1030E0009A8D880F991F2EA13FA1820F931FFC017B
:1030F000208131818F819885880F991F4EA15FA112
:10310000840F951FFC01808191812817390710F4E5
:1031100081E001C080E0882319F08C8D8F5F8C8F57
:10312000898D9A8D2F81388528173907DCF0898D94
:103130009A8D880F991F2EA13FA1820F931FFC012A
:10314000208131818F819885880F991F4EA15FA1C1
:10315000840F951FFC01808191812817390710F099
:1031600081E001C080E0882319F08B8D8F5F8B8F09
:103170008F819885019698878F83898D9A8D9C0180
:10318000215F3F4F41E08F819885281739070CF464
:1031900040E0442309F09CCF8B8D8B3028F08C8D40
:1031A0008B3010F081E001C080E0882321F081E0C5
:1031B0008D8F00000CC11C8E1B8E1D8E8B819C81FF
:1031C00005969C838B8341E02B813C8188A599A542
:1031D000281739070CF040E0442309F029CFF7C045
:1031E0008D89282F30E088A599A599230CF40196A4
:1031F00095958795281739072CF08D8D882311F424
:1032000081E001C080E0882309F4E1C08D89882F26
:1032100090E00F979F8F8E8F1C8E1B8E8E8D9F8DB3
:103220009A878987CAC089859A85880F991F2EA198
:103230003FA1820F931FFC0180819181988F8F8B1A
:1032400089859A859C878B872AC08B859C85880F6A
:10325000991F2EA13FA1820F931FFC012081318174
:103260008F89988D41E02817390708F440E04423FE
:1032700089F08B859C85880F991F2EA13FA1820F15
:10328000931FFC0180819181988F8F8B8B859C850A
:103290009A8F898F8B859C8501979C878B878985E1
:1032A0009A859C012E51304041E08B859C852817E2
:1032B00039070CF040E0442341F6898D9A8D0F9632
:1032C0009E878D8755C0898D9A8D2D853E852817BF
:1032D0003907DCF0898D9A8D880F991F2EA13FA1A7
:1032E000820F931FFC01208131818D859E85880F7F
:1032F000991F4EA15FA1840F951FFC0180819181D0
:103300002817390710F081E001C080E0882319F008
:103310008C8D8F5F8C8F898D9A8D2D853E8528179A
:103320003907DCF4898D9A8D880F991F2EA13FA152
:10333000820F931FFC01208131818D859E85880F2E
:10334000991F4EA15FA1840F951FFC01808191817F
:103350008217930710F081E001C080E0882319F004
:103360008B8D8F5F8B8F8D859E8501979E878D8737
:10337000898D9A8D9C012F50304041E08D859E852E
:10338000281739070CF040E0442309F09CCF8B8DBF
:103390008B3028F08C8D8B3010F081E001C080E004
:1033A000882319F081E08D8F12C01C8E1B8E1D8E1C
:1033B00089859A8505979A87898721E089859A85E5
:1033C000181619060CF020E0222309F02CCF9D8D51
:1033D00081E0992309F480E0882309F447C08D89AE
:1033E000282F30E0898D9A8DA901481B590BCA01FD
:1033F00099231CF4909581959F4FAA2797FDA0953E
:10340000BA2FBC01CD010E947126DC01CB01BC01A9
:10341000CD012FE632E143E05CE30E942527DC0189
:10342000CB0188A399A3AAA3BBA328A139A14AA130
:103430005BA160E070E080E792E40E94DB25DC01A4
:10344000CB012CA13DA1F90184839583A683B78389
:103450008CA19DA1FC01848595859C012F5F3F4F28
:103460008CA19DA1FC013587248722C0809137055E
:103470009091380501969093380580933705809197
:1034800037059091380521E08430910508F420E05B
:10349000222371F02CA13DA180E090E0DC01F90134
:1034A00084839583A683B7831092380510923705DD
:1034B000A9960FB6F894DEBF0FBECDBFDF91CF91B6
:1034C0000895CF93DF930F920F92CDB7DEB79A8313
:1034D000898389819A810E942E1289819A81C2965C
:1034E0000E9411160F900F90DF91CF910895CF9306
:1034F000DF930F920F92CDB7DEB79A8389838981CC
:103500009A810E944A1289819A81C2960E9422164B
:103510000F900F90DF91CF910895CF93DF9300D05C
:1035200000D0CDB7DEB79A8389834B835C836D83EC
:103530007E8389819A812B813C814D815E81BA0194
:10354000A9010E94BB1226960FB6F894DEBF0FBEEB
:10355000CDBFDF91CF9108950F931F93CF93DF934A
:10356000CDB7DEB72A970FB6F894DEBF0FBECDBF3A
:103570009A8389834B835C836D837E8338872F8313
:103580001A87098789819A812B813C814D815E81CF
:10359000AF81B885E985FA85BA01A9019D018F013E
:1035A0000E94DF122A960FB6F894DEBF0FBECDBF81
:1035B000DF91CF911F910F9108951F920F920FB637
:1035C0000F9200905B000F9211242F933F938F93E3
:1035D0009F93EF93FF93CF93DF93CDB7DEB7F8942C
:1035E00080916802882331F01092680281E0809314
:1035F000650202C01092650281EC90E021EC30E09F
:10360000F90120812F77FC0120837894DF91CF91FD
:10361000FF91EF919F918F913F912F910F90009289
:103620005B000F900FBE0F901F9018951F920F9286
:103630000FB60F9200905B000F9211242F933F93CF
:103640008F939F93EF93FF93CF93DF93CDB7DEB725
:10365000F89480916702882331F01092670281E02C
:103660008093630202C01092630289EC90E029EC1F
:1036700030E0F90120812F77FC0120837894DF91DD
:10368000CF91FF91EF919F918F913F912F910F904B
:1036900000925B000F900FBE0F901F9018951F9225
:1036A0000F920FB60F9200905B000F9211240F93B0
:1036B0001F932F933F934F935F936F937F938F93BA
:1036C0009F93AF93BF93EF93FF93CF93DF93CDB7C8
:1036D000DEB72E97DEBFCDBFF8948BE091E02BE0F4
:1036E00031E0F90120812860FC01208381E0809392
:1036F000670289EC90E029EC30E0F9012081206834
:10370000FC0120838DE390E02DE330E0F90120817E
:103710002C7FFC0120838FE492E00E947F0980E0EF
:1037200090E0AAEFB3E489839A83AB83BC83698179
:103730007A818B819C8120E030E04AE753E40E944B
:103740002527DC01CB018D839E83AF83B88711E0F1
:103750006D817E818F81988520E030E040E85FE3D5
:103760000E94D72588230CF010E0112329F081E076
:1037700090E09A8789874AC011E06D817E818F81B0
:10378000988520E03FEF4FE757E40E942127181665
:103790000CF010E0112381F169817A818B819C8189
:1037A00020E030E040E251E40E942527DC01CB011B
:1037B000BC01CD010E944326DC01CB019A87898799
:1037C00012C089E190E09C878B878B859C858C015A
:1037D000C8010197F1F78C011C870B8789859A85B1
:1037E00001979A87898721E089859A85009709F44E
:1037F00020E0222331F717C06D817E818F8198856B
:103800000E944326DC01CB019A87898789859A85A6
:103810009E878D878D859E858C01F8013197F1F704
:103820008F011E870D878BE091E02BE031E0F901DD
:103830002081277FFC01208378942E96DEBFCDBFA8
:10384000DF91CF91FF91EF91BF91AF919F918F91B8
:103850007F916F915F914F913F912F911F910F91A8
:103860000F9000925B000F900FBE0F901F90189565
:103870001F920F920FB60F9200905B000F921124CF
:103880002F933F934F935F936F937F938F939F9368
:10389000AF93BF93EF93FF93CF93DF93CDB7DEB793
:1038A000F89481E08093680281EC90E021EC30E0B4
:1038B000F90120812068FC0120838DE390E02DE355
:1038C00030E0F90120812C7FFC01208385E592E026
:1038D0000E945A0A7894DF91CF91FF91EF91BF91A6
:1038E000AF919F918F917F916F915F914F913F9198
:1038F0002F910F9000925B000F900FBE0F901F90C2
:1039000018951F920F920FB60F9200905B000F92C6
:1039100011240F931F932F933F934F935F936F93B4
:103920007F938F939F93AF93BF93EF93FF93CF9327
:10393000DF93CDB7DEB76097DEBFCDBFF89484E8E4
:1039400090E0FC01808191819A8389838BE091E0F2
:103950002BE031E0F90120812064FC01208380E02C
:1039600090E0AAE7B3E48B839C83AD83BE836B8135
:103970007C818D819E8120E030E04AE753E40E9403
:103980002527DC01CB018F839887A987BA8711E0AF
:103990006F81788589859A8520E030E040E85FE393
:1039A0000E94D72588230CF010E0112329F081E034
:1039B00090E09C878B874AC011E06F81788589856C
:1039C0009A8520E03FEF4FE757E40E942127181621
:1039D0000CF010E0112381F16B817C818D819E813F
:1039E00020E030E040E251E40E942527DC01CB01D9
:1039F000BC01CD010E944326DC01CB019C878B8753
:103A000012C089E190E09E878D878D859E858C010F
:103A1000C8010197F1F78C011E870D878B859C8566
:103A200001979C878B8721E08B859C85009709F403
:103A300020E0222331F717C06F81788589859A8528
:103A40000E944326DC01CB019C878B878B859C855C
:103A5000988B8F878F8598898C01F8013197F1F7C2
:103A60008F01188B0F878091D302882339F0109231
:103A7000D30281E992E00E944D140DC08091D102E1
:103A80009091D20229813A81281B390B81E992E079
:103A9000B9010E94A3131092D2021092D1028BE0BE
:103AA00091E02BE031E0F90120812F7BFC012083A4
:103AB00084E890E0FC011182108278946096DEBF69
:103AC000CDBFDF91CF91FF91EF91BF91AF919F91CA
:103AD0008F917F916F915F914F913F912F911F91A6
:103AE0000F910F9000925B000F900FBE0F901F90F0
:103AF00018951F920F920FB60F9211248F93CF93A8
:103B0000DF93CDB7DEB7F89480915D02882319F07A
:103B100010925D0203C081E080935D027894DF9192
:103B2000CF918F910F900FBE0F901F9018951F92FD
:103B30000F920FB60F9200905B000F9211242F93FB
:103B40003F934F935F936F937F938F939F93AF9325
:103B5000BF93EF93FF93CF93DF930F920F92CDB765
:103B6000DEB7F8941A8219820E94F1249A8389831D
:103B7000809135059091360549815A819C01220F2B
:103B8000331F2B523D4FF90151834083019690938F
:103B9000360580933505809135059091360521E0F5
:103BA000F1E08C329F0708F420E0222369F01092A4
:103BB00036051092350583EC92E025ED32E0B9012F
:103BC0004CE251E00E94461778940F900F90DF91DD
:103BD000CF91FF91EF91BF91AF919F918F917F9185
:103BE0006F915F914F913F912F910F9000925B00E9
:103BF0000F900FBE0F901F9018951F920F920FB647
:103C00000F9200905B000F9211242F933F934F93DC
:103C10005F936F937F938F939F93AF93BF93EF9334
:103C2000FF93CF93DF93CDB7DEB7F8948091D102A5
:103C30009091D20221E08530910508F420E00196B0
:103C40009093D2028093D102222331F08091D3024B
:103C5000882311F481E001C080E0882339F081E0FD
:103C60008093D30281E992E00E944D147894DF9111
:103C7000CF91FF91EF91BF91AF919F918F917F91E4
:103C80006F915F914F913F912F910F9000925B0048
:103C90000F900FBE0F901F9018951F920F920FB6A6
:103CA0000F9200905B000F9211242F933F934F933C
:103CB0005F936F937F938F939F93AF93BF93EF9394
:103CC000FF93CF93DF93CDB7DEB785E290E025E297
:103CD00030E0F901308120E22327FC01208389E6CE
:103CE00092E061E070E00E94B60680912D0590910F
:103CF0002E058630910554F480916302882321F4C7
:103D000080916702882311F081E001C080E0882360
:103D100051F080912D0590912E05019690932E05DE
:103D200080932D053EC080912D0590912E05863003
:103D3000910554F080916302882321F480916702F9
:103D4000882311F081E001C080E0882391F0109277
:103D50002E0510922D0510926302109267028DE3DA
:103D600090E02DE330E0F90120812360FC01208305
:103D700018C080916302882369F4809167028823C8
:103D800049F480912D0590912E051816190614F40A
:103D900081E001C080E0882321F010922E0510926E
:103DA0002D0580912F05909130058630910554F4B2
:103DB00080916502882321F480916802882311F0A4
:103DC00081E001C080E0882351F080912F0590911F
:103DD000300501969093300580932F053EC0809169
:103DE0002F05909130058630910554F08091650241
:103DF000882321F480916802882311F081E001C0BA
:103E000080E0882391F01092300510922F051092D7
:103E10006502109268028DE390E02DE330E0F90135
:103E200020812360FC01208318C0809165028823D3
:103E300069F480916802882349F480912F0590915C
:103E400030051816190614F481E001C080E08823BB
:103E500021F01092300510922F0580916402882382
:103E600049F080913105909132058630910514F426
:103E700081E001C080E0882351F08091310590916C
:103E800032050196909332058093310530C08091C0
:103E90006402882349F08091310590913205863083
:103EA000910514F081E001C080E0882361F0109258
:103EB00064028DE390E02DE330E0F901208123607E
:103EC000FC01208314C080916402882349F480910E
:103ED0003105909132051816190614F481E001C0DD
:103EE00080E0882321F01092320510923105DF9195
:103EF000CF91FF91EF91BF91AF919F918F917F9162
:103F00006F915F914F913F912F910F9000925B00C5
:103F10000F900FBE0F901F9018950F931F93CF9384
:103F2000DF93CDB7DEB7E9970FB6F894DEBF0FBECB
:103F3000CDBF0E94932287E690E00E94EA220E9471
:103F4000922381E061E00E944D08789401C0000056
:103F500080916302882309F4A6C080915D028823C2
:103F600009F0A1C085E290E025E230E0F90120816E
:103F70002064FC01208380E090E8ABEBB4E48A830A
:103F80009B83AC83BD836A817B818C819D8120E092
:103F900030E04AE753E40E942527DC01CB018E8301
:103FA0009F83A887B98711E06E817F818885998575
:103FB00020E030E040E85FE30E94D72588230CF042
:103FC00010E0112329F081E090E09B878A874AC0A6
:103FD00011E06E817F818885998520E03FEF4FE772
:103FE00057E40E94212718160CF010E0112381F1EC
:103FF0006A817B818C819D8120E030E040E251E448
:104000000E942527DC01CB01BC01CD010E94432683
:10401000DC01CB019B878A8712C089E190E09D87F4
:104020008C878C859D858C01C8010197F1F78C01E7
:104030001D870C878A859B8501979B878A8721E04E
:104040008A859B85009709F420E0222331F717C069
:104050006E817F81888599850E944326DC01CB0192
:104060009B878A878A859B859F878E878E859F857C
:104070008C01F8013197F1F78F011F870E870E949D
:10408000170B8DE390E02DE330E0F90120812360F0
:10409000FC01208385E290E025E230E0F9012081F7
:1040A0002F7BFC01208380916502882309F4A4C042
:1040B00080915D02882309F09FC085E290E025E2AF
:1040C00030E0F90120812068FC01208380E090E845
:1040D000ABEBB4E4888B998BAA8BBB8B688979890D
:1040E0008A899B8920E030E04AE753E40E94252733
:1040F000DC01CB018C8B9D8BAE8BBF8B11E06C896F
:104100007D898E899F8920E030E040E85FE30E944E
:10411000D72588230CF010E0112329F081E090E0EE
:10412000998F888F4AC011E06C897D898E899F891B
:1041300020E03FEF4FE757E40E94212718160CF0CC
:1041400010E0112381F1688979898A899B8920E0AF
:1041500030E040E251E40E942527DC01CB01BC01A4
:10416000CD010E944326DC01CB01998F888F12C0BC
:1041700089E190E09B8F8A8F8A8D9B8D8C01C8018D
:104180000197F1F78C011B8F0A8F888D998D01970C
:10419000998F888F21E0888D998D009709F420E010
:1041A000222331F717C06C897D898E899F890E94EF
:1041B0004326DC01CB01998F888F888D998D9D8F47
:1041C0008C8F8C8D9D8D8C01F8013197F1F78F01CB
:1041D0001D8F0C8F85E290E025E230E0F90120810F
:1041E0002F77FC0120838DE390E02DE330E0F9018F
:1041F00020812360FC01208380916002882329F4C0
:1042000080916202882309F4B2C0809167028823FA
:1042100009F0ADC080915D02882309F0A8C08BE051
:1042200091E02BE031E0F90120812062FC01208344
:104230008DE390E02DE330E0F90120812C7FFC013B
:10424000208380E090E8ABEBB4E48E8F9F8FA8A32F
:10425000B9A36E8D7F8D88A199A120E030E04AE757
:1042600053E40E942527DC01CB018AA39BA3ACA3C6
:10427000BDA311E06AA17BA18CA19DA120E030E04B
:1042800040E85FE30E94D72588230CF010E011235B
:1042900029F081E090E09FA38EA34AC011E06AA1BB
:1042A0007BA18CA19DA120E03FEF4FE757E40E9446
:1042B000212718160CF010E0112381F16E8D7F8DEF
:1042C00088A199A120E030E040E251E40E94252736
:1042D000DC01CB01BC01CD010E944326DC01CB01F6
:1042E0009FA38EA312C089E190E099A788A788A513
:1042F00099A58C01C8010197F1F78C0119A708A7AE
:104300008EA19FA101979FA38EA321E08EA19FA1C3
:10431000009709F420E0222331F717C06AA17BA19E
:104320008CA19DA10E944326DC01CB019FA38EA3FB
:104330008EA19FA19BA78AA78AA59BA58C01F801A6
:104340003197F1F78F011BA70AA78BE091E02BE0D3
:1043500031E0F90120812F7DFC0120838DE390E085
:104360002DE330E0F90120812360FC01208380915E
:104370005E028823B1F080916702882391F48091D6
:104380005D02882371F419828981882341F081E0DC
:104390008093620210925F021092600202C010923B
:1043A000640280915D02882309F4B4C0F8948BE024
:1043B00091E02BE031E0F90120812068FC012083AD
:1043C00080E090E8ABEBB4E48CA79DA7AEA7BFA7B5
:1043D0006CA57DA58EA59FA520E030E04AE753E4BB
:1043E0000E942527DC01CB0188AB99ABAAABBBAB04
:1043F00011E068A979A98AA99BA920E030E040E8EA
:104400005FE30E94D72588230CF010E0112329F0E8
:1044100081E090E09DAB8CAB4AC011E068A979A91E
:104420008AA99BA920E03FEF4FE757E40E9421278C
:1044300018160CF010E0112381F16CA57DA58EA556
:104440009FA520E030E040E251E40E942527DC01F6
:10445000CB01BC01CD010E944326DC01CB019DAB09
:104460008CAB12C089E190E09FAB8EAB8EA99FA967
:104470008C01C8010197F1F78C011FAB0EAB8CA921
:104480009DA901979DAB8CAB21E08CA99DA90097BC
:1044900009F420E0222331F717C068A979A98AA975
:1044A0009BA90E944326DC01CB019DAB8CAB8CA960
:1044B0009DA999AF88AF88AD99AD8C01F80131976E
:1044C000F1F78F0119AF08AF8BE091E0FC0110828A
:1044D00085E290E025E230E0F90120812F71FC01B6
:1044E000208388E091E028E031E0F90120812E7FEF
:1044F000FC01208383E590E024E0FC01208383E538
:1045000090E023E530E0F90120812160FC01208367
:104510007894889580916102882309F418CD81E010
:104520008093600214CDCF93DF93CDB7DEB784E2E2
:1045300090E0FC01108287E290E0FC0110828AE2A8
:1045400090E0FC0110828DE290E0FC01108280E39B
:1045500090E0FC01108283E390E0FC01108281E096
:1045600091E0FC01108284E091E0FC01108287E080
:1045700091E0FC0110828AE091E0FC01108285E26A
:1045800090E0FC01108288E290E0FC0110828BE256
:1045900090E0FC0110828EE290E0FC01108281E349
:1045A00090E0FC01108284E390E0FC01108282E044
:1045B00091E0FC01108285E091E0FC01108288E02E
:1045C00091E0FC0110828BE091E0FC011082DF9110
:1045D000CF910895CF93DF930F920F92CDB7DEB7AF
:1045E0009A83898384EC90E02981FC01208385EC07
:1045F00090E029813A81232F3327FC0120838CEC22
:1046000090E02981FC0120838DEC90E029813A81A2
:10461000232F3327FC01208381EC90E028E1FC016B
:10462000208382EC90E026E0FC01208389EC90E07E
:1046300028E1FC0120838AEC90E026E0FC01208345
:104640008AE091E02FEFFC0120838BE091E0FC01F8
:10465000108284E290E024E230E0F9012081206EB3
:10466000FC01208385E290E025E230E0F901208121
:104670002F71FC01208384E690E024E630E0F9010C
:1046800020812D6AFC01208389E690E02FE0FC0167
:1046900020838AE690E020EFFC0120838DE390E008
:1046A0002DE330E0F90120812C7FFC0120838DE394
:1046B00090E02DE330E0F90120812F7BFC01208385
:1046C0008DE390E02DE330E0F90120812068FC01CA
:1046D000208381E080935C0210925D0210925E0262
:1046E00010925F02109260021092610210926202B8
:1046F0001092630210926502109267021092680293
:1047000010926402109266028DE390E02DE330E097
:10471000F90120812360FC0120830F900F90DF912D
:10472000CF9108950F931F93CF93DF93CDB7DEB74B
:104730002E970FB6F894DEBF0FBECDBF84E690E093
:1047400024E630E0F90120812F7BFC01208380E00A
:1047500090E0A0E0B0E489839A83AB83BC83698155
:104760007A818B819C8120E030E04AE753E40E940B
:104770002527DC01CB018D839E83AF83B88711E0B1
:104780006D817E818F81988520E030E040E85FE395
:104790000E94D72588230CF010E0112329F081E036
:1047A00090E09A8789874AC011E06D817E818F8170
:1047B000988520E03FEF4FE757E40E942127181625
:1047C0000CF010E0112381F169817A818B819C8149
:1047D00020E030E040E251E40E942527DC01CB01DB
:1047E000BC01CD010E944326DC01CB019A87898759
:1047F00012C089E190E09C878B878B859C858C011A
:10480000C8010197F1F78C011C870B8789859A8570
:1048100001979A87898721E089859A85009709F40D
:1048200020E0222331F717C06D817E818F8198852A
:104830000E944326DC01CB019A87898789859A8566
:104840009E878D878D859E858C01F8013197F1F7C4
:104850008F011E870D8786EB90E026EB30E0F90193
:1048600020812062FC01208381EB90E021EB30E08D
:10487000F90120812560FC01208386EB90E0FC019A
:104880008081882F90E08171907021E0009709F479
:1048900020E0222391F787E390E021E0FC012083D0
:1048A00080E790E021E0FC0120832E960FB6F8947B
:1048B000DEBF0FBECDBFDF91CF911F910F91089545
:1048C000CF93DF9300D000D0CDB7DEB79E838D832A
:1048D00089E692E00E94D504882F90E09A8389832C
:1048E00089819A819C018D819E81820F931F2CE387
:1048F00030E0B9010E9488279C838B8301C00000AF
:1049000089E692E00E94D504282F30E08B819C81BB
:1049100041E02817390709F440E0442381F726963F
:104920000FB6F894DEBF0FBECDBFDF91CF910895D3
:10493000CF93DF93CDB7DEB784E690E024E630E096
:10494000F9012081277FFC01208381E890E021E8A4
:1049500030E0F90120812460FC01208386E390E0AF
:1049600021E0FC01208384E890E0FC0111821082A8
:104970008FE690E021E0FC0120838DE390E02DE3C1
:1049800030E0F90120812064FC012083DF91CF9188
:104990000895CF93DF93CDB7DEB784E690E024E6A9
:1049A00030E0F90120812F7DFC01208384E490E038
:1049B00022E0FC01208385E490E024E0FC012083D8
:1049C00087E490E020E8FC01208386E490E0FC018D
:1049D00010828EE690E022E0FC012083DF91CF91EF
:1049E0000895CF93DF9300D00F92CDB7DEB71C822E
:1049F0001B821A8219821CC08AE790E02AE730E005
:104A0000F90120812064FC0120838AE790E0FC0109
:104A10008081882F90E08074907021E0009709F4E5
:104A200020E0222391F789819A8101969A838983D4
:104A300021E089819A81823091050CF020E02223C7
:104A4000D9F688E790E0FC018081882F90E09C8374
:104A50008B8389E790E0FC018081882F90E0982F7C
:104A600088279C018B819C81822B932B9C838B8339
:104A70008B819C810F900F900F900F90DF91CF91C1
:104A80000895CF93DF9300D00F92CDB7DEB79A830E
:104A900089837C836B8389819A818130910571F44C
:104AA0008B819C812FEF8F3F920741F489E692E042
:104AB0000E94500481E992E00E94611A0F900F90C9
:104AC0000F900F90DF91CF910895CF93DF93CDB7E3
:104AD000DEB781E090E06FEF7FEF0E944125DF912C
:104AE000CF9108955058BB27AA270ED070C161D12D
:104AF00030F066D120F031F49F3F11F41EF456C11E
:104B00000EF4E095E7FB4CC1E92F72D180F3BA17A0
:104B1000620773078407950718F071F49EF58AC140
:104B20000EF4E0950B2EBA2FA02D0B01B9019001C8
:104B30000C01CA01A0011124FF27591B99F0593F0C
:104B400050F4503E68F11A16F040A22F232F342F54
:104B50004427585FF3CF469537952795A795F040A2
:104B60005395C9F77EF41F16BA0B620B730B840BB7
:104B7000BAF09150A1F0FF0FBB1F661F771F881F6F
:104B8000C2F70EC0BA0F621F731F841F48F48795C7
:104B900077956795B795F7959E3F08F0B3CF9395B6
:104BA000880F08F09927EE0F979587950895D4D030
:104BB00008F481E008950CD00AC102D140F0F9D088
:104BC00030F021F45F3F19F0EBC0511134C1EEC059
:104BD0000FD198F39923C9F35523B1F3951B550BC6
:104BE000BB27AA2762177307840738F09F5F5F4FC0
:104BF000220F331F441FAA1FA9F333D00E2E3AF001
:104C0000E0E830D091505040E695001CCAF729D01A
:104C1000FE2F27D0660F771F881FBB1F2617370769
:104C20004807AB07B0E809F0BB0B802DBF01FF2799
:104C300093585F4F2AF09E3F510568F0B1C0FBC00A
:104C40005F3FECF3983EDCF3869577956795B795D3
:104C5000F7959F5FC9F7880F911D9695879597F9EE
:104C60000895E1E0660F771F881FBB1F6217730767
:104C70008407BA0720F0621B730B840BBA0BEE1F7C
:104C800088F7E0950895BCD088F09F5790F0B92F31
:104C90009927B751A0F0D1F0660F771F881F991F91
:104CA0001AF0BA95C9F712C0B13081F0C3D0B1E0A3
:104CB0000895C0C0672F782F8827B85F39F0B93FB3
:104CC000CCF3869577956795B395D9F73EF4909593
:104CD0008095709561957F4F8F4F9F4F0895E89411
:104CE00009C097FB3EF490958095709561957F4F34
:104CF0008F4F9F4F9923A9F0F92F96E9BB279395E2
:104D0000F695879577956795B795F111F8CFFAF4F1
:104D1000BB0F11F460FF1BC06F5F7F4F8F4F9F4F22
:104D200016C0882311F096E911C0772321F09EE880
:104D3000872F762F05C0662371F096E8862F70E0E6
:104D400060E02AF09A95660F771F881FDAF7880FC0
:104D50009695879597F90895990F0008550FAA0B16
:104D6000E0E8FEEF16161706E807F907C0F012167E
:104D70001306E407F50798F0621B730B840B950B81
:104D800039F40A2661F0232B242B252B21F40895D6
:104D90000A2609F4A140A6958FEF811D811D089573
:104DA00097F99F6780E870E060E008959FEF80ECDE
:104DB000089500240A941616170618060906089581
:104DC00000240A9412161306140605060895092EE7
:104DD0000394000C11F4882352F0BB0F40F4BF2B56
:104DE00011F460FF04C06F5F7F4F8F4F9F4F089596
:104DF00057FD9058440F551F59F05F3F71F047958C
:104E0000880F97FB991F61F09F3F79F08795089570
:104E1000121613061406551FF2CF4695F1DF08C08F
:104E2000161617061806991FF1CF869571056105AC
:104E300008940895E894BB2766277727CB0197F954
:104E400008958ADF08F48FEF08950BD0C0CFB1DF4B
:104E500028F0B6DF18F0952309F0A2CFA7CF1124D0
:104E6000EACFC6DFA0F3959FD1F3950F50E0551F11
:104E7000629FF001729FBB27F00DB11D639FAA27AF
:104E8000F00DB11DAA1F649F6627B00DA11D661FFE
:104E9000829F2227B00DA11D621F739FB00DA11D1F
:104EA000621F839FA00D611D221F749F3327A00DD9
:104EB000611D231F849F600D211D822F762F6A2F75
:104EC00011249F5750408AF0E1F088234AF0EE0FFA
:104ED000FF1FBB1F661F771F881F91505040A9F707
:104EE0009E3F510570F05CCFA6CF5F3FECF3983E3C
:104EF000DCF3869577956795B795F795E7959F5F6E
:104F0000C1F7FE2B880F911D9695879597F9089507
:104F1000AA1BBB1B51E107C0AA1FBB1FA617B707DF
:104F200010F0A61BB70B881F991F5A95A9F78095FB
:104F30009095BC01CD01089597FB092E07260AD054
:104F400077FD04D0E5DF06D000201AF47095619556
:104F50007F4F0895F6F7909581959F4F089507909C
:104F6000F691E02D1994FC0188279927E894219166
:104F70002032E9F3293010F02E30C8F32B3241F003
:104F80002D3239F4689404C00E941B28820F911DB1
:104F9000219120532A30C0F31EF4909581959F4FA4
:104FA0000895FB01DC010D900020E9F711970190B5
:104FB0000D920020E1F70895FB01DC018D91019035
:104FC00080190110D9F3990B0895FB01DC010190C0
:104FD0000D920020E1F70895FB01DC0141505040A3
:104FE00030F08D910190801919F40020B9F7881BD9
:104FF000990B0895FB019F01E8944230C4F04532BB
:10500000B4F44A3029F497FB1EF4909581959F4F94
:10501000642F77270E948827805D8A330CF0895D92
:105020008193CB010097A1F716F45DE251931082B2
:10503000C9010C9444287AE0979F902D879F802D7A
:10504000910D11240895F999FECF92BD81BDF89A72
:10505000992780B50895A8E1B0E042E050E00C94B3
:105060005628262FF999FECF1FBA92BD81BD20BDCB
:105070000FB6F894FA9AF99A0FBE019608950E9415
:105080003128272F0C943228DC01FC01672F719105
:105090007723E1F7329704C07C916D93708362911E
:1050A000AE17BF07C8F30895DC01CB01FC01F999E5
:1050B000FECF06C0F2BDE1BDF89A319600B40D9264
:0C50C00041505040B8F70895F894FFCF1D
:1050CC0041434B4552524F522E0053594E444F4E72
:1050DC00452E0053594E47422E0041434B47422E1A
:1050EC000041434B4241442E0041434B472E00416B
:1050FC00434B4E4545442E0041434B4E4F2E0053DF
:10510C00594E4E4545442E0053594E002E00004139
:0C511C00434B572E0041434B422E000035
:00000001FF
