:100000000C943E000C945B000C945B000C945B0021
:100010000C945B000C945B000C945B000C945B00F4
:100020000C945B000C945B000C945B000C945D00E2
:100030000C945B000C945B000C945B000C945B00D4
:100040000C945B000C945B000C945B000C945B00C4
:100050000C945B000C945B000C945B000C945B00B4
:100060000C945B000C945B000C945B000C945B00A4
:100070000C945B000C945B000C945B0011241FBE7D
:10008000CFEFD0E1DEBFCDBF11E0A0E0B1E0EEE404
:10009000F6E002C005900D92A230B107D9F711E049
:1000A000A2E0B1E001C01D92A630B107E1F70E94C5
:1000B00083000C9425030C9400001F920F920FB63E
:1000C0000F9211242F933F938F939F93EF93FF935E
:1000D000CF93DF93CDB7DEB78BE290E02BE230E039
:1000E000F901308120E82327FC012083DF91CF91A3
:1000F000FF91EF919F918F913F912F910F900FBEA4
:100100000F901F901895CF93DF9300D0CDB7DEB737
:100110000E94C20081E890E00E94E90088EC90E033
:100120000E949E010E946001198281E08A8301C0C1
:1001300000000E940B02809104019091050122E0D1
:100140008C3B920748F48981882331F00E94E202B7
:10015000198281E08A83ECCF80910401909105019E
:1001600022E08C3B920720F38A81882309F389815E
:100170008823F1F688EE93E00E949E0281E0898355
:100180001A82D6CFCF93DF93CDB7DEB781E290E06E
:10019000FC01108284E290E0FC01108287E290E092
:1001A000FC0110828AE290E0FC01108282E290E081
:1001B000FC01108285E290E0FC01108288E290E070
:1001C000FC0110828BE290E0FC011082DF91CF9164
:1001D0000895CF93DF9300D0CDB7DEB79A8389839C
:1001E00084EC90E02981FC01208385EC90E029815A
:1001F0003A81232F3327FC01208381EC90E028E112
:10020000FC01208382EC90E026E0FC01208384E660
:1002100090E024E630E0F90120812D6FFC0120837D
:100220008AE290E02AE230E0F90120812068FC01B6
:10023000208387E290E027E230E0F901208124600A
:10024000FC0120838BE290E02BE230E0F901208179
:100250002F77FC01208388E290E028E230E0F9016A
:1002600020812460FC01208381E290E021E230E0E3
:10027000F9012081206DFC01208384E290E024E2DA
:1002800030E0F90120812160FC01208387E290E0C9
:1002900027E230E0F90120812160FC0120830E94E7
:1002A000E20285E290E025E230E0F90120812E7F34
:1002B000FC01208378940F900F90DF91CF910895E7
:1002C000CF93DF93CDB7DEB784E690E024E630E04D
:1002D000F90120812F7BFC01208381E090E00E94C6
:1002E0009E0186EB90E026EB30E0F9012081206250
:1002F000FC01208381EB90E021EB30E0F9012081CB
:100300002560FC01208386EB90E0FC018081882F32
:1003100090E08171907021E0009709F420E02223A1
:1003200091F787E390E021E0FC01208380E790E0F3
:1003300021E0FC012083DF91CF910895CF93DF93DB
:1003400000D000D0CDB7DEB79C838B8318C01A8253
:10035000198206C0000089819A8101969A83898357
:1003600089819A8121E033E0803293070CF020E00C
:10037000222381F78B819C8101979C838B838B81C6
:100380009C8121E0181619060CF020E02223F9F6D2
:100390000F900F900F900F90DF91CF910895CF9312
:1003A000DF9300D000D0CDB7DEB7789485E090E041
:1003B0009A8389831C821B8283E590E026E0FC01FE
:1003C000208383E590E023E530E0F901208121607E
:1003D000FC01208381E090E00E949E0106C0889588
:1003E0008B819C8101969C838B832B813C818981AD
:1003F0009A8141E0281739070CF040E0442379F74F
:100400008AE090E00E949E010F900F900F900F9055
:10041000DF91CF910895CF93DF9300D000D0CDB777
:10042000DEB71C821B82F89484E690E024E630E07C
:10043000F90120812E7FFC0120838CE790E02CE7DE
:1004400030E0F90120812068FC0120838AE790E0F8
:100450002AE730E0F90120812468FC0120838EE73F
:1004600090E02EEFFC01208385E090E00E949E0149
:100470001A8219821CC08AE790E02AE730E0F9016D
:1004800020812064FC0120838AE790E0FC018081C8
:10049000882F90E08074907021E0009709F420E0AC
:1004A000222391F789819A8101969A83898321E099
:1004B00089819A81823091050CF020E02223D9F6BF
:1004C00088E790E0FC018081882F90E09C838B83FB
:1004D00089E790E0FC018081882F90E0982F8827A1
:1004E0002B813C81822B932B9C838B8378948AE78E
:1004F00090E0FC0110828CE790E0FC0110828EE716
:1005000090E02EE730E0F90120812160FC0120839A
:1005100084E690E024E630E0F90120812160FC01CE
:1005200020838B819C8190930501809304010F901F
:100530000F900F900F90DF91CF910895CF93DF939D
:1005400000D0CDB7DEB79A838983F89488E290E033
:1005500028E230E0F90120812160FC0120838981BB
:100560009A810E949E0182E290E022E230E0F9014D
:100570002081206CFC01208389819A810E949E0148
:1005800082E290E022E230E0F90120812061FC016A
:10059000208389819A810E949E0182E290E022E27A
:1005A00030E0F90120812062FC01208389819A8159
:1005B000880F991F0E949E0178940F900F90DF91F1
:1005C000CF910895CF93DF93CDB7DEB7F89482E251
:1005D00090E022E230E0F90120812C60FC012083D0
:1005E00088EB9BE00E949E0182E290E022E230E0F4
:1005F000F9012081237FFC01208382E290E022E246
:1006000030E0F90120812F7DFC01208382E290E01F
:1006100022E230E0F90120812F73FC01208382E285
:1006200090E022E230E0F90120812F7EFC0120835E
:1006300088E290E028E230E0F90120812E7FFC0181
:0E06400020837894DF91CF910895F894FFCF36
:02064E000400A6
:00000001FF
