S00F0000706362546573742E7372656340
S11300000C9472000C9494000C9494000C9494003E
S11300100C9494000C9494000C9494000C9494000C
S11300200C94C2000C9494000C9494000C949400CE
S11300300C9494000C9494000C9494000C949600EA
S11300400C9494000C9494000C9494000C949400DC
S11300500C9494000C9494000C9494000C949400CC
S11300600C9494000C9494000C9494000C949400BC
S11300700C9494000C9494000C9494000C949400AC
S11300800C9494000C9494000C9494000C9494009C
S11300900C9494000C9494000C9494000C9494008C
S11300A00C9494000C9494000C9494000C9494007C
S11300B00C9494000C9494000C9494000C9494006C
S11300C00C9494000C9494000C9494000C9494005C
S11300D00C9494000C9494000C9494000C9494004C
S11300E00C94940011241FBECFEFD1E2DEBFCDBF2C
S11300F000E00CBF12E0A0E0B2E0EEECF4E000E0BF
S11301000BBF02C007900D92A030B107D9F71BBEF8
S113011012E0A0E0B2E001C01D92A530B107E1F702
S11301200E94DE000C9465020C9400001F920F9252
S11301300FB60F9200905B000F9211242F933F9300
S11301408F939F93EF93FF93CF93DF93CDB7DEB756
S113015085E290E025E230E0F901308120E22327B6
S1130160FC012083DF91CF91FF91EF919F918F91BB
S11301703F912F910F9000925B000F900FBE0F9054
S11301801F9018951F920F920FB60F9211248F9300
S1130190CF93DF93CDB7DEB780910402882319F0A3
S11301A01092040203C081E080930402DF91CF9196
S11301B08F910F900FBE0F901F901895CF93DF93E0
S11301C00F920F92CDB7DEB70E94FC0083E390E05C
S11301D00E945B0188EC90E00E9434020E94F601C8
S11301E0198281E08A8380910402882319F00E9495
S11301F0B401F9CF0000F7CFCF93DF93CDB7DEB7CB
S113020081E290E0FC01108284E290E0FC01108223
S113021087E290E0FC0110828AE290E0FC01108207
S11302208DE290E0FC01108280E390E0FC011082FA
S113023083E390E0FC01108281E091E0FC011082F4
S113024084E091E0FC01108287E091E0FC011082DF
S11302508AE091E0FC0110828EE290E0FC011082C1
S113026081E390E0FC01108284E390E0FC011082C1
S113027082E091E0FC01108285E091E0FC011082B3
S113028088E091E0FC0110828BE091E0FC01108297
S113029082E290E0FC01108285E290E0FC01108291
S11302A088E290E0FC0110828BE290E0FC01108275
S11302B0DF91CF910895CF93DF930F920F92CDB733
S11302C0DEB79A83898384EC90E02981FC01208342
S11302D085EC90E029813A81232F3327FC01208388
S11302E081EC90E028E1FC01208382EC90E026E0A0
S11302F0FC01208384E690E024E630E0F9012081CB
S11303002D6EFC0120838AE091E0FC0180818AE06B
S113031091E02FEFFC0120838BE091E0FC0110823F
S113032084E290E024E230E0F9012081206EFC01B7
S113033020838AE690E020ECFC0120838DE390E0AA
S113034020E8FC01208388E091E028E031E0F90115
S113035020812160FC0120831092040278940F9084
S11303600F90DF91CF910895CF93DF93CDB7DEB790
S11303708BE091E02BE031E0F90120812068FC0161
S1130380208388EE93E00E9434028BE091E02BE01E
S113039031E0F90120812F77FC01208385E290E090
S11303A025E230E0F90120812F7DFC01208388E0E3
S11303B091E028E031E0F90120812E7FFC012083C7
S11303C083E590E024E0FC01208383E590E023E5CD
S11303D030E0F90120812160FC01208381E090E07C
S11303E00E9434028895DF91CF910895CF93DF93D3
S11303F0CDB7DEB784E690E024E630E0F901208151
S11304002F7BFC01208381E090E00E94340286EB84
S113041090E026EB30E0F90120812062FC0120838A
S113042081EB90E021EB30E0F90120812560FC01B3
S1130430208386EB90E0FC018081882F90E081711D
S1130440907021E0009709F420E0222391F787E3DC
S113045090E021E0FC01208380E790E021E0FC01B2
S11304602083DF91CF910895CF93DF9300D00F9233
S1130470CDB7DEB79C838B8318C01A82198206C05D
S1130480000089819A8101969A83898389819A815E
S113049021E033E0803293070CF020E0222381F73F
S11304A08B819C8101979C838B838B819C8121E030
S11304B0181619060CF020E02223F9F60F900F907D
S11104C00F900F90DF91CF910895F894FFCF25
S9030000FC
