:100000000C943E000C945B000C945B000C945B0021
:100010000C945B000C945B000C945B000C945B00F4
:100020000C945B000C945B000C945B000C945D00E2
:100030000C945B000C945B000C945B000C945B00D4
:100040000C945B000C945B000C945B000C945B00C4
:100050000C945B000C945B000C945B000C945B00B4
:100060000C945B000C945B000C945B000C945B00A4
:100070000C945B000C945B000C945B0011241FBE7D
:10008000CFEFD0E1DEBFCDBF11E0A0E0B1E0EAEEFE
:10009000F3E002C005900D92A230B107D9F711E04C
:1000A000A2E0B1E001C01D92A230B107E1F70E94C9
:1000B00083000C94F3010C9400001F920F920FB672
:1000C0000F9211242F933F938F939F93EF93FF935E
:1000D000CF93DF93CDB7DEB78BE290E02BE230E039
:1000E000F901308120E82327FC012083DF91CF91A3
:1000F000FF91EF919F918F913F912F910F900FBEA4
:100100000F901F901895CF93DF93CDB7DEB70E9465
:10011000AC0081E890E00E94D30088EC90E00E945F
:1001200086010E94480185E290E025E230E0F90175
:1001300020812160FC01208380ED97E00E948601F0
:1001400085E290E025E230E0F90120812E7FFC017C
:1001500020830E94B701E7CFCF93DF93CDB7DEB7FF
:1001600081E290E0FC01108284E290E0FC011082C8
:1001700087E290E0FC0110828AE290E0FC011082AC
:1001800082E290E0FC01108285E290E0FC011082A6
:1001900088E290E0FC0110828BE290E0FC0110828A
:1001A000DF91CF910895CF93DF9300D0CDB7DEB725
:1001B0009A83898384EC90E02981FC01208385EC7B
:1001C00090E029813A81232F3327FC01208381ECA1
:1001D00090E028E1FC01208382EC90E026E0FC0125
:1001E000208384E690E024E630E0F90120812D6F41
:1001F000FC0120838AE290E02AE230E0F9012081CC
:100200002068FC01208387E290E027E230E0F901DA
:1002100020812460FC0120838BE290E02BE230E01F
:10022000F90120812F77FC01208388E290E028E209
:1002300030E0F90120812460FC01208381E290E01C
:1002400021E230E0F9012081206DFC01208384E26D
:1002500090E024E230E0F90120812160FC0120835C
:1002600087E290E027E230E0F90120812160FC0183
:10027000208382E290E022E230E0F9012081206FC9
:10028000FC01208378940F900F90DF91CF91089517
:10029000CF93DF93CDB7DEB784E690E024E630E07D
:1002A000F90120812F7BFC01208381E090E00E94F6
:1002B000860186EB90E026EB30E0F9012081206298
:1002C000FC01208381EB90E021EB30E0F9012081FB
:1002D0002560FC01208386EB90E0FC018081882F63
:1002E00090E08171907021E0009709F420E02223D2
:1002F00091F787E390E021E0FC01208380E790E024
:1003000021E0FC012083DF91CF910895CF93DF930B
:1003100000D000D0CDB7DEB79C838B8318C01A8283
:10032000198206C0000089819A8101969A83898387
:1003300089819A8121E033E0803293070CF020E03C
:10034000222381F78B819C8101979C838B838B81F6
:100350009C8121E0181619060CF020E02223F9F602
:100360000F900F900F900F90DF91CF910895CF9342
:10037000DF9300D000D0CDB7DEB7789485E090E071
:100380009A8389831C821B8283E590E026E0FC012E
:10039000208383E590E023E530E0F90120812160AE
:1003A000FC01208381E090E00E94860106C08895D0
:1003B0008B819C8101969C838B832B813C818981DD
:1003C0009A8141E0281739070CF040E0442379F77F
:1003D0008AE090E00E9486010F900F900F900F909E
:0A03E000DF91CF910895F894FFCF4C
:0203EA0004000D
:00000001FF
